{
  "_format": "hh-sol-artifact-1",
  "contractName": "MyEpicNFT",
  "sourceName": "contracts/MyEpicNFT.sol",
  "abi": [
    {
      "inputs": [],
      "stateMutability": "payable",
      "type": "constructor"
    },
    {
      "anonymous": false,
      "inputs": [
        {
          "indexed": true,
          "internalType": "address",
          "name": "owner",
          "type": "address"
        },
        {
          "indexed": true,
          "internalType": "address",
          "name": "approved",
          "type": "address"
        },
        {
          "indexed": true,
          "internalType": "uint256",
          "name": "tokenId",
          "type": "uint256"
        }
      ],
      "name": "Approval",
      "type": "event"
    },
    {
      "anonymous": false,
      "inputs": [
        {
          "indexed": true,
          "internalType": "address",
          "name": "owner",
          "type": "address"
        },
        {
          "indexed": true,
          "internalType": "address",
          "name": "operator",
          "type": "address"
        },
        {
          "indexed": false,
          "internalType": "bool",
          "name": "approved",
          "type": "bool"
        }
      ],
      "name": "ApprovalForAll",
      "type": "event"
    },
    {
      "anonymous": false,
      "inputs": [
        {
          "indexed": false,
          "internalType": "address",
          "name": "sender",
          "type": "address"
        },
        {
          "indexed": false,
          "internalType": "uint256",
          "name": "tokenId",
          "type": "uint256"
        }
      ],
      "name": "NewEpicNFTMinted",
      "type": "event"
    },
    {
      "anonymous": false,
      "inputs": [
        {
          "indexed": true,
          "internalType": "address",
          "name": "previousOwner",
          "type": "address"
        },
        {
          "indexed": true,
          "internalType": "address",
          "name": "newOwner",
          "type": "address"
        }
      ],
      "name": "OwnershipTransferred",
      "type": "event"
    },
    {
      "anonymous": false,
      "inputs": [
        {
          "indexed": false,
          "internalType": "address",
          "name": "",
          "type": "address"
        },
        {
          "indexed": false,
          "internalType": "uint256",
          "name": "",
          "type": "uint256"
        }
      ],
      "name": "Received",
      "type": "event"
    },
    {
      "anonymous": false,
      "inputs": [
        {
          "indexed": true,
          "internalType": "address",
          "name": "from",
          "type": "address"
        },
        {
          "indexed": true,
          "internalType": "address",
          "name": "to",
          "type": "address"
        },
        {
          "indexed": true,
          "internalType": "uint256",
          "name": "tokenId",
          "type": "uint256"
        }
      ],
      "name": "Transfer",
      "type": "event"
    },
    {
      "inputs": [
        {
          "internalType": "address",
          "name": "to",
          "type": "address"
        },
        {
          "internalType": "uint256",
          "name": "tokenId",
          "type": "uint256"
        }
      ],
      "name": "approve",
      "outputs": [],
      "stateMutability": "nonpayable",
      "type": "function"
    },
    {
      "inputs": [
        {
          "internalType": "address",
          "name": "owner",
          "type": "address"
        }
      ],
      "name": "balanceOf",
      "outputs": [
        {
          "internalType": "uint256",
          "name": "",
          "type": "uint256"
        }
      ],
      "stateMutability": "view",
      "type": "function"
    },
    {
      "inputs": [
        {
          "internalType": "address",
          "name": "_to",
          "type": "address"
        }
      ],
      "name": "crossmint",
      "outputs": [],
      "stateMutability": "payable",
      "type": "function"
    },
    {
      "inputs": [
        {
          "internalType": "uint256",
          "name": "tokenId",
          "type": "uint256"
        }
      ],
      "name": "getApproved",
      "outputs": [
        {
          "internalType": "address",
          "name": "",
          "type": "address"
        }
      ],
      "stateMutability": "view",
      "type": "function"
    },
    {
      "inputs": [],
      "name": "getCurrentSupply",
      "outputs": [
        {
          "internalType": "uint256",
          "name": "",
          "type": "uint256"
        }
      ],
      "stateMutability": "view",
      "type": "function"
    },
    {
      "inputs": [],
      "name": "getPrice",
      "outputs": [
        {
          "internalType": "uint256",
          "name": "",
          "type": "uint256"
        }
      ],
      "stateMutability": "view",
      "type": "function"
    },
    {
      "inputs": [],
      "name": "getRoyalty",
      "outputs": [
        {
          "internalType": "uint256",
          "name": "",
          "type": "uint256"
        }
      ],
      "stateMutability": "view",
      "type": "function"
    },
    {
      "inputs": [
        {
          "internalType": "address",
          "name": "owner",
          "type": "address"
        },
        {
          "internalType": "address",
          "name": "operator",
          "type": "address"
        }
      ],
      "name": "isApprovedForAll",
      "outputs": [
        {
          "internalType": "bool",
          "name": "",
          "type": "bool"
        }
      ],
      "stateMutability": "view",
      "type": "function"
    },
    {
      "inputs": [
        {
          "internalType": "address[2]",
          "name": "artists",
          "type": "address[2]"
        }
      ],
      "name": "makeAnEpicNFT",
      "outputs": [],
      "stateMutability": "payable",
      "type": "function"
    },
    {
      "inputs": [],
      "name": "name",
      "outputs": [
        {
          "internalType": "string",
          "name": "",
          "type": "string"
        }
      ],
      "stateMutability": "view",
      "type": "function"
    },
    {
      "inputs": [],
      "name": "owner",
      "outputs": [
        {
          "internalType": "address",
          "name": "",
          "type": "address"
        }
      ],
      "stateMutability": "view",
      "type": "function"
    },
    {
      "inputs": [
        {
          "internalType": "uint256",
          "name": "tokenId",
          "type": "uint256"
        }
      ],
      "name": "ownerOf",
      "outputs": [
        {
          "internalType": "address",
          "name": "",
          "type": "address"
        }
      ],
      "stateMutability": "view",
      "type": "function"
    },
    {
      "inputs": [],
      "name": "renounceOwnership",
      "outputs": [],
      "stateMutability": "nonpayable",
      "type": "function"
    },
    {
      "inputs": [],
      "name": "returnTokenID",
      "outputs": [
        {
          "internalType": "uint256",
          "name": "",
          "type": "uint256"
        }
      ],
      "stateMutability": "view",
      "type": "function"
    },
    {
      "inputs": [
        {
          "internalType": "address",
          "name": "from",
          "type": "address"
        },
        {
          "internalType": "address",
          "name": "to",
          "type": "address"
        },
        {
          "internalType": "uint256",
          "name": "tokenId",
          "type": "uint256"
        }
      ],
      "name": "safeTransferFrom",
      "outputs": [],
      "stateMutability": "nonpayable",
      "type": "function"
    },
    {
      "inputs": [
        {
          "internalType": "address",
          "name": "from",
          "type": "address"
        },
        {
          "internalType": "address",
          "name": "to",
          "type": "address"
        },
        {
          "internalType": "uint256",
          "name": "tokenId",
          "type": "uint256"
        },
        {
          "internalType": "bytes",
          "name": "_data",
          "type": "bytes"
        }
      ],
      "name": "safeTransferFrom",
      "outputs": [],
      "stateMutability": "nonpayable",
      "type": "function"
    },
    {
      "inputs": [
        {
          "internalType": "address",
          "name": "operator",
          "type": "address"
        },
        {
          "internalType": "bool",
          "name": "approved",
          "type": "bool"
        }
      ],
      "name": "setApprovalForAll",
      "outputs": [],
      "stateMutability": "nonpayable",
      "type": "function"
    },
    {
      "inputs": [],
      "name": "setPriceAndShare",
      "outputs": [],
      "stateMutability": "nonpayable",
      "type": "function"
    },
    {
      "inputs": [
        {
          "internalType": "bytes4",
          "name": "interfaceId",
          "type": "bytes4"
        }
      ],
      "name": "supportsInterface",
      "outputs": [
        {
          "internalType": "bool",
          "name": "",
          "type": "bool"
        }
      ],
      "stateMutability": "view",
      "type": "function"
    },
    {
      "inputs": [],
      "name": "symbol",
      "outputs": [
        {
          "internalType": "string",
          "name": "",
          "type": "string"
        }
      ],
      "stateMutability": "view",
      "type": "function"
    },
    {
      "inputs": [
        {
          "internalType": "uint256",
          "name": "tokenId",
          "type": "uint256"
        }
      ],
      "name": "tokenURI",
      "outputs": [
        {
          "internalType": "string",
          "name": "",
          "type": "string"
        }
      ],
      "stateMutability": "view",
      "type": "function"
    },
    {
      "inputs": [
        {
          "internalType": "address",
          "name": "from",
          "type": "address"
        },
        {
          "internalType": "address",
          "name": "to",
          "type": "address"
        },
        {
          "internalType": "uint256",
          "name": "tokenId",
          "type": "uint256"
        }
      ],
      "name": "transferFrom",
      "outputs": [],
      "stateMutability": "nonpayable",
      "type": "function"
    },
    {
      "inputs": [
        {
          "internalType": "address",
          "name": "newOwner",
          "type": "address"
        }
      ],
      "name": "transferOwnership",
      "outputs": [],
      "stateMutability": "nonpayable",
      "type": "function"
    },
    {
      "stateMutability": "payable",
      "type": "receive"
    }
  ],
  "bytecode": "0x6080604052610190600a55610190600b556109c4600c556040518060400160405280600a81526020017f437573746f6d204e4654000000000000000000000000000000000000000000008152506040518060400160405280600381526020017f4e4654000000000000000000000000000000000000000000000000000000000081525081600090805190602001906200009a9291906200028d565b508060019080519060200190620000b39291906200028d565b505050620000d6620000ca6200012d60201b60201c565b6200013560201b60201c565b30600960006101000a81548173ffffffffffffffffffffffffffffffffffffffff021916908373ffffffffffffffffffffffffffffffffffffffff16021790555062000127620001fb60201b60201c565b620003a2565b600033905090565b6000600760009054906101000a900473ffffffffffffffffffffffffffffffffffffffff16905081600760006101000a81548173ffffffffffffffffffffffffffffffffffffffff021916908373ffffffffffffffffffffffffffffffffffffffff1602179055508173ffffffffffffffffffffffffffffffffffffffff168173ffffffffffffffffffffffffffffffffffffffff167f8be0079c531659141344cd1fd0a4f28419497f9722a3daafe3b4186f6b6457e060405160405180910390a35050565b61012c600b541062000220576701aa535d3d0c0000600e81905550611388600d819055505b61012c600b5410801562000237575060c8600b5410155b1562000256576702a303fe4b530000600e81905550611388600d819055505b60c8600b541080156200026c57506000600b5410155b156200028b576706f05b59d3b20000600e81905550611388600d819055505b565b8280546200029b906200036c565b90600052602060002090601f016020900481019282620002bf57600085556200030b565b82601f10620002da57805160ff19168380011785556200030b565b828001600101855582156200030b579182015b828111156200030a578251825591602001919060010190620002ed565b5b5090506200031a91906200031e565b5090565b5b80821115620003395760008160009055506001016200031f565b5090565b7f4e487b7100000000000000000000000000000000000000000000000000000000600052602260045260246000fd5b600060028204905060018216806200038557607f821691505b602082108114156200039c576200039b6200033d565b5b50919050565b6142b680620003b26000396000f3fe6080604052600436106101445760003560e01c80638da5cb5b116100b6578063ae3308841161006f578063ae3308841461046d578063b88d4fde14610498578063c87b56dd146104c1578063cd56cd5b146104fe578063e985e9c51461051a578063f2fde38b1461055757610184565b80638da5cb5b1461039057806391afca55146103bb57806395d89b41146103d757806395ff681f1461040257806398d5fdca14610419578063a22cb4651461044457610184565b806342842e0e1161010857806342842e0e146102805780634d47732a146102a95780634f3e1efc146102d45780636352211e146102ff57806370a082311461033c578063715018a61461037957610184565b806301ffc9a71461018957806306fdde03146101c6578063081812fc146101f1578063095ea7b31461022e57806323b872dd1461025757610184565b36610184577f88a5966d370b9919b20f3e2c13ff65706f196a4e32cc2c12bf57088f88525874333460405161017a92919061295d565b60405180910390a1005b600080fd5b34801561019557600080fd5b506101b060048036038101906101ab91906129f2565b610580565b6040516101bd9190612a3a565b60405180910390f35b3480156101d257600080fd5b506101db610662565b6040516101e89190612aee565b60405180910390f35b3480156101fd57600080fd5b5061021860048036038101906102139190612b3c565b6106f4565b6040516102259190612b69565b60405180910390f35b34801561023a57600080fd5b5061025560048036038101906102509190612bb0565b610779565b005b34801561026357600080fd5b5061027e60048036038101906102799190612bf0565b610891565b005b34801561028c57600080fd5b506102a760048036038101906102a29190612bf0565b6108f1565b005b3480156102b557600080fd5b506102be610911565b6040516102cb9190612c43565b60405180910390f35b3480156102e057600080fd5b506102e961091b565b6040516102f69190612c43565b60405180910390f35b34801561030b57600080fd5b5061032660048036038101906103219190612b3c565b610925565b6040516103339190612b69565b60405180910390f35b34801561034857600080fd5b50610363600480360381019061035e9190612c5e565b6109d7565b6040516103709190612c43565b60405180910390f35b34801561038557600080fd5b5061038e610a8f565b005b34801561039c57600080fd5b506103a5610b17565b6040516103b29190612b69565b60405180910390f35b6103d560048036038101906103d09190612c5e565b610b41565b005b3480156103e357600080fd5b506103ec610e52565b6040516103f99190612aee565b60405180910390f35b34801561040e57600080fd5b50610417610ee4565b005b34801561042557600080fd5b5061042e610f71565b60405161043b9190612c43565b60405180910390f35b34801561045057600080fd5b5061046b60048036038101906104669190612cb7565b610f7b565b005b34801561047957600080fd5b50610482610f91565b60405161048f9190612c43565b60405180910390f35b3480156104a457600080fd5b506104bf60048036038101906104ba9190612e2c565b610fa2565b005b3480156104cd57600080fd5b506104e860048036038101906104e39190612b3c565b611004565b6040516104f59190612aee565b60405180910390f35b61051860048036038101906105139190612f65565b611156565b005b34801561052657600080fd5b50610541600480360381019061053c9190612f92565b6113d1565b60405161054e9190612a3a565b60405180910390f35b34801561056357600080fd5b5061057e60048036038101906105799190612c5e565b611465565b005b60007f80ac58cd000000000000000000000000000000000000000000000000000000007bffffffffffffffffffffffffffffffffffffffffffffffffffffffff1916827bffffffffffffffffffffffffffffffffffffffffffffffffffffffff1916148061064b57507f5b5e139f000000000000000000000000000000000000000000000000000000007bffffffffffffffffffffffffffffffffffffffffffffffffffffffff1916827bffffffffffffffffffffffffffffffffffffffffffffffffffffffff1916145b8061065b575061065a8261155d565b5b9050919050565b60606000805461067190613001565b80601f016020809104026020016040519081016040528092919081815260200182805461069d90613001565b80156106ea5780601f106106bf576101008083540402835291602001916106ea565b820191906000526020600020905b8154815290600101906020018083116106cd57829003601f168201915b5050505050905090565b60006106ff826115c7565b61073e576040517f08c379a0000000000000000000000000000000000000000000000000000000008152600401610735906130a5565b60405180910390fd5b6004600083815260200190815260200160002060009054906101000a900473ffffffffffffffffffffffffffffffffffffffff169050919050565b600061078482610925565b90508073ffffffffffffffffffffffffffffffffffffffff168373ffffffffffffffffffffffffffffffffffffffff1614156107f5576040517f08c379a00000000000000000000000000000000000000000000000000000000081526004016107ec90613137565b60405180910390fd5b8073ffffffffffffffffffffffffffffffffffffffff16610814611633565b73ffffffffffffffffffffffffffffffffffffffff16148061084357506108428161083d611633565b6113d1565b5b610882576040517f08c379a0000000000000000000000000000000000000000000000000000000008152600401610879906131c9565b60405180910390fd5b61088c838361163b565b505050565b6108a261089c611633565b826116f4565b6108e1576040517f08c379a00000000000000000000000000000000000000000000000000000000081526004016108d89061325b565b60405180910390fd5b6108ec8383836117d2565b505050565b61090c83838360405180602001604052806000815250610fa2565b505050565b6000600c54905090565b6000600b54905090565b6000806002600084815260200190815260200160002060009054906101000a900473ffffffffffffffffffffffffffffffffffffffff169050600073ffffffffffffffffffffffffffffffffffffffff168173ffffffffffffffffffffffffffffffffffffffff1614156109ce576040517f08c379a00000000000000000000000000000000000000000000000000000000081526004016109c5906132ed565b60405180910390fd5b80915050919050565b60008073ffffffffffffffffffffffffffffffffffffffff168273ffffffffffffffffffffffffffffffffffffffff161415610a48576040517f08c379a0000000000000000000000000000000000000000000000000000000008152600401610a3f9061337f565b60405180910390fd5b600360008373ffffffffffffffffffffffffffffffffffffffff1673ffffffffffffffffffffffffffffffffffffffff168152602001908152602001600020549050919050565b610a97611633565b73ffffffffffffffffffffffffffffffffffffffff16610ab5610b17565b73ffffffffffffffffffffffffffffffffffffffff1614610b0b576040517f08c379a0000000000000000000000000000000000000000000000000000000008152600401610b02906133eb565b60405180910390fd5b610b156000611a39565b565b6000600760009054906101000a900473ffffffffffffffffffffffffffffffffffffffff16905090565b6000600b5411610b86576040517f08c379a0000000000000000000000000000000000000000000000000000000008152600401610b7d90613457565b60405180910390fd5b6000610b926008611aff565b905080600f81905550610ba3610ee4565b6701aa535d3d0c0000600e541415610bfb57600e54341015610bfa576040517f08c379a0000000000000000000000000000000000000000000000000000000008152600401610bf1906134c3565b60405180910390fd5b5b6702a303fe4b530000600e541415610c5357600e54341015610c52576040517f08c379a0000000000000000000000000000000000000000000000000000000008152600401610c499061352f565b60405180910390fd5b5b6706f05b59d3b20000600e541415610cab57600e54341015610caa576040517f08c379a0000000000000000000000000000000000000000000000000000000008152600401610ca19061359b565b60405180910390fd5b5b73dab1a1854214684ace522439684a145e6250523373ffffffffffffffffffffffffffffffffffffffff163373ffffffffffffffffffffffffffffffffffffffff1614610d2d576040517f08c379a0000000000000000000000000000000000000000000000000000000008152600401610d249061362d565b60405180910390fd5b610d378282611b0d565b610d76816040518060400160405280601d81526020017f68747470733a2f2f6a736f6e6b65657065722e636f6d2f622f5452304b000000815250611b2b565b610d806008611b9f565b600b6000815480929190610d939061367c565b91905055506040518060400160405280733cb1de1465310f5fad3c65a58f1b174b78d15e7173ffffffffffffffffffffffffffffffffffffffff1673ffffffffffffffffffffffffffffffffffffffff1681526020017357987efdc232231510df7d1ea3f223dd69df3bea73ffffffffffffffffffffffffffffffffffffffff1673ffffffffffffffffffffffffffffffffffffffff168152506010906002610e3d9291906127e3565b50610e46611bb5565b610e4e610ee4565b5050565b606060018054610e6190613001565b80601f0160208091040260200160405190810160405280929190818152602001828054610e8d90613001565b8015610eda5780601f10610eaf57610100808354040283529160200191610eda565b820191906000526020600020905b815481529060010190602001808311610ebd57829003601f168201915b5050505050905090565b61012c600b5410610f08576701aa535d3d0c0000600e81905550611388600d819055505b61012c600b54108015610f1e575060c8600b5410155b15610f3c576702a303fe4b530000600e81905550611388600d819055505b60c8600b54108015610f5157506000600b5410155b15610f6f576706f05b59d3b20000600e81905550611388600d819055505b565b6000600e54905090565b610f8d610f86611633565b8383611f4c565b5050565b6000610f9d6008611aff565b905090565b610fb3610fad611633565b836116f4565b610ff2576040517f08c379a0000000000000000000000000000000000000000000000000000000008152600401610fe99061325b565b60405180910390fd5b610ffe848484846120b9565b50505050565b606061100f826115c7565b61104e576040517f08c379a000000000000000000000000000000000000000000000000000000000815260040161104590613718565b60405180910390fd5b600060066000848152602001908152602001600020805461106e90613001565b80601f016020809104026020016040519081016040528092919081815260200182805461109a90613001565b80156110e75780601f106110bc576101008083540402835291602001916110e7565b820191906000526020600020905b8154815290600101906020018083116110ca57829003601f168201915b5050505050905060006110f8612115565b905060008151141561110e578192505050611151565b60008251111561114357808260405160200161112b929190613774565b60405160208183030381529060405292505050611151565b61114c8461212c565b925050505b919050565b6000600b541161119b576040517f08c379a000000000000000000000000000000000000000000000000000000000815260040161119290613457565b60405180910390fd5b60006111a76008611aff565b905080600f819055506111b8610ee4565b6701aa535d3d0c0000600e54141561121057600e5434101561120f576040517f08c379a0000000000000000000000000000000000000000000000000000000008152600401611206906134c3565b60405180910390fd5b5b6702a303fe4b530000600e54141561126857600e54341015611267576040517f08c379a000000000000000000000000000000000000000000000000000000000815260040161125e9061352f565b60405180910390fd5b5b6706f05b59d3b20000600e5414156112c057600e543410156112bf576040517f08c379a00000000000000000000000000000000000000000000000000000000081526004016112b69061359b565b60405180910390fd5b5b6112ca3382611b0d565b611309816040518060400160405280601d81526020017f68747470733a2f2f6a736f6e6b65657065722e636f6d2f622f5452304b000000815250611b2b565b611350611315306109d7565b6040518060400160405280601e81526020017f636f6e74726163742062616c616e6365206166746572206d696e74696e6700008152506121d3565b61135a6008611b9f565b600b600081548092919061136d9061367c565b91905055508160109060026113839291906127e3565b5061138c611bb5565b611394610ee4565b7febb98688741ffa4c7589bf325de30cf7becb63de567842e1ccdb6cb949fdc82c33826040516113c592919061295d565b60405180910390a15050565b6000600560008473ffffffffffffffffffffffffffffffffffffffff1673ffffffffffffffffffffffffffffffffffffffff16815260200190815260200160002060008373ffffffffffffffffffffffffffffffffffffffff1673ffffffffffffffffffffffffffffffffffffffff16815260200190815260200160002060009054906101000a900460ff16905092915050565b61146d611633565b73ffffffffffffffffffffffffffffffffffffffff1661148b610b17565b73ffffffffffffffffffffffffffffffffffffffff16146114e1576040517f08c379a00000000000000000000000000000000000000000000000000000000081526004016114d8906133eb565b60405180910390fd5b600073ffffffffffffffffffffffffffffffffffffffff168173ffffffffffffffffffffffffffffffffffffffff161415611551576040517f08c379a00000000000000000000000000000000000000000000000000000000081526004016115489061380a565b60405180910390fd5b61155a81611a39565b50565b60007f01ffc9a7000000000000000000000000000000000000000000000000000000007bffffffffffffffffffffffffffffffffffffffffffffffffffffffff1916827bffffffffffffffffffffffffffffffffffffffffffffffffffffffff1916149050919050565b60008073ffffffffffffffffffffffffffffffffffffffff166002600084815260200190815260200160002060009054906101000a900473ffffffffffffffffffffffffffffffffffffffff1673ffffffffffffffffffffffffffffffffffffffff1614159050919050565b600033905090565b816004600083815260200190815260200160002060006101000a81548173ffffffffffffffffffffffffffffffffffffffff021916908373ffffffffffffffffffffffffffffffffffffffff160217905550808273ffffffffffffffffffffffffffffffffffffffff166116ae83610925565b73ffffffffffffffffffffffffffffffffffffffff167f8c5be1e5ebec7d5bd14f71427d1e84f3dd0314c0f7b2291e5b200ac8c7c3b92560405160405180910390a45050565b60006116ff826115c7565b61173e576040517f08c379a00000000000000000000000000000000000000000000000000000000081526004016117359061389c565b60405180910390fd5b600061174983610925565b90508073ffffffffffffffffffffffffffffffffffffffff168473ffffffffffffffffffffffffffffffffffffffff1614806117b857508373ffffffffffffffffffffffffffffffffffffffff166117a0846106f4565b73ffffffffffffffffffffffffffffffffffffffff16145b806117c957506117c881856113d1565b5b91505092915050565b8273ffffffffffffffffffffffffffffffffffffffff166117f282610925565b73ffffffffffffffffffffffffffffffffffffffff1614611848576040517f08c379a000000000000000000000000000000000000000000000000000000000815260040161183f9061392e565b60405180910390fd5b600073ffffffffffffffffffffffffffffffffffffffff168273ffffffffffffffffffffffffffffffffffffffff1614156118b8576040517f08c379a00000000000000000000000000000000000000000000000000000000081526004016118af906139c0565b60405180910390fd5b6118c383838361226f565b6118ce60008261163b565b6001600360008573ffffffffffffffffffffffffffffffffffffffff1673ffffffffffffffffffffffffffffffffffffffff168152602001908152602001600020600082825461191e91906139e0565b925050819055506001600360008473ffffffffffffffffffffffffffffffffffffffff1673ffffffffffffffffffffffffffffffffffffffff16815260200190815260200160002060008282546119759190613a14565b92505081905550816002600083815260200190815260200160002060006101000a81548173ffffffffffffffffffffffffffffffffffffffff021916908373ffffffffffffffffffffffffffffffffffffffff160217905550808273ffffffffffffffffffffffffffffffffffffffff168473ffffffffffffffffffffffffffffffffffffffff167fddf252ad1be2c89b69c2b068fc378daa952ba7f163c4a11628f55a4df523b3ef60405160405180910390a4611a34838383612274565b505050565b6000600760009054906101000a900473ffffffffffffffffffffffffffffffffffffffff16905081600760006101000a81548173ffffffffffffffffffffffffffffffffffffffff021916908373ffffffffffffffffffffffffffffffffffffffff1602179055508173ffffffffffffffffffffffffffffffffffffffff168173ffffffffffffffffffffffffffffffffffffffff167f8be0079c531659141344cd1fd0a4f28419497f9722a3daafe3b4186f6b6457e060405160405180910390a35050565b600081600001549050919050565b611b27828260405180602001604052806000815250612279565b5050565b611b34826115c7565b611b73576040517f08c379a0000000000000000000000000000000000000000000000000000000008152600401611b6a90613adc565b60405180910390fd5b80600660008481526020019081526020016000209080519060200190611b9a929190612860565b505050565b6001816000016000828254019250508190555050565b60006010600060028110611bcc57611bcb613afc565b5b0160009054906101000a900473ffffffffffffffffffffffffffffffffffffffff16905060006010600160028110611c0757611c06613afc565b5b0160009054906101000a900473ffffffffffffffffffffffffffffffffffffffff169050611c4d4760405180606001604052806023815260200161425e602391396121d3565b611c8e600e546040518060400160405280600d81526020017f73656c6c696e67207072696365000000000000000000000000000000000000008152506121d3565b47600e541115611cd3576040517f08c379a0000000000000000000000000000000000000000000000000000000008152600401611cca90613b9d565b60405180910390fd5b6000600d54612710611ce591906139e0565b9050600061271082600e54611cfa9190613bbd565b611d049190613c46565b90506000612710600d54600e54611d1b9190613bbd565b611d259190613c46565b905060008573ffffffffffffffffffffffffffffffffffffffff16600184611d4d9190613bbd565b604051611d5990613cce565b60006040518083038185875af1925050503d8060008114611d96576040519150601f19603f3d011682016040523d82523d6000602084013e611d9b565b606091505b5050905080611ddf576040517f08c379a0000000000000000000000000000000000000000000000000000000008152600401611dd690613d55565b60405180910390fd5b60008573ffffffffffffffffffffffffffffffffffffffff16600184611e059190613bbd565b604051611e1190613dc1565b60006040518083038185875af1925050503d8060008114611e4e576040519150601f19603f3d011682016040523d82523d6000602084013e611e53565b606091505b5050905080611e97576040517f08c379a0000000000000000000000000000000000000000000000000000000008152600401611e8e90613e48565b60405180910390fd5b611eed8773ffffffffffffffffffffffffffffffffffffffff16316040518060400160405280600e81526020017f6162627927732062616c616e63650000000000000000000000000000000000008152506121d3565b611f438673ffffffffffffffffffffffffffffffffffffffff16316040518060400160405280600f81526020017f616d69796127732062616c616e636500000000000000000000000000000000008152506121d3565b50505050505050565b8173ffffffffffffffffffffffffffffffffffffffff168373ffffffffffffffffffffffffffffffffffffffff161415611fbb576040517f08c379a0000000000000000000000000000000000000000000000000000000008152600401611fb290613eb4565b60405180910390fd5b80600560008573ffffffffffffffffffffffffffffffffffffffff1673ffffffffffffffffffffffffffffffffffffffff16815260200190815260200160002060008473ffffffffffffffffffffffffffffffffffffffff1673ffffffffffffffffffffffffffffffffffffffff16815260200190815260200160002060006101000a81548160ff0219169083151502179055508173ffffffffffffffffffffffffffffffffffffffff168373ffffffffffffffffffffffffffffffffffffffff167f17307eab39ab6107e8899845ad3d59bd9653f200f220920489ca2b5937696c31836040516120ac9190612a3a565b60405180910390a3505050565b6120c48484846117d2565b6120d0848484846122d4565b61210f576040517f08c379a000000000000000000000000000000000000000000000000000000000815260040161210690613f46565b60405180910390fd5b50505050565b606060405180602001604052806000815250905090565b6060612137826115c7565b612176576040517f08c379a000000000000000000000000000000000000000000000000000000000815260040161216d90613fd8565b60405180910390fd5b6000612180612115565b905060008151116121a057604051806020016040528060008152506121cb565b806121aa8461245c565b6040516020016121bb929190613774565b6040516020818303038152906040525b915050919050565b61226b82826040516024016121e9929190613ff8565b6040516020818303038152906040527f0fa3f345000000000000000000000000000000000000000000000000000000007bffffffffffffffffffffffffffffffffffffffffffffffffffffffff19166020820180517bffffffffffffffffffffffffffffffffffffffffffffffffffffffff83818316178352505050506125bd565b5050565b505050565b505050565b61228383836125e6565b61229060008484846122d4565b6122cf576040517f08c379a00000000000000000000000000000000000000000000000000000000081526004016122c690613f46565b60405180910390fd5b505050565b60006122f58473ffffffffffffffffffffffffffffffffffffffff166127c0565b1561244f578373ffffffffffffffffffffffffffffffffffffffff1663150b7a0261231e611633565b8786866040518563ffffffff1660e01b8152600401612340949392919061407d565b6020604051808303816000875af192505050801561237c57506040513d601f19601f8201168201806040525081019061237991906140de565b60015b6123ff573d80600081146123ac576040519150601f19603f3d011682016040523d82523d6000602084013e6123b1565b606091505b506000815114156123f7576040517f08c379a00000000000000000000000000000000000000000000000000000000081526004016123ee90613f46565b60405180910390fd5b805181602001fd5b63150b7a0260e01b7bffffffffffffffffffffffffffffffffffffffffffffffffffffffff1916817bffffffffffffffffffffffffffffffffffffffffffffffffffffffff191614915050612454565b600190505b949350505050565b606060008214156124a4576040518060400160405280600181526020017f300000000000000000000000000000000000000000000000000000000000000081525090506125b8565b600082905060005b600082146124d65780806124bf9061410b565b915050600a826124cf9190613c46565b91506124ac565b60008167ffffffffffffffff8111156124f2576124f1612d01565b5b6040519080825280601f01601f1916602001820160405280156125245781602001600182028036833780820191505090505b5090505b600085146125b15760018261253d91906139e0565b9150600a8561254c9190614154565b60306125589190613a14565b60f81b81838151811061256e5761256d613afc565b5b60200101907effffffffffffffffffffffffffffffffffffffffffffffffffffffffffffff1916908160001a905350600a856125aa9190613c46565b9450612528565b8093505050505b919050565b60008151905060006a636f6e736f6c652e6c6f679050602083016000808483855afa5050505050565b600073ffffffffffffffffffffffffffffffffffffffff168273ffffffffffffffffffffffffffffffffffffffff161415612656576040517f08c379a000000000000000000000000000000000000000000000000000000000815260040161264d906141d1565b60405180910390fd5b61265f816115c7565b1561269f576040517f08c379a00000000000000000000000000000000000000000000000000000000081526004016126969061423d565b60405180910390fd5b6126ab6000838361226f565b6001600360008473ffffffffffffffffffffffffffffffffffffffff1673ffffffffffffffffffffffffffffffffffffffff16815260200190815260200160002060008282546126fb9190613a14565b92505081905550816002600083815260200190815260200160002060006101000a81548173ffffffffffffffffffffffffffffffffffffffff021916908373ffffffffffffffffffffffffffffffffffffffff160217905550808273ffffffffffffffffffffffffffffffffffffffff16600073ffffffffffffffffffffffffffffffffffffffff167fddf252ad1be2c89b69c2b068fc378daa952ba7f163c4a11628f55a4df523b3ef60405160405180910390a46127bc60008383612274565b5050565b6000808273ffffffffffffffffffffffffffffffffffffffff163b119050919050565b826002810192821561284f579160200282015b8281111561284e5782518260006101000a81548173ffffffffffffffffffffffffffffffffffffffff021916908373ffffffffffffffffffffffffffffffffffffffff160217905550916020019190600101906127f6565b5b50905061285c91906128e6565b5090565b82805461286c90613001565b90600052602060002090601f01602090048101928261288e57600085556128d5565b82601f106128a757805160ff19168380011785556128d5565b828001600101855582156128d5579182015b828111156128d45782518255916020019190600101906128b9565b5b5090506128e291906128e6565b5090565b5b808211156128ff5760008160009055506001016128e7565b5090565b600073ffffffffffffffffffffffffffffffffffffffff82169050919050565b600061292e82612903565b9050919050565b61293e81612923565b82525050565b6000819050919050565b61295781612944565b82525050565b60006040820190506129726000830185612935565b61297f602083018461294e565b9392505050565b6000604051905090565b600080fd5b600080fd5b60007fffffffff0000000000000000000000000000000000000000000000000000000082169050919050565b6129cf8161299a565b81146129da57600080fd5b50565b6000813590506129ec816129c6565b92915050565b600060208284031215612a0857612a07612990565b5b6000612a16848285016129dd565b91505092915050565b60008115159050919050565b612a3481612a1f565b82525050565b6000602082019050612a4f6000830184612a2b565b92915050565b600081519050919050565b600082825260208201905092915050565b60005b83811015612a8f578082015181840152602081019050612a74565b83811115612a9e576000848401525b50505050565b6000601f19601f8301169050919050565b6000612ac082612a55565b612aca8185612a60565b9350612ada818560208601612a71565b612ae381612aa4565b840191505092915050565b60006020820190508181036000830152612b088184612ab5565b905092915050565b612b1981612944565b8114612b2457600080fd5b50565b600081359050612b3681612b10565b92915050565b600060208284031215612b5257612b51612990565b5b6000612b6084828501612b27565b91505092915050565b6000602082019050612b7e6000830184612935565b92915050565b612b8d81612923565b8114612b9857600080fd5b50565b600081359050612baa81612b84565b92915050565b60008060408385031215612bc757612bc6612990565b5b6000612bd585828601612b9b565b9250506020612be685828601612b27565b9150509250929050565b600080600060608486031215612c0957612c08612990565b5b6000612c1786828701612b9b565b9350506020612c2886828701612b9b565b9250506040612c3986828701612b27565b9150509250925092565b6000602082019050612c58600083018461294e565b92915050565b600060208284031215612c7457612c73612990565b5b6000612c8284828501612b9b565b91505092915050565b612c9481612a1f565b8114612c9f57600080fd5b50565b600081359050612cb181612c8b565b92915050565b60008060408385031215612cce57612ccd612990565b5b6000612cdc85828601612b9b565b9250506020612ced85828601612ca2565b9150509250929050565b600080fd5b600080fd5b7f4e487b7100000000000000000000000000000000000000000000000000000000600052604160045260246000fd5b612d3982612aa4565b810181811067ffffffffffffffff82111715612d5857612d57612d01565b5b80604052505050565b6000612d6b612986565b9050612d778282612d30565b919050565b600067ffffffffffffffff821115612d9757612d96612d01565b5b612da082612aa4565b9050602081019050919050565b82818337600083830152505050565b6000612dcf612dca84612d7c565b612d61565b905082815260208101848484011115612deb57612dea612cfc565b5b612df6848285612dad565b509392505050565b600082601f830112612e1357612e12612cf7565b5b8135612e23848260208601612dbc565b91505092915050565b60008060008060808587031215612e4657612e45612990565b5b6000612e5487828801612b9b565b9450506020612e6587828801612b9b565b9350506040612e7687828801612b27565b925050606085013567ffffffffffffffff811115612e9757612e96612995565b5b612ea387828801612dfe565b91505092959194509250565b600067ffffffffffffffff821115612eca57612ec9612d01565b5b602082029050919050565b600080fd5b6000612eed612ee884612eaf565b612d61565b90508060208402830185811115612f0757612f06612ed5565b5b835b81811015612f305780612f1c8882612b9b565b845260208401935050602081019050612f09565b5050509392505050565b600082601f830112612f4f57612f4e612cf7565b5b6002612f5c848285612eda565b91505092915050565b600060408284031215612f7b57612f7a612990565b5b6000612f8984828501612f3a565b91505092915050565b60008060408385031215612fa957612fa8612990565b5b6000612fb785828601612b9b565b9250506020612fc885828601612b9b565b9150509250929050565b7f4e487b7100000000000000000000000000000000000000000000000000000000600052602260045260246000fd5b6000600282049050600182168061301957607f821691505b6020821081141561302d5761302c612fd2565b5b50919050565b7f4552433732313a20617070726f76656420717565727920666f72206e6f6e657860008201527f697374656e7420746f6b656e0000000000000000000000000000000000000000602082015250565b600061308f602c83612a60565b915061309a82613033565b604082019050919050565b600060208201905081810360008301526130be81613082565b9050919050565b7f4552433732313a20617070726f76616c20746f2063757272656e74206f776e6560008201527f7200000000000000000000000000000000000000000000000000000000000000602082015250565b6000613121602183612a60565b915061312c826130c5565b604082019050919050565b6000602082019050818103600083015261315081613114565b9050919050565b7f4552433732313a20617070726f76652063616c6c6572206973206e6f74206f7760008201527f6e6572206e6f7220617070726f76656420666f7220616c6c0000000000000000602082015250565b60006131b3603883612a60565b91506131be82613157565b604082019050919050565b600060208201905081810360008301526131e2816131a6565b9050919050565b7f4552433732313a207472616e736665722063616c6c6572206973206e6f74206f60008201527f776e6572206e6f7220617070726f766564000000000000000000000000000000602082015250565b6000613245603183612a60565b9150613250826131e9565b604082019050919050565b6000602082019050818103600083015261327481613238565b9050919050565b7f4552433732313a206f776e657220717565727920666f72206e6f6e657869737460008201527f656e7420746f6b656e0000000000000000000000000000000000000000000000602082015250565b60006132d7602983612a60565b91506132e28261327b565b604082019050919050565b60006020820190508181036000830152613306816132ca565b9050919050565b7f4552433732313a2062616c616e636520717565727920666f7220746865207a6560008201527f726f206164647265737300000000000000000000000000000000000000000000602082015250565b6000613369602a83612a60565b91506133748261330d565b604082019050919050565b600060208201905081810360008301526133988161335c565b9050919050565b7f4f776e61626c653a2063616c6c6572206973206e6f7420746865206f776e6572600082015250565b60006133d5602083612a60565b91506133e08261339f565b602082019050919050565b60006020820190508181036000830152613404816133c8565b9050919050565b7f4e6f206d6f7265204e4654730000000000000000000000000000000000000000600082015250565b6000613441600c83612a60565b915061344c8261340b565b602082019050919050565b6000602082019050818103600083015261347081613434565b9050919050565b7f4e65656420746f2073656e6420302e3132206574686572206f72206d6f726500600082015250565b60006134ad601f83612a60565b91506134b882613477565b602082019050919050565b600060208201905081810360008301526134dc816134a0565b9050919050565b7f4e65656420746f2073656e6420302e3139206574686572206f72206d6f726500600082015250565b6000613519601f83612a60565b9150613524826134e3565b602082019050919050565b600060208201905081810360008301526135488161350c565b9050919050565b7f4e65656420746f2073656e6420302e35206574686572206f72206d6f72650000600082015250565b6000613585601e83612a60565b91506135908261354f565b602082019050919050565b600060208201905081810360008301526135b481613578565b9050919050565b7f546869732066756e6374696f6e20697320666f722043726f73736d696e74206f60008201527f6e6c792e00000000000000000000000000000000000000000000000000000000602082015250565b6000613617602483612a60565b9150613622826135bb565b604082019050919050565b600060208201905081810360008301526136468161360a565b9050919050565b7f4e487b7100000000000000000000000000000000000000000000000000000000600052601160045260246000fd5b600061368782612944565b9150600082141561369b5761369a61364d565b5b600182039050919050565b7f45524337323155524953746f726167653a2055524920717565727920666f722060008201527f6e6f6e6578697374656e7420746f6b656e000000000000000000000000000000602082015250565b6000613702603183612a60565b915061370d826136a6565b604082019050919050565b60006020820190508181036000830152613731816136f5565b9050919050565b600081905092915050565b600061374e82612a55565b6137588185613738565b9350613768818560208601612a71565b80840191505092915050565b60006137808285613743565b915061378c8284613743565b91508190509392505050565b7f4f776e61626c653a206e6577206f776e657220697320746865207a65726f206160008201527f6464726573730000000000000000000000000000000000000000000000000000602082015250565b60006137f4602683612a60565b91506137ff82613798565b604082019050919050565b60006020820190508181036000830152613823816137e7565b9050919050565b7f4552433732313a206f70657261746f7220717565727920666f72206e6f6e657860008201527f697374656e7420746f6b656e0000000000000000000000000000000000000000602082015250565b6000613886602c83612a60565b91506138918261382a565b604082019050919050565b600060208201905081810360008301526138b581613879565b9050919050565b7f4552433732313a207472616e736665722066726f6d20696e636f72726563742060008201527f6f776e6572000000000000000000000000000000000000000000000000000000602082015250565b6000613918602583612a60565b9150613923826138bc565b604082019050919050565b600060208201905081810360008301526139478161390b565b9050919050565b7f4552433732313a207472616e7366657220746f20746865207a65726f2061646460008201527f7265737300000000000000000000000000000000000000000000000000000000602082015250565b60006139aa602483612a60565b91506139b58261394e565b604082019050919050565b600060208201905081810360008301526139d98161399d565b9050919050565b60006139eb82612944565b91506139f683612944565b925082821015613a0957613a0861364d565b5b828203905092915050565b6000613a1f82612944565b9150613a2a83612944565b9250827fffffffffffffffffffffffffffffffffffffffffffffffffffffffffffffffff03821115613a5f57613a5e61364d565b5b828201905092915050565b7f45524337323155524953746f726167653a2055524920736574206f66206e6f6e60008201527f6578697374656e7420746f6b656e000000000000000000000000000000000000602082015250565b6000613ac6602e83612a60565b9150613ad182613a6a565b604082019050919050565b60006020820190508181036000830152613af581613ab9565b9050919050565b7f4e487b7100000000000000000000000000000000000000000000000000000000600052603260045260246000fd5b7f547279696e6720746f207769746864726177206d6f7265206d6f6e657920746860008201527f616e2074686520636f6e7472616374206861732e000000000000000000000000602082015250565b6000613b87603483612a60565b9150613b9282613b2b565b604082019050919050565b60006020820190508181036000830152613bb681613b7a565b9050919050565b6000613bc882612944565b9150613bd383612944565b9250817fffffffffffffffffffffffffffffffffffffffffffffffffffffffffffffffff0483118215151615613c0c57613c0b61364d565b5b828202905092915050565b7f4e487b7100000000000000000000000000000000000000000000000000000000600052601260045260246000fd5b6000613c5182612944565b9150613c5c83612944565b925082613c6c57613c6b613c17565b5b828204905092915050565b600081905092915050565b7f61626279206d616465206d6f6e65790000000000000000000000000000000000600082015250565b6000613cb8600f83613c77565b9150613cc382613c82565b600f82019050919050565b6000613cd982613cab565b9150819050919050565b7f4661696c656420746f207769746864726177206d6f6e65792066726f6d20636f60008201527f6e747261637420666f7220416262790000000000000000000000000000000000602082015250565b6000613d3f602f83612a60565b9150613d4a82613ce3565b604082019050919050565b60006020820190508181036000830152613d6e81613d32565b9050919050565b7f616d697961206d616465206d6f6e657900000000000000000000000000000000600082015250565b6000613dab601083613c77565b9150613db682613d75565b601082019050919050565b6000613dcc82613d9e565b9150819050919050565b7f4661696c656420746f207769746864726177206d6f6e65792066726f6d20636f60008201527f6e747261637420666f7220416d69796100000000000000000000000000000000602082015250565b6000613e32603083612a60565b9150613e3d82613dd6565b604082019050919050565b60006020820190508181036000830152613e6181613e25565b9050919050565b7f4552433732313a20617070726f766520746f2063616c6c657200000000000000600082015250565b6000613e9e601983612a60565b9150613ea982613e68565b602082019050919050565b60006020820190508181036000830152613ecd81613e91565b9050919050565b7f4552433732313a207472616e7366657220746f206e6f6e20455243373231526560008201527f63656976657220696d706c656d656e7465720000000000000000000000000000602082015250565b6000613f30603283612a60565b9150613f3b82613ed4565b604082019050919050565b60006020820190508181036000830152613f5f81613f23565b9050919050565b7f4552433732314d657461646174613a2055524920717565727920666f72206e6f60008201527f6e6578697374656e7420746f6b656e0000000000000000000000000000000000602082015250565b6000613fc2602f83612a60565b9150613fcd82613f66565b604082019050919050565b60006020820190508181036000830152613ff181613fb5565b9050919050565b600060408201905061400d600083018561294e565b818103602083015261401f8184612ab5565b90509392505050565b600081519050919050565b600082825260208201905092915050565b600061404f82614028565b6140598185614033565b9350614069818560208601612a71565b61407281612aa4565b840191505092915050565b60006080820190506140926000830187612935565b61409f6020830186612935565b6140ac604083018561294e565b81810360608301526140be8184614044565b905095945050505050565b6000815190506140d8816129c6565b92915050565b6000602082840312156140f4576140f3612990565b5b6000614102848285016140c9565b91505092915050565b600061411682612944565b91507fffffffffffffffffffffffffffffffffffffffffffffffffffffffffffffffff8214156141495761414861364d565b5b600182019050919050565b600061415f82612944565b915061416a83612944565b92508261417a57614179613c17565b5b828206905092915050565b7f4552433732313a206d696e7420746f20746865207a65726f2061646472657373600082015250565b60006141bb602083612a60565b91506141c682614185565b602082019050919050565b600060208201905081810360008301526141ea816141ae565b9050919050565b7f4552433732313a20746f6b656e20616c7265616479206d696e74656400000000600082015250565b6000614227601c83612a60565b9150614232826141f1565b602082019050919050565b600060208201905081810360008301526142568161421a565b905091905056fe2063757272656e742062616c616e6365206265666f7265207769746864726177616c20a2646970667358221220e553d21bfadaaedd03cf13531257096105248abee2b17682bc8ca31dd1313b1364736f6c634300080a0033",
  "linkReferences": {},
  "deployedLinkReferences": {}
}