{
  "_format": "hh-sol-artifact-1",
  "contractName": "MyEpicNFT",
  "sourceName": "contracts/MyEpicNFT.sol",
  "abi": [
    {
      "inputs": [],
      "stateMutability": "payable",
      "type": "constructor"
    },
    {
      "anonymous": false,
      "inputs": [
        {
          "indexed": true,
          "internalType": "address",
          "name": "owner",
          "type": "address"
        },
        {
          "indexed": true,
          "internalType": "address",
          "name": "approved",
          "type": "address"
        },
        {
          "indexed": true,
          "internalType": "uint256",
          "name": "tokenId",
          "type": "uint256"
        }
      ],
      "name": "Approval",
      "type": "event"
    },
    {
      "anonymous": false,
      "inputs": [
        {
          "indexed": true,
          "internalType": "address",
          "name": "owner",
          "type": "address"
        },
        {
          "indexed": true,
          "internalType": "address",
          "name": "operator",
          "type": "address"
        },
        {
          "indexed": false,
          "internalType": "bool",
          "name": "approved",
          "type": "bool"
        }
      ],
      "name": "ApprovalForAll",
      "type": "event"
    },
    {
      "anonymous": false,
      "inputs": [
        {
          "indexed": false,
          "internalType": "address",
          "name": "sender",
          "type": "address"
        },
        {
          "indexed": false,
          "internalType": "uint256",
          "name": "tokenId",
          "type": "uint256"
        }
      ],
      "name": "NewEpicNFTMinted",
      "type": "event"
    },
    {
      "anonymous": false,
      "inputs": [
        {
          "indexed": true,
          "internalType": "address",
          "name": "previousOwner",
          "type": "address"
        },
        {
          "indexed": true,
          "internalType": "address",
          "name": "newOwner",
          "type": "address"
        }
      ],
      "name": "OwnershipTransferred",
      "type": "event"
    },
    {
      "anonymous": false,
      "inputs": [
        {
          "indexed": false,
          "internalType": "address",
          "name": "",
          "type": "address"
        },
        {
          "indexed": false,
          "internalType": "uint256",
          "name": "",
          "type": "uint256"
        }
      ],
      "name": "Received",
      "type": "event"
    },
    {
      "anonymous": false,
      "inputs": [
        {
          "indexed": true,
          "internalType": "address",
          "name": "from",
          "type": "address"
        },
        {
          "indexed": true,
          "internalType": "address",
          "name": "to",
          "type": "address"
        },
        {
          "indexed": true,
          "internalType": "uint256",
          "name": "tokenId",
          "type": "uint256"
        }
      ],
      "name": "Transfer",
      "type": "event"
    },
    {
      "inputs": [
        {
          "internalType": "address",
          "name": "to",
          "type": "address"
        },
        {
          "internalType": "uint256",
          "name": "tokenId",
          "type": "uint256"
        }
      ],
      "name": "approve",
      "outputs": [],
      "stateMutability": "nonpayable",
      "type": "function"
    },
    {
      "inputs": [
        {
          "internalType": "address",
          "name": "owner",
          "type": "address"
        }
      ],
      "name": "balanceOf",
      "outputs": [
        {
          "internalType": "uint256",
          "name": "",
          "type": "uint256"
        }
      ],
      "stateMutability": "view",
      "type": "function"
    },
    {
      "inputs": [
        {
          "internalType": "uint256",
          "name": "_salePrice",
          "type": "uint256"
        }
      ],
      "name": "calculateRoyalty",
      "outputs": [
        {
          "internalType": "uint256",
          "name": "",
          "type": "uint256"
        }
      ],
      "stateMutability": "view",
      "type": "function"
    },
    {
      "inputs": [
        {
          "internalType": "uint256",
          "name": "tokenId",
          "type": "uint256"
        }
      ],
      "name": "getApproved",
      "outputs": [
        {
          "internalType": "address",
          "name": "",
          "type": "address"
        }
      ],
      "stateMutability": "view",
      "type": "function"
    },
    {
      "inputs": [],
      "name": "getCurrentSupply",
      "outputs": [
        {
          "internalType": "uint256",
          "name": "",
          "type": "uint256"
        }
      ],
      "stateMutability": "view",
      "type": "function"
    },
    {
      "inputs": [],
      "name": "getPrice",
      "outputs": [
        {
          "internalType": "string",
          "name": "",
          "type": "string"
        }
      ],
      "stateMutability": "view",
      "type": "function"
    },
    {
      "inputs": [],
      "name": "getRoyalty",
      "outputs": [
        {
          "internalType": "uint256",
          "name": "",
          "type": "uint256"
        }
      ],
      "stateMutability": "view",
      "type": "function"
    },
    {
      "inputs": [
        {
          "internalType": "address",
          "name": "owner",
          "type": "address"
        },
        {
          "internalType": "address",
          "name": "operator",
          "type": "address"
        }
      ],
      "name": "isApprovedForAll",
      "outputs": [
        {
          "internalType": "bool",
          "name": "",
          "type": "bool"
        }
      ],
      "stateMutability": "view",
      "type": "function"
    },
    {
      "inputs": [],
      "name": "makeAnEpicNFT",
      "outputs": [],
      "stateMutability": "payable",
      "type": "function"
    },
    {
      "inputs": [],
      "name": "name",
      "outputs": [
        {
          "internalType": "string",
          "name": "",
          "type": "string"
        }
      ],
      "stateMutability": "view",
      "type": "function"
    },
    {
      "inputs": [],
      "name": "owner",
      "outputs": [
        {
          "internalType": "address",
          "name": "",
          "type": "address"
        }
      ],
      "stateMutability": "view",
      "type": "function"
    },
    {
      "inputs": [
        {
          "internalType": "uint256",
          "name": "tokenId",
          "type": "uint256"
        }
      ],
      "name": "ownerOf",
      "outputs": [
        {
          "internalType": "address",
          "name": "",
          "type": "address"
        }
      ],
      "stateMutability": "view",
      "type": "function"
    },
    {
      "inputs": [],
      "name": "renounceOwnership",
      "outputs": [],
      "stateMutability": "nonpayable",
      "type": "function"
    },
    {
      "inputs": [],
      "name": "returnTokenID",
      "outputs": [
        {
          "internalType": "uint256",
          "name": "",
          "type": "uint256"
        }
      ],
      "stateMutability": "view",
      "type": "function"
    },
    {
      "inputs": [
        {
          "internalType": "uint256",
          "name": "_tokenId",
          "type": "uint256"
        },
        {
          "internalType": "uint256",
          "name": "_salePrice",
          "type": "uint256"
        }
      ],
      "name": "royaltyInfo",
      "outputs": [
        {
          "internalType": "address",
          "name": "",
          "type": "address"
        },
        {
          "internalType": "uint256",
          "name": "",
          "type": "uint256"
        }
      ],
      "stateMutability": "view",
      "type": "function"
    },
    {
      "inputs": [
        {
          "internalType": "address",
          "name": "from",
          "type": "address"
        },
        {
          "internalType": "address",
          "name": "to",
          "type": "address"
        },
        {
          "internalType": "uint256",
          "name": "tokenId",
          "type": "uint256"
        }
      ],
      "name": "safeTransferFrom",
      "outputs": [],
      "stateMutability": "nonpayable",
      "type": "function"
    },
    {
      "inputs": [
        {
          "internalType": "address",
          "name": "from",
          "type": "address"
        },
        {
          "internalType": "address",
          "name": "to",
          "type": "address"
        },
        {
          "internalType": "uint256",
          "name": "tokenId",
          "type": "uint256"
        },
        {
          "internalType": "bytes",
          "name": "_data",
          "type": "bytes"
        }
      ],
      "name": "safeTransferFrom",
      "outputs": [],
      "stateMutability": "nonpayable",
      "type": "function"
    },
    {
      "inputs": [
        {
          "internalType": "address",
          "name": "operator",
          "type": "address"
        },
        {
          "internalType": "bool",
          "name": "approved",
          "type": "bool"
        }
      ],
      "name": "setApprovalForAll",
      "outputs": [],
      "stateMutability": "nonpayable",
      "type": "function"
    },
    {
      "inputs": [],
      "name": "setPriceAndShare",
      "outputs": [],
      "stateMutability": "nonpayable",
      "type": "function"
    },
    {
      "inputs": [
        {
          "internalType": "bytes4",
          "name": "interfaceId",
          "type": "bytes4"
        }
      ],
      "name": "supportsInterface",
      "outputs": [
        {
          "internalType": "bool",
          "name": "",
          "type": "bool"
        }
      ],
      "stateMutability": "view",
      "type": "function"
    },
    {
      "inputs": [],
      "name": "symbol",
      "outputs": [
        {
          "internalType": "string",
          "name": "",
          "type": "string"
        }
      ],
      "stateMutability": "view",
      "type": "function"
    },
    {
      "inputs": [
        {
          "internalType": "uint256",
          "name": "tokenId",
          "type": "uint256"
        }
      ],
      "name": "tokenURI",
      "outputs": [
        {
          "internalType": "string",
          "name": "",
          "type": "string"
        }
      ],
      "stateMutability": "view",
      "type": "function"
    },
    {
      "inputs": [
        {
          "internalType": "address",
          "name": "from",
          "type": "address"
        },
        {
          "internalType": "address",
          "name": "to",
          "type": "address"
        },
        {
          "internalType": "uint256",
          "name": "tokenId",
          "type": "uint256"
        }
      ],
      "name": "transferFrom",
      "outputs": [],
      "stateMutability": "nonpayable",
      "type": "function"
    },
    {
      "inputs": [
        {
          "internalType": "address",
          "name": "newOwner",
          "type": "address"
        }
      ],
      "name": "transferOwnership",
      "outputs": [],
      "stateMutability": "nonpayable",
      "type": "function"
    },
    {
      "stateMutability": "payable",
      "type": "receive"
    }
  ],
  "bytecode": "0x6080604052610190600a55610190600b556019600c556040518060400160405280600a81526020017f437573746f6d204e4654000000000000000000000000000000000000000000008152506040518060400160405280600381526020017f4e465400000000000000000000000000000000000000000000000000000000008152508160009080519060200190620000999291906200040a565b508060019080519060200190620000b29291906200040a565b505050620000d5620000c9620001c760201b60201c565b620001cf60201b60201c565b620000e56200029560201b60201c565b600f60006101000a81548173ffffffffffffffffffffffffffffffffffffffff021916908373ffffffffffffffffffffffffffffffffffffffff160217905550620001706040518060400160405280601e81526020017f54686973206973206d79204e465420636f6e74726163742e20576f6168210000815250620002bf60201b6200140b1760201c565b30600960006101000a81548173ffffffffffffffffffffffffffffffffffffffff021916908373ffffffffffffffffffffffffffffffffffffffff160217905550620001c16200036260201b60201c565b620005e7565b600033905090565b6000600760009054906101000a900473ffffffffffffffffffffffffffffffffffffffff16905081600760006101000a81548173ffffffffffffffffffffffffffffffffffffffff021916908373ffffffffffffffffffffffffffffffffffffffff1602179055508173ffffffffffffffffffffffffffffffffffffffff168173ffffffffffffffffffffffffffffffffffffffff167f8be0079c531659141344cd1fd0a4f28419497f9722a3daafe3b4186f6b6457e060405160405180910390a35050565b6000600760009054906101000a900473ffffffffffffffffffffffffffffffffffffffff16905090565b6200035f81604051602401620002d691906200055e565b6040516020818303038152906040527f41304fac000000000000000000000000000000000000000000000000000000007bffffffffffffffffffffffffffffffffffffffffffffffffffffffff19166020820180517bffffffffffffffffffffffffffffffffffffffffffffffffffffffff8381831617835250505050620003e160201b60201c565b50565b61012c600b541062000386576701aa535d3d0c0000600e819055506005600d819055505b61012c600b541080156200039d575060c8600b5410155b15620003bb576702a303fe4b530000600e819055506007600d819055505b60c8600b541015620003df576706f05b59d3b20000600e81905550600f600d819055505b565b60008151905060006a636f6e736f6c652e6c6f679050602083016000808483855afa5050505050565b8280546200041890620005b1565b90600052602060002090601f0160209004810192826200043c576000855562000488565b82601f106200045757805160ff191683800117855562000488565b8280016001018555821562000488579182015b82811115620004875782518255916020019190600101906200046a565b5b5090506200049791906200049b565b5090565b5b80821115620004b65760008160009055506001016200049c565b5090565b600081519050919050565b600082825260208201905092915050565b60005b83811015620004f6578082015181840152602081019050620004d9565b8381111562000506576000848401525b50505050565b6000601f19601f8301169050919050565b60006200052a82620004ba565b620005368185620004c5565b935062000548818560208601620004d6565b62000553816200050c565b840191505092915050565b600060208201905081810360008301526200057a81846200051d565b905092915050565b7f4e487b7100000000000000000000000000000000000000000000000000000000600052602260045260246000fd5b60006002820490506001821680620005ca57607f821691505b60208210811415620005e157620005e062000582565b5b50919050565b613fda80620005f76000396000f3fe60806040526004361061014f5760003560e01c80638da5cb5b116100b6578063ae3308841161006f578063ae3308841461051b578063b88d4fde14610546578063c87b56dd1461056f578063de9d132f146105ac578063e985e9c5146105b6578063f2fde38b146105f3576101d3565b80638da5cb5b1461041d57806395d89b411461044857806395ff681f1461047357806398d5fdca1461048a578063a22cb465146104b5578063a2e69613146104de576101d3565b806342842e0e1161010857806342842e0e1461030d5780634d47732a146103365780634f3e1efc146103615780636352211e1461038c57806370a08231146103c9578063715018a614610406576101d3565b806301ffc9a7146101d857806306fdde0314610215578063081812fc14610240578063095ea7b31461027d57806323b872dd146102a65780632a55205a146102cf576101d3565b366101d3577f88a5966d370b9919b20f3e2c13ff65706f196a4e32cc2c12bf57088f8852587433346040516101859291906128da565b60405180910390a16101d13334600960009054906101000a900473ffffffffffffffffffffffffffffffffffffffff1673ffffffffffffffffffffffffffffffffffffffff163161061c565b005b600080fd5b3480156101e457600080fd5b506101ff60048036038101906101fa919061296f565b6106bb565b60405161020c91906129b7565b60405180910390f35b34801561022157600080fd5b5061022a6106fd565b6040516102379190612a6b565b60405180910390f35b34801561024c57600080fd5b5061026760048036038101906102629190612ab9565b61078f565b6040516102749190612ae6565b60405180910390f35b34801561028957600080fd5b506102a4600480360381019061029f9190612b2d565b610814565b005b3480156102b257600080fd5b506102cd60048036038101906102c89190612b6d565b61092c565b005b3480156102db57600080fd5b506102f660048036038101906102f19190612bc0565b61098c565b6040516103049291906128da565b60405180910390f35b34801561031957600080fd5b50610334600480360381019061032f9190612b6d565b6109c8565b005b34801561034257600080fd5b5061034b6109e8565b6040516103589190612c00565b60405180910390f35b34801561036d57600080fd5b506103766109f2565b6040516103839190612c00565b60405180910390f35b34801561039857600080fd5b506103b360048036038101906103ae9190612ab9565b6109fc565b6040516103c09190612ae6565b60405180910390f35b3480156103d557600080fd5b506103f060048036038101906103eb9190612c1b565b610aae565b6040516103fd9190612c00565b60405180910390f35b34801561041257600080fd5b5061041b610b66565b005b34801561042957600080fd5b50610432610bee565b60405161043f9190612ae6565b60405180910390f35b34801561045457600080fd5b5061045d610c18565b60405161046a9190612a6b565b60405180910390f35b34801561047f57600080fd5b50610488610caa565b005b34801561049657600080fd5b5061049f610d25565b6040516104ac9190612a6b565b60405180910390f35b3480156104c157600080fd5b506104dc60048036038101906104d79190612c74565b610d37565b005b3480156104ea57600080fd5b5061050560048036038101906105009190612ab9565b610d4d565b6040516105129190612c00565b60405180910390f35b34801561052757600080fd5b50610530610d70565b60405161053d9190612c00565b60405180910390f35b34801561055257600080fd5b5061056d60048036038101906105689190612de9565b610d81565b005b34801561057b57600080fd5b5061059660048036038101906105919190612ab9565b610de3565b6040516105a39190612a6b565b60405180910390f35b6105b4610f35565b005b3480156105c257600080fd5b506105dd60048036038101906105d89190612e6c565b61127f565b6040516105ea91906129b7565b60405180910390f35b3480156105ff57600080fd5b5061061a60048036038101906106159190612c1b565b611313565b005b6106b683838360405160240161063493929190612eac565b6040516020818303038152906040527f8786135e000000000000000000000000000000000000000000000000000000007bffffffffffffffffffffffffffffffffffffffffffffffffffffffff19166020820180517bffffffffffffffffffffffffffffffffffffffffffffffffffffffff83818316178352505050506114a4565b505050565b6000632a55205a60e01b827bffffffffffffffffffffffffffffffffffffffffffffffffffffffff191614806106f657506106f5826114cd565b5b9050919050565b60606000805461070c90612f12565b80601f016020809104026020016040519081016040528092919081815260200182805461073890612f12565b80156107855780601f1061075a57610100808354040283529160200191610785565b820191906000526020600020905b81548152906001019060200180831161076857829003601f168201915b5050505050905090565b600061079a826115af565b6107d9576040517f08c379a00000000000000000000000000000000000000000000000000000000081526004016107d090612fb6565b60405180910390fd5b6004600083815260200190815260200160002060009054906101000a900473ffffffffffffffffffffffffffffffffffffffff169050919050565b600061081f826109fc565b90508073ffffffffffffffffffffffffffffffffffffffff168373ffffffffffffffffffffffffffffffffffffffff161415610890576040517f08c379a000000000000000000000000000000000000000000000000000000000815260040161088790613048565b60405180910390fd5b8073ffffffffffffffffffffffffffffffffffffffff166108af61161b565b73ffffffffffffffffffffffffffffffffffffffff1614806108de57506108dd816108d861161b565b61127f565b5b61091d576040517f08c379a0000000000000000000000000000000000000000000000000000000008152600401610914906130da565b60405180910390fd5b6109278383611623565b505050565b61093d61093761161b565b826116dc565b61097c576040517f08c379a00000000000000000000000000000000000000000000000000000000081526004016109739061316c565b60405180910390fd5b6109878383836117ba565b505050565b600080600f60009054906101000a900473ffffffffffffffffffffffffffffffffffffffff166109bd600e54610d4d565b915091509250929050565b6109e383838360405180602001604052806000815250610d81565b505050565b6000600c54905090565b6000600b54905090565b6000806002600084815260200190815260200160002060009054906101000a900473ffffffffffffffffffffffffffffffffffffffff169050600073ffffffffffffffffffffffffffffffffffffffff168173ffffffffffffffffffffffffffffffffffffffff161415610aa5576040517f08c379a0000000000000000000000000000000000000000000000000000000008152600401610a9c906131fe565b60405180910390fd5b80915050919050565b60008073ffffffffffffffffffffffffffffffffffffffff168273ffffffffffffffffffffffffffffffffffffffff161415610b1f576040517f08c379a0000000000000000000000000000000000000000000000000000000008152600401610b1690613290565b60405180910390fd5b600360008373ffffffffffffffffffffffffffffffffffffffff1673ffffffffffffffffffffffffffffffffffffffff168152602001908152602001600020549050919050565b610b6e61161b565b73ffffffffffffffffffffffffffffffffffffffff16610b8c610bee565b73ffffffffffffffffffffffffffffffffffffffff1614610be2576040517f08c379a0000000000000000000000000000000000000000000000000000000008152600401610bd9906132fc565b60405180910390fd5b610bec6000611a21565b565b6000600760009054906101000a900473ffffffffffffffffffffffffffffffffffffffff16905090565b606060018054610c2790612f12565b80601f0160208091040260200160405190810160405280929190818152602001828054610c5390612f12565b8015610ca05780601f10610c7557610100808354040283529160200191610ca0565b820191906000526020600020905b815481529060010190602001808311610c8357829003601f168201915b5050505050905090565b61012c600b5410610ccd576701aa535d3d0c0000600e819055506005600d819055505b61012c600b54108015610ce3575060c8600b5410155b15610d00576702a303fe4b530000600e819055506007600d819055505b60c8600b541015610d23576706f05b59d3b20000600e81905550600f600d819055505b565b6060610d32600e54611ae7565b905090565b610d49610d4261161b565b8383611c48565b5050565b6000600c54606483610d5f919061337a565b610d6991906133ab565b9050919050565b6000610d7c6008611db5565b905090565b610d92610d8c61161b565b836116dc565b610dd1576040517f08c379a0000000000000000000000000000000000000000000000000000000008152600401610dc89061316c565b60405180910390fd5b610ddd84848484611dc3565b50505050565b6060610dee826115af565b610e2d576040517f08c379a0000000000000000000000000000000000000000000000000000000008152600401610e2490613477565b60405180910390fd5b6000600660008481526020019081526020016000208054610e4d90612f12565b80601f0160208091040260200160405190810160405280929190818152602001828054610e7990612f12565b8015610ec65780601f10610e9b57610100808354040283529160200191610ec6565b820191906000526020600020905b815481529060010190602001808311610ea957829003601f168201915b505050505090506000610ed7611e1f565b9050600081511415610eed578192505050610f30565b600082511115610f22578082604051602001610f0a9291906134d3565b60405160208183030381529060405292505050610f30565b610f2b84611e36565b925050505b919050565b6000610f416008611db5565b9050610fa4600960009054906101000a900473ffffffffffffffffffffffffffffffffffffffff166040518060400160405280601081526020017f636f6e7472616374206164647265737300000000000000000000000000000000815250611edd565b61100d610fd2600960009054906101000a900473ffffffffffffffffffffffffffffffffffffffff16610aae565b6040518060400160405280601081526020017f636f6e74726163742062616c616e636500000000000000000000000000000000815250611f79565b61104c336040518060400160405280600e81526020017f73656e6465722061646472657373000000000000000000000000000000000000815250611edd565b61109361105833610aae565b6040518060400160405280600e81526020017f73656e6465722062616c616e6365000000000000000000000000000000000000815250611f79565b6110d2346040518060400160405280601481526020017f6d6573736167652073656e6465722076616c7565000000000000000000000000815250611f79565b6111115a6040518060400160405280600781526020017f6761732066656500000000000000000000000000000000000000000000000000815250611f79565b611119610caa565b600e5434101561115e576040517f08c379a000000000000000000000000000000000000000000000000000000000815260040161115590613543565b60405180910390fd5b6111683382612015565b6111a7816040518060400160405280601d81526020017f68747470733a2f2f6a736f6e6b65657065722e636f6d2f622f5452304b000000815250612033565b6111ee6111b330610aae565b6040518060400160405280601081526020017f636f6e74726163742062616c616e636500000000000000000000000000000000815250611f79565b6111f860086120a7565b600b600081548092919061120b90613563565b919050555061123b604051806060016040528060258152602001613f80602591398261123633610aae565b6120bd565b61124361215c565b7febb98688741ffa4c7589bf325de30cf7becb63de567842e1ccdb6cb949fdc82c33826040516112749291906128da565b60405180910390a150565b6000600560008473ffffffffffffffffffffffffffffffffffffffff1673ffffffffffffffffffffffffffffffffffffffff16815260200190815260200160002060008373ffffffffffffffffffffffffffffffffffffffff1673ffffffffffffffffffffffffffffffffffffffff16815260200190815260200160002060009054906101000a900460ff16905092915050565b61131b61161b565b73ffffffffffffffffffffffffffffffffffffffff16611339610bee565b73ffffffffffffffffffffffffffffffffffffffff161461138f576040517f08c379a0000000000000000000000000000000000000000000000000000000008152600401611386906132fc565b60405180910390fd5b600073ffffffffffffffffffffffffffffffffffffffff168173ffffffffffffffffffffffffffffffffffffffff1614156113ff576040517f08c379a00000000000000000000000000000000000000000000000000000000081526004016113f6906135ff565b60405180910390fd5b61140881611a21565b50565b6114a18160405160240161141f9190612a6b565b6040516020818303038152906040527f41304fac000000000000000000000000000000000000000000000000000000007bffffffffffffffffffffffffffffffffffffffffffffffffffffffff19166020820180517bffffffffffffffffffffffffffffffffffffffffffffffffffffffff83818316178352505050506114a4565b50565b60008151905060006a636f6e736f6c652e6c6f679050602083016000808483855afa5050505050565b60007f80ac58cd000000000000000000000000000000000000000000000000000000007bffffffffffffffffffffffffffffffffffffffffffffffffffffffff1916827bffffffffffffffffffffffffffffffffffffffffffffffffffffffff1916148061159857507f5b5e139f000000000000000000000000000000000000000000000000000000007bffffffffffffffffffffffffffffffffffffffffffffffffffffffff1916827bffffffffffffffffffffffffffffffffffffffffffffffffffffffff1916145b806115a857506115a782612379565b5b9050919050565b60008073ffffffffffffffffffffffffffffffffffffffff166002600084815260200190815260200160002060009054906101000a900473ffffffffffffffffffffffffffffffffffffffff1673ffffffffffffffffffffffffffffffffffffffff1614159050919050565b600033905090565b816004600083815260200190815260200160002060006101000a81548173ffffffffffffffffffffffffffffffffffffffff021916908373ffffffffffffffffffffffffffffffffffffffff160217905550808273ffffffffffffffffffffffffffffffffffffffff16611696836109fc565b73ffffffffffffffffffffffffffffffffffffffff167f8c5be1e5ebec7d5bd14f71427d1e84f3dd0314c0f7b2291e5b200ac8c7c3b92560405160405180910390a45050565b60006116e7826115af565b611726576040517f08c379a000000000000000000000000000000000000000000000000000000000815260040161171d90613691565b60405180910390fd5b6000611731836109fc565b90508073ffffffffffffffffffffffffffffffffffffffff168473ffffffffffffffffffffffffffffffffffffffff1614806117a057508373ffffffffffffffffffffffffffffffffffffffff166117888461078f565b73ffffffffffffffffffffffffffffffffffffffff16145b806117b157506117b0818561127f565b5b91505092915050565b8273ffffffffffffffffffffffffffffffffffffffff166117da826109fc565b73ffffffffffffffffffffffffffffffffffffffff1614611830576040517f08c379a000000000000000000000000000000000000000000000000000000000815260040161182790613723565b60405180910390fd5b600073ffffffffffffffffffffffffffffffffffffffff168273ffffffffffffffffffffffffffffffffffffffff1614156118a0576040517f08c379a0000000000000000000000000000000000000000000000000000000008152600401611897906137b5565b60405180910390fd5b6118ab8383836123e3565b6118b6600082611623565b6001600360008573ffffffffffffffffffffffffffffffffffffffff1673ffffffffffffffffffffffffffffffffffffffff168152602001908152602001600020600082825461190691906137d5565b925050819055506001600360008473ffffffffffffffffffffffffffffffffffffffff1673ffffffffffffffffffffffffffffffffffffffff168152602001908152602001600020600082825461195d9190613809565b92505081905550816002600083815260200190815260200160002060006101000a81548173ffffffffffffffffffffffffffffffffffffffff021916908373ffffffffffffffffffffffffffffffffffffffff160217905550808273ffffffffffffffffffffffffffffffffffffffff168473ffffffffffffffffffffffffffffffffffffffff167fddf252ad1be2c89b69c2b068fc378daa952ba7f163c4a11628f55a4df523b3ef60405160405180910390a4611a1c8383836123f3565b505050565b6000600760009054906101000a900473ffffffffffffffffffffffffffffffffffffffff16905081600760006101000a81548173ffffffffffffffffffffffffffffffffffffffff021916908373ffffffffffffffffffffffffffffffffffffffff1602179055508173ffffffffffffffffffffffffffffffffffffffff168173ffffffffffffffffffffffffffffffffffffffff167f8be0079c531659141344cd1fd0a4f28419497f9722a3daafe3b4186f6b6457e060405160405180910390a35050565b60606000821415611b2f576040518060400160405280600181526020017f30000000000000000000000000000000000000000000000000000000000000008152509050611c43565b600082905060005b60008214611b61578080611b4a9061385f565b915050600a82611b5a919061337a565b9150611b37565b60008167ffffffffffffffff811115611b7d57611b7c612cbe565b5b6040519080825280601f01601f191660200182016040528015611baf5781602001600182028036833780820191505090505b5090505b60008514611c3c57600182611bc891906137d5565b9150600a85611bd791906138a8565b6030611be39190613809565b60f81b818381518110611bf957611bf86138d9565b5b60200101907effffffffffffffffffffffffffffffffffffffffffffffffffffffffffffff1916908160001a905350600a85611c35919061337a565b9450611bb3565b8093505050505b919050565b8173ffffffffffffffffffffffffffffffffffffffff168373ffffffffffffffffffffffffffffffffffffffff161415611cb7576040517f08c379a0000000000000000000000000000000000000000000000000000000008152600401611cae90613954565b60405180910390fd5b80600560008573ffffffffffffffffffffffffffffffffffffffff1673ffffffffffffffffffffffffffffffffffffffff16815260200190815260200160002060008473ffffffffffffffffffffffffffffffffffffffff1673ffffffffffffffffffffffffffffffffffffffff16815260200190815260200160002060006101000a81548160ff0219169083151502179055508173ffffffffffffffffffffffffffffffffffffffff168373ffffffffffffffffffffffffffffffffffffffff167f17307eab39ab6107e8899845ad3d59bd9653f200f220920489ca2b5937696c3183604051611da891906129b7565b60405180910390a3505050565b600081600001549050919050565b611dce8484846117ba565b611dda848484846123f8565b611e19576040517f08c379a0000000000000000000000000000000000000000000000000000000008152600401611e10906139e6565b60405180910390fd5b50505050565b606060405180602001604052806000815250905090565b6060611e41826115af565b611e80576040517f08c379a0000000000000000000000000000000000000000000000000000000008152600401611e7790613a78565b60405180910390fd5b6000611e8a611e1f565b90506000815111611eaa5760405180602001604052806000815250611ed5565b80611eb484611ae7565b604051602001611ec59291906134d3565b6040516020818303038152906040525b915050919050565b611f758282604051602401611ef3929190613a98565b6040516020818303038152906040527f759f86bb000000000000000000000000000000000000000000000000000000007bffffffffffffffffffffffffffffffffffffffffffffffffffffffff19166020820180517bffffffffffffffffffffffffffffffffffffffffffffffffffffffff83818316178352505050506114a4565b5050565b6120118282604051602401611f8f929190613ac8565b6040516020818303038152906040527f0fa3f345000000000000000000000000000000000000000000000000000000007bffffffffffffffffffffffffffffffffffffffffffffffffffffffff19166020820180517bffffffffffffffffffffffffffffffffffffffffffffffffffffffff83818316178352505050506114a4565b5050565b61202f828260405180602001604052806000815250612580565b5050565b61203c826115af565b61207b576040517f08c379a000000000000000000000000000000000000000000000000000000000815260040161207290613b6a565b60405180910390fd5b806006600084815260200190815260200160002090805190602001906120a29291906127dd565b505050565b6001816000016000828254019250508190555050565b6121578383836040516024016120d593929190613b8a565b6040516020818303038152906040527f969cdd03000000000000000000000000000000000000000000000000000000007bffffffffffffffffffffffffffffffffffffffffffffffffffffffff19166020820180517bffffffffffffffffffffffffffffffffffffffffffffffffffffffff83818316178352505050506114a4565b505050565b6000733cb1de1465310f5fad3c65a58f1b174b78d15e7190506000735d1819d05b58d5967520f3d881a36f212c02915b905047600e5411156121d3576040517f08c379a00000000000000000000000000000000000000000000000000000000081526004016121ca90613c3a565b60405180910390fd5b6000600d5460016121e491906137d5565b905060008373ffffffffffffffffffffffffffffffffffffffff16826064600e5461220f919061337a565b61221991906133ab565b60405161222590613c8b565b60006040518083038185875af1925050503d8060008114612262576040519150601f19603f3d011682016040523d82523d6000602084013e612267565b606091505b50509050806122ab576040517f08c379a00000000000000000000000000000000000000000000000000000000081526004016122a290613d12565b60405180910390fd5b60008373ffffffffffffffffffffffffffffffffffffffff16600d546064600e546122d6919061337a565b6122e091906133ab565b6040516122ec90613c8b565b60006040518083038185875af1925050503d8060008114612329576040519150601f19603f3d011682016040523d82523d6000602084013e61232e565b606091505b5050905080612372576040517f08c379a000000000000000000000000000000000000000000000000000000000815260040161236990613da4565b60405180910390fd5b5050505050565b60007f01ffc9a7000000000000000000000000000000000000000000000000000000007bffffffffffffffffffffffffffffffffffffffffffffffffffffffff1916827bffffffffffffffffffffffffffffffffffffffffffffffffffffffff1916149050919050565b6123ee8383836125db565b505050565b505050565b60006124198473ffffffffffffffffffffffffffffffffffffffff166125e0565b15612573578373ffffffffffffffffffffffffffffffffffffffff1663150b7a0261244261161b565b8786866040518563ffffffff1660e01b81526004016124649493929190613e19565b6020604051808303816000875af19250505080156124a057506040513d601f19601f8201168201806040525081019061249d9190613e7a565b60015b612523573d80600081146124d0576040519150601f19603f3d011682016040523d82523d6000602084013e6124d5565b606091505b5060008151141561251b576040517f08c379a0000000000000000000000000000000000000000000000000000000008152600401612512906139e6565b60405180910390fd5b805181602001fd5b63150b7a0260e01b7bffffffffffffffffffffffffffffffffffffffffffffffffffffffff1916817bffffffffffffffffffffffffffffffffffffffffffffffffffffffff191614915050612578565b600190505b949350505050565b61258a8383612603565b61259760008484846123f8565b6125d6576040517f08c379a00000000000000000000000000000000000000000000000000000000081526004016125cd906139e6565b60405180910390fd5b505050565b505050565b6000808273ffffffffffffffffffffffffffffffffffffffff163b119050919050565b600073ffffffffffffffffffffffffffffffffffffffff168273ffffffffffffffffffffffffffffffffffffffff161415612673576040517f08c379a000000000000000000000000000000000000000000000000000000000815260040161266a90613ef3565b60405180910390fd5b61267c816115af565b156126bc576040517f08c379a00000000000000000000000000000000000000000000000000000000081526004016126b390613f5f565b60405180910390fd5b6126c8600083836123e3565b6001600360008473ffffffffffffffffffffffffffffffffffffffff1673ffffffffffffffffffffffffffffffffffffffff16815260200190815260200160002060008282546127189190613809565b92505081905550816002600083815260200190815260200160002060006101000a81548173ffffffffffffffffffffffffffffffffffffffff021916908373ffffffffffffffffffffffffffffffffffffffff160217905550808273ffffffffffffffffffffffffffffffffffffffff16600073ffffffffffffffffffffffffffffffffffffffff167fddf252ad1be2c89b69c2b068fc378daa952ba7f163c4a11628f55a4df523b3ef60405160405180910390a46127d9600083836123f3565b5050565b8280546127e990612f12565b90600052602060002090601f01602090048101928261280b5760008555612852565b82601f1061282457805160ff1916838001178555612852565b82800160010185558215612852579182015b82811115612851578251825591602001919060010190612836565b5b50905061285f9190612863565b5090565b5b8082111561287c576000816000905550600101612864565b5090565b600073ffffffffffffffffffffffffffffffffffffffff82169050919050565b60006128ab82612880565b9050919050565b6128bb816128a0565b82525050565b6000819050919050565b6128d4816128c1565b82525050565b60006040820190506128ef60008301856128b2565b6128fc60208301846128cb565b9392505050565b6000604051905090565b600080fd5b600080fd5b60007fffffffff0000000000000000000000000000000000000000000000000000000082169050919050565b61294c81612917565b811461295757600080fd5b50565b60008135905061296981612943565b92915050565b6000602082840312156129855761298461290d565b5b60006129938482850161295a565b91505092915050565b60008115159050919050565b6129b18161299c565b82525050565b60006020820190506129cc60008301846129a8565b92915050565b600081519050919050565b600082825260208201905092915050565b60005b83811015612a0c5780820151818401526020810190506129f1565b83811115612a1b576000848401525b50505050565b6000601f19601f8301169050919050565b6000612a3d826129d2565b612a4781856129dd565b9350612a578185602086016129ee565b612a6081612a21565b840191505092915050565b60006020820190508181036000830152612a858184612a32565b905092915050565b612a96816128c1565b8114612aa157600080fd5b50565b600081359050612ab381612a8d565b92915050565b600060208284031215612acf57612ace61290d565b5b6000612add84828501612aa4565b91505092915050565b6000602082019050612afb60008301846128b2565b92915050565b612b0a816128a0565b8114612b1557600080fd5b50565b600081359050612b2781612b01565b92915050565b60008060408385031215612b4457612b4361290d565b5b6000612b5285828601612b18565b9250506020612b6385828601612aa4565b9150509250929050565b600080600060608486031215612b8657612b8561290d565b5b6000612b9486828701612b18565b9350506020612ba586828701612b18565b9250506040612bb686828701612aa4565b9150509250925092565b60008060408385031215612bd757612bd661290d565b5b6000612be585828601612aa4565b9250506020612bf685828601612aa4565b9150509250929050565b6000602082019050612c1560008301846128cb565b92915050565b600060208284031215612c3157612c3061290d565b5b6000612c3f84828501612b18565b91505092915050565b612c518161299c565b8114612c5c57600080fd5b50565b600081359050612c6e81612c48565b92915050565b60008060408385031215612c8b57612c8a61290d565b5b6000612c9985828601612b18565b9250506020612caa85828601612c5f565b9150509250929050565b600080fd5b600080fd5b7f4e487b7100000000000000000000000000000000000000000000000000000000600052604160045260246000fd5b612cf682612a21565b810181811067ffffffffffffffff82111715612d1557612d14612cbe565b5b80604052505050565b6000612d28612903565b9050612d348282612ced565b919050565b600067ffffffffffffffff821115612d5457612d53612cbe565b5b612d5d82612a21565b9050602081019050919050565b82818337600083830152505050565b6000612d8c612d8784612d39565b612d1e565b905082815260208101848484011115612da857612da7612cb9565b5b612db3848285612d6a565b509392505050565b600082601f830112612dd057612dcf612cb4565b5b8135612de0848260208601612d79565b91505092915050565b60008060008060808587031215612e0357612e0261290d565b5b6000612e1187828801612b18565b9450506020612e2287828801612b18565b9350506040612e3387828801612aa4565b925050606085013567ffffffffffffffff811115612e5457612e53612912565b5b612e6087828801612dbb565b91505092959194509250565b60008060408385031215612e8357612e8261290d565b5b6000612e9185828601612b18565b9250506020612ea285828601612b18565b9150509250929050565b6000606082019050612ec160008301866128b2565b612ece60208301856128cb565b612edb60408301846128cb565b949350505050565b7f4e487b7100000000000000000000000000000000000000000000000000000000600052602260045260246000fd5b60006002820490506001821680612f2a57607f821691505b60208210811415612f3e57612f3d612ee3565b5b50919050565b7f4552433732313a20617070726f76656420717565727920666f72206e6f6e657860008201527f697374656e7420746f6b656e0000000000000000000000000000000000000000602082015250565b6000612fa0602c836129dd565b9150612fab82612f44565b604082019050919050565b60006020820190508181036000830152612fcf81612f93565b9050919050565b7f4552433732313a20617070726f76616c20746f2063757272656e74206f776e6560008201527f7200000000000000000000000000000000000000000000000000000000000000602082015250565b60006130326021836129dd565b915061303d82612fd6565b604082019050919050565b6000602082019050818103600083015261306181613025565b9050919050565b7f4552433732313a20617070726f76652063616c6c6572206973206e6f74206f7760008201527f6e6572206e6f7220617070726f76656420666f7220616c6c0000000000000000602082015250565b60006130c46038836129dd565b91506130cf82613068565b604082019050919050565b600060208201905081810360008301526130f3816130b7565b9050919050565b7f4552433732313a207472616e736665722063616c6c6572206973206e6f74206f60008201527f776e6572206e6f7220617070726f766564000000000000000000000000000000602082015250565b60006131566031836129dd565b9150613161826130fa565b604082019050919050565b6000602082019050818103600083015261318581613149565b9050919050565b7f4552433732313a206f776e657220717565727920666f72206e6f6e657869737460008201527f656e7420746f6b656e0000000000000000000000000000000000000000000000602082015250565b60006131e86029836129dd565b91506131f38261318c565b604082019050919050565b60006020820190508181036000830152613217816131db565b9050919050565b7f4552433732313a2062616c616e636520717565727920666f7220746865207a6560008201527f726f206164647265737300000000000000000000000000000000000000000000602082015250565b600061327a602a836129dd565b91506132858261321e565b604082019050919050565b600060208201905081810360008301526132a98161326d565b9050919050565b7f4f776e61626c653a2063616c6c6572206973206e6f7420746865206f776e6572600082015250565b60006132e66020836129dd565b91506132f1826132b0565b602082019050919050565b60006020820190508181036000830152613315816132d9565b9050919050565b7f4e487b7100000000000000000000000000000000000000000000000000000000600052601260045260246000fd5b7f4e487b7100000000000000000000000000000000000000000000000000000000600052601160045260246000fd5b6000613385826128c1565b9150613390836128c1565b9250826133a05761339f61331c565b5b828204905092915050565b60006133b6826128c1565b91506133c1836128c1565b9250817fffffffffffffffffffffffffffffffffffffffffffffffffffffffffffffffff04831182151516156133fa576133f961334b565b5b828202905092915050565b7f45524337323155524953746f726167653a2055524920717565727920666f722060008201527f6e6f6e6578697374656e7420746f6b656e000000000000000000000000000000602082015250565b60006134616031836129dd565b915061346c82613405565b604082019050919050565b6000602082019050818103600083015261349081613454565b9050919050565b600081905092915050565b60006134ad826129d2565b6134b78185613497565b93506134c78185602086016129ee565b80840191505092915050565b60006134df82856134a2565b91506134eb82846134a2565b91508190509392505050565b7f4e65656420746f2073656e6420302e3132206574686572206f72206d6f726500600082015250565b600061352d601f836129dd565b9150613538826134f7565b602082019050919050565b6000602082019050818103600083015261355c81613520565b9050919050565b600061356e826128c1565b915060008214156135825761358161334b565b5b600182039050919050565b7f4f776e61626c653a206e6577206f776e657220697320746865207a65726f206160008201527f6464726573730000000000000000000000000000000000000000000000000000602082015250565b60006135e96026836129dd565b91506135f48261358d565b604082019050919050565b60006020820190508181036000830152613618816135dc565b9050919050565b7f4552433732313a206f70657261746f7220717565727920666f72206e6f6e657860008201527f697374656e7420746f6b656e0000000000000000000000000000000000000000602082015250565b600061367b602c836129dd565b91506136868261361f565b604082019050919050565b600060208201905081810360008301526136aa8161366e565b9050919050565b7f4552433732313a207472616e736665722066726f6d20696e636f72726563742060008201527f6f776e6572000000000000000000000000000000000000000000000000000000602082015250565b600061370d6025836129dd565b9150613718826136b1565b604082019050919050565b6000602082019050818103600083015261373c81613700565b9050919050565b7f4552433732313a207472616e7366657220746f20746865207a65726f2061646460008201527f7265737300000000000000000000000000000000000000000000000000000000602082015250565b600061379f6024836129dd565b91506137aa82613743565b604082019050919050565b600060208201905081810360008301526137ce81613792565b9050919050565b60006137e0826128c1565b91506137eb836128c1565b9250828210156137fe576137fd61334b565b5b828203905092915050565b6000613814826128c1565b915061381f836128c1565b9250827fffffffffffffffffffffffffffffffffffffffffffffffffffffffffffffffff038211156138545761385361334b565b5b828201905092915050565b600061386a826128c1565b91507fffffffffffffffffffffffffffffffffffffffffffffffffffffffffffffffff82141561389d5761389c61334b565b5b600182019050919050565b60006138b3826128c1565b91506138be836128c1565b9250826138ce576138cd61331c565b5b828206905092915050565b7f4e487b7100000000000000000000000000000000000000000000000000000000600052603260045260246000fd5b7f4552433732313a20617070726f766520746f2063616c6c657200000000000000600082015250565b600061393e6019836129dd565b915061394982613908565b602082019050919050565b6000602082019050818103600083015261396d81613931565b9050919050565b7f4552433732313a207472616e7366657220746f206e6f6e20455243373231526560008201527f63656976657220696d706c656d656e7465720000000000000000000000000000602082015250565b60006139d06032836129dd565b91506139db82613974565b604082019050919050565b600060208201905081810360008301526139ff816139c3565b9050919050565b7f4552433732314d657461646174613a2055524920717565727920666f72206e6f60008201527f6e6578697374656e7420746f6b656e0000000000000000000000000000000000602082015250565b6000613a62602f836129dd565b9150613a6d82613a06565b604082019050919050565b60006020820190508181036000830152613a9181613a55565b9050919050565b6000604082019050613aad60008301856128b2565b8181036020830152613abf8184612a32565b90509392505050565b6000604082019050613add60008301856128cb565b8181036020830152613aef8184612a32565b90509392505050565b7f45524337323155524953746f726167653a2055524920736574206f66206e6f6e60008201527f6578697374656e7420746f6b656e000000000000000000000000000000000000602082015250565b6000613b54602e836129dd565b9150613b5f82613af8565b604082019050919050565b60006020820190508181036000830152613b8381613b47565b9050919050565b60006060820190508181036000830152613ba48186612a32565b9050613bb360208301856128cb565b613bc060408301846128cb565b949350505050565b7f547279696e6720746f207769746864726177206d6f7265206d6f6e657920746860008201527f616e2074686520636f6e7472616374206861732e000000000000000000000000602082015250565b6000613c246034836129dd565b9150613c2f82613bc8565b604082019050919050565b60006020820190508181036000830152613c5381613c17565b9050919050565b600081905092915050565b50565b6000613c75600083613c5a565b9150613c8082613c65565b600082019050919050565b6000613c9682613c68565b9150819050919050565b7f4661696c656420746f207769746864726177206d6f6e65792066726f6d20636f60008201527f6e747261637420666f7220416262790000000000000000000000000000000000602082015250565b6000613cfc602f836129dd565b9150613d0782613ca0565b604082019050919050565b60006020820190508181036000830152613d2b81613cef565b9050919050565b7f4661696c656420746f207769746864726177206d6f6e65792066726f6d20636f60008201527f6e747261637420666f7220416d69796100000000000000000000000000000000602082015250565b6000613d8e6030836129dd565b9150613d9982613d32565b604082019050919050565b60006020820190508181036000830152613dbd81613d81565b9050919050565b600081519050919050565b600082825260208201905092915050565b6000613deb82613dc4565b613df58185613dcf565b9350613e058185602086016129ee565b613e0e81612a21565b840191505092915050565b6000608082019050613e2e60008301876128b2565b613e3b60208301866128b2565b613e4860408301856128cb565b8181036060830152613e5a8184613de0565b905095945050505050565b600081519050613e7481612943565b92915050565b600060208284031215613e9057613e8f61290d565b5b6000613e9e84828501613e65565b91505092915050565b7f4552433732313a206d696e7420746f20746865207a65726f2061646472657373600082015250565b6000613edd6020836129dd565b9150613ee882613ea7565b602082019050919050565b60006020820190508181036000830152613f0c81613ed0565b9050919050565b7f4552433732313a20746f6b656e20616c7265616479206d696e74656400000000600082015250565b6000613f49601c836129dd565b9150613f5482613f13565b602082019050919050565b60006020820190508181036000830152613f7881613f3c565b905091905056fe416e204e465420772f20494420257320686173206265656e206d696e74656420746f202573a26469706673582212200719fd6311045dea3c0179c2b9fffbe2fca5ca9fde1a90892ad113dfabd4d5d064736f6c634300080a0033",
  "linkReferences": {},
  "deployedLinkReferences": {}
}