{
  "_format": "hh-sol-artifact-1",
  "contractName": "MyEpicNFT",
  "sourceName": "contracts/MyEpicNFT.sol",
  "abi": [
    {
      "inputs": [],
      "stateMutability": "payable",
      "type": "constructor"
    },
    {
      "anonymous": false,
      "inputs": [
        {
          "indexed": true,
          "internalType": "address",
          "name": "owner",
          "type": "address"
        },
        {
          "indexed": true,
          "internalType": "address",
          "name": "approved",
          "type": "address"
        },
        {
          "indexed": true,
          "internalType": "uint256",
          "name": "tokenId",
          "type": "uint256"
        }
      ],
      "name": "Approval",
      "type": "event"
    },
    {
      "anonymous": false,
      "inputs": [
        {
          "indexed": true,
          "internalType": "address",
          "name": "owner",
          "type": "address"
        },
        {
          "indexed": true,
          "internalType": "address",
          "name": "operator",
          "type": "address"
        },
        {
          "indexed": false,
          "internalType": "bool",
          "name": "approved",
          "type": "bool"
        }
      ],
      "name": "ApprovalForAll",
      "type": "event"
    },
    {
      "anonymous": false,
      "inputs": [
        {
          "indexed": false,
          "internalType": "address",
          "name": "sender",
          "type": "address"
        },
        {
          "indexed": false,
          "internalType": "uint256",
          "name": "tokenId",
          "type": "uint256"
        }
      ],
      "name": "NewEpicNFTMinted",
      "type": "event"
    },
    {
      "anonymous": false,
      "inputs": [
        {
          "indexed": true,
          "internalType": "address",
          "name": "previousOwner",
          "type": "address"
        },
        {
          "indexed": true,
          "internalType": "address",
          "name": "newOwner",
          "type": "address"
        }
      ],
      "name": "OwnershipTransferred",
      "type": "event"
    },
    {
      "anonymous": false,
      "inputs": [
        {
          "indexed": false,
          "internalType": "address",
          "name": "",
          "type": "address"
        },
        {
          "indexed": false,
          "internalType": "uint256",
          "name": "",
          "type": "uint256"
        }
      ],
      "name": "Received",
      "type": "event"
    },
    {
      "anonymous": false,
      "inputs": [
        {
          "indexed": true,
          "internalType": "address",
          "name": "from",
          "type": "address"
        },
        {
          "indexed": true,
          "internalType": "address",
          "name": "to",
          "type": "address"
        },
        {
          "indexed": true,
          "internalType": "uint256",
          "name": "tokenId",
          "type": "uint256"
        }
      ],
      "name": "Transfer",
      "type": "event"
    },
    {
      "inputs": [
        {
          "internalType": "address",
          "name": "to",
          "type": "address"
        },
        {
          "internalType": "uint256",
          "name": "tokenId",
          "type": "uint256"
        }
      ],
      "name": "approve",
      "outputs": [],
      "stateMutability": "nonpayable",
      "type": "function"
    },
    {
      "inputs": [
        {
          "internalType": "address",
          "name": "owner",
          "type": "address"
        }
      ],
      "name": "balanceOf",
      "outputs": [
        {
          "internalType": "uint256",
          "name": "",
          "type": "uint256"
        }
      ],
      "stateMutability": "view",
      "type": "function"
    },
    {
      "inputs": [
        {
          "internalType": "uint256",
          "name": "tokenId",
          "type": "uint256"
        }
      ],
      "name": "getApproved",
      "outputs": [
        {
          "internalType": "address",
          "name": "",
          "type": "address"
        }
      ],
      "stateMutability": "view",
      "type": "function"
    },
    {
      "inputs": [],
      "name": "getCurrentSupply",
      "outputs": [
        {
          "internalType": "uint256",
          "name": "",
          "type": "uint256"
        }
      ],
      "stateMutability": "view",
      "type": "function"
    },
    {
      "inputs": [],
      "name": "getPrice",
      "outputs": [
        {
          "internalType": "uint256",
          "name": "",
          "type": "uint256"
        }
      ],
      "stateMutability": "view",
      "type": "function"
    },
    {
      "inputs": [],
      "name": "getRoyalty",
      "outputs": [
        {
          "internalType": "uint256",
          "name": "",
          "type": "uint256"
        }
      ],
      "stateMutability": "view",
      "type": "function"
    },
    {
      "inputs": [
        {
          "internalType": "address",
          "name": "owner",
          "type": "address"
        },
        {
          "internalType": "address",
          "name": "operator",
          "type": "address"
        }
      ],
      "name": "isApprovedForAll",
      "outputs": [
        {
          "internalType": "bool",
          "name": "",
          "type": "bool"
        }
      ],
      "stateMutability": "view",
      "type": "function"
    },
    {
      "inputs": [],
      "name": "makeAnEpicNFT",
      "outputs": [],
      "stateMutability": "payable",
      "type": "function"
    },
    {
      "inputs": [],
      "name": "name",
      "outputs": [
        {
          "internalType": "string",
          "name": "",
          "type": "string"
        }
      ],
      "stateMutability": "view",
      "type": "function"
    },
    {
      "inputs": [],
      "name": "owner",
      "outputs": [
        {
          "internalType": "address",
          "name": "",
          "type": "address"
        }
      ],
      "stateMutability": "view",
      "type": "function"
    },
    {
      "inputs": [
        {
          "internalType": "uint256",
          "name": "tokenId",
          "type": "uint256"
        }
      ],
      "name": "ownerOf",
      "outputs": [
        {
          "internalType": "address",
          "name": "",
          "type": "address"
        }
      ],
      "stateMutability": "view",
      "type": "function"
    },
    {
      "inputs": [],
      "name": "renounceOwnership",
      "outputs": [],
      "stateMutability": "nonpayable",
      "type": "function"
    },
    {
      "inputs": [],
      "name": "returnTokenID",
      "outputs": [
        {
          "internalType": "uint256",
          "name": "",
          "type": "uint256"
        }
      ],
      "stateMutability": "view",
      "type": "function"
    },
    {
      "inputs": [
        {
          "internalType": "address",
          "name": "from",
          "type": "address"
        },
        {
          "internalType": "address",
          "name": "to",
          "type": "address"
        },
        {
          "internalType": "uint256",
          "name": "tokenId",
          "type": "uint256"
        }
      ],
      "name": "safeTransferFrom",
      "outputs": [],
      "stateMutability": "nonpayable",
      "type": "function"
    },
    {
      "inputs": [
        {
          "internalType": "address",
          "name": "from",
          "type": "address"
        },
        {
          "internalType": "address",
          "name": "to",
          "type": "address"
        },
        {
          "internalType": "uint256",
          "name": "tokenId",
          "type": "uint256"
        },
        {
          "internalType": "bytes",
          "name": "_data",
          "type": "bytes"
        }
      ],
      "name": "safeTransferFrom",
      "outputs": [],
      "stateMutability": "nonpayable",
      "type": "function"
    },
    {
      "inputs": [
        {
          "internalType": "address",
          "name": "operator",
          "type": "address"
        },
        {
          "internalType": "bool",
          "name": "approved",
          "type": "bool"
        }
      ],
      "name": "setApprovalForAll",
      "outputs": [],
      "stateMutability": "nonpayable",
      "type": "function"
    },
    {
      "inputs": [],
      "name": "setPriceAndShare",
      "outputs": [],
      "stateMutability": "nonpayable",
      "type": "function"
    },
    {
      "inputs": [
        {
          "internalType": "bytes4",
          "name": "interfaceId",
          "type": "bytes4"
        }
      ],
      "name": "supportsInterface",
      "outputs": [
        {
          "internalType": "bool",
          "name": "",
          "type": "bool"
        }
      ],
      "stateMutability": "view",
      "type": "function"
    },
    {
      "inputs": [],
      "name": "symbol",
      "outputs": [
        {
          "internalType": "string",
          "name": "",
          "type": "string"
        }
      ],
      "stateMutability": "view",
      "type": "function"
    },
    {
      "inputs": [
        {
          "internalType": "uint256",
          "name": "tokenId",
          "type": "uint256"
        }
      ],
      "name": "tokenURI",
      "outputs": [
        {
          "internalType": "string",
          "name": "",
          "type": "string"
        }
      ],
      "stateMutability": "view",
      "type": "function"
    },
    {
      "inputs": [
        {
          "internalType": "address",
          "name": "from",
          "type": "address"
        },
        {
          "internalType": "address",
          "name": "to",
          "type": "address"
        },
        {
          "internalType": "uint256",
          "name": "tokenId",
          "type": "uint256"
        }
      ],
      "name": "transferFrom",
      "outputs": [],
      "stateMutability": "nonpayable",
      "type": "function"
    },
    {
      "inputs": [
        {
          "internalType": "address",
          "name": "newOwner",
          "type": "address"
        }
      ],
      "name": "transferOwnership",
      "outputs": [],
      "stateMutability": "nonpayable",
      "type": "function"
    },
    {
      "stateMutability": "payable",
      "type": "receive"
    }
  ],
  "bytecode": "0x6080604052600a8055600a600b556109c4600c556040518060400160405280600a81526020017f437573746f6d204e4654000000000000000000000000000000000000000000008152506040518060400160405280600381526020017f4e46540000000000000000000000000000000000000000000000000000000000815250816000908051906020019062000097929190620002ff565b508060019080519060200190620000b0929190620002ff565b505050620000d3620000c76200017a60201b60201c565b6200018260201b60201c565b620000e36200024860201b60201c565b601060006101000a81548173ffffffffffffffffffffffffffffffffffffffff021916908373ffffffffffffffffffffffffffffffffffffffff16021790555030600960006101000a81548173ffffffffffffffffffffffffffffffffffffffff021916908373ffffffffffffffffffffffffffffffffffffffff160217905550620001746200027260201b60201c565b62000414565b600033905090565b6000600760009054906101000a900473ffffffffffffffffffffffffffffffffffffffff16905081600760006101000a81548173ffffffffffffffffffffffffffffffffffffffff021916908373ffffffffffffffffffffffffffffffffffffffff1602179055508173ffffffffffffffffffffffffffffffffffffffff168173ffffffffffffffffffffffffffffffffffffffff167f8be0079c531659141344cd1fd0a4f28419497f9722a3daafe3b4186f6b6457e060405160405180910390a35050565b6000600760009054906101000a900473ffffffffffffffffffffffffffffffffffffffff16905090565b6008600b5410620002955766044364c5bb0000600e81905550610bb8600d819055505b6008600b54108015620002ab57506005600b5410155b15620002c9576606c00a3912c000600e81905550610dac600d819055505b6005600b54108015620002df57506000600b5410155b15620002fd576611c37937e08000600e81905550610fa0600d819055505b565b8280546200030d90620003de565b90600052602060002090601f0160209004810192826200033157600085556200037d565b82601f106200034c57805160ff19168380011785556200037d565b828001600101855582156200037d579182015b828111156200037c5782518255916020019190600101906200035f565b5b5090506200038c919062000390565b5090565b5b80821115620003ab57600081600090555060010162000391565b5090565b7f4e487b7100000000000000000000000000000000000000000000000000000000600052602260045260246000fd5b60006002820490506001821680620003f757607f821691505b602082108114156200040e576200040d620003af565b5b50919050565b613d1b80620004246000396000f3fe6080604052600436106101395760003560e01c80638da5cb5b116100ab578063ae3308841161006f578063ae33088414610446578063b88d4fde14610471578063c87b56dd1461049a578063de9d132f146104d7578063e985e9c5146104e1578063f2fde38b1461051e57610179565b80638da5cb5b1461038557806395d89b41146103b057806395ff681f146103db57806398d5fdca146103f2578063a22cb4651461041d57610179565b806342842e0e116100fd57806342842e0e146102755780634d47732a1461029e5780634f3e1efc146102c95780636352211e146102f457806370a0823114610331578063715018a61461036e57610179565b806301ffc9a71461017e57806306fdde03146101bb578063081812fc146101e6578063095ea7b31461022357806323b872dd1461024c57610179565b36610179577f88a5966d370b9919b20f3e2c13ff65706f196a4e32cc2c12bf57088f88525874333460405161016f929190612537565b60405180910390a1005b600080fd5b34801561018a57600080fd5b506101a560048036038101906101a091906125cc565b610547565b6040516101b29190612614565b60405180910390f35b3480156101c757600080fd5b506101d0610629565b6040516101dd91906126c8565b60405180910390f35b3480156101f257600080fd5b5061020d60048036038101906102089190612716565b6106bb565b60405161021a9190612743565b60405180910390f35b34801561022f57600080fd5b5061024a6004803603810190610245919061278a565b610740565b005b34801561025857600080fd5b50610273600480360381019061026e91906127ca565b610858565b005b34801561028157600080fd5b5061029c600480360381019061029791906127ca565b6108b8565b005b3480156102aa57600080fd5b506102b36108d8565b6040516102c0919061281d565b60405180910390f35b3480156102d557600080fd5b506102de6108e2565b6040516102eb919061281d565b60405180910390f35b34801561030057600080fd5b5061031b60048036038101906103169190612716565b6108ec565b6040516103289190612743565b60405180910390f35b34801561033d57600080fd5b5061035860048036038101906103539190612838565b61099e565b604051610365919061281d565b60405180910390f35b34801561037a57600080fd5b50610383610a56565b005b34801561039157600080fd5b5061039a610ade565b6040516103a79190612743565b60405180910390f35b3480156103bc57600080fd5b506103c5610b08565b6040516103d291906126c8565b60405180910390f35b3480156103e757600080fd5b506103f0610b9a565b005b3480156103fe57600080fd5b50610407610c22565b604051610414919061281d565b60405180910390f35b34801561042957600080fd5b50610444600480360381019061043f9190612891565b610c2c565b005b34801561045257600080fd5b5061045b610c42565b604051610468919061281d565b60405180910390f35b34801561047d57600080fd5b5061049860048036038101906104939190612a06565b610c53565b005b3480156104a657600080fd5b506104c160048036038101906104bc9190612716565b610cb5565b6040516104ce91906126c8565b60405180910390f35b6104df610e07565b005b3480156104ed57600080fd5b5061050860048036038101906105039190612a89565b61106c565b6040516105159190612614565b60405180910390f35b34801561052a57600080fd5b5061054560048036038101906105409190612838565b611100565b005b60007f80ac58cd000000000000000000000000000000000000000000000000000000007bffffffffffffffffffffffffffffffffffffffffffffffffffffffff1916827bffffffffffffffffffffffffffffffffffffffffffffffffffffffff1916148061061257507f5b5e139f000000000000000000000000000000000000000000000000000000007bffffffffffffffffffffffffffffffffffffffffffffffffffffffff1916827bffffffffffffffffffffffffffffffffffffffffffffffffffffffff1916145b806106225750610621826111f8565b5b9050919050565b60606000805461063890612af8565b80601f016020809104026020016040519081016040528092919081815260200182805461066490612af8565b80156106b15780601f10610686576101008083540402835291602001916106b1565b820191906000526020600020905b81548152906001019060200180831161069457829003601f168201915b5050505050905090565b60006106c682611262565b610705576040517f08c379a00000000000000000000000000000000000000000000000000000000081526004016106fc90612b9c565b60405180910390fd5b6004600083815260200190815260200160002060009054906101000a900473ffffffffffffffffffffffffffffffffffffffff169050919050565b600061074b826108ec565b90508073ffffffffffffffffffffffffffffffffffffffff168373ffffffffffffffffffffffffffffffffffffffff1614156107bc576040517f08c379a00000000000000000000000000000000000000000000000000000000081526004016107b390612c2e565b60405180910390fd5b8073ffffffffffffffffffffffffffffffffffffffff166107db6112ce565b73ffffffffffffffffffffffffffffffffffffffff16148061080a5750610809816108046112ce565b61106c565b5b610849576040517f08c379a000000000000000000000000000000000000000000000000000000000815260040161084090612cc0565b60405180910390fd5b61085383836112d6565b505050565b6108696108636112ce565b8261138f565b6108a8576040517f08c379a000000000000000000000000000000000000000000000000000000000815260040161089f90612d52565b60405180910390fd5b6108b383838361146d565b505050565b6108d383838360405180602001604052806000815250610c53565b505050565b6000600c54905090565b6000600b54905090565b6000806002600084815260200190815260200160002060009054906101000a900473ffffffffffffffffffffffffffffffffffffffff169050600073ffffffffffffffffffffffffffffffffffffffff168173ffffffffffffffffffffffffffffffffffffffff161415610995576040517f08c379a000000000000000000000000000000000000000000000000000000000815260040161098c90612de4565b60405180910390fd5b80915050919050565b60008073ffffffffffffffffffffffffffffffffffffffff168273ffffffffffffffffffffffffffffffffffffffff161415610a0f576040517f08c379a0000000000000000000000000000000000000000000000000000000008152600401610a0690612e76565b60405180910390fd5b600360008373ffffffffffffffffffffffffffffffffffffffff1673ffffffffffffffffffffffffffffffffffffffff168152602001908152602001600020549050919050565b610a5e6112ce565b73ffffffffffffffffffffffffffffffffffffffff16610a7c610ade565b73ffffffffffffffffffffffffffffffffffffffff1614610ad2576040517f08c379a0000000000000000000000000000000000000000000000000000000008152600401610ac990612ee2565b60405180910390fd5b610adc60006116d4565b565b6000600760009054906101000a900473ffffffffffffffffffffffffffffffffffffffff16905090565b606060018054610b1790612af8565b80601f0160208091040260200160405190810160405280929190818152602001828054610b4390612af8565b8015610b905780601f10610b6557610100808354040283529160200191610b90565b820191906000526020600020905b815481529060010190602001808311610b7357829003601f168201915b5050505050905090565b6008600b5410610bbc5766044364c5bb0000600e81905550610bb8600d819055505b6008600b54108015610bd157506005600b5410155b15610bee576606c00a3912c000600e81905550610dac600d819055505b6005600b54108015610c0357506000600b5410155b15610c20576611c37937e08000600e81905550610fa0600d819055505b565b6000600e54905090565b610c3e610c376112ce565b838361179a565b5050565b6000610c4e6008611907565b905090565b610c64610c5e6112ce565b8361138f565b610ca3576040517f08c379a0000000000000000000000000000000000000000000000000000000008152600401610c9a90612d52565b60405180910390fd5b610caf84848484611915565b50505050565b6060610cc082611262565b610cff576040517f08c379a0000000000000000000000000000000000000000000000000000000008152600401610cf690612f74565b60405180910390fd5b6000600660008481526020019081526020016000208054610d1f90612af8565b80601f0160208091040260200160405190810160405280929190818152602001828054610d4b90612af8565b8015610d985780601f10610d6d57610100808354040283529160200191610d98565b820191906000526020600020905b815481529060010190602001808311610d7b57829003601f168201915b505050505090506000610da9611971565b9050600081511415610dbf578192505050610e02565b600082511115610df4578082604051602001610ddc929190612fd0565b60405160208183030381529060405292505050610e02565b610dfd84611988565b925050505b919050565b6000600b5411610e4c576040517f08c379a0000000000000000000000000000000000000000000000000000000008152600401610e4390613040565b60405180910390fd5b6000610e586008611907565b905080600f81905550610e69610b9a565b66044364c5bb0000600e541415610ec057600e54341015610ebf576040517f08c379a0000000000000000000000000000000000000000000000000000000008152600401610eb6906130ac565b60405180910390fd5b5b6606c00a3912c000600e541415610f1757600e54341015610f16576040517f08c379a0000000000000000000000000000000000000000000000000000000008152600401610f0d90613118565b60405180910390fd5b5b6611c37937e08000600e541415610f6e57600e54341015610f6d576040517f08c379a0000000000000000000000000000000000000000000000000000000008152600401610f6490613184565b60405180910390fd5b5b610f783382611a2f565b610fb7816040518060400160405280601d81526020017f68747470733a2f2f6a736f6e6b65657065722e636f6d2f622f5452304b000000815250611a4d565b610ffe610fc33061099e565b6040518060400160405280601e81526020017f636f6e74726163742062616c616e6365206166746572206d696e74696e670000815250611ac1565b6110086008611b5d565b600b600081548092919061101b906131d3565b9190505550611028611b73565b611030610b9a565b7febb98688741ffa4c7589bf325de30cf7becb63de567842e1ccdb6cb949fdc82c3382604051611061929190612537565b60405180910390a150565b6000600560008473ffffffffffffffffffffffffffffffffffffffff1673ffffffffffffffffffffffffffffffffffffffff16815260200190815260200160002060008373ffffffffffffffffffffffffffffffffffffffff1673ffffffffffffffffffffffffffffffffffffffff16815260200190815260200160002060009054906101000a900460ff16905092915050565b6111086112ce565b73ffffffffffffffffffffffffffffffffffffffff16611126610ade565b73ffffffffffffffffffffffffffffffffffffffff161461117c576040517f08c379a000000000000000000000000000000000000000000000000000000000815260040161117390612ee2565b60405180910390fd5b600073ffffffffffffffffffffffffffffffffffffffff168173ffffffffffffffffffffffffffffffffffffffff1614156111ec576040517f08c379a00000000000000000000000000000000000000000000000000000000081526004016111e39061326f565b60405180910390fd5b6111f5816116d4565b50565b60007f01ffc9a7000000000000000000000000000000000000000000000000000000007bffffffffffffffffffffffffffffffffffffffffffffffffffffffff1916827bffffffffffffffffffffffffffffffffffffffffffffffffffffffff1916149050919050565b60008073ffffffffffffffffffffffffffffffffffffffff166002600084815260200190815260200160002060009054906101000a900473ffffffffffffffffffffffffffffffffffffffff1673ffffffffffffffffffffffffffffffffffffffff1614159050919050565b600033905090565b816004600083815260200190815260200160002060006101000a81548173ffffffffffffffffffffffffffffffffffffffff021916908373ffffffffffffffffffffffffffffffffffffffff160217905550808273ffffffffffffffffffffffffffffffffffffffff16611349836108ec565b73ffffffffffffffffffffffffffffffffffffffff167f8c5be1e5ebec7d5bd14f71427d1e84f3dd0314c0f7b2291e5b200ac8c7c3b92560405160405180910390a45050565b600061139a82611262565b6113d9576040517f08c379a00000000000000000000000000000000000000000000000000000000081526004016113d090613301565b60405180910390fd5b60006113e4836108ec565b90508073ffffffffffffffffffffffffffffffffffffffff168473ffffffffffffffffffffffffffffffffffffffff16148061145357508373ffffffffffffffffffffffffffffffffffffffff1661143b846106bb565b73ffffffffffffffffffffffffffffffffffffffff16145b806114645750611463818561106c565b5b91505092915050565b8273ffffffffffffffffffffffffffffffffffffffff1661148d826108ec565b73ffffffffffffffffffffffffffffffffffffffff16146114e3576040517f08c379a00000000000000000000000000000000000000000000000000000000081526004016114da90613393565b60405180910390fd5b600073ffffffffffffffffffffffffffffffffffffffff168273ffffffffffffffffffffffffffffffffffffffff161415611553576040517f08c379a000000000000000000000000000000000000000000000000000000000815260040161154a90613425565b60405180910390fd5b61155e838383611ec6565b6115696000826112d6565b6001600360008573ffffffffffffffffffffffffffffffffffffffff1673ffffffffffffffffffffffffffffffffffffffff16815260200190815260200160002060008282546115b99190613445565b925050819055506001600360008473ffffffffffffffffffffffffffffffffffffffff1673ffffffffffffffffffffffffffffffffffffffff16815260200190815260200160002060008282546116109190613479565b92505081905550816002600083815260200190815260200160002060006101000a81548173ffffffffffffffffffffffffffffffffffffffff021916908373ffffffffffffffffffffffffffffffffffffffff160217905550808273ffffffffffffffffffffffffffffffffffffffff168473ffffffffffffffffffffffffffffffffffffffff167fddf252ad1be2c89b69c2b068fc378daa952ba7f163c4a11628f55a4df523b3ef60405160405180910390a46116cf838383611ecb565b505050565b6000600760009054906101000a900473ffffffffffffffffffffffffffffffffffffffff16905081600760006101000a81548173ffffffffffffffffffffffffffffffffffffffff021916908373ffffffffffffffffffffffffffffffffffffffff1602179055508173ffffffffffffffffffffffffffffffffffffffff168173ffffffffffffffffffffffffffffffffffffffff167f8be0079c531659141344cd1fd0a4f28419497f9722a3daafe3b4186f6b6457e060405160405180910390a35050565b8173ffffffffffffffffffffffffffffffffffffffff168373ffffffffffffffffffffffffffffffffffffffff161415611809576040517f08c379a00000000000000000000000000000000000000000000000000000000081526004016118009061351b565b60405180910390fd5b80600560008573ffffffffffffffffffffffffffffffffffffffff1673ffffffffffffffffffffffffffffffffffffffff16815260200190815260200160002060008473ffffffffffffffffffffffffffffffffffffffff1673ffffffffffffffffffffffffffffffffffffffff16815260200190815260200160002060006101000a81548160ff0219169083151502179055508173ffffffffffffffffffffffffffffffffffffffff168373ffffffffffffffffffffffffffffffffffffffff167f17307eab39ab6107e8899845ad3d59bd9653f200f220920489ca2b5937696c31836040516118fa9190612614565b60405180910390a3505050565b600081600001549050919050565b61192084848461146d565b61192c84848484611ed0565b61196b576040517f08c379a0000000000000000000000000000000000000000000000000000000008152600401611962906135ad565b60405180910390fd5b50505050565b606060405180602001604052806000815250905090565b606061199382611262565b6119d2576040517f08c379a00000000000000000000000000000000000000000000000000000000081526004016119c99061363f565b60405180910390fd5b60006119dc611971565b905060008151116119fc5760405180602001604052806000815250611a27565b80611a0684612058565b604051602001611a17929190612fd0565b6040516020818303038152906040525b915050919050565b611a498282604051806020016040528060008152506121b9565b5050565b611a5682611262565b611a95576040517f08c379a0000000000000000000000000000000000000000000000000000000008152600401611a8c906136d1565b60405180910390fd5b80600660008481526020019081526020016000209080519060200190611abc92919061243a565b505050565b611b598282604051602401611ad79291906136f1565b6040516020818303038152906040527f0fa3f345000000000000000000000000000000000000000000000000000000007bffffffffffffffffffffffffffffffffffffffffffffffffffffffff19166020820180517bffffffffffffffffffffffffffffffffffffffffffffffffffffffff8381831617835250505050612214565b5050565b6001816000016000828254019250508190555050565b6000733cb1de1465310f5fad3c65a58f1b174b78d15e7190506000735d1819d05b58d5967520f3d881a36f212c02915b9050611bc747604051806060016040528060238152602001613cc360239139611ac1565b611c08600e546040518060400160405280600d81526020017f73656c6c696e6720707269636500000000000000000000000000000000000000815250611ac1565b47600e541115611c4d576040517f08c379a0000000000000000000000000000000000000000000000000000000008152600401611c4490613793565b60405180910390fd5b6000600d54612710611c5f9190613445565b9050600061271082600e54611c7491906137b3565b611c7e919061383c565b90506000612710600d54600e54611c9591906137b3565b611c9f919061383c565b905060008573ffffffffffffffffffffffffffffffffffffffff16600184611cc791906137b3565b604051611cd3906138c4565b60006040518083038185875af1925050503d8060008114611d10576040519150601f19603f3d011682016040523d82523d6000602084013e611d15565b606091505b5050905080611d59576040517f08c379a0000000000000000000000000000000000000000000000000000000008152600401611d509061394b565b60405180910390fd5b60008573ffffffffffffffffffffffffffffffffffffffff16600184611d7f91906137b3565b604051611d8b906139b7565b60006040518083038185875af1925050503d8060008114611dc8576040519150601f19603f3d011682016040523d82523d6000602084013e611dcd565b606091505b5050905080611e11576040517f08c379a0000000000000000000000000000000000000000000000000000000008152600401611e0890613a3e565b60405180910390fd5b611e678773ffffffffffffffffffffffffffffffffffffffff16316040518060400160405280600e81526020017f6162627927732062616c616e6365000000000000000000000000000000000000815250611ac1565b611ebd8673ffffffffffffffffffffffffffffffffffffffff16316040518060400160405280600f81526020017f616d69796127732062616c616e63650000000000000000000000000000000000815250611ac1565b50505050505050565b505050565b505050565b6000611ef18473ffffffffffffffffffffffffffffffffffffffff1661223d565b1561204b578373ffffffffffffffffffffffffffffffffffffffff1663150b7a02611f1a6112ce565b8786866040518563ffffffff1660e01b8152600401611f3c9493929190613ab3565b6020604051808303816000875af1925050508015611f7857506040513d601f19601f82011682018060405250810190611f759190613b14565b60015b611ffb573d8060008114611fa8576040519150601f19603f3d011682016040523d82523d6000602084013e611fad565b606091505b50600081511415611ff3576040517f08c379a0000000000000000000000000000000000000000000000000000000008152600401611fea906135ad565b60405180910390fd5b805181602001fd5b63150b7a0260e01b7bffffffffffffffffffffffffffffffffffffffffffffffffffffffff1916817bffffffffffffffffffffffffffffffffffffffffffffffffffffffff191614915050612050565b600190505b949350505050565b606060008214156120a0576040518060400160405280600181526020017f300000000000000000000000000000000000000000000000000000000000000081525090506121b4565b600082905060005b600082146120d25780806120bb90613b41565b915050600a826120cb919061383c565b91506120a8565b60008167ffffffffffffffff8111156120ee576120ed6128db565b5b6040519080825280601f01601f1916602001820160405280156121205781602001600182028036833780820191505090505b5090505b600085146121ad576001826121399190613445565b9150600a856121489190613b8a565b60306121549190613479565b60f81b81838151811061216a57612169613bbb565b5b60200101907effffffffffffffffffffffffffffffffffffffffffffffffffffffffffffff1916908160001a905350600a856121a6919061383c565b9450612124565b8093505050505b919050565b6121c38383612260565b6121d06000848484611ed0565b61220f576040517f08c379a0000000000000000000000000000000000000000000000000000000008152600401612206906135ad565b60405180910390fd5b505050565b60008151905060006a636f6e736f6c652e6c6f679050602083016000808483855afa5050505050565b6000808273ffffffffffffffffffffffffffffffffffffffff163b119050919050565b600073ffffffffffffffffffffffffffffffffffffffff168273ffffffffffffffffffffffffffffffffffffffff1614156122d0576040517f08c379a00000000000000000000000000000000000000000000000000000000081526004016122c790613c36565b60405180910390fd5b6122d981611262565b15612319576040517f08c379a000000000000000000000000000000000000000000000000000000000815260040161231090613ca2565b60405180910390fd5b61232560008383611ec6565b6001600360008473ffffffffffffffffffffffffffffffffffffffff1673ffffffffffffffffffffffffffffffffffffffff16815260200190815260200160002060008282546123759190613479565b92505081905550816002600083815260200190815260200160002060006101000a81548173ffffffffffffffffffffffffffffffffffffffff021916908373ffffffffffffffffffffffffffffffffffffffff160217905550808273ffffffffffffffffffffffffffffffffffffffff16600073ffffffffffffffffffffffffffffffffffffffff167fddf252ad1be2c89b69c2b068fc378daa952ba7f163c4a11628f55a4df523b3ef60405160405180910390a461243660008383611ecb565b5050565b82805461244690612af8565b90600052602060002090601f01602090048101928261246857600085556124af565b82601f1061248157805160ff19168380011785556124af565b828001600101855582156124af579182015b828111156124ae578251825591602001919060010190612493565b5b5090506124bc91906124c0565b5090565b5b808211156124d95760008160009055506001016124c1565b5090565b600073ffffffffffffffffffffffffffffffffffffffff82169050919050565b6000612508826124dd565b9050919050565b612518816124fd565b82525050565b6000819050919050565b6125318161251e565b82525050565b600060408201905061254c600083018561250f565b6125596020830184612528565b9392505050565b6000604051905090565b600080fd5b600080fd5b60007fffffffff0000000000000000000000000000000000000000000000000000000082169050919050565b6125a981612574565b81146125b457600080fd5b50565b6000813590506125c6816125a0565b92915050565b6000602082840312156125e2576125e161256a565b5b60006125f0848285016125b7565b91505092915050565b60008115159050919050565b61260e816125f9565b82525050565b60006020820190506126296000830184612605565b92915050565b600081519050919050565b600082825260208201905092915050565b60005b8381101561266957808201518184015260208101905061264e565b83811115612678576000848401525b50505050565b6000601f19601f8301169050919050565b600061269a8261262f565b6126a4818561263a565b93506126b481856020860161264b565b6126bd8161267e565b840191505092915050565b600060208201905081810360008301526126e2818461268f565b905092915050565b6126f38161251e565b81146126fe57600080fd5b50565b600081359050612710816126ea565b92915050565b60006020828403121561272c5761272b61256a565b5b600061273a84828501612701565b91505092915050565b6000602082019050612758600083018461250f565b92915050565b612767816124fd565b811461277257600080fd5b50565b6000813590506127848161275e565b92915050565b600080604083850312156127a1576127a061256a565b5b60006127af85828601612775565b92505060206127c085828601612701565b9150509250929050565b6000806000606084860312156127e3576127e261256a565b5b60006127f186828701612775565b935050602061280286828701612775565b925050604061281386828701612701565b9150509250925092565b60006020820190506128326000830184612528565b92915050565b60006020828403121561284e5761284d61256a565b5b600061285c84828501612775565b91505092915050565b61286e816125f9565b811461287957600080fd5b50565b60008135905061288b81612865565b92915050565b600080604083850312156128a8576128a761256a565b5b60006128b685828601612775565b92505060206128c78582860161287c565b9150509250929050565b600080fd5b600080fd5b7f4e487b7100000000000000000000000000000000000000000000000000000000600052604160045260246000fd5b6129138261267e565b810181811067ffffffffffffffff82111715612932576129316128db565b5b80604052505050565b6000612945612560565b9050612951828261290a565b919050565b600067ffffffffffffffff821115612971576129706128db565b5b61297a8261267e565b9050602081019050919050565b82818337600083830152505050565b60006129a96129a484612956565b61293b565b9050828152602081018484840111156129c5576129c46128d6565b5b6129d0848285612987565b509392505050565b600082601f8301126129ed576129ec6128d1565b5b81356129fd848260208601612996565b91505092915050565b60008060008060808587031215612a2057612a1f61256a565b5b6000612a2e87828801612775565b9450506020612a3f87828801612775565b9350506040612a5087828801612701565b925050606085013567ffffffffffffffff811115612a7157612a7061256f565b5b612a7d878288016129d8565b91505092959194509250565b60008060408385031215612aa057612a9f61256a565b5b6000612aae85828601612775565b9250506020612abf85828601612775565b9150509250929050565b7f4e487b7100000000000000000000000000000000000000000000000000000000600052602260045260246000fd5b60006002820490506001821680612b1057607f821691505b60208210811415612b2457612b23612ac9565b5b50919050565b7f4552433732313a20617070726f76656420717565727920666f72206e6f6e657860008201527f697374656e7420746f6b656e0000000000000000000000000000000000000000602082015250565b6000612b86602c8361263a565b9150612b9182612b2a565b604082019050919050565b60006020820190508181036000830152612bb581612b79565b9050919050565b7f4552433732313a20617070726f76616c20746f2063757272656e74206f776e6560008201527f7200000000000000000000000000000000000000000000000000000000000000602082015250565b6000612c1860218361263a565b9150612c2382612bbc565b604082019050919050565b60006020820190508181036000830152612c4781612c0b565b9050919050565b7f4552433732313a20617070726f76652063616c6c6572206973206e6f74206f7760008201527f6e6572206e6f7220617070726f76656420666f7220616c6c0000000000000000602082015250565b6000612caa60388361263a565b9150612cb582612c4e565b604082019050919050565b60006020820190508181036000830152612cd981612c9d565b9050919050565b7f4552433732313a207472616e736665722063616c6c6572206973206e6f74206f60008201527f776e6572206e6f7220617070726f766564000000000000000000000000000000602082015250565b6000612d3c60318361263a565b9150612d4782612ce0565b604082019050919050565b60006020820190508181036000830152612d6b81612d2f565b9050919050565b7f4552433732313a206f776e657220717565727920666f72206e6f6e657869737460008201527f656e7420746f6b656e0000000000000000000000000000000000000000000000602082015250565b6000612dce60298361263a565b9150612dd982612d72565b604082019050919050565b60006020820190508181036000830152612dfd81612dc1565b9050919050565b7f4552433732313a2062616c616e636520717565727920666f7220746865207a6560008201527f726f206164647265737300000000000000000000000000000000000000000000602082015250565b6000612e60602a8361263a565b9150612e6b82612e04565b604082019050919050565b60006020820190508181036000830152612e8f81612e53565b9050919050565b7f4f776e61626c653a2063616c6c6572206973206e6f7420746865206f776e6572600082015250565b6000612ecc60208361263a565b9150612ed782612e96565b602082019050919050565b60006020820190508181036000830152612efb81612ebf565b9050919050565b7f45524337323155524953746f726167653a2055524920717565727920666f722060008201527f6e6f6e6578697374656e7420746f6b656e000000000000000000000000000000602082015250565b6000612f5e60318361263a565b9150612f6982612f02565b604082019050919050565b60006020820190508181036000830152612f8d81612f51565b9050919050565b600081905092915050565b6000612faa8261262f565b612fb48185612f94565b9350612fc481856020860161264b565b80840191505092915050565b6000612fdc8285612f9f565b9150612fe88284612f9f565b91508190509392505050565b7f4e6f206d6f7265204e4654730000000000000000000000000000000000000000600082015250565b600061302a600c8361263a565b915061303582612ff4565b602082019050919050565b600060208201905081810360008301526130598161301d565b9050919050565b7f4e65656420746f2073656e6420302e3132206574686572206f72206d6f726500600082015250565b6000613096601f8361263a565b91506130a182613060565b602082019050919050565b600060208201905081810360008301526130c581613089565b9050919050565b7f4e65656420746f2073656e6420302e3139206574686572206f72206d6f726500600082015250565b6000613102601f8361263a565b915061310d826130cc565b602082019050919050565b60006020820190508181036000830152613131816130f5565b9050919050565b7f4e65656420746f2073656e6420302e35206574686572206f72206d6f72650000600082015250565b600061316e601e8361263a565b915061317982613138565b602082019050919050565b6000602082019050818103600083015261319d81613161565b9050919050565b7f4e487b7100000000000000000000000000000000000000000000000000000000600052601160045260246000fd5b60006131de8261251e565b915060008214156131f2576131f16131a4565b5b600182039050919050565b7f4f776e61626c653a206e6577206f776e657220697320746865207a65726f206160008201527f6464726573730000000000000000000000000000000000000000000000000000602082015250565b600061325960268361263a565b9150613264826131fd565b604082019050919050565b600060208201905081810360008301526132888161324c565b9050919050565b7f4552433732313a206f70657261746f7220717565727920666f72206e6f6e657860008201527f697374656e7420746f6b656e0000000000000000000000000000000000000000602082015250565b60006132eb602c8361263a565b91506132f68261328f565b604082019050919050565b6000602082019050818103600083015261331a816132de565b9050919050565b7f4552433732313a207472616e736665722066726f6d20696e636f72726563742060008201527f6f776e6572000000000000000000000000000000000000000000000000000000602082015250565b600061337d60258361263a565b915061338882613321565b604082019050919050565b600060208201905081810360008301526133ac81613370565b9050919050565b7f4552433732313a207472616e7366657220746f20746865207a65726f2061646460008201527f7265737300000000000000000000000000000000000000000000000000000000602082015250565b600061340f60248361263a565b915061341a826133b3565b604082019050919050565b6000602082019050818103600083015261343e81613402565b9050919050565b60006134508261251e565b915061345b8361251e565b92508282101561346e5761346d6131a4565b5b828203905092915050565b60006134848261251e565b915061348f8361251e565b9250827fffffffffffffffffffffffffffffffffffffffffffffffffffffffffffffffff038211156134c4576134c36131a4565b5b828201905092915050565b7f4552433732313a20617070726f766520746f2063616c6c657200000000000000600082015250565b600061350560198361263a565b9150613510826134cf565b602082019050919050565b60006020820190508181036000830152613534816134f8565b9050919050565b7f4552433732313a207472616e7366657220746f206e6f6e20455243373231526560008201527f63656976657220696d706c656d656e7465720000000000000000000000000000602082015250565b600061359760328361263a565b91506135a28261353b565b604082019050919050565b600060208201905081810360008301526135c68161358a565b9050919050565b7f4552433732314d657461646174613a2055524920717565727920666f72206e6f60008201527f6e6578697374656e7420746f6b656e0000000000000000000000000000000000602082015250565b6000613629602f8361263a565b9150613634826135cd565b604082019050919050565b600060208201905081810360008301526136588161361c565b9050919050565b7f45524337323155524953746f726167653a2055524920736574206f66206e6f6e60008201527f6578697374656e7420746f6b656e000000000000000000000000000000000000602082015250565b60006136bb602e8361263a565b91506136c68261365f565b604082019050919050565b600060208201905081810360008301526136ea816136ae565b9050919050565b60006040820190506137066000830185612528565b8181036020830152613718818461268f565b90509392505050565b7f547279696e6720746f207769746864726177206d6f7265206d6f6e657920746860008201527f616e2074686520636f6e7472616374206861732e000000000000000000000000602082015250565b600061377d60348361263a565b915061378882613721565b604082019050919050565b600060208201905081810360008301526137ac81613770565b9050919050565b60006137be8261251e565b91506137c98361251e565b9250817fffffffffffffffffffffffffffffffffffffffffffffffffffffffffffffffff0483118215151615613802576138016131a4565b5b828202905092915050565b7f4e487b7100000000000000000000000000000000000000000000000000000000600052601260045260246000fd5b60006138478261251e565b91506138528361251e565b9250826138625761386161380d565b5b828204905092915050565b600081905092915050565b7f61626279206d616465206d6f6e65790000000000000000000000000000000000600082015250565b60006138ae600f8361386d565b91506138b982613878565b600f82019050919050565b60006138cf826138a1565b9150819050919050565b7f4661696c656420746f207769746864726177206d6f6e65792066726f6d20636f60008201527f6e747261637420666f7220416262790000000000000000000000000000000000602082015250565b6000613935602f8361263a565b9150613940826138d9565b604082019050919050565b6000602082019050818103600083015261396481613928565b9050919050565b7f616d697961206d616465206d6f6e657900000000000000000000000000000000600082015250565b60006139a160108361386d565b91506139ac8261396b565b601082019050919050565b60006139c282613994565b9150819050919050565b7f4661696c656420746f207769746864726177206d6f6e65792066726f6d20636f60008201527f6e747261637420666f7220416d69796100000000000000000000000000000000602082015250565b6000613a2860308361263a565b9150613a33826139cc565b604082019050919050565b60006020820190508181036000830152613a5781613a1b565b9050919050565b600081519050919050565b600082825260208201905092915050565b6000613a8582613a5e565b613a8f8185613a69565b9350613a9f81856020860161264b565b613aa88161267e565b840191505092915050565b6000608082019050613ac8600083018761250f565b613ad5602083018661250f565b613ae26040830185612528565b8181036060830152613af48184613a7a565b905095945050505050565b600081519050613b0e816125a0565b92915050565b600060208284031215613b2a57613b2961256a565b5b6000613b3884828501613aff565b91505092915050565b6000613b4c8261251e565b91507fffffffffffffffffffffffffffffffffffffffffffffffffffffffffffffffff821415613b7f57613b7e6131a4565b5b600182019050919050565b6000613b958261251e565b9150613ba08361251e565b925082613bb057613baf61380d565b5b828206905092915050565b7f4e487b7100000000000000000000000000000000000000000000000000000000600052603260045260246000fd5b7f4552433732313a206d696e7420746f20746865207a65726f2061646472657373600082015250565b6000613c2060208361263a565b9150613c2b82613bea565b602082019050919050565b60006020820190508181036000830152613c4f81613c13565b9050919050565b7f4552433732313a20746f6b656e20616c7265616479206d696e74656400000000600082015250565b6000613c8c601c8361263a565b9150613c9782613c56565b602082019050919050565b60006020820190508181036000830152613cbb81613c7f565b905091905056fe2063757272656e742062616c616e6365206265666f7265207769746864726177616c20a2646970667358221220edeb4c60bddde49c5cf22312412fafa14e81da9a4636b52262d64fa417cdfc0864736f6c634300080a0033",
  "linkReferences": {},
  "deployedLinkReferences": {}
}