{
  "_format": "hh-sol-artifact-1",
  "contractName": "MyEpicNFT",
  "sourceName": "contracts/MyEpicNFT.sol",
  "abi": [
    {
      "inputs": [],
      "stateMutability": "payable",
      "type": "constructor"
    },
    {
      "anonymous": false,
      "inputs": [
        {
          "indexed": true,
          "internalType": "address",
          "name": "owner",
          "type": "address"
        },
        {
          "indexed": true,
          "internalType": "address",
          "name": "approved",
          "type": "address"
        },
        {
          "indexed": true,
          "internalType": "uint256",
          "name": "tokenId",
          "type": "uint256"
        }
      ],
      "name": "Approval",
      "type": "event"
    },
    {
      "anonymous": false,
      "inputs": [
        {
          "indexed": true,
          "internalType": "address",
          "name": "owner",
          "type": "address"
        },
        {
          "indexed": true,
          "internalType": "address",
          "name": "operator",
          "type": "address"
        },
        {
          "indexed": false,
          "internalType": "bool",
          "name": "approved",
          "type": "bool"
        }
      ],
      "name": "ApprovalForAll",
      "type": "event"
    },
    {
      "anonymous": false,
      "inputs": [
        {
          "indexed": false,
          "internalType": "address",
          "name": "sender",
          "type": "address"
        },
        {
          "indexed": false,
          "internalType": "uint256",
          "name": "tokenId",
          "type": "uint256"
        }
      ],
      "name": "NewEpicNFTMinted",
      "type": "event"
    },
    {
      "anonymous": false,
      "inputs": [
        {
          "indexed": true,
          "internalType": "address",
          "name": "previousOwner",
          "type": "address"
        },
        {
          "indexed": true,
          "internalType": "address",
          "name": "newOwner",
          "type": "address"
        }
      ],
      "name": "OwnershipTransferred",
      "type": "event"
    },
    {
      "anonymous": false,
      "inputs": [
        {
          "indexed": false,
          "internalType": "address",
          "name": "",
          "type": "address"
        },
        {
          "indexed": false,
          "internalType": "uint256",
          "name": "",
          "type": "uint256"
        }
      ],
      "name": "Received",
      "type": "event"
    },
    {
      "anonymous": false,
      "inputs": [
        {
          "indexed": true,
          "internalType": "address",
          "name": "from",
          "type": "address"
        },
        {
          "indexed": true,
          "internalType": "address",
          "name": "to",
          "type": "address"
        },
        {
          "indexed": true,
          "internalType": "uint256",
          "name": "tokenId",
          "type": "uint256"
        }
      ],
      "name": "Transfer",
      "type": "event"
    },
    {
      "inputs": [
        {
          "internalType": "address",
          "name": "to",
          "type": "address"
        },
        {
          "internalType": "uint256",
          "name": "tokenId",
          "type": "uint256"
        }
      ],
      "name": "approve",
      "outputs": [],
      "stateMutability": "nonpayable",
      "type": "function"
    },
    {
      "inputs": [
        {
          "internalType": "address",
          "name": "owner",
          "type": "address"
        }
      ],
      "name": "balanceOf",
      "outputs": [
        {
          "internalType": "uint256",
          "name": "",
          "type": "uint256"
        }
      ],
      "stateMutability": "view",
      "type": "function"
    },
    {
      "inputs": [
        {
          "internalType": "uint256",
          "name": "tokenId",
          "type": "uint256"
        }
      ],
      "name": "getApproved",
      "outputs": [
        {
          "internalType": "address",
          "name": "",
          "type": "address"
        }
      ],
      "stateMutability": "view",
      "type": "function"
    },
    {
      "inputs": [
        {
          "internalType": "address",
          "name": "owner",
          "type": "address"
        },
        {
          "internalType": "address",
          "name": "operator",
          "type": "address"
        }
      ],
      "name": "isApprovedForAll",
      "outputs": [
        {
          "internalType": "bool",
          "name": "",
          "type": "bool"
        }
      ],
      "stateMutability": "view",
      "type": "function"
    },
    {
      "inputs": [],
      "name": "makeAnEpicNFT",
      "outputs": [],
      "stateMutability": "payable",
      "type": "function"
    },
    {
      "inputs": [],
      "name": "name",
      "outputs": [
        {
          "internalType": "string",
          "name": "",
          "type": "string"
        }
      ],
      "stateMutability": "view",
      "type": "function"
    },
    {
      "inputs": [],
      "name": "owner",
      "outputs": [
        {
          "internalType": "address",
          "name": "",
          "type": "address"
        }
      ],
      "stateMutability": "view",
      "type": "function"
    },
    {
      "inputs": [
        {
          "internalType": "uint256",
          "name": "tokenId",
          "type": "uint256"
        }
      ],
      "name": "ownerOf",
      "outputs": [
        {
          "internalType": "address",
          "name": "",
          "type": "address"
        }
      ],
      "stateMutability": "view",
      "type": "function"
    },
    {
      "inputs": [],
      "name": "renounceOwnership",
      "outputs": [],
      "stateMutability": "nonpayable",
      "type": "function"
    },
    {
      "inputs": [],
      "name": "returnTokenID",
      "outputs": [
        {
          "internalType": "uint256",
          "name": "",
          "type": "uint256"
        }
      ],
      "stateMutability": "view",
      "type": "function"
    },
    {
      "inputs": [
        {
          "internalType": "address",
          "name": "from",
          "type": "address"
        },
        {
          "internalType": "address",
          "name": "to",
          "type": "address"
        },
        {
          "internalType": "uint256",
          "name": "tokenId",
          "type": "uint256"
        }
      ],
      "name": "safeTransferFrom",
      "outputs": [],
      "stateMutability": "nonpayable",
      "type": "function"
    },
    {
      "inputs": [
        {
          "internalType": "address",
          "name": "from",
          "type": "address"
        },
        {
          "internalType": "address",
          "name": "to",
          "type": "address"
        },
        {
          "internalType": "uint256",
          "name": "tokenId",
          "type": "uint256"
        },
        {
          "internalType": "bytes",
          "name": "_data",
          "type": "bytes"
        }
      ],
      "name": "safeTransferFrom",
      "outputs": [],
      "stateMutability": "nonpayable",
      "type": "function"
    },
    {
      "inputs": [
        {
          "internalType": "address",
          "name": "operator",
          "type": "address"
        },
        {
          "internalType": "bool",
          "name": "approved",
          "type": "bool"
        }
      ],
      "name": "setApprovalForAll",
      "outputs": [],
      "stateMutability": "nonpayable",
      "type": "function"
    },
    {
      "inputs": [
        {
          "internalType": "bytes4",
          "name": "interfaceId",
          "type": "bytes4"
        }
      ],
      "name": "supportsInterface",
      "outputs": [
        {
          "internalType": "bool",
          "name": "",
          "type": "bool"
        }
      ],
      "stateMutability": "view",
      "type": "function"
    },
    {
      "inputs": [],
      "name": "symbol",
      "outputs": [
        {
          "internalType": "string",
          "name": "",
          "type": "string"
        }
      ],
      "stateMutability": "view",
      "type": "function"
    },
    {
      "inputs": [
        {
          "internalType": "uint256",
          "name": "tokenId",
          "type": "uint256"
        }
      ],
      "name": "tokenURI",
      "outputs": [
        {
          "internalType": "string",
          "name": "",
          "type": "string"
        }
      ],
      "stateMutability": "view",
      "type": "function"
    },
    {
      "inputs": [
        {
          "internalType": "address",
          "name": "from",
          "type": "address"
        },
        {
          "internalType": "address",
          "name": "to",
          "type": "address"
        },
        {
          "internalType": "uint256",
          "name": "tokenId",
          "type": "uint256"
        }
      ],
      "name": "transferFrom",
      "outputs": [],
      "stateMutability": "nonpayable",
      "type": "function"
    },
    {
      "inputs": [
        {
          "internalType": "address",
          "name": "newOwner",
          "type": "address"
        }
      ],
      "name": "transferOwnership",
      "outputs": [],
      "stateMutability": "nonpayable",
      "type": "function"
    },
    {
      "stateMutability": "payable",
      "type": "receive"
    }
  ],
  "bytecode": "0x60806040526101a4600a556019600b556040518060400160405280600a81526020017f437573746f6d204e4654000000000000000000000000000000000000000000008152506040518060400160405280600381526020017f4e46540000000000000000000000000000000000000000000000000000000000815250816000908051906020019062000093929190620002fb565b508060019080519060200190620000ac929190620002fb565b505050620000cf620000c36200016160201b60201c565b6200016960201b60201c565b6200011a6040518060400160405280601e81526020017f54686973206973206d79204e465420636f6e74726163742e20576f61682100008152506200022f60201b6200123b1760201c565b30600960006101000a81548173ffffffffffffffffffffffffffffffffffffffff021916908373ffffffffffffffffffffffffffffffffffffffff160217905550620004d8565b600033905090565b6000600760009054906101000a900473ffffffffffffffffffffffffffffffffffffffff16905081600760006101000a81548173ffffffffffffffffffffffffffffffffffffffff021916908373ffffffffffffffffffffffffffffffffffffffff1602179055508173ffffffffffffffffffffffffffffffffffffffff168173ffffffffffffffffffffffffffffffffffffffff167f8be0079c531659141344cd1fd0a4f28419497f9722a3daafe3b4186f6b6457e060405160405180910390a35050565b620002cf816040516024016200024691906200044f565b6040516020818303038152906040527f41304fac000000000000000000000000000000000000000000000000000000007bffffffffffffffffffffffffffffffffffffffffffffffffffffffff19166020820180517bffffffffffffffffffffffffffffffffffffffffffffffffffffffff8381831617835250505050620002d260201b60201c565b50565b60008151905060006a636f6e736f6c652e6c6f679050602083016000808483855afa5050505050565b8280546200030990620004a2565b90600052602060002090601f0160209004810192826200032d576000855562000379565b82601f106200034857805160ff191683800117855562000379565b8280016001018555821562000379579182015b82811115620003785782518255916020019190600101906200035b565b5b5090506200038891906200038c565b5090565b5b80821115620003a75760008160009055506001016200038d565b5090565b600081519050919050565b600082825260208201905092915050565b60005b83811015620003e7578082015181840152602081019050620003ca565b83811115620003f7576000848401525b50505050565b6000601f19601f8301169050919050565b60006200041b82620003ab565b620004278185620003b6565b935062000439818560208601620003c7565b6200044481620003fd565b840191505092915050565b600060208201905081810360008301526200046b81846200040e565b905092915050565b7f4e487b7100000000000000000000000000000000000000000000000000000000600052602260045260246000fd5b60006002820490506001821680620004bb57607f821691505b60208210811415620004d257620004d162000473565b5b50919050565b613abe80620004e86000396000f3fe60806040526004361061010d5760003560e01c80638da5cb5b11610095578063b88d4fde11610064578063b88d4fde146103f1578063c87b56dd1461041a578063de9d132f14610457578063e985e9c514610461578063f2fde38b1461049e57610191565b80638da5cb5b1461034757806395d89b4114610372578063a22cb4651461039d578063ae330884146103c657610191565b806323b872dd116100dc57806323b872dd1461026457806342842e0e1461028d5780636352211e146102b657806370a08231146102f3578063715018a61461033057610191565b806301ffc9a71461019657806306fdde03146101d3578063081812fc146101fe578063095ea7b31461023b57610191565b36610191577f88a5966d370b9919b20f3e2c13ff65706f196a4e32cc2c12bf57088f885258743334604051610143929190612514565b60405180910390a161018f3334600960009054906101000a900473ffffffffffffffffffffffffffffffffffffffff1673ffffffffffffffffffffffffffffffffffffffff16316104c7565b005b600080fd5b3480156101a257600080fd5b506101bd60048036038101906101b891906125a9565b610566565b6040516101ca91906125f1565b60405180910390f35b3480156101df57600080fd5b506101e8610648565b6040516101f591906126a5565b60405180910390f35b34801561020a57600080fd5b50610225600480360381019061022091906126f3565b6106da565b6040516102329190612720565b60405180910390f35b34801561024757600080fd5b50610262600480360381019061025d9190612767565b61075f565b005b34801561027057600080fd5b5061028b600480360381019061028691906127a7565b610877565b005b34801561029957600080fd5b506102b460048036038101906102af91906127a7565b6108d7565b005b3480156102c257600080fd5b506102dd60048036038101906102d891906126f3565b6108f7565b6040516102ea9190612720565b60405180910390f35b3480156102ff57600080fd5b5061031a600480360381019061031591906127fa565b6109a9565b6040516103279190612827565b60405180910390f35b34801561033c57600080fd5b50610345610a61565b005b34801561035357600080fd5b5061035c610ae9565b6040516103699190612720565b60405180910390f35b34801561037e57600080fd5b50610387610b13565b60405161039491906126a5565b60405180910390f35b3480156103a957600080fd5b506103c460048036038101906103bf919061286e565b610ba5565b005b3480156103d257600080fd5b506103db610bbb565b6040516103e89190612827565b60405180910390f35b3480156103fd57600080fd5b50610418600480360381019061041391906129e3565b610bcc565b005b34801561042657600080fd5b50610441600480360381019061043c91906126f3565b610c2e565b60405161044e91906126a5565b60405180910390f35b61045f610d80565b005b34801561046d57600080fd5b5061048860048036038101906104839190612a66565b6110af565b60405161049591906125f1565b60405180910390f35b3480156104aa57600080fd5b506104c560048036038101906104c091906127fa565b611143565b005b6105618383836040516024016104df93929190612aa6565b6040516020818303038152906040527f8786135e000000000000000000000000000000000000000000000000000000007bffffffffffffffffffffffffffffffffffffffffffffffffffffffff19166020820180517bffffffffffffffffffffffffffffffffffffffffffffffffffffffff83818316178352505050506112d4565b505050565b60007f80ac58cd000000000000000000000000000000000000000000000000000000007bffffffffffffffffffffffffffffffffffffffffffffffffffffffff1916827bffffffffffffffffffffffffffffffffffffffffffffffffffffffff1916148061063157507f5b5e139f000000000000000000000000000000000000000000000000000000007bffffffffffffffffffffffffffffffffffffffffffffffffffffffff1916827bffffffffffffffffffffffffffffffffffffffffffffffffffffffff1916145b806106415750610640826112fd565b5b9050919050565b60606000805461065790612b0c565b80601f016020809104026020016040519081016040528092919081815260200182805461068390612b0c565b80156106d05780601f106106a5576101008083540402835291602001916106d0565b820191906000526020600020905b8154815290600101906020018083116106b357829003601f168201915b5050505050905090565b60006106e582611367565b610724576040517f08c379a000000000000000000000000000000000000000000000000000000000815260040161071b90612bb0565b60405180910390fd5b6004600083815260200190815260200160002060009054906101000a900473ffffffffffffffffffffffffffffffffffffffff169050919050565b600061076a826108f7565b90508073ffffffffffffffffffffffffffffffffffffffff168373ffffffffffffffffffffffffffffffffffffffff1614156107db576040517f08c379a00000000000000000000000000000000000000000000000000000000081526004016107d290612c42565b60405180910390fd5b8073ffffffffffffffffffffffffffffffffffffffff166107fa6113d3565b73ffffffffffffffffffffffffffffffffffffffff1614806108295750610828816108236113d3565b6110af565b5b610868576040517f08c379a000000000000000000000000000000000000000000000000000000000815260040161085f90612cd4565b60405180910390fd5b61087283836113db565b505050565b6108886108826113d3565b82611494565b6108c7576040517f08c379a00000000000000000000000000000000000000000000000000000000081526004016108be90612d66565b60405180910390fd5b6108d2838383611572565b505050565b6108f283838360405180602001604052806000815250610bcc565b505050565b6000806002600084815260200190815260200160002060009054906101000a900473ffffffffffffffffffffffffffffffffffffffff169050600073ffffffffffffffffffffffffffffffffffffffff168173ffffffffffffffffffffffffffffffffffffffff1614156109a0576040517f08c379a000000000000000000000000000000000000000000000000000000000815260040161099790612df8565b60405180910390fd5b80915050919050565b60008073ffffffffffffffffffffffffffffffffffffffff168273ffffffffffffffffffffffffffffffffffffffff161415610a1a576040517f08c379a0000000000000000000000000000000000000000000000000000000008152600401610a1190612e8a565b60405180910390fd5b600360008373ffffffffffffffffffffffffffffffffffffffff1673ffffffffffffffffffffffffffffffffffffffff168152602001908152602001600020549050919050565b610a696113d3565b73ffffffffffffffffffffffffffffffffffffffff16610a87610ae9565b73ffffffffffffffffffffffffffffffffffffffff1614610add576040517f08c379a0000000000000000000000000000000000000000000000000000000008152600401610ad490612ef6565b60405180910390fd5b610ae760006117d9565b565b6000600760009054906101000a900473ffffffffffffffffffffffffffffffffffffffff16905090565b606060018054610b2290612b0c565b80601f0160208091040260200160405190810160405280929190818152602001828054610b4e90612b0c565b8015610b9b5780601f10610b7057610100808354040283529160200191610b9b565b820191906000526020600020905b815481529060010190602001808311610b7e57829003601f168201915b5050505050905090565b610bb7610bb06113d3565b838361189f565b5050565b6000610bc76008611a0c565b905090565b610bdd610bd76113d3565b83611494565b610c1c576040517f08c379a0000000000000000000000000000000000000000000000000000000008152600401610c1390612d66565b60405180910390fd5b610c2884848484611a1a565b50505050565b6060610c3982611367565b610c78576040517f08c379a0000000000000000000000000000000000000000000000000000000008152600401610c6f90612f88565b60405180910390fd5b6000600660008481526020019081526020016000208054610c9890612b0c565b80601f0160208091040260200160405190810160405280929190818152602001828054610cc490612b0c565b8015610d115780601f10610ce657610100808354040283529160200191610d11565b820191906000526020600020905b815481529060010190602001808311610cf457829003601f168201915b505050505090506000610d22611a76565b9050600081511415610d38578192505050610d7b565b600082511115610d6d578082604051602001610d55929190612fe4565b60405160208183030381529060405292505050610d7b565b610d7684611a8d565b925050505b919050565b6000610d8c6008611a0c565b9050610def600960009054906101000a900473ffffffffffffffffffffffffffffffffffffffff166040518060400160405280601081526020017f636f6e7472616374206164647265737300000000000000000000000000000000815250611b34565b610e58610e1d600960009054906101000a900473ffffffffffffffffffffffffffffffffffffffff166109a9565b6040518060400160405280601081526020017f636f6e74726163742062616c616e636500000000000000000000000000000000815250611bd0565b610e97336040518060400160405280600e81526020017f73656e6465722061646472657373000000000000000000000000000000000000815250611b34565b610ede610ea3336109a9565b6040518060400160405280600e81526020017f73656e6465722062616c616e6365000000000000000000000000000000000000815250611bd0565b610f1d346040518060400160405280601481526020017f6d6573736167652073656e6465722076616c7565000000000000000000000000815250611bd0565b610f5c5a6040518060400160405280600781526020017f6761732066656500000000000000000000000000000000000000000000000000815250611bd0565b66b1a2bc2ec50000341015610fa6576040517f08c379a0000000000000000000000000000000000000000000000000000000008152600401610f9d90613054565b60405180910390fd5b610fb03382611c6c565b610fef816040518060400160405280601d81526020017f68747470733a2f2f6a736f6e6b65657065722e636f6d2f622f5452304b000000815250611c8a565b611036610ffb306109a9565b6040518060400160405280601081526020017f636f6e74726163742062616c616e636500000000000000000000000000000000815250611bd0565b6110406008611cfe565b61106b604051806060016040528060258152602001613a646025913982611066336109a9565b611d14565b611073611db3565b7febb98688741ffa4c7589bf325de30cf7becb63de567842e1ccdb6cb949fdc82c33826040516110a4929190612514565b60405180910390a150565b6000600560008473ffffffffffffffffffffffffffffffffffffffff1673ffffffffffffffffffffffffffffffffffffffff16815260200190815260200160002060008373ffffffffffffffffffffffffffffffffffffffff1673ffffffffffffffffffffffffffffffffffffffff16815260200190815260200160002060009054906101000a900460ff16905092915050565b61114b6113d3565b73ffffffffffffffffffffffffffffffffffffffff16611169610ae9565b73ffffffffffffffffffffffffffffffffffffffff16146111bf576040517f08c379a00000000000000000000000000000000000000000000000000000000081526004016111b690612ef6565b60405180910390fd5b600073ffffffffffffffffffffffffffffffffffffffff168173ffffffffffffffffffffffffffffffffffffffff16141561122f576040517f08c379a0000000000000000000000000000000000000000000000000000000008152600401611226906130e6565b60405180910390fd5b611238816117d9565b50565b6112d18160405160240161124f91906126a5565b6040516020818303038152906040527f41304fac000000000000000000000000000000000000000000000000000000007bffffffffffffffffffffffffffffffffffffffffffffffffffffffff19166020820180517bffffffffffffffffffffffffffffffffffffffffffffffffffffffff83818316178352505050506112d4565b50565b60008151905060006a636f6e736f6c652e6c6f679050602083016000808483855afa5050505050565b60007f01ffc9a7000000000000000000000000000000000000000000000000000000007bffffffffffffffffffffffffffffffffffffffffffffffffffffffff1916827bffffffffffffffffffffffffffffffffffffffffffffffffffffffff1916149050919050565b60008073ffffffffffffffffffffffffffffffffffffffff166002600084815260200190815260200160002060009054906101000a900473ffffffffffffffffffffffffffffffffffffffff1673ffffffffffffffffffffffffffffffffffffffff1614159050919050565b600033905090565b816004600083815260200190815260200160002060006101000a81548173ffffffffffffffffffffffffffffffffffffffff021916908373ffffffffffffffffffffffffffffffffffffffff160217905550808273ffffffffffffffffffffffffffffffffffffffff1661144e836108f7565b73ffffffffffffffffffffffffffffffffffffffff167f8c5be1e5ebec7d5bd14f71427d1e84f3dd0314c0f7b2291e5b200ac8c7c3b92560405160405180910390a45050565b600061149f82611367565b6114de576040517f08c379a00000000000000000000000000000000000000000000000000000000081526004016114d590613178565b60405180910390fd5b60006114e9836108f7565b90508073ffffffffffffffffffffffffffffffffffffffff168473ffffffffffffffffffffffffffffffffffffffff16148061155857508373ffffffffffffffffffffffffffffffffffffffff16611540846106da565b73ffffffffffffffffffffffffffffffffffffffff16145b80611569575061156881856110af565b5b91505092915050565b8273ffffffffffffffffffffffffffffffffffffffff16611592826108f7565b73ffffffffffffffffffffffffffffffffffffffff16146115e8576040517f08c379a00000000000000000000000000000000000000000000000000000000081526004016115df9061320a565b60405180910390fd5b600073ffffffffffffffffffffffffffffffffffffffff168273ffffffffffffffffffffffffffffffffffffffff161415611658576040517f08c379a000000000000000000000000000000000000000000000000000000000815260040161164f9061329c565b60405180910390fd5b611663838383611ecc565b61166e6000826113db565b6001600360008573ffffffffffffffffffffffffffffffffffffffff1673ffffffffffffffffffffffffffffffffffffffff16815260200190815260200160002060008282546116be91906132eb565b925050819055506001600360008473ffffffffffffffffffffffffffffffffffffffff1673ffffffffffffffffffffffffffffffffffffffff1681526020019081526020016000206000828254611715919061331f565b92505081905550816002600083815260200190815260200160002060006101000a81548173ffffffffffffffffffffffffffffffffffffffff021916908373ffffffffffffffffffffffffffffffffffffffff160217905550808273ffffffffffffffffffffffffffffffffffffffff168473ffffffffffffffffffffffffffffffffffffffff167fddf252ad1be2c89b69c2b068fc378daa952ba7f163c4a11628f55a4df523b3ef60405160405180910390a46117d4838383611ed1565b505050565b6000600760009054906101000a900473ffffffffffffffffffffffffffffffffffffffff16905081600760006101000a81548173ffffffffffffffffffffffffffffffffffffffff021916908373ffffffffffffffffffffffffffffffffffffffff1602179055508173ffffffffffffffffffffffffffffffffffffffff168173ffffffffffffffffffffffffffffffffffffffff167f8be0079c531659141344cd1fd0a4f28419497f9722a3daafe3b4186f6b6457e060405160405180910390a35050565b8173ffffffffffffffffffffffffffffffffffffffff168373ffffffffffffffffffffffffffffffffffffffff16141561190e576040517f08c379a0000000000000000000000000000000000000000000000000000000008152600401611905906133c1565b60405180910390fd5b80600560008573ffffffffffffffffffffffffffffffffffffffff1673ffffffffffffffffffffffffffffffffffffffff16815260200190815260200160002060008473ffffffffffffffffffffffffffffffffffffffff1673ffffffffffffffffffffffffffffffffffffffff16815260200190815260200160002060006101000a81548160ff0219169083151502179055508173ffffffffffffffffffffffffffffffffffffffff168373ffffffffffffffffffffffffffffffffffffffff167f17307eab39ab6107e8899845ad3d59bd9653f200f220920489ca2b5937696c31836040516119ff91906125f1565b60405180910390a3505050565b600081600001549050919050565b611a25848484611572565b611a3184848484611ed6565b611a70576040517f08c379a0000000000000000000000000000000000000000000000000000000008152600401611a6790613453565b60405180910390fd5b50505050565b606060405180602001604052806000815250905090565b6060611a9882611367565b611ad7576040517f08c379a0000000000000000000000000000000000000000000000000000000008152600401611ace906134e5565b60405180910390fd5b6000611ae1611a76565b90506000815111611b015760405180602001604052806000815250611b2c565b80611b0b8461205e565b604051602001611b1c929190612fe4565b6040516020818303038152906040525b915050919050565b611bcc8282604051602401611b4a929190613505565b6040516020818303038152906040527f759f86bb000000000000000000000000000000000000000000000000000000007bffffffffffffffffffffffffffffffffffffffffffffffffffffffff19166020820180517bffffffffffffffffffffffffffffffffffffffffffffffffffffffff83818316178352505050506112d4565b5050565b611c688282604051602401611be6929190613535565b6040516020818303038152906040527f0fa3f345000000000000000000000000000000000000000000000000000000007bffffffffffffffffffffffffffffffffffffffffffffffffffffffff19166020820180517bffffffffffffffffffffffffffffffffffffffffffffffffffffffff83818316178352505050506112d4565b5050565b611c868282604051806020016040528060008152506121bf565b5050565b611c9382611367565b611cd2576040517f08c379a0000000000000000000000000000000000000000000000000000000008152600401611cc9906135d7565b60405180910390fd5b80600660008481526020019081526020016000209080519060200190611cf9929190612417565b505050565b6001816000016000828254019250508190555050565b611dae838383604051602401611d2c939291906135f7565b6040516020818303038152906040527f969cdd03000000000000000000000000000000000000000000000000000000007bffffffffffffffffffffffffffffffffffffffffffffffffffffffff19166020820180517bffffffffffffffffffffffffffffffffffffffffffffffffffffffff83818316178352505050506112d4565b505050565b600073c51573625b845826bc3f98f2191aea6b17cde0139050600066b1a2bc2ec50000905047811115611e1b576040517f08c379a0000000000000000000000000000000000000000000000000000000008152600401611e12906136a7565b60405180910390fd5b60008273ffffffffffffffffffffffffffffffffffffffff1682604051611e41906136f8565b60006040518083038185875af1925050503d8060008114611e7e576040519150601f19603f3d011682016040523d82523d6000602084013e611e83565b606091505b5050905080611ec7576040517f08c379a0000000000000000000000000000000000000000000000000000000008152600401611ebe9061377f565b60405180910390fd5b505050565b505050565b505050565b6000611ef78473ffffffffffffffffffffffffffffffffffffffff1661221a565b15612051578373ffffffffffffffffffffffffffffffffffffffff1663150b7a02611f206113d3565b8786866040518563ffffffff1660e01b8152600401611f4294939291906137f4565b6020604051808303816000875af1925050508015611f7e57506040513d601f19601f82011682018060405250810190611f7b9190613855565b60015b612001573d8060008114611fae576040519150601f19603f3d011682016040523d82523d6000602084013e611fb3565b606091505b50600081511415611ff9576040517f08c379a0000000000000000000000000000000000000000000000000000000008152600401611ff090613453565b60405180910390fd5b805181602001fd5b63150b7a0260e01b7bffffffffffffffffffffffffffffffffffffffffffffffffffffffff1916817bffffffffffffffffffffffffffffffffffffffffffffffffffffffff191614915050612056565b600190505b949350505050565b606060008214156120a6576040518060400160405280600181526020017f300000000000000000000000000000000000000000000000000000000000000081525090506121ba565b600082905060005b600082146120d85780806120c190613882565b915050600a826120d191906138fa565b91506120ae565b60008167ffffffffffffffff8111156120f4576120f36128b8565b5b6040519080825280601f01601f1916602001820160405280156121265781602001600182028036833780820191505090505b5090505b600085146121b35760018261213f91906132eb565b9150600a8561214e919061392b565b603061215a919061331f565b60f81b8183815181106121705761216f61395c565b5b60200101907effffffffffffffffffffffffffffffffffffffffffffffffffffffffffffff1916908160001a905350600a856121ac91906138fa565b945061212a565b8093505050505b919050565b6121c9838361223d565b6121d66000848484611ed6565b612215576040517f08c379a000000000000000000000000000000000000000000000000000000000815260040161220c90613453565b60405180910390fd5b505050565b6000808273ffffffffffffffffffffffffffffffffffffffff163b119050919050565b600073ffffffffffffffffffffffffffffffffffffffff168273ffffffffffffffffffffffffffffffffffffffff1614156122ad576040517f08c379a00000000000000000000000000000000000000000000000000000000081526004016122a4906139d7565b60405180910390fd5b6122b681611367565b156122f6576040517f08c379a00000000000000000000000000000000000000000000000000000000081526004016122ed90613a43565b60405180910390fd5b61230260008383611ecc565b6001600360008473ffffffffffffffffffffffffffffffffffffffff1673ffffffffffffffffffffffffffffffffffffffff1681526020019081526020016000206000828254612352919061331f565b92505081905550816002600083815260200190815260200160002060006101000a81548173ffffffffffffffffffffffffffffffffffffffff021916908373ffffffffffffffffffffffffffffffffffffffff160217905550808273ffffffffffffffffffffffffffffffffffffffff16600073ffffffffffffffffffffffffffffffffffffffff167fddf252ad1be2c89b69c2b068fc378daa952ba7f163c4a11628f55a4df523b3ef60405160405180910390a461241360008383611ed1565b5050565b82805461242390612b0c565b90600052602060002090601f016020900481019282612445576000855561248c565b82601f1061245e57805160ff191683800117855561248c565b8280016001018555821561248c579182015b8281111561248b578251825591602001919060010190612470565b5b509050612499919061249d565b5090565b5b808211156124b657600081600090555060010161249e565b5090565b600073ffffffffffffffffffffffffffffffffffffffff82169050919050565b60006124e5826124ba565b9050919050565b6124f5816124da565b82525050565b6000819050919050565b61250e816124fb565b82525050565b600060408201905061252960008301856124ec565b6125366020830184612505565b9392505050565b6000604051905090565b600080fd5b600080fd5b60007fffffffff0000000000000000000000000000000000000000000000000000000082169050919050565b61258681612551565b811461259157600080fd5b50565b6000813590506125a38161257d565b92915050565b6000602082840312156125bf576125be612547565b5b60006125cd84828501612594565b91505092915050565b60008115159050919050565b6125eb816125d6565b82525050565b600060208201905061260660008301846125e2565b92915050565b600081519050919050565b600082825260208201905092915050565b60005b8381101561264657808201518184015260208101905061262b565b83811115612655576000848401525b50505050565b6000601f19601f8301169050919050565b60006126778261260c565b6126818185612617565b9350612691818560208601612628565b61269a8161265b565b840191505092915050565b600060208201905081810360008301526126bf818461266c565b905092915050565b6126d0816124fb565b81146126db57600080fd5b50565b6000813590506126ed816126c7565b92915050565b60006020828403121561270957612708612547565b5b6000612717848285016126de565b91505092915050565b600060208201905061273560008301846124ec565b92915050565b612744816124da565b811461274f57600080fd5b50565b6000813590506127618161273b565b92915050565b6000806040838503121561277e5761277d612547565b5b600061278c85828601612752565b925050602061279d858286016126de565b9150509250929050565b6000806000606084860312156127c0576127bf612547565b5b60006127ce86828701612752565b93505060206127df86828701612752565b92505060406127f0868287016126de565b9150509250925092565b6000602082840312156128105761280f612547565b5b600061281e84828501612752565b91505092915050565b600060208201905061283c6000830184612505565b92915050565b61284b816125d6565b811461285657600080fd5b50565b60008135905061286881612842565b92915050565b6000806040838503121561288557612884612547565b5b600061289385828601612752565b92505060206128a485828601612859565b9150509250929050565b600080fd5b600080fd5b7f4e487b7100000000000000000000000000000000000000000000000000000000600052604160045260246000fd5b6128f08261265b565b810181811067ffffffffffffffff8211171561290f5761290e6128b8565b5b80604052505050565b600061292261253d565b905061292e82826128e7565b919050565b600067ffffffffffffffff82111561294e5761294d6128b8565b5b6129578261265b565b9050602081019050919050565b82818337600083830152505050565b600061298661298184612933565b612918565b9050828152602081018484840111156129a2576129a16128b3565b5b6129ad848285612964565b509392505050565b600082601f8301126129ca576129c96128ae565b5b81356129da848260208601612973565b91505092915050565b600080600080608085870312156129fd576129fc612547565b5b6000612a0b87828801612752565b9450506020612a1c87828801612752565b9350506040612a2d878288016126de565b925050606085013567ffffffffffffffff811115612a4e57612a4d61254c565b5b612a5a878288016129b5565b91505092959194509250565b60008060408385031215612a7d57612a7c612547565b5b6000612a8b85828601612752565b9250506020612a9c85828601612752565b9150509250929050565b6000606082019050612abb60008301866124ec565b612ac86020830185612505565b612ad56040830184612505565b949350505050565b7f4e487b7100000000000000000000000000000000000000000000000000000000600052602260045260246000fd5b60006002820490506001821680612b2457607f821691505b60208210811415612b3857612b37612add565b5b50919050565b7f4552433732313a20617070726f76656420717565727920666f72206e6f6e657860008201527f697374656e7420746f6b656e0000000000000000000000000000000000000000602082015250565b6000612b9a602c83612617565b9150612ba582612b3e565b604082019050919050565b60006020820190508181036000830152612bc981612b8d565b9050919050565b7f4552433732313a20617070726f76616c20746f2063757272656e74206f776e6560008201527f7200000000000000000000000000000000000000000000000000000000000000602082015250565b6000612c2c602183612617565b9150612c3782612bd0565b604082019050919050565b60006020820190508181036000830152612c5b81612c1f565b9050919050565b7f4552433732313a20617070726f76652063616c6c6572206973206e6f74206f7760008201527f6e6572206e6f7220617070726f76656420666f7220616c6c0000000000000000602082015250565b6000612cbe603883612617565b9150612cc982612c62565b604082019050919050565b60006020820190508181036000830152612ced81612cb1565b9050919050565b7f4552433732313a207472616e736665722063616c6c6572206973206e6f74206f60008201527f776e6572206e6f7220617070726f766564000000000000000000000000000000602082015250565b6000612d50603183612617565b9150612d5b82612cf4565b604082019050919050565b60006020820190508181036000830152612d7f81612d43565b9050919050565b7f4552433732313a206f776e657220717565727920666f72206e6f6e657869737460008201527f656e7420746f6b656e0000000000000000000000000000000000000000000000602082015250565b6000612de2602983612617565b9150612ded82612d86565b604082019050919050565b60006020820190508181036000830152612e1181612dd5565b9050919050565b7f4552433732313a2062616c616e636520717565727920666f7220746865207a6560008201527f726f206164647265737300000000000000000000000000000000000000000000602082015250565b6000612e74602a83612617565b9150612e7f82612e18565b604082019050919050565b60006020820190508181036000830152612ea381612e67565b9050919050565b7f4f776e61626c653a2063616c6c6572206973206e6f7420746865206f776e6572600082015250565b6000612ee0602083612617565b9150612eeb82612eaa565b602082019050919050565b60006020820190508181036000830152612f0f81612ed3565b9050919050565b7f45524337323155524953746f726167653a2055524920717565727920666f722060008201527f6e6f6e6578697374656e7420746f6b656e000000000000000000000000000000602082015250565b6000612f72603183612617565b9150612f7d82612f16565b604082019050919050565b60006020820190508181036000830152612fa181612f65565b9050919050565b600081905092915050565b6000612fbe8261260c565b612fc88185612fa8565b9350612fd8818560208601612628565b80840191505092915050565b6000612ff08285612fb3565b9150612ffc8284612fb3565b91508190509392505050565b7f4e65656420746f2073656e6420302e3035206574686572206f72206d6f726500600082015250565b600061303e601f83612617565b915061304982613008565b602082019050919050565b6000602082019050818103600083015261306d81613031565b9050919050565b7f4f776e61626c653a206e6577206f776e657220697320746865207a65726f206160008201527f6464726573730000000000000000000000000000000000000000000000000000602082015250565b60006130d0602683612617565b91506130db82613074565b604082019050919050565b600060208201905081810360008301526130ff816130c3565b9050919050565b7f4552433732313a206f70657261746f7220717565727920666f72206e6f6e657860008201527f697374656e7420746f6b656e0000000000000000000000000000000000000000602082015250565b6000613162602c83612617565b915061316d82613106565b604082019050919050565b6000602082019050818103600083015261319181613155565b9050919050565b7f4552433732313a207472616e736665722066726f6d20696e636f72726563742060008201527f6f776e6572000000000000000000000000000000000000000000000000000000602082015250565b60006131f4602583612617565b91506131ff82613198565b604082019050919050565b60006020820190508181036000830152613223816131e7565b9050919050565b7f4552433732313a207472616e7366657220746f20746865207a65726f2061646460008201527f7265737300000000000000000000000000000000000000000000000000000000602082015250565b6000613286602483612617565b91506132918261322a565b604082019050919050565b600060208201905081810360008301526132b581613279565b9050919050565b7f4e487b7100000000000000000000000000000000000000000000000000000000600052601160045260246000fd5b60006132f6826124fb565b9150613301836124fb565b925082821015613314576133136132bc565b5b828203905092915050565b600061332a826124fb565b9150613335836124fb565b9250827fffffffffffffffffffffffffffffffffffffffffffffffffffffffffffffffff0382111561336a576133696132bc565b5b828201905092915050565b7f4552433732313a20617070726f766520746f2063616c6c657200000000000000600082015250565b60006133ab601983612617565b91506133b682613375565b602082019050919050565b600060208201905081810360008301526133da8161339e565b9050919050565b7f4552433732313a207472616e7366657220746f206e6f6e20455243373231526560008201527f63656976657220696d706c656d656e7465720000000000000000000000000000602082015250565b600061343d603283612617565b9150613448826133e1565b604082019050919050565b6000602082019050818103600083015261346c81613430565b9050919050565b7f4552433732314d657461646174613a2055524920717565727920666f72206e6f60008201527f6e6578697374656e7420746f6b656e0000000000000000000000000000000000602082015250565b60006134cf602f83612617565b91506134da82613473565b604082019050919050565b600060208201905081810360008301526134fe816134c2565b9050919050565b600060408201905061351a60008301856124ec565b818103602083015261352c818461266c565b90509392505050565b600060408201905061354a6000830185612505565b818103602083015261355c818461266c565b90509392505050565b7f45524337323155524953746f726167653a2055524920736574206f66206e6f6e60008201527f6578697374656e7420746f6b656e000000000000000000000000000000000000602082015250565b60006135c1602e83612617565b91506135cc82613565565b604082019050919050565b600060208201905081810360008301526135f0816135b4565b9050919050565b60006060820190508181036000830152613611818661266c565b90506136206020830185612505565b61362d6040830184612505565b949350505050565b7f547279696e6720746f207769746864726177206d6f7265206d6f6e657920746860008201527f616e2074686520636f6e7472616374206861732e000000000000000000000000602082015250565b6000613691603483612617565b915061369c82613635565b604082019050919050565b600060208201905081810360008301526136c081613684565b9050919050565b600081905092915050565b50565b60006136e26000836136c7565b91506136ed826136d2565b600082019050919050565b6000613703826136d5565b9150819050919050565b7f4661696c656420746f207769746864726177206d6f6e65792066726f6d20636f60008201527f6e74726163742e00000000000000000000000000000000000000000000000000602082015250565b6000613769602783612617565b91506137748261370d565b604082019050919050565b600060208201905081810360008301526137988161375c565b9050919050565b600081519050919050565b600082825260208201905092915050565b60006137c68261379f565b6137d081856137aa565b93506137e0818560208601612628565b6137e98161265b565b840191505092915050565b600060808201905061380960008301876124ec565b61381660208301866124ec565b6138236040830185612505565b818103606083015261383581846137bb565b905095945050505050565b60008151905061384f8161257d565b92915050565b60006020828403121561386b5761386a612547565b5b600061387984828501613840565b91505092915050565b600061388d826124fb565b91507fffffffffffffffffffffffffffffffffffffffffffffffffffffffffffffffff8214156138c0576138bf6132bc565b5b600182019050919050565b7f4e487b7100000000000000000000000000000000000000000000000000000000600052601260045260246000fd5b6000613905826124fb565b9150613910836124fb565b9250826139205761391f6138cb565b5b828204905092915050565b6000613936826124fb565b9150613941836124fb565b925082613951576139506138cb565b5b828206905092915050565b7f4e487b7100000000000000000000000000000000000000000000000000000000600052603260045260246000fd5b7f4552433732313a206d696e7420746f20746865207a65726f2061646472657373600082015250565b60006139c1602083612617565b91506139cc8261398b565b602082019050919050565b600060208201905081810360008301526139f0816139b4565b9050919050565b7f4552433732313a20746f6b656e20616c7265616479206d696e74656400000000600082015250565b6000613a2d601c83612617565b9150613a38826139f7565b602082019050919050565b60006020820190508181036000830152613a5c81613a20565b905091905056fe416e204e465420772f20494420257320686173206265656e206d696e74656420746f202573a26469706673582212208797d91f29c94b2085dc5303236fd84e7d43a93a9ddcac66f971b6920946702164736f6c634300080a0033",
  "linkReferences": {},
  "deployedLinkReferences": {}
}