{
  "_format": "hh-sol-artifact-1",
  "contractName": "MyEpicNFT",
  "sourceName": "contracts/MyEpicNFT.sol",
  "abi": [
    {
      "inputs": [],
      "stateMutability": "payable",
      "type": "constructor"
    },
    {
      "anonymous": false,
      "inputs": [
        {
          "indexed": true,
          "internalType": "address",
          "name": "owner",
          "type": "address"
        },
        {
          "indexed": true,
          "internalType": "address",
          "name": "approved",
          "type": "address"
        },
        {
          "indexed": true,
          "internalType": "uint256",
          "name": "tokenId",
          "type": "uint256"
        }
      ],
      "name": "Approval",
      "type": "event"
    },
    {
      "anonymous": false,
      "inputs": [
        {
          "indexed": true,
          "internalType": "address",
          "name": "owner",
          "type": "address"
        },
        {
          "indexed": true,
          "internalType": "address",
          "name": "operator",
          "type": "address"
        },
        {
          "indexed": false,
          "internalType": "bool",
          "name": "approved",
          "type": "bool"
        }
      ],
      "name": "ApprovalForAll",
      "type": "event"
    },
    {
      "anonymous": false,
      "inputs": [
        {
          "indexed": false,
          "internalType": "address",
          "name": "sender",
          "type": "address"
        },
        {
          "indexed": false,
          "internalType": "uint256",
          "name": "tokenId",
          "type": "uint256"
        }
      ],
      "name": "NewEpicNFTMinted",
      "type": "event"
    },
    {
      "anonymous": false,
      "inputs": [
        {
          "indexed": true,
          "internalType": "address",
          "name": "previousOwner",
          "type": "address"
        },
        {
          "indexed": true,
          "internalType": "address",
          "name": "newOwner",
          "type": "address"
        }
      ],
      "name": "OwnershipTransferred",
      "type": "event"
    },
    {
      "anonymous": false,
      "inputs": [
        {
          "indexed": false,
          "internalType": "address",
          "name": "",
          "type": "address"
        },
        {
          "indexed": false,
          "internalType": "uint256",
          "name": "",
          "type": "uint256"
        }
      ],
      "name": "Received",
      "type": "event"
    },
    {
      "anonymous": false,
      "inputs": [
        {
          "indexed": true,
          "internalType": "address",
          "name": "from",
          "type": "address"
        },
        {
          "indexed": true,
          "internalType": "address",
          "name": "to",
          "type": "address"
        },
        {
          "indexed": true,
          "internalType": "uint256",
          "name": "tokenId",
          "type": "uint256"
        }
      ],
      "name": "Transfer",
      "type": "event"
    },
    {
      "inputs": [
        {
          "internalType": "address",
          "name": "to",
          "type": "address"
        },
        {
          "internalType": "uint256",
          "name": "tokenId",
          "type": "uint256"
        }
      ],
      "name": "approve",
      "outputs": [],
      "stateMutability": "nonpayable",
      "type": "function"
    },
    {
      "inputs": [
        {
          "internalType": "address",
          "name": "owner",
          "type": "address"
        }
      ],
      "name": "balanceOf",
      "outputs": [
        {
          "internalType": "uint256",
          "name": "",
          "type": "uint256"
        }
      ],
      "stateMutability": "view",
      "type": "function"
    },
    {
      "inputs": [
        {
          "internalType": "uint256",
          "name": "tokenId",
          "type": "uint256"
        }
      ],
      "name": "getApproved",
      "outputs": [
        {
          "internalType": "address",
          "name": "",
          "type": "address"
        }
      ],
      "stateMutability": "view",
      "type": "function"
    },
    {
      "inputs": [],
      "name": "getCurrentSupply",
      "outputs": [
        {
          "internalType": "uint256",
          "name": "",
          "type": "uint256"
        }
      ],
      "stateMutability": "view",
      "type": "function"
    },
    {
      "inputs": [],
      "name": "getPrice",
      "outputs": [
        {
          "internalType": "uint256",
          "name": "",
          "type": "uint256"
        }
      ],
      "stateMutability": "view",
      "type": "function"
    },
    {
      "inputs": [],
      "name": "getRoyalty",
      "outputs": [
        {
          "internalType": "uint256",
          "name": "",
          "type": "uint256"
        }
      ],
      "stateMutability": "view",
      "type": "function"
    },
    {
      "inputs": [
        {
          "internalType": "address",
          "name": "owner",
          "type": "address"
        },
        {
          "internalType": "address",
          "name": "operator",
          "type": "address"
        }
      ],
      "name": "isApprovedForAll",
      "outputs": [
        {
          "internalType": "bool",
          "name": "",
          "type": "bool"
        }
      ],
      "stateMutability": "view",
      "type": "function"
    },
    {
      "inputs": [],
      "name": "makeAnEpicNFT",
      "outputs": [],
      "stateMutability": "payable",
      "type": "function"
    },
    {
      "inputs": [],
      "name": "name",
      "outputs": [
        {
          "internalType": "string",
          "name": "",
          "type": "string"
        }
      ],
      "stateMutability": "view",
      "type": "function"
    },
    {
      "inputs": [],
      "name": "owner",
      "outputs": [
        {
          "internalType": "address",
          "name": "",
          "type": "address"
        }
      ],
      "stateMutability": "view",
      "type": "function"
    },
    {
      "inputs": [
        {
          "internalType": "uint256",
          "name": "tokenId",
          "type": "uint256"
        }
      ],
      "name": "ownerOf",
      "outputs": [
        {
          "internalType": "address",
          "name": "",
          "type": "address"
        }
      ],
      "stateMutability": "view",
      "type": "function"
    },
    {
      "inputs": [],
      "name": "renounceOwnership",
      "outputs": [],
      "stateMutability": "nonpayable",
      "type": "function"
    },
    {
      "inputs": [],
      "name": "returnTokenID",
      "outputs": [
        {
          "internalType": "uint256",
          "name": "",
          "type": "uint256"
        }
      ],
      "stateMutability": "view",
      "type": "function"
    },
    {
      "inputs": [
        {
          "internalType": "address",
          "name": "from",
          "type": "address"
        },
        {
          "internalType": "address",
          "name": "to",
          "type": "address"
        },
        {
          "internalType": "uint256",
          "name": "tokenId",
          "type": "uint256"
        }
      ],
      "name": "safeTransferFrom",
      "outputs": [],
      "stateMutability": "nonpayable",
      "type": "function"
    },
    {
      "inputs": [
        {
          "internalType": "address",
          "name": "from",
          "type": "address"
        },
        {
          "internalType": "address",
          "name": "to",
          "type": "address"
        },
        {
          "internalType": "uint256",
          "name": "tokenId",
          "type": "uint256"
        },
        {
          "internalType": "bytes",
          "name": "_data",
          "type": "bytes"
        }
      ],
      "name": "safeTransferFrom",
      "outputs": [],
      "stateMutability": "nonpayable",
      "type": "function"
    },
    {
      "inputs": [
        {
          "internalType": "address",
          "name": "operator",
          "type": "address"
        },
        {
          "internalType": "bool",
          "name": "approved",
          "type": "bool"
        }
      ],
      "name": "setApprovalForAll",
      "outputs": [],
      "stateMutability": "nonpayable",
      "type": "function"
    },
    {
      "inputs": [],
      "name": "setPriceAndShare",
      "outputs": [],
      "stateMutability": "nonpayable",
      "type": "function"
    },
    {
      "inputs": [
        {
          "internalType": "bytes4",
          "name": "interfaceId",
          "type": "bytes4"
        }
      ],
      "name": "supportsInterface",
      "outputs": [
        {
          "internalType": "bool",
          "name": "",
          "type": "bool"
        }
      ],
      "stateMutability": "view",
      "type": "function"
    },
    {
      "inputs": [],
      "name": "symbol",
      "outputs": [
        {
          "internalType": "string",
          "name": "",
          "type": "string"
        }
      ],
      "stateMutability": "view",
      "type": "function"
    },
    {
      "inputs": [
        {
          "internalType": "uint256",
          "name": "tokenId",
          "type": "uint256"
        }
      ],
      "name": "tokenURI",
      "outputs": [
        {
          "internalType": "string",
          "name": "",
          "type": "string"
        }
      ],
      "stateMutability": "view",
      "type": "function"
    },
    {
      "inputs": [
        {
          "internalType": "address",
          "name": "from",
          "type": "address"
        },
        {
          "internalType": "address",
          "name": "to",
          "type": "address"
        },
        {
          "internalType": "uint256",
          "name": "tokenId",
          "type": "uint256"
        }
      ],
      "name": "transferFrom",
      "outputs": [],
      "stateMutability": "nonpayable",
      "type": "function"
    },
    {
      "inputs": [
        {
          "internalType": "address",
          "name": "newOwner",
          "type": "address"
        }
      ],
      "name": "transferOwnership",
      "outputs": [],
      "stateMutability": "nonpayable",
      "type": "function"
    },
    {
      "stateMutability": "payable",
      "type": "receive"
    }
  ],
  "bytecode": "0x6080604052610190600a55610190600b556109c4600c556040518060400160405280600a81526020017f437573746f6d204e4654000000000000000000000000000000000000000000008152506040518060400160405280600381526020017f4e4654000000000000000000000000000000000000000000000000000000000081525081600090805190602001906200009a92919062000307565b508060019080519060200190620000b392919062000307565b505050620000d6620000ca6200017d60201b60201c565b6200018560201b60201c565b620000e66200024b60201b60201c565b601060006101000a81548173ffffffffffffffffffffffffffffffffffffffff021916908373ffffffffffffffffffffffffffffffffffffffff16021790555030600960006101000a81548173ffffffffffffffffffffffffffffffffffffffff021916908373ffffffffffffffffffffffffffffffffffffffff160217905550620001776200027560201b60201c565b6200041c565b600033905090565b6000600760009054906101000a900473ffffffffffffffffffffffffffffffffffffffff16905081600760006101000a81548173ffffffffffffffffffffffffffffffffffffffff021916908373ffffffffffffffffffffffffffffffffffffffff1602179055508173ffffffffffffffffffffffffffffffffffffffff168173ffffffffffffffffffffffffffffffffffffffff167f8be0079c531659141344cd1fd0a4f28419497f9722a3daafe3b4186f6b6457e060405160405180910390a35050565b6000600760009054906101000a900473ffffffffffffffffffffffffffffffffffffffff16905090565b61012c600b54106200029a576701aa535d3d0c0000600e81905550611388600d819055505b61012c600b54108015620002b1575060c8600b5410155b15620002d0576702a303fe4b530000600e81905550611388600d819055505b60c8600b54108015620002e657506000600b5410155b1562000305576706f05b59d3b20000600e81905550611388600d819055505b565b8280546200031590620003e6565b90600052602060002090601f01602090048101928262000339576000855562000385565b82601f106200035457805160ff191683800117855562000385565b8280016001018555821562000385579182015b828111156200038457825182559160200191906001019062000367565b5b50905062000394919062000398565b5090565b5b80821115620003b357600081600090555060010162000399565b5090565b7f4e487b7100000000000000000000000000000000000000000000000000000000600052602260045260246000fd5b60006002820490506001821680620003ff57607f821691505b60208210811415620004165762000415620003b7565b5b50919050565b613d23806200042c6000396000f3fe6080604052600436106101395760003560e01c80638da5cb5b116100ab578063ae3308841161006f578063ae33088414610446578063b88d4fde14610471578063c87b56dd1461049a578063de9d132f146104d7578063e985e9c5146104e1578063f2fde38b1461051e57610179565b80638da5cb5b1461038557806395d89b41146103b057806395ff681f146103db57806398d5fdca146103f2578063a22cb4651461041d57610179565b806342842e0e116100fd57806342842e0e146102755780634d47732a1461029e5780634f3e1efc146102c95780636352211e146102f457806370a0823114610331578063715018a61461036e57610179565b806301ffc9a71461017e57806306fdde03146101bb578063081812fc146101e6578063095ea7b31461022357806323b872dd1461024c57610179565b36610179577f88a5966d370b9919b20f3e2c13ff65706f196a4e32cc2c12bf57088f88525874333460405161016f92919061253f565b60405180910390a1005b600080fd5b34801561018a57600080fd5b506101a560048036038101906101a091906125d4565b610547565b6040516101b2919061261c565b60405180910390f35b3480156101c757600080fd5b506101d0610629565b6040516101dd91906126d0565b60405180910390f35b3480156101f257600080fd5b5061020d6004803603810190610208919061271e565b6106bb565b60405161021a919061274b565b60405180910390f35b34801561022f57600080fd5b5061024a60048036038101906102459190612792565b610740565b005b34801561025857600080fd5b50610273600480360381019061026e91906127d2565b610858565b005b34801561028157600080fd5b5061029c600480360381019061029791906127d2565b6108b8565b005b3480156102aa57600080fd5b506102b36108d8565b6040516102c09190612825565b60405180910390f35b3480156102d557600080fd5b506102de6108e2565b6040516102eb9190612825565b60405180910390f35b34801561030057600080fd5b5061031b6004803603810190610316919061271e565b6108ec565b604051610328919061274b565b60405180910390f35b34801561033d57600080fd5b5061035860048036038101906103539190612840565b61099e565b6040516103659190612825565b60405180910390f35b34801561037a57600080fd5b50610383610a56565b005b34801561039157600080fd5b5061039a610ade565b6040516103a7919061274b565b60405180910390f35b3480156103bc57600080fd5b506103c5610b08565b6040516103d291906126d0565b60405180910390f35b3480156103e757600080fd5b506103f0610b9a565b005b3480156103fe57600080fd5b50610407610c27565b6040516104149190612825565b60405180910390f35b34801561042957600080fd5b50610444600480360381019061043f9190612899565b610c31565b005b34801561045257600080fd5b5061045b610c47565b6040516104689190612825565b60405180910390f35b34801561047d57600080fd5b5061049860048036038101906104939190612a0e565b610c58565b005b3480156104a657600080fd5b506104c160048036038101906104bc919061271e565b610cba565b6040516104ce91906126d0565b60405180910390f35b6104df610e0c565b005b3480156104ed57600080fd5b5061050860048036038101906105039190612a91565b611074565b604051610515919061261c565b60405180910390f35b34801561052a57600080fd5b5061054560048036038101906105409190612840565b611108565b005b60007f80ac58cd000000000000000000000000000000000000000000000000000000007bffffffffffffffffffffffffffffffffffffffffffffffffffffffff1916827bffffffffffffffffffffffffffffffffffffffffffffffffffffffff1916148061061257507f5b5e139f000000000000000000000000000000000000000000000000000000007bffffffffffffffffffffffffffffffffffffffffffffffffffffffff1916827bffffffffffffffffffffffffffffffffffffffffffffffffffffffff1916145b80610622575061062182611200565b5b9050919050565b60606000805461063890612b00565b80601f016020809104026020016040519081016040528092919081815260200182805461066490612b00565b80156106b15780601f10610686576101008083540402835291602001916106b1565b820191906000526020600020905b81548152906001019060200180831161069457829003601f168201915b5050505050905090565b60006106c68261126a565b610705576040517f08c379a00000000000000000000000000000000000000000000000000000000081526004016106fc90612ba4565b60405180910390fd5b6004600083815260200190815260200160002060009054906101000a900473ffffffffffffffffffffffffffffffffffffffff169050919050565b600061074b826108ec565b90508073ffffffffffffffffffffffffffffffffffffffff168373ffffffffffffffffffffffffffffffffffffffff1614156107bc576040517f08c379a00000000000000000000000000000000000000000000000000000000081526004016107b390612c36565b60405180910390fd5b8073ffffffffffffffffffffffffffffffffffffffff166107db6112d6565b73ffffffffffffffffffffffffffffffffffffffff16148061080a5750610809816108046112d6565b611074565b5b610849576040517f08c379a000000000000000000000000000000000000000000000000000000000815260040161084090612cc8565b60405180910390fd5b61085383836112de565b505050565b6108696108636112d6565b82611397565b6108a8576040517f08c379a000000000000000000000000000000000000000000000000000000000815260040161089f90612d5a565b60405180910390fd5b6108b3838383611475565b505050565b6108d383838360405180602001604052806000815250610c58565b505050565b6000600c54905090565b6000600b54905090565b6000806002600084815260200190815260200160002060009054906101000a900473ffffffffffffffffffffffffffffffffffffffff169050600073ffffffffffffffffffffffffffffffffffffffff168173ffffffffffffffffffffffffffffffffffffffff161415610995576040517f08c379a000000000000000000000000000000000000000000000000000000000815260040161098c90612dec565b60405180910390fd5b80915050919050565b60008073ffffffffffffffffffffffffffffffffffffffff168273ffffffffffffffffffffffffffffffffffffffff161415610a0f576040517f08c379a0000000000000000000000000000000000000000000000000000000008152600401610a0690612e7e565b60405180910390fd5b600360008373ffffffffffffffffffffffffffffffffffffffff1673ffffffffffffffffffffffffffffffffffffffff168152602001908152602001600020549050919050565b610a5e6112d6565b73ffffffffffffffffffffffffffffffffffffffff16610a7c610ade565b73ffffffffffffffffffffffffffffffffffffffff1614610ad2576040517f08c379a0000000000000000000000000000000000000000000000000000000008152600401610ac990612eea565b60405180910390fd5b610adc60006116dc565b565b6000600760009054906101000a900473ffffffffffffffffffffffffffffffffffffffff16905090565b606060018054610b1790612b00565b80601f0160208091040260200160405190810160405280929190818152602001828054610b4390612b00565b8015610b905780601f10610b6557610100808354040283529160200191610b90565b820191906000526020600020905b815481529060010190602001808311610b7357829003601f168201915b5050505050905090565b61012c600b5410610bbe576701aa535d3d0c0000600e81905550611388600d819055505b61012c600b54108015610bd4575060c8600b5410155b15610bf2576702a303fe4b530000600e81905550611388600d819055505b60c8600b54108015610c0757506000600b5410155b15610c25576706f05b59d3b20000600e81905550611388600d819055505b565b6000600e54905090565b610c43610c3c6112d6565b83836117a2565b5050565b6000610c53600861190f565b905090565b610c69610c636112d6565b83611397565b610ca8576040517f08c379a0000000000000000000000000000000000000000000000000000000008152600401610c9f90612d5a565b60405180910390fd5b610cb48484848461191d565b50505050565b6060610cc58261126a565b610d04576040517f08c379a0000000000000000000000000000000000000000000000000000000008152600401610cfb90612f7c565b60405180910390fd5b6000600660008481526020019081526020016000208054610d2490612b00565b80601f0160208091040260200160405190810160405280929190818152602001828054610d5090612b00565b8015610d9d5780601f10610d7257610100808354040283529160200191610d9d565b820191906000526020600020905b815481529060010190602001808311610d8057829003601f168201915b505050505090506000610dae611979565b9050600081511415610dc4578192505050610e07565b600082511115610df9578082604051602001610de1929190612fd8565b60405160208183030381529060405292505050610e07565b610e0284611990565b925050505b919050565b6000600b5411610e51576040517f08c379a0000000000000000000000000000000000000000000000000000000008152600401610e4890613048565b60405180910390fd5b6000610e5d600861190f565b905080600f81905550610e6e610b9a565b6701aa535d3d0c0000600e541415610ec657600e54341015610ec5576040517f08c379a0000000000000000000000000000000000000000000000000000000008152600401610ebc906130b4565b60405180910390fd5b5b6702a303fe4b530000600e541415610f1e57600e54341015610f1d576040517f08c379a0000000000000000000000000000000000000000000000000000000008152600401610f1490613120565b60405180910390fd5b5b6706f05b59d3b20000600e541415610f7657600e54341015610f75576040517f08c379a0000000000000000000000000000000000000000000000000000000008152600401610f6c9061318c565b60405180910390fd5b5b610f803382611a37565b610fbf816040518060400160405280601d81526020017f68747470733a2f2f6a736f6e6b65657065722e636f6d2f622f5452304b000000815250611a55565b611006610fcb3061099e565b6040518060400160405280601e81526020017f636f6e74726163742062616c616e6365206166746572206d696e74696e670000815250611ac9565b6110106008611b65565b600b6000815480929190611023906131db565b9190505550611030611b7b565b611038610b9a565b7febb98688741ffa4c7589bf325de30cf7becb63de567842e1ccdb6cb949fdc82c338260405161106992919061253f565b60405180910390a150565b6000600560008473ffffffffffffffffffffffffffffffffffffffff1673ffffffffffffffffffffffffffffffffffffffff16815260200190815260200160002060008373ffffffffffffffffffffffffffffffffffffffff1673ffffffffffffffffffffffffffffffffffffffff16815260200190815260200160002060009054906101000a900460ff16905092915050565b6111106112d6565b73ffffffffffffffffffffffffffffffffffffffff1661112e610ade565b73ffffffffffffffffffffffffffffffffffffffff1614611184576040517f08c379a000000000000000000000000000000000000000000000000000000000815260040161117b90612eea565b60405180910390fd5b600073ffffffffffffffffffffffffffffffffffffffff168173ffffffffffffffffffffffffffffffffffffffff1614156111f4576040517f08c379a00000000000000000000000000000000000000000000000000000000081526004016111eb90613277565b60405180910390fd5b6111fd816116dc565b50565b60007f01ffc9a7000000000000000000000000000000000000000000000000000000007bffffffffffffffffffffffffffffffffffffffffffffffffffffffff1916827bffffffffffffffffffffffffffffffffffffffffffffffffffffffff1916149050919050565b60008073ffffffffffffffffffffffffffffffffffffffff166002600084815260200190815260200160002060009054906101000a900473ffffffffffffffffffffffffffffffffffffffff1673ffffffffffffffffffffffffffffffffffffffff1614159050919050565b600033905090565b816004600083815260200190815260200160002060006101000a81548173ffffffffffffffffffffffffffffffffffffffff021916908373ffffffffffffffffffffffffffffffffffffffff160217905550808273ffffffffffffffffffffffffffffffffffffffff16611351836108ec565b73ffffffffffffffffffffffffffffffffffffffff167f8c5be1e5ebec7d5bd14f71427d1e84f3dd0314c0f7b2291e5b200ac8c7c3b92560405160405180910390a45050565b60006113a28261126a565b6113e1576040517f08c379a00000000000000000000000000000000000000000000000000000000081526004016113d890613309565b60405180910390fd5b60006113ec836108ec565b90508073ffffffffffffffffffffffffffffffffffffffff168473ffffffffffffffffffffffffffffffffffffffff16148061145b57508373ffffffffffffffffffffffffffffffffffffffff16611443846106bb565b73ffffffffffffffffffffffffffffffffffffffff16145b8061146c575061146b8185611074565b5b91505092915050565b8273ffffffffffffffffffffffffffffffffffffffff16611495826108ec565b73ffffffffffffffffffffffffffffffffffffffff16146114eb576040517f08c379a00000000000000000000000000000000000000000000000000000000081526004016114e29061339b565b60405180910390fd5b600073ffffffffffffffffffffffffffffffffffffffff168273ffffffffffffffffffffffffffffffffffffffff16141561155b576040517f08c379a00000000000000000000000000000000000000000000000000000000081526004016115529061342d565b60405180910390fd5b611566838383611ece565b6115716000826112de565b6001600360008573ffffffffffffffffffffffffffffffffffffffff1673ffffffffffffffffffffffffffffffffffffffff16815260200190815260200160002060008282546115c1919061344d565b925050819055506001600360008473ffffffffffffffffffffffffffffffffffffffff1673ffffffffffffffffffffffffffffffffffffffff16815260200190815260200160002060008282546116189190613481565b92505081905550816002600083815260200190815260200160002060006101000a81548173ffffffffffffffffffffffffffffffffffffffff021916908373ffffffffffffffffffffffffffffffffffffffff160217905550808273ffffffffffffffffffffffffffffffffffffffff168473ffffffffffffffffffffffffffffffffffffffff167fddf252ad1be2c89b69c2b068fc378daa952ba7f163c4a11628f55a4df523b3ef60405160405180910390a46116d7838383611ed3565b505050565b6000600760009054906101000a900473ffffffffffffffffffffffffffffffffffffffff16905081600760006101000a81548173ffffffffffffffffffffffffffffffffffffffff021916908373ffffffffffffffffffffffffffffffffffffffff1602179055508173ffffffffffffffffffffffffffffffffffffffff168173ffffffffffffffffffffffffffffffffffffffff167f8be0079c531659141344cd1fd0a4f28419497f9722a3daafe3b4186f6b6457e060405160405180910390a35050565b8173ffffffffffffffffffffffffffffffffffffffff168373ffffffffffffffffffffffffffffffffffffffff161415611811576040517f08c379a000000000000000000000000000000000000000000000000000000000815260040161180890613523565b60405180910390fd5b80600560008573ffffffffffffffffffffffffffffffffffffffff1673ffffffffffffffffffffffffffffffffffffffff16815260200190815260200160002060008473ffffffffffffffffffffffffffffffffffffffff1673ffffffffffffffffffffffffffffffffffffffff16815260200190815260200160002060006101000a81548160ff0219169083151502179055508173ffffffffffffffffffffffffffffffffffffffff168373ffffffffffffffffffffffffffffffffffffffff167f17307eab39ab6107e8899845ad3d59bd9653f200f220920489ca2b5937696c3183604051611902919061261c565b60405180910390a3505050565b600081600001549050919050565b611928848484611475565b61193484848484611ed8565b611973576040517f08c379a000000000000000000000000000000000000000000000000000000000815260040161196a906135b5565b60405180910390fd5b50505050565b606060405180602001604052806000815250905090565b606061199b8261126a565b6119da576040517f08c379a00000000000000000000000000000000000000000000000000000000081526004016119d190613647565b60405180910390fd5b60006119e4611979565b90506000815111611a045760405180602001604052806000815250611a2f565b80611a0e84612060565b604051602001611a1f929190612fd8565b6040516020818303038152906040525b915050919050565b611a518282604051806020016040528060008152506121c1565b5050565b611a5e8261126a565b611a9d576040517f08c379a0000000000000000000000000000000000000000000000000000000008152600401611a94906136d9565b60405180910390fd5b80600660008481526020019081526020016000209080519060200190611ac4929190612442565b505050565b611b618282604051602401611adf9291906136f9565b6040516020818303038152906040527f0fa3f345000000000000000000000000000000000000000000000000000000007bffffffffffffffffffffffffffffffffffffffffffffffffffffffff19166020820180517bffffffffffffffffffffffffffffffffffffffffffffffffffffffff838183161783525050505061221c565b5050565b6001816000016000828254019250508190555050565b6000733cb1de1465310f5fad3c65a58f1b174b78d15e7190506000735d1819d05b58d5967520f3d881a36f212c02915b9050611bcf47604051806060016040528060238152602001613ccb60239139611ac9565b611c10600e546040518060400160405280600d81526020017f73656c6c696e6720707269636500000000000000000000000000000000000000815250611ac9565b47600e541115611c55576040517f08c379a0000000000000000000000000000000000000000000000000000000008152600401611c4c9061379b565b60405180910390fd5b6000600d54612710611c67919061344d565b9050600061271082600e54611c7c91906137bb565b611c869190613844565b90506000612710600d54600e54611c9d91906137bb565b611ca79190613844565b905060008573ffffffffffffffffffffffffffffffffffffffff16600184611ccf91906137bb565b604051611cdb906138cc565b60006040518083038185875af1925050503d8060008114611d18576040519150601f19603f3d011682016040523d82523d6000602084013e611d1d565b606091505b5050905080611d61576040517f08c379a0000000000000000000000000000000000000000000000000000000008152600401611d5890613953565b60405180910390fd5b60008573ffffffffffffffffffffffffffffffffffffffff16600184611d8791906137bb565b604051611d93906139bf565b60006040518083038185875af1925050503d8060008114611dd0576040519150601f19603f3d011682016040523d82523d6000602084013e611dd5565b606091505b5050905080611e19576040517f08c379a0000000000000000000000000000000000000000000000000000000008152600401611e1090613a46565b60405180910390fd5b611e6f8773ffffffffffffffffffffffffffffffffffffffff16316040518060400160405280600e81526020017f6162627927732062616c616e6365000000000000000000000000000000000000815250611ac9565b611ec58673ffffffffffffffffffffffffffffffffffffffff16316040518060400160405280600f81526020017f616d69796127732062616c616e63650000000000000000000000000000000000815250611ac9565b50505050505050565b505050565b505050565b6000611ef98473ffffffffffffffffffffffffffffffffffffffff16612245565b15612053578373ffffffffffffffffffffffffffffffffffffffff1663150b7a02611f226112d6565b8786866040518563ffffffff1660e01b8152600401611f449493929190613abb565b6020604051808303816000875af1925050508015611f8057506040513d601f19601f82011682018060405250810190611f7d9190613b1c565b60015b612003573d8060008114611fb0576040519150601f19603f3d011682016040523d82523d6000602084013e611fb5565b606091505b50600081511415611ffb576040517f08c379a0000000000000000000000000000000000000000000000000000000008152600401611ff2906135b5565b60405180910390fd5b805181602001fd5b63150b7a0260e01b7bffffffffffffffffffffffffffffffffffffffffffffffffffffffff1916817bffffffffffffffffffffffffffffffffffffffffffffffffffffffff191614915050612058565b600190505b949350505050565b606060008214156120a8576040518060400160405280600181526020017f300000000000000000000000000000000000000000000000000000000000000081525090506121bc565b600082905060005b600082146120da5780806120c390613b49565b915050600a826120d39190613844565b91506120b0565b60008167ffffffffffffffff8111156120f6576120f56128e3565b5b6040519080825280601f01601f1916602001820160405280156121285781602001600182028036833780820191505090505b5090505b600085146121b557600182612141919061344d565b9150600a856121509190613b92565b603061215c9190613481565b60f81b81838151811061217257612171613bc3565b5b60200101907effffffffffffffffffffffffffffffffffffffffffffffffffffffffffffff1916908160001a905350600a856121ae9190613844565b945061212c565b8093505050505b919050565b6121cb8383612268565b6121d86000848484611ed8565b612217576040517f08c379a000000000000000000000000000000000000000000000000000000000815260040161220e906135b5565b60405180910390fd5b505050565b60008151905060006a636f6e736f6c652e6c6f679050602083016000808483855afa5050505050565b6000808273ffffffffffffffffffffffffffffffffffffffff163b119050919050565b600073ffffffffffffffffffffffffffffffffffffffff168273ffffffffffffffffffffffffffffffffffffffff1614156122d8576040517f08c379a00000000000000000000000000000000000000000000000000000000081526004016122cf90613c3e565b60405180910390fd5b6122e18161126a565b15612321576040517f08c379a000000000000000000000000000000000000000000000000000000000815260040161231890613caa565b60405180910390fd5b61232d60008383611ece565b6001600360008473ffffffffffffffffffffffffffffffffffffffff1673ffffffffffffffffffffffffffffffffffffffff168152602001908152602001600020600082825461237d9190613481565b92505081905550816002600083815260200190815260200160002060006101000a81548173ffffffffffffffffffffffffffffffffffffffff021916908373ffffffffffffffffffffffffffffffffffffffff160217905550808273ffffffffffffffffffffffffffffffffffffffff16600073ffffffffffffffffffffffffffffffffffffffff167fddf252ad1be2c89b69c2b068fc378daa952ba7f163c4a11628f55a4df523b3ef60405160405180910390a461243e60008383611ed3565b5050565b82805461244e90612b00565b90600052602060002090601f01602090048101928261247057600085556124b7565b82601f1061248957805160ff19168380011785556124b7565b828001600101855582156124b7579182015b828111156124b657825182559160200191906001019061249b565b5b5090506124c491906124c8565b5090565b5b808211156124e15760008160009055506001016124c9565b5090565b600073ffffffffffffffffffffffffffffffffffffffff82169050919050565b6000612510826124e5565b9050919050565b61252081612505565b82525050565b6000819050919050565b61253981612526565b82525050565b60006040820190506125546000830185612517565b6125616020830184612530565b9392505050565b6000604051905090565b600080fd5b600080fd5b60007fffffffff0000000000000000000000000000000000000000000000000000000082169050919050565b6125b18161257c565b81146125bc57600080fd5b50565b6000813590506125ce816125a8565b92915050565b6000602082840312156125ea576125e9612572565b5b60006125f8848285016125bf565b91505092915050565b60008115159050919050565b61261681612601565b82525050565b6000602082019050612631600083018461260d565b92915050565b600081519050919050565b600082825260208201905092915050565b60005b83811015612671578082015181840152602081019050612656565b83811115612680576000848401525b50505050565b6000601f19601f8301169050919050565b60006126a282612637565b6126ac8185612642565b93506126bc818560208601612653565b6126c581612686565b840191505092915050565b600060208201905081810360008301526126ea8184612697565b905092915050565b6126fb81612526565b811461270657600080fd5b50565b600081359050612718816126f2565b92915050565b60006020828403121561273457612733612572565b5b600061274284828501612709565b91505092915050565b60006020820190506127606000830184612517565b92915050565b61276f81612505565b811461277a57600080fd5b50565b60008135905061278c81612766565b92915050565b600080604083850312156127a9576127a8612572565b5b60006127b78582860161277d565b92505060206127c885828601612709565b9150509250929050565b6000806000606084860312156127eb576127ea612572565b5b60006127f98682870161277d565b935050602061280a8682870161277d565b925050604061281b86828701612709565b9150509250925092565b600060208201905061283a6000830184612530565b92915050565b60006020828403121561285657612855612572565b5b60006128648482850161277d565b91505092915050565b61287681612601565b811461288157600080fd5b50565b6000813590506128938161286d565b92915050565b600080604083850312156128b0576128af612572565b5b60006128be8582860161277d565b92505060206128cf85828601612884565b9150509250929050565b600080fd5b600080fd5b7f4e487b7100000000000000000000000000000000000000000000000000000000600052604160045260246000fd5b61291b82612686565b810181811067ffffffffffffffff8211171561293a576129396128e3565b5b80604052505050565b600061294d612568565b90506129598282612912565b919050565b600067ffffffffffffffff821115612979576129786128e3565b5b61298282612686565b9050602081019050919050565b82818337600083830152505050565b60006129b16129ac8461295e565b612943565b9050828152602081018484840111156129cd576129cc6128de565b5b6129d884828561298f565b509392505050565b600082601f8301126129f5576129f46128d9565b5b8135612a0584826020860161299e565b91505092915050565b60008060008060808587031215612a2857612a27612572565b5b6000612a368782880161277d565b9450506020612a478782880161277d565b9350506040612a5887828801612709565b925050606085013567ffffffffffffffff811115612a7957612a78612577565b5b612a85878288016129e0565b91505092959194509250565b60008060408385031215612aa857612aa7612572565b5b6000612ab68582860161277d565b9250506020612ac78582860161277d565b9150509250929050565b7f4e487b7100000000000000000000000000000000000000000000000000000000600052602260045260246000fd5b60006002820490506001821680612b1857607f821691505b60208210811415612b2c57612b2b612ad1565b5b50919050565b7f4552433732313a20617070726f76656420717565727920666f72206e6f6e657860008201527f697374656e7420746f6b656e0000000000000000000000000000000000000000602082015250565b6000612b8e602c83612642565b9150612b9982612b32565b604082019050919050565b60006020820190508181036000830152612bbd81612b81565b9050919050565b7f4552433732313a20617070726f76616c20746f2063757272656e74206f776e6560008201527f7200000000000000000000000000000000000000000000000000000000000000602082015250565b6000612c20602183612642565b9150612c2b82612bc4565b604082019050919050565b60006020820190508181036000830152612c4f81612c13565b9050919050565b7f4552433732313a20617070726f76652063616c6c6572206973206e6f74206f7760008201527f6e6572206e6f7220617070726f76656420666f7220616c6c0000000000000000602082015250565b6000612cb2603883612642565b9150612cbd82612c56565b604082019050919050565b60006020820190508181036000830152612ce181612ca5565b9050919050565b7f4552433732313a207472616e736665722063616c6c6572206973206e6f74206f60008201527f776e6572206e6f7220617070726f766564000000000000000000000000000000602082015250565b6000612d44603183612642565b9150612d4f82612ce8565b604082019050919050565b60006020820190508181036000830152612d7381612d37565b9050919050565b7f4552433732313a206f776e657220717565727920666f72206e6f6e657869737460008201527f656e7420746f6b656e0000000000000000000000000000000000000000000000602082015250565b6000612dd6602983612642565b9150612de182612d7a565b604082019050919050565b60006020820190508181036000830152612e0581612dc9565b9050919050565b7f4552433732313a2062616c616e636520717565727920666f7220746865207a6560008201527f726f206164647265737300000000000000000000000000000000000000000000602082015250565b6000612e68602a83612642565b9150612e7382612e0c565b604082019050919050565b60006020820190508181036000830152612e9781612e5b565b9050919050565b7f4f776e61626c653a2063616c6c6572206973206e6f7420746865206f776e6572600082015250565b6000612ed4602083612642565b9150612edf82612e9e565b602082019050919050565b60006020820190508181036000830152612f0381612ec7565b9050919050565b7f45524337323155524953746f726167653a2055524920717565727920666f722060008201527f6e6f6e6578697374656e7420746f6b656e000000000000000000000000000000602082015250565b6000612f66603183612642565b9150612f7182612f0a565b604082019050919050565b60006020820190508181036000830152612f9581612f59565b9050919050565b600081905092915050565b6000612fb282612637565b612fbc8185612f9c565b9350612fcc818560208601612653565b80840191505092915050565b6000612fe48285612fa7565b9150612ff08284612fa7565b91508190509392505050565b7f4e6f206d6f7265204e4654730000000000000000000000000000000000000000600082015250565b6000613032600c83612642565b915061303d82612ffc565b602082019050919050565b6000602082019050818103600083015261306181613025565b9050919050565b7f4e65656420746f2073656e6420302e3132206574686572206f72206d6f726500600082015250565b600061309e601f83612642565b91506130a982613068565b602082019050919050565b600060208201905081810360008301526130cd81613091565b9050919050565b7f4e65656420746f2073656e6420302e3139206574686572206f72206d6f726500600082015250565b600061310a601f83612642565b9150613115826130d4565b602082019050919050565b60006020820190508181036000830152613139816130fd565b9050919050565b7f4e65656420746f2073656e6420302e35206574686572206f72206d6f72650000600082015250565b6000613176601e83612642565b915061318182613140565b602082019050919050565b600060208201905081810360008301526131a581613169565b9050919050565b7f4e487b7100000000000000000000000000000000000000000000000000000000600052601160045260246000fd5b60006131e682612526565b915060008214156131fa576131f96131ac565b5b600182039050919050565b7f4f776e61626c653a206e6577206f776e657220697320746865207a65726f206160008201527f6464726573730000000000000000000000000000000000000000000000000000602082015250565b6000613261602683612642565b915061326c82613205565b604082019050919050565b6000602082019050818103600083015261329081613254565b9050919050565b7f4552433732313a206f70657261746f7220717565727920666f72206e6f6e657860008201527f697374656e7420746f6b656e0000000000000000000000000000000000000000602082015250565b60006132f3602c83612642565b91506132fe82613297565b604082019050919050565b60006020820190508181036000830152613322816132e6565b9050919050565b7f4552433732313a207472616e736665722066726f6d20696e636f72726563742060008201527f6f776e6572000000000000000000000000000000000000000000000000000000602082015250565b6000613385602583612642565b915061339082613329565b604082019050919050565b600060208201905081810360008301526133b481613378565b9050919050565b7f4552433732313a207472616e7366657220746f20746865207a65726f2061646460008201527f7265737300000000000000000000000000000000000000000000000000000000602082015250565b6000613417602483612642565b9150613422826133bb565b604082019050919050565b600060208201905081810360008301526134468161340a565b9050919050565b600061345882612526565b915061346383612526565b925082821015613476576134756131ac565b5b828203905092915050565b600061348c82612526565b915061349783612526565b9250827fffffffffffffffffffffffffffffffffffffffffffffffffffffffffffffffff038211156134cc576134cb6131ac565b5b828201905092915050565b7f4552433732313a20617070726f766520746f2063616c6c657200000000000000600082015250565b600061350d601983612642565b9150613518826134d7565b602082019050919050565b6000602082019050818103600083015261353c81613500565b9050919050565b7f4552433732313a207472616e7366657220746f206e6f6e20455243373231526560008201527f63656976657220696d706c656d656e7465720000000000000000000000000000602082015250565b600061359f603283612642565b91506135aa82613543565b604082019050919050565b600060208201905081810360008301526135ce81613592565b9050919050565b7f4552433732314d657461646174613a2055524920717565727920666f72206e6f60008201527f6e6578697374656e7420746f6b656e0000000000000000000000000000000000602082015250565b6000613631602f83612642565b915061363c826135d5565b604082019050919050565b6000602082019050818103600083015261366081613624565b9050919050565b7f45524337323155524953746f726167653a2055524920736574206f66206e6f6e60008201527f6578697374656e7420746f6b656e000000000000000000000000000000000000602082015250565b60006136c3602e83612642565b91506136ce82613667565b604082019050919050565b600060208201905081810360008301526136f2816136b6565b9050919050565b600060408201905061370e6000830185612530565b81810360208301526137208184612697565b90509392505050565b7f547279696e6720746f207769746864726177206d6f7265206d6f6e657920746860008201527f616e2074686520636f6e7472616374206861732e000000000000000000000000602082015250565b6000613785603483612642565b915061379082613729565b604082019050919050565b600060208201905081810360008301526137b481613778565b9050919050565b60006137c682612526565b91506137d183612526565b9250817fffffffffffffffffffffffffffffffffffffffffffffffffffffffffffffffff048311821515161561380a576138096131ac565b5b828202905092915050565b7f4e487b7100000000000000000000000000000000000000000000000000000000600052601260045260246000fd5b600061384f82612526565b915061385a83612526565b92508261386a57613869613815565b5b828204905092915050565b600081905092915050565b7f61626279206d616465206d6f6e65790000000000000000000000000000000000600082015250565b60006138b6600f83613875565b91506138c182613880565b600f82019050919050565b60006138d7826138a9565b9150819050919050565b7f4661696c656420746f207769746864726177206d6f6e65792066726f6d20636f60008201527f6e747261637420666f7220416262790000000000000000000000000000000000602082015250565b600061393d602f83612642565b9150613948826138e1565b604082019050919050565b6000602082019050818103600083015261396c81613930565b9050919050565b7f616d697961206d616465206d6f6e657900000000000000000000000000000000600082015250565b60006139a9601083613875565b91506139b482613973565b601082019050919050565b60006139ca8261399c565b9150819050919050565b7f4661696c656420746f207769746864726177206d6f6e65792066726f6d20636f60008201527f6e747261637420666f7220416d69796100000000000000000000000000000000602082015250565b6000613a30603083612642565b9150613a3b826139d4565b604082019050919050565b60006020820190508181036000830152613a5f81613a23565b9050919050565b600081519050919050565b600082825260208201905092915050565b6000613a8d82613a66565b613a978185613a71565b9350613aa7818560208601612653565b613ab081612686565b840191505092915050565b6000608082019050613ad06000830187612517565b613add6020830186612517565b613aea6040830185612530565b8181036060830152613afc8184613a82565b905095945050505050565b600081519050613b16816125a8565b92915050565b600060208284031215613b3257613b31612572565b5b6000613b4084828501613b07565b91505092915050565b6000613b5482612526565b91507fffffffffffffffffffffffffffffffffffffffffffffffffffffffffffffffff821415613b8757613b866131ac565b5b600182019050919050565b6000613b9d82612526565b9150613ba883612526565b925082613bb857613bb7613815565b5b828206905092915050565b7f4e487b7100000000000000000000000000000000000000000000000000000000600052603260045260246000fd5b7f4552433732313a206d696e7420746f20746865207a65726f2061646472657373600082015250565b6000613c28602083612642565b9150613c3382613bf2565b602082019050919050565b60006020820190508181036000830152613c5781613c1b565b9050919050565b7f4552433732313a20746f6b656e20616c7265616479206d696e74656400000000600082015250565b6000613c94601c83612642565b9150613c9f82613c5e565b602082019050919050565b60006020820190508181036000830152613cc381613c87565b905091905056fe2063757272656e742062616c616e6365206265666f7265207769746864726177616c20a2646970667358221220728fc7c4561c1fc30c1aa2078af3b72ad52f03fe85e06e4ae4120b81c89b2ad864736f6c634300080a0033",
  "linkReferences": {},
  "deployedLinkReferences": {}
}