{
  "_format": "hh-sol-artifact-1",
  "contractName": "MyEpicNFT",
  "sourceName": "contracts/MyEpicNFT.sol",
  "abi": [
    {
      "inputs": [],
      "stateMutability": "payable",
      "type": "constructor"
    },
    {
      "anonymous": false,
      "inputs": [
        {
          "indexed": true,
          "internalType": "address",
          "name": "owner",
          "type": "address"
        },
        {
          "indexed": true,
          "internalType": "address",
          "name": "approved",
          "type": "address"
        },
        {
          "indexed": true,
          "internalType": "uint256",
          "name": "tokenId",
          "type": "uint256"
        }
      ],
      "name": "Approval",
      "type": "event"
    },
    {
      "anonymous": false,
      "inputs": [
        {
          "indexed": true,
          "internalType": "address",
          "name": "owner",
          "type": "address"
        },
        {
          "indexed": true,
          "internalType": "address",
          "name": "operator",
          "type": "address"
        },
        {
          "indexed": false,
          "internalType": "bool",
          "name": "approved",
          "type": "bool"
        }
      ],
      "name": "ApprovalForAll",
      "type": "event"
    },
    {
      "anonymous": false,
      "inputs": [
        {
          "indexed": false,
          "internalType": "address",
          "name": "sender",
          "type": "address"
        },
        {
          "indexed": false,
          "internalType": "uint256",
          "name": "tokenId",
          "type": "uint256"
        }
      ],
      "name": "NewEpicNFTMinted",
      "type": "event"
    },
    {
      "anonymous": false,
      "inputs": [
        {
          "indexed": false,
          "internalType": "address",
          "name": "",
          "type": "address"
        },
        {
          "indexed": false,
          "internalType": "uint256",
          "name": "",
          "type": "uint256"
        }
      ],
      "name": "Received",
      "type": "event"
    },
    {
      "anonymous": false,
      "inputs": [
        {
          "indexed": true,
          "internalType": "address",
          "name": "from",
          "type": "address"
        },
        {
          "indexed": true,
          "internalType": "address",
          "name": "to",
          "type": "address"
        },
        {
          "indexed": true,
          "internalType": "uint256",
          "name": "tokenId",
          "type": "uint256"
        }
      ],
      "name": "Transfer",
      "type": "event"
    },
    {
      "inputs": [
        {
          "internalType": "address",
          "name": "to",
          "type": "address"
        },
        {
          "internalType": "uint256",
          "name": "tokenId",
          "type": "uint256"
        }
      ],
      "name": "approve",
      "outputs": [],
      "stateMutability": "nonpayable",
      "type": "function"
    },
    {
      "inputs": [
        {
          "internalType": "address",
          "name": "owner",
          "type": "address"
        }
      ],
      "name": "balanceOf",
      "outputs": [
        {
          "internalType": "uint256",
          "name": "",
          "type": "uint256"
        }
      ],
      "stateMutability": "view",
      "type": "function"
    },
    {
      "inputs": [
        {
          "internalType": "uint256",
          "name": "tokenId",
          "type": "uint256"
        }
      ],
      "name": "getApproved",
      "outputs": [
        {
          "internalType": "address",
          "name": "",
          "type": "address"
        }
      ],
      "stateMutability": "view",
      "type": "function"
    },
    {
      "inputs": [
        {
          "internalType": "address",
          "name": "owner",
          "type": "address"
        },
        {
          "internalType": "address",
          "name": "operator",
          "type": "address"
        }
      ],
      "name": "isApprovedForAll",
      "outputs": [
        {
          "internalType": "bool",
          "name": "",
          "type": "bool"
        }
      ],
      "stateMutability": "view",
      "type": "function"
    },
    {
      "inputs": [],
      "name": "makeAnEpicNFT",
      "outputs": [],
      "stateMutability": "payable",
      "type": "function"
    },
    {
      "inputs": [],
      "name": "name",
      "outputs": [
        {
          "internalType": "string",
          "name": "",
          "type": "string"
        }
      ],
      "stateMutability": "view",
      "type": "function"
    },
    {
      "inputs": [
        {
          "internalType": "uint256",
          "name": "tokenId",
          "type": "uint256"
        }
      ],
      "name": "ownerOf",
      "outputs": [
        {
          "internalType": "address",
          "name": "",
          "type": "address"
        }
      ],
      "stateMutability": "view",
      "type": "function"
    },
    {
      "inputs": [
        {
          "internalType": "uint256",
          "name": "tokenId",
          "type": "uint256"
        }
      ],
      "name": "pickRandomFirstWord",
      "outputs": [
        {
          "internalType": "string",
          "name": "",
          "type": "string"
        }
      ],
      "stateMutability": "view",
      "type": "function"
    },
    {
      "inputs": [
        {
          "internalType": "uint256",
          "name": "tokenId",
          "type": "uint256"
        }
      ],
      "name": "pickRandomSecondWord",
      "outputs": [
        {
          "internalType": "string",
          "name": "",
          "type": "string"
        }
      ],
      "stateMutability": "view",
      "type": "function"
    },
    {
      "inputs": [
        {
          "internalType": "uint256",
          "name": "tokenId",
          "type": "uint256"
        }
      ],
      "name": "pickRandomThirdWord",
      "outputs": [
        {
          "internalType": "string",
          "name": "",
          "type": "string"
        }
      ],
      "stateMutability": "view",
      "type": "function"
    },
    {
      "inputs": [],
      "name": "returnTokenID",
      "outputs": [
        {
          "internalType": "uint256",
          "name": "",
          "type": "uint256"
        }
      ],
      "stateMutability": "view",
      "type": "function"
    },
    {
      "inputs": [
        {
          "internalType": "address",
          "name": "from",
          "type": "address"
        },
        {
          "internalType": "address",
          "name": "to",
          "type": "address"
        },
        {
          "internalType": "uint256",
          "name": "tokenId",
          "type": "uint256"
        }
      ],
      "name": "safeTransferFrom",
      "outputs": [],
      "stateMutability": "nonpayable",
      "type": "function"
    },
    {
      "inputs": [
        {
          "internalType": "address",
          "name": "from",
          "type": "address"
        },
        {
          "internalType": "address",
          "name": "to",
          "type": "address"
        },
        {
          "internalType": "uint256",
          "name": "tokenId",
          "type": "uint256"
        },
        {
          "internalType": "bytes",
          "name": "_data",
          "type": "bytes"
        }
      ],
      "name": "safeTransferFrom",
      "outputs": [],
      "stateMutability": "nonpayable",
      "type": "function"
    },
    {
      "inputs": [
        {
          "internalType": "address",
          "name": "operator",
          "type": "address"
        },
        {
          "internalType": "bool",
          "name": "approved",
          "type": "bool"
        }
      ],
      "name": "setApprovalForAll",
      "outputs": [],
      "stateMutability": "nonpayable",
      "type": "function"
    },
    {
      "inputs": [
        {
          "internalType": "bytes4",
          "name": "interfaceId",
          "type": "bytes4"
        }
      ],
      "name": "supportsInterface",
      "outputs": [
        {
          "internalType": "bool",
          "name": "",
          "type": "bool"
        }
      ],
      "stateMutability": "view",
      "type": "function"
    },
    {
      "inputs": [],
      "name": "symbol",
      "outputs": [
        {
          "internalType": "string",
          "name": "",
          "type": "string"
        }
      ],
      "stateMutability": "view",
      "type": "function"
    },
    {
      "inputs": [
        {
          "internalType": "uint256",
          "name": "tokenId",
          "type": "uint256"
        }
      ],
      "name": "tokenURI",
      "outputs": [
        {
          "internalType": "string",
          "name": "",
          "type": "string"
        }
      ],
      "stateMutability": "view",
      "type": "function"
    },
    {
      "inputs": [
        {
          "internalType": "address",
          "name": "from",
          "type": "address"
        },
        {
          "internalType": "address",
          "name": "to",
          "type": "address"
        },
        {
          "internalType": "uint256",
          "name": "tokenId",
          "type": "uint256"
        }
      ],
      "name": "transferFrom",
      "outputs": [],
      "stateMutability": "nonpayable",
      "type": "function"
    },
    {
      "stateMutability": "payable",
      "type": "receive"
    }
  ],
  "bytecode": "0x60806040526101a460095560405180610160016040528061012f8152602001620047cb61012f9139600a90805190602001906200003e929190620006b7565b506040518060c001604052806040518060400160405280600181526020017f490000000000000000000000000000000000000000000000000000000000000081525081526020016040518060400160405280600481526020017f484156450000000000000000000000000000000000000000000000000000000081525081526020016040518060400160405280600281526020017f414e00000000000000000000000000000000000000000000000000000000000081525081526020016040518060400160405280600481526020017f414d45580000000000000000000000000000000000000000000000000000000081525081526020016040518060400160405280600881526020017f504c4154494e554d00000000000000000000000000000000000000000000000081525081526020016040518060400160405280600481526020017f4341524400000000000000000000000000000000000000000000000000000000815250815250600b906006620001bc92919062000748565b506040518060c001604052806040518060400160405280600481526020017f544841540000000000000000000000000000000000000000000000000000000081525081526020016040518060400160405280600581526020017f4e4545445300000000000000000000000000000000000000000000000000000081525081526020016040518060400160405280600281526020017f544f00000000000000000000000000000000000000000000000000000000000081525081526020016040518060400160405280600281526020017f424500000000000000000000000000000000000000000000000000000000000081525081526020016040518060400160405280600881526020017f555047524144454400000000000000000000000000000000000000000000000081525081526020016040518060400160405280600281526020017f544f000000000000000000000000000000000000000000000000000000000000815250815250600c9060066200033a92919062000748565b506040518060c001604052806040518060400160405280600181526020017f410000000000000000000000000000000000000000000000000000000000000081525081526020016040518060400160405280600981526020017f43454e545552494f4e000000000000000000000000000000000000000000000081525081526020016040518060400160405280600781526020017f424543415553450000000000000000000000000000000000000000000000000081525081526020016040518060400160405280600281526020017f495400000000000000000000000000000000000000000000000000000000000081525081526020016040518060400160405280600281526020017f495300000000000000000000000000000000000000000000000000000000000081525081526020016040518060400160405280600481526020017f434f4f4c00000000000000000000000000000000000000000000000000000000815250815250600d906006620004b892919062000748565b506040518060400160405280600981526020017f5371756172654e465400000000000000000000000000000000000000000000008152506040518060400160405280600681526020017f535155415245000000000000000000000000000000000000000000000000000081525081600090805190602001906200053d929190620006b7565b50806001908051906020019062000556929190620006b7565b505050620005a46040518060400160405280601e81526020017f54686973206973206d79204e465420636f6e74726163742e20576f6168210000815250620005eb60201b620013731760201c565b30600860006101000a81548173ffffffffffffffffffffffffffffffffffffffff021916908373ffffffffffffffffffffffffffffffffffffffff16021790555062000969565b6200068b81604051602401620006029190620008e0565b6040516020818303038152906040527f41304fac000000000000000000000000000000000000000000000000000000007bffffffffffffffffffffffffffffffffffffffffffffffffffffffff19166020820180517bffffffffffffffffffffffffffffffffffffffffffffffffffffffff83818316178352505050506200068e60201b60201c565b50565b60008151905060006a636f6e736f6c652e6c6f679050602083016000808483855afa5050505050565b828054620006c59062000933565b90600052602060002090601f016020900481019282620006e9576000855562000735565b82601f106200070457805160ff191683800117855562000735565b8280016001018555821562000735579182015b828111156200073457825182559160200191906001019062000717565b5b509050620007449190620007af565b5090565b8280548282559060005260206000209081019282156200079c579160200282015b828111156200079b5782518290805190602001906200078a929190620006b7565b509160200191906001019062000769565b5b509050620007ab9190620007ce565b5090565b5b80821115620007ca576000816000905550600101620007b0565b5090565b5b80821115620007f25760008181620007e89190620007f6565b50600101620007cf565b5090565b508054620008049062000933565b6000825580601f1062000818575062000839565b601f016020900490600052602060002090810190620008389190620007af565b5b50565b600081519050919050565b600082825260208201905092915050565b60005b83811015620008785780820151818401526020810190506200085b565b8381111562000888576000848401525b50505050565b6000601f19601f8301169050919050565b6000620008ac826200083c565b620008b8818562000847565b9350620008ca81856020860162000858565b620008d5816200088e565b840191505092915050565b60006020820190508181036000830152620008fc81846200089f565b905092915050565b7f4e487b7100000000000000000000000000000000000000000000000000000000600052602260045260246000fd5b600060028204905060018216806200094c57607f821691505b6020821081141562000963576200096262000904565b5b50919050565b613e5280620009796000396000f3fe60806040526004361061010d5760003560e01c806395d89b4111610095578063b88d4fde11610064578063b88d4fde14610429578063c575757a14610452578063c87b56dd1461048f578063de9d132f146104cc578063e985e9c5146104d657610191565b806395d89b411461036d578063a22cb46514610398578063ae330884146103c1578063b187301f146103ec57610191565b806323b872dd116100dc57806323b872dd146102645780632de38d681461028d57806342842e0e146102ca5780636352211e146102f357806370a082311461033057610191565b806301ffc9a71461019657806306fdde03146101d3578063081812fc146101fe578063095ea7b31461023b57610191565b36610191577f88a5966d370b9919b20f3e2c13ff65706f196a4e32cc2c12bf57088f885258743334604051610143929190612638565b60405180910390a161018f3334600860009054906101000a900473ffffffffffffffffffffffffffffffffffffffff1673ffffffffffffffffffffffffffffffffffffffff1631610513565b005b600080fd5b3480156101a257600080fd5b506101bd60048036038101906101b891906126cd565b6105b2565b6040516101ca9190612715565b60405180910390f35b3480156101df57600080fd5b506101e8610694565b6040516101f591906127c9565b60405180910390f35b34801561020a57600080fd5b5061022560048036038101906102209190612817565b610726565b6040516102329190612844565b60405180910390f35b34801561024757600080fd5b50610262600480360381019061025d919061288b565b6107ab565b005b34801561027057600080fd5b5061028b600480360381019061028691906128cb565b6108c3565b005b34801561029957600080fd5b506102b460048036038101906102af9190612817565b610923565b6040516102c191906127c9565b60405180910390f35b3480156102d657600080fd5b506102f160048036038101906102ec91906128cb565b610a1b565b005b3480156102ff57600080fd5b5061031a60048036038101906103159190612817565b610a3b565b6040516103279190612844565b60405180910390f35b34801561033c57600080fd5b506103576004803603810190610352919061291e565b610aed565b604051610364919061294b565b60405180910390f35b34801561037957600080fd5b50610382610ba5565b60405161038f91906127c9565b60405180910390f35b3480156103a457600080fd5b506103bf60048036038101906103ba9190612992565b610c37565b005b3480156103cd57600080fd5b506103d6610c4d565b6040516103e3919061294b565b60405180910390f35b3480156103f857600080fd5b50610413600480360381019061040e9190612817565b610c5e565b60405161042091906127c9565b60405180910390f35b34801561043557600080fd5b50610450600480360381019061044b9190612b07565b610d56565b005b34801561045e57600080fd5b5061047960048036038101906104749190612817565b610db8565b60405161048691906127c9565b60405180910390f35b34801561049b57600080fd5b506104b660048036038101906104b19190612817565b610eb0565b6040516104c391906127c9565b60405180910390f35b6104d4611002565b005b3480156104e257600080fd5b506104fd60048036038101906104f89190612b8a565b6112df565b60405161050a9190612715565b60405180910390f35b6105ad83838360405160240161052b93929190612bca565b6040516020818303038152906040527f8786135e000000000000000000000000000000000000000000000000000000007bffffffffffffffffffffffffffffffffffffffffffffffffffffffff19166020820180517bffffffffffffffffffffffffffffffffffffffffffffffffffffffff838183161783525050505061140c565b505050565b60007f80ac58cd000000000000000000000000000000000000000000000000000000007bffffffffffffffffffffffffffffffffffffffffffffffffffffffff1916827bffffffffffffffffffffffffffffffffffffffffffffffffffffffff1916148061067d57507f5b5e139f000000000000000000000000000000000000000000000000000000007bffffffffffffffffffffffffffffffffffffffffffffffffffffffff1916827bffffffffffffffffffffffffffffffffffffffffffffffffffffffff1916145b8061068d575061068c82611435565b5b9050919050565b6060600080546106a390612c30565b80601f01602080910402602001604051908101604052809291908181526020018280546106cf90612c30565b801561071c5780601f106106f15761010080835404028352916020019161071c565b820191906000526020600020905b8154815290600101906020018083116106ff57829003601f168201915b5050505050905090565b60006107318261149f565b610770576040517f08c379a000000000000000000000000000000000000000000000000000000000815260040161076790612cd4565b60405180910390fd5b6004600083815260200190815260200160002060009054906101000a900473ffffffffffffffffffffffffffffffffffffffff169050919050565b60006107b682610a3b565b90508073ffffffffffffffffffffffffffffffffffffffff168373ffffffffffffffffffffffffffffffffffffffff161415610827576040517f08c379a000000000000000000000000000000000000000000000000000000000815260040161081e90612d66565b60405180910390fd5b8073ffffffffffffffffffffffffffffffffffffffff1661084661150b565b73ffffffffffffffffffffffffffffffffffffffff16148061087557506108748161086f61150b565b6112df565b5b6108b4576040517f08c379a00000000000000000000000000000000000000000000000000000000081526004016108ab90612df8565b60405180910390fd5b6108be8383611513565b505050565b6108d46108ce61150b565b826115cc565b610913576040517f08c379a000000000000000000000000000000000000000000000000000000000815260040161090a90612e8a565b60405180910390fd5b61091e8383836116aa565b505050565b6060600061095761093384611911565b6040516020016109439190612f32565b604051602081830303815290604052611a72565b9050600b805490508161096a9190612f83565b9050600b81815481106109805761097f612fb4565b5b90600052602060002001805461099590612c30565b80601f01602080910402602001604051908101604052809291908181526020018280546109c190612c30565b8015610a0e5780601f106109e357610100808354040283529160200191610a0e565b820191906000526020600020905b8154815290600101906020018083116109f157829003601f168201915b5050505050915050919050565b610a3683838360405180602001604052806000815250610d56565b505050565b6000806002600084815260200190815260200160002060009054906101000a900473ffffffffffffffffffffffffffffffffffffffff169050600073ffffffffffffffffffffffffffffffffffffffff168173ffffffffffffffffffffffffffffffffffffffff161415610ae4576040517f08c379a0000000000000000000000000000000000000000000000000000000008152600401610adb90613055565b60405180910390fd5b80915050919050565b60008073ffffffffffffffffffffffffffffffffffffffff168273ffffffffffffffffffffffffffffffffffffffff161415610b5e576040517f08c379a0000000000000000000000000000000000000000000000000000000008152600401610b55906130e7565b60405180910390fd5b600360008373ffffffffffffffffffffffffffffffffffffffff1673ffffffffffffffffffffffffffffffffffffffff168152602001908152602001600020549050919050565b606060018054610bb490612c30565b80601f0160208091040260200160405190810160405280929190818152602001828054610be090612c30565b8015610c2d5780601f10610c0257610100808354040283529160200191610c2d565b820191906000526020600020905b815481529060010190602001808311610c1057829003601f168201915b5050505050905090565b610c49610c4261150b565b8383611aa5565b5050565b6000610c596007611c12565b905090565b60606000610c92610c6e84611911565b604051602001610c7e9190613153565b604051602081830303815290604052611a72565b9050600c8054905081610ca59190612f83565b9050600c8181548110610cbb57610cba612fb4565b5b906000526020600020018054610cd090612c30565b80601f0160208091040260200160405190810160405280929190818152602001828054610cfc90612c30565b8015610d495780601f10610d1e57610100808354040283529160200191610d49565b820191906000526020600020905b815481529060010190602001808311610d2c57829003601f168201915b5050505050915050919050565b610d67610d6161150b565b836115cc565b610da6576040517f08c379a0000000000000000000000000000000000000000000000000000000008152600401610d9d90612e8a565b60405180910390fd5b610db284848484611c20565b50505050565b60606000610dec610dc884611911565b604051602001610dd891906131c1565b604051602081830303815290604052611a72565b9050600d8054905081610dff9190612f83565b9050600d8181548110610e1557610e14612fb4565b5b906000526020600020018054610e2a90612c30565b80601f0160208091040260200160405190810160405280929190818152602001828054610e5690612c30565b8015610ea35780601f10610e7857610100808354040283529160200191610ea3565b820191906000526020600020905b815481529060010190602001808311610e8657829003601f168201915b5050505050915050919050565b6060610ebb8261149f565b610efa576040517f08c379a0000000000000000000000000000000000000000000000000000000008152600401610ef190613255565b60405180910390fd5b6000600660008481526020019081526020016000208054610f1a90612c30565b80601f0160208091040260200160405190810160405280929190818152602001828054610f4690612c30565b8015610f935780601f10610f6857610100808354040283529160200191610f93565b820191906000526020600020905b815481529060010190602001808311610f7657829003601f168201915b505050505090506000610fa4611c7c565b9050600081511415610fba578192505050610ffd565b600082511115610fef578082604051602001610fd7929190613275565b60405160208183030381529060405292505050610ffd565b610ff884611c93565b925050505b919050565b600061100e6007611c12565b9050600954811061101e57600080fd5b61107f600860009054906101000a900473ffffffffffffffffffffffffffffffffffffffff166040518060400160405280600d81526020017f6f776e6572206164647265737300000000000000000000000000000000000000815250611d3a565b6110be346040518060400160405280601481526020017f6d6573736167652073656e6465722076616c7565000000000000000000000000815250611dd6565b6110fd5a6040518060400160405280600781526020017f6761732066656500000000000000000000000000000000000000000000000000815250611dd6565b61113c336040518060400160405280600e81526020017f73656e6465722061646472657373000000000000000000000000000000000000815250611d3a565b600061114782610923565b9050600061115483610c5e565b9050600061116184610db8565b9050600083838360405160200161117a93929190613299565b60405160208183030381529060405290506000600a826040516020016111a19291906133aa565b604051602081830303815290604052905060006111e6836111c184611e72565b6040516020016111d292919061352f565b604051602081830303815290604052611e72565b90506000816040516020016111fb91906135c0565b6040516020818303038152906040529050611216338961200a565b6112208882612028565b61126761122c30610aed565b6040518060400160405280601081526020017f636f6e74726163742062616c616e636500000000000000000000000000000000815250611dd6565b611271600761209c565b61129c604051806060016040528060258152602001613db8602591398961129733610aed565b6120b2565b7febb98688741ffa4c7589bf325de30cf7becb63de567842e1ccdb6cb949fdc82c33896040516112cd929190612638565b60405180910390a15050505050505050565b6000600560008473ffffffffffffffffffffffffffffffffffffffff1673ffffffffffffffffffffffffffffffffffffffff16815260200190815260200160002060008373ffffffffffffffffffffffffffffffffffffffff1673ffffffffffffffffffffffffffffffffffffffff16815260200190815260200160002060009054906101000a900460ff16905092915050565b6114098160405160240161138791906127c9565b6040516020818303038152906040527f41304fac000000000000000000000000000000000000000000000000000000007bffffffffffffffffffffffffffffffffffffffffffffffffffffffff19166020820180517bffffffffffffffffffffffffffffffffffffffffffffffffffffffff838183161783525050505061140c565b50565b60008151905060006a636f6e736f6c652e6c6f679050602083016000808483855afa5050505050565b60007f01ffc9a7000000000000000000000000000000000000000000000000000000007bffffffffffffffffffffffffffffffffffffffffffffffffffffffff1916827bffffffffffffffffffffffffffffffffffffffffffffffffffffffff1916149050919050565b60008073ffffffffffffffffffffffffffffffffffffffff166002600084815260200190815260200160002060009054906101000a900473ffffffffffffffffffffffffffffffffffffffff1673ffffffffffffffffffffffffffffffffffffffff1614159050919050565b600033905090565b816004600083815260200190815260200160002060006101000a81548173ffffffffffffffffffffffffffffffffffffffff021916908373ffffffffffffffffffffffffffffffffffffffff160217905550808273ffffffffffffffffffffffffffffffffffffffff1661158683610a3b565b73ffffffffffffffffffffffffffffffffffffffff167f8c5be1e5ebec7d5bd14f71427d1e84f3dd0314c0f7b2291e5b200ac8c7c3b92560405160405180910390a45050565b60006115d78261149f565b611616576040517f08c379a000000000000000000000000000000000000000000000000000000000815260040161160d90613654565b60405180910390fd5b600061162183610a3b565b90508073ffffffffffffffffffffffffffffffffffffffff168473ffffffffffffffffffffffffffffffffffffffff16148061169057508373ffffffffffffffffffffffffffffffffffffffff1661167884610726565b73ffffffffffffffffffffffffffffffffffffffff16145b806116a157506116a081856112df565b5b91505092915050565b8273ffffffffffffffffffffffffffffffffffffffff166116ca82610a3b565b73ffffffffffffffffffffffffffffffffffffffff1614611720576040517f08c379a0000000000000000000000000000000000000000000000000000000008152600401611717906136e6565b60405180910390fd5b600073ffffffffffffffffffffffffffffffffffffffff168273ffffffffffffffffffffffffffffffffffffffff161415611790576040517f08c379a000000000000000000000000000000000000000000000000000000000815260040161178790613778565b60405180910390fd5b61179b838383612151565b6117a6600082611513565b6001600360008573ffffffffffffffffffffffffffffffffffffffff1673ffffffffffffffffffffffffffffffffffffffff16815260200190815260200160002060008282546117f691906137c7565b925050819055506001600360008473ffffffffffffffffffffffffffffffffffffffff1673ffffffffffffffffffffffffffffffffffffffff168152602001908152602001600020600082825461184d91906137fb565b92505081905550816002600083815260200190815260200160002060006101000a81548173ffffffffffffffffffffffffffffffffffffffff021916908373ffffffffffffffffffffffffffffffffffffffff160217905550808273ffffffffffffffffffffffffffffffffffffffff168473ffffffffffffffffffffffffffffffffffffffff167fddf252ad1be2c89b69c2b068fc378daa952ba7f163c4a11628f55a4df523b3ef60405160405180910390a461190c838383612156565b505050565b60606000821415611959576040518060400160405280600181526020017f30000000000000000000000000000000000000000000000000000000000000008152509050611a6d565b600082905060005b6000821461198b57808061197490613851565b915050600a82611984919061389a565b9150611961565b60008167ffffffffffffffff8111156119a7576119a66129dc565b5b6040519080825280601f01601f1916602001820160405280156119d95781602001600182028036833780820191505090505b5090505b60008514611a66576001826119f291906137c7565b9150600a85611a019190612f83565b6030611a0d91906137fb565b60f81b818381518110611a2357611a22612fb4565b5b60200101907effffffffffffffffffffffffffffffffffffffffffffffffffffffffffffff1916908160001a905350600a85611a5f919061389a565b94506119dd565b8093505050505b919050565b600081604051602001611a8591906138cb565b6040516020818303038152906040528051906020012060001c9050919050565b8173ffffffffffffffffffffffffffffffffffffffff168373ffffffffffffffffffffffffffffffffffffffff161415611b14576040517f08c379a0000000000000000000000000000000000000000000000000000000008152600401611b0b9061392e565b60405180910390fd5b80600560008573ffffffffffffffffffffffffffffffffffffffff1673ffffffffffffffffffffffffffffffffffffffff16815260200190815260200160002060008473ffffffffffffffffffffffffffffffffffffffff1673ffffffffffffffffffffffffffffffffffffffff16815260200190815260200160002060006101000a81548160ff0219169083151502179055508173ffffffffffffffffffffffffffffffffffffffff168373ffffffffffffffffffffffffffffffffffffffff167f17307eab39ab6107e8899845ad3d59bd9653f200f220920489ca2b5937696c3183604051611c059190612715565b60405180910390a3505050565b600081600001549050919050565b611c2b8484846116aa565b611c378484848461215b565b611c76576040517f08c379a0000000000000000000000000000000000000000000000000000000008152600401611c6d906139c0565b60405180910390fd5b50505050565b606060405180602001604052806000815250905090565b6060611c9e8261149f565b611cdd576040517f08c379a0000000000000000000000000000000000000000000000000000000008152600401611cd490613a52565b60405180910390fd5b6000611ce7611c7c565b90506000815111611d075760405180602001604052806000815250611d32565b80611d1184611911565b604051602001611d22929190613275565b6040516020818303038152906040525b915050919050565b611dd28282604051602401611d50929190613a72565b6040516020818303038152906040527f759f86bb000000000000000000000000000000000000000000000000000000007bffffffffffffffffffffffffffffffffffffffffffffffffffffffff19166020820180517bffffffffffffffffffffffffffffffffffffffffffffffffffffffff838183161783525050505061140c565b5050565b611e6e8282604051602401611dec929190613aa2565b6040516020818303038152906040527f0fa3f345000000000000000000000000000000000000000000000000000000007bffffffffffffffffffffffffffffffffffffffffffffffffffffffff19166020820180517bffffffffffffffffffffffffffffffffffffffffffffffffffffffff838183161783525050505061140c565b5050565b60606000825190506000811415611e9b5760405180602001604052806000815250915050612005565b60006003600283611eac91906137fb565b611eb6919061389a565b6004611ec29190613ad2565b90506000602082611ed391906137fb565b67ffffffffffffffff811115611eec57611eeb6129dc565b5b6040519080825280601f01601f191660200182016040528015611f1e5781602001600182028036833780820191505090505b5090506000604051806060016040528060408152602001613ddd604091399050600181016020830160005b86811015611fc25760038101905062ffffff818a015116603f8160121c168401518060081b905060ff603f83600c1c1686015116810190508060081b905060ff603f8360061c1686015116810190508060081b905060ff603f831686015116810190508060e01b90508084526004840193505050611f49565b506003860660018114611fdc5760028114611fec57611ff7565b613d3d60f01b6002830352611ff7565b603d60f81b60018303525b508484525050819450505050505b919050565b6120248282604051806020016040528060008152506122e3565b5050565b6120318261149f565b612070576040517f08c379a000000000000000000000000000000000000000000000000000000000815260040161206790613b9e565b60405180910390fd5b8060066000848152602001908152602001600020908051906020019061209792919061253b565b505050565b6001816000016000828254019250508190555050565b61214c8383836040516024016120ca93929190613bbe565b6040516020818303038152906040527f969cdd03000000000000000000000000000000000000000000000000000000007bffffffffffffffffffffffffffffffffffffffffffffffffffffffff19166020820180517bffffffffffffffffffffffffffffffffffffffffffffffffffffffff838183161783525050505061140c565b505050565b505050565b505050565b600061217c8473ffffffffffffffffffffffffffffffffffffffff1661233e565b156122d6578373ffffffffffffffffffffffffffffffffffffffff1663150b7a026121a561150b565b8786866040518563ffffffff1660e01b81526004016121c79493929190613c51565b6020604051808303816000875af192505050801561220357506040513d601f19601f820116820180604052508101906122009190613cb2565b60015b612286573d8060008114612233576040519150601f19603f3d011682016040523d82523d6000602084013e612238565b606091505b5060008151141561227e576040517f08c379a0000000000000000000000000000000000000000000000000000000008152600401612275906139c0565b60405180910390fd5b805181602001fd5b63150b7a0260e01b7bffffffffffffffffffffffffffffffffffffffffffffffffffffffff1916817bffffffffffffffffffffffffffffffffffffffffffffffffffffffff1916149150506122db565b600190505b949350505050565b6122ed8383612361565b6122fa600084848461215b565b612339576040517f08c379a0000000000000000000000000000000000000000000000000000000008152600401612330906139c0565b60405180910390fd5b505050565b6000808273ffffffffffffffffffffffffffffffffffffffff163b119050919050565b600073ffffffffffffffffffffffffffffffffffffffff168273ffffffffffffffffffffffffffffffffffffffff1614156123d1576040517f08c379a00000000000000000000000000000000000000000000000000000000081526004016123c890613d2b565b60405180910390fd5b6123da8161149f565b1561241a576040517f08c379a000000000000000000000000000000000000000000000000000000000815260040161241190613d97565b60405180910390fd5b61242660008383612151565b6001600360008473ffffffffffffffffffffffffffffffffffffffff1673ffffffffffffffffffffffffffffffffffffffff168152602001908152602001600020600082825461247691906137fb565b92505081905550816002600083815260200190815260200160002060006101000a81548173ffffffffffffffffffffffffffffffffffffffff021916908373ffffffffffffffffffffffffffffffffffffffff160217905550808273ffffffffffffffffffffffffffffffffffffffff16600073ffffffffffffffffffffffffffffffffffffffff167fddf252ad1be2c89b69c2b068fc378daa952ba7f163c4a11628f55a4df523b3ef60405160405180910390a461253760008383612156565b5050565b82805461254790612c30565b90600052602060002090601f01602090048101928261256957600085556125b0565b82601f1061258257805160ff19168380011785556125b0565b828001600101855582156125b0579182015b828111156125af578251825591602001919060010190612594565b5b5090506125bd91906125c1565b5090565b5b808211156125da5760008160009055506001016125c2565b5090565b600073ffffffffffffffffffffffffffffffffffffffff82169050919050565b6000612609826125de565b9050919050565b612619816125fe565b82525050565b6000819050919050565b6126328161261f565b82525050565b600060408201905061264d6000830185612610565b61265a6020830184612629565b9392505050565b6000604051905090565b600080fd5b600080fd5b60007fffffffff0000000000000000000000000000000000000000000000000000000082169050919050565b6126aa81612675565b81146126b557600080fd5b50565b6000813590506126c7816126a1565b92915050565b6000602082840312156126e3576126e261266b565b5b60006126f1848285016126b8565b91505092915050565b60008115159050919050565b61270f816126fa565b82525050565b600060208201905061272a6000830184612706565b92915050565b600081519050919050565b600082825260208201905092915050565b60005b8381101561276a57808201518184015260208101905061274f565b83811115612779576000848401525b50505050565b6000601f19601f8301169050919050565b600061279b82612730565b6127a5818561273b565b93506127b581856020860161274c565b6127be8161277f565b840191505092915050565b600060208201905081810360008301526127e38184612790565b905092915050565b6127f48161261f565b81146127ff57600080fd5b50565b600081359050612811816127eb565b92915050565b60006020828403121561282d5761282c61266b565b5b600061283b84828501612802565b91505092915050565b60006020820190506128596000830184612610565b92915050565b612868816125fe565b811461287357600080fd5b50565b6000813590506128858161285f565b92915050565b600080604083850312156128a2576128a161266b565b5b60006128b085828601612876565b92505060206128c185828601612802565b9150509250929050565b6000806000606084860312156128e4576128e361266b565b5b60006128f286828701612876565b935050602061290386828701612876565b925050604061291486828701612802565b9150509250925092565b6000602082840312156129345761293361266b565b5b600061294284828501612876565b91505092915050565b60006020820190506129606000830184612629565b92915050565b61296f816126fa565b811461297a57600080fd5b50565b60008135905061298c81612966565b92915050565b600080604083850312156129a9576129a861266b565b5b60006129b785828601612876565b92505060206129c88582860161297d565b9150509250929050565b600080fd5b600080fd5b7f4e487b7100000000000000000000000000000000000000000000000000000000600052604160045260246000fd5b612a148261277f565b810181811067ffffffffffffffff82111715612a3357612a326129dc565b5b80604052505050565b6000612a46612661565b9050612a528282612a0b565b919050565b600067ffffffffffffffff821115612a7257612a716129dc565b5b612a7b8261277f565b9050602081019050919050565b82818337600083830152505050565b6000612aaa612aa584612a57565b612a3c565b905082815260208101848484011115612ac657612ac56129d7565b5b612ad1848285612a88565b509392505050565b600082601f830112612aee57612aed6129d2565b5b8135612afe848260208601612a97565b91505092915050565b60008060008060808587031215612b2157612b2061266b565b5b6000612b2f87828801612876565b9450506020612b4087828801612876565b9350506040612b5187828801612802565b925050606085013567ffffffffffffffff811115612b7257612b71612670565b5b612b7e87828801612ad9565b91505092959194509250565b60008060408385031215612ba157612ba061266b565b5b6000612baf85828601612876565b9250506020612bc085828601612876565b9150509250929050565b6000606082019050612bdf6000830186612610565b612bec6020830185612629565b612bf96040830184612629565b949350505050565b7f4e487b7100000000000000000000000000000000000000000000000000000000600052602260045260246000fd5b60006002820490506001821680612c4857607f821691505b60208210811415612c5c57612c5b612c01565b5b50919050565b7f4552433732313a20617070726f76656420717565727920666f72206e6f6e657860008201527f697374656e7420746f6b656e0000000000000000000000000000000000000000602082015250565b6000612cbe602c8361273b565b9150612cc982612c62565b604082019050919050565b60006020820190508181036000830152612ced81612cb1565b9050919050565b7f4552433732313a20617070726f76616c20746f2063757272656e74206f776e6560008201527f7200000000000000000000000000000000000000000000000000000000000000602082015250565b6000612d5060218361273b565b9150612d5b82612cf4565b604082019050919050565b60006020820190508181036000830152612d7f81612d43565b9050919050565b7f4552433732313a20617070726f76652063616c6c6572206973206e6f74206f7760008201527f6e6572206e6f7220617070726f76656420666f7220616c6c0000000000000000602082015250565b6000612de260388361273b565b9150612ded82612d86565b604082019050919050565b60006020820190508181036000830152612e1181612dd5565b9050919050565b7f4552433732313a207472616e736665722063616c6c6572206973206e6f74206f60008201527f776e6572206e6f7220617070726f766564000000000000000000000000000000602082015250565b6000612e7460318361273b565b9150612e7f82612e18565b604082019050919050565b60006020820190508181036000830152612ea381612e67565b9050919050565b600081905092915050565b7f46495253545f574f524400000000000000000000000000000000000000000000600082015250565b6000612eeb600a83612eaa565b9150612ef682612eb5565b600a82019050919050565b6000612f0c82612730565b612f168185612eaa565b9350612f2681856020860161274c565b80840191505092915050565b6000612f3d82612ede565b9150612f498284612f01565b915081905092915050565b7f4e487b7100000000000000000000000000000000000000000000000000000000600052601260045260246000fd5b6000612f8e8261261f565b9150612f998361261f565b925082612fa957612fa8612f54565b5b828206905092915050565b7f4e487b7100000000000000000000000000000000000000000000000000000000600052603260045260246000fd5b7f4552433732313a206f776e657220717565727920666f72206e6f6e657869737460008201527f656e7420746f6b656e0000000000000000000000000000000000000000000000602082015250565b600061303f60298361273b565b915061304a82612fe3565b604082019050919050565b6000602082019050818103600083015261306e81613032565b9050919050565b7f4552433732313a2062616c616e636520717565727920666f7220746865207a6560008201527f726f206164647265737300000000000000000000000000000000000000000000602082015250565b60006130d1602a8361273b565b91506130dc82613075565b604082019050919050565b60006020820190508181036000830152613100816130c4565b9050919050565b7f5345434f4e445f574f5244000000000000000000000000000000000000000000600082015250565b600061313d600b83612eaa565b915061314882613107565b600b82019050919050565b600061315e82613130565b915061316a8284612f01565b915081905092915050565b7f54484952445f574f524400000000000000000000000000000000000000000000600082015250565b60006131ab600a83612eaa565b91506131b682613175565b600a82019050919050565b60006131cc8261319e565b91506131d88284612f01565b915081905092915050565b7f45524337323155524953746f726167653a2055524920717565727920666f722060008201527f6e6f6e6578697374656e7420746f6b656e000000000000000000000000000000602082015250565b600061323f60318361273b565b915061324a826131e3565b604082019050919050565b6000602082019050818103600083015261326e81613232565b9050919050565b60006132818285612f01565b915061328d8284612f01565b91508190509392505050565b60006132a58286612f01565b91506132b18285612f01565b91506132bd8284612f01565b9150819050949350505050565b60008190508160005260206000209050919050565b600081546132ec81612c30565b6132f68186612eaa565b94506001821660008114613311576001811461332257613355565b60ff19831686528186019350613355565b61332b856132ca565b60005b8381101561334d5781548189015260018201915060208101905061332e565b838801955050505b50505092915050565b7f3c2f746578743e3c2f7376673e00000000000000000000000000000000000000600082015250565b6000613394600d83612eaa565b915061339f8261335e565b600d82019050919050565b60006133b682856132df565b91506133c28284612f01565b91506133cd82613387565b91508190509392505050565b7f7b226e616d65223a202200000000000000000000000000000000000000000000600082015250565b600061340f600a83612eaa565b915061341a826133d9565b600a82019050919050565b7f222c20226465736372697074696f6e223a20224120686967686c79206163636c60008201527f61696d656420636f6c6c656374696f6e206f6620737175617265732e222c202260208201527f696d616765223a2022646174613a696d6167652f7376672b786d6c3b6261736560408201527f36342c0000000000000000000000000000000000000000000000000000000000606082015250565b60006134cd606383612eaa565b91506134d882613425565b606382019050919050565b7f227d000000000000000000000000000000000000000000000000000000000000600082015250565b6000613519600283612eaa565b9150613524826134e3565b600282019050919050565b600061353a82613402565b91506135468285612f01565b9150613551826134c0565b915061355d8284612f01565b91506135688261350c565b91508190509392505050565b7f646174613a6170706c69636174696f6e2f6a736f6e3b6261736536342c000000600082015250565b60006135aa601d83612eaa565b91506135b582613574565b601d82019050919050565b60006135cb8261359d565b91506135d78284612f01565b915081905092915050565b7f4552433732313a206f70657261746f7220717565727920666f72206e6f6e657860008201527f697374656e7420746f6b656e0000000000000000000000000000000000000000602082015250565b600061363e602c8361273b565b9150613649826135e2565b604082019050919050565b6000602082019050818103600083015261366d81613631565b9050919050565b7f4552433732313a207472616e736665722066726f6d20696e636f72726563742060008201527f6f776e6572000000000000000000000000000000000000000000000000000000602082015250565b60006136d060258361273b565b91506136db82613674565b604082019050919050565b600060208201905081810360008301526136ff816136c3565b9050919050565b7f4552433732313a207472616e7366657220746f20746865207a65726f2061646460008201527f7265737300000000000000000000000000000000000000000000000000000000602082015250565b600061376260248361273b565b915061376d82613706565b604082019050919050565b6000602082019050818103600083015261379181613755565b9050919050565b7f4e487b7100000000000000000000000000000000000000000000000000000000600052601160045260246000fd5b60006137d28261261f565b91506137dd8361261f565b9250828210156137f0576137ef613798565b5b828203905092915050565b60006138068261261f565b91506138118361261f565b9250827fffffffffffffffffffffffffffffffffffffffffffffffffffffffffffffffff0382111561384657613845613798565b5b828201905092915050565b600061385c8261261f565b91507fffffffffffffffffffffffffffffffffffffffffffffffffffffffffffffffff82141561388f5761388e613798565b5b600182019050919050565b60006138a58261261f565b91506138b08361261f565b9250826138c0576138bf612f54565b5b828204905092915050565b60006138d78284612f01565b915081905092915050565b7f4552433732313a20617070726f766520746f2063616c6c657200000000000000600082015250565b600061391860198361273b565b9150613923826138e2565b602082019050919050565b600060208201905081810360008301526139478161390b565b9050919050565b7f4552433732313a207472616e7366657220746f206e6f6e20455243373231526560008201527f63656976657220696d706c656d656e7465720000000000000000000000000000602082015250565b60006139aa60328361273b565b91506139b58261394e565b604082019050919050565b600060208201905081810360008301526139d98161399d565b9050919050565b7f4552433732314d657461646174613a2055524920717565727920666f72206e6f60008201527f6e6578697374656e7420746f6b656e0000000000000000000000000000000000602082015250565b6000613a3c602f8361273b565b9150613a47826139e0565b604082019050919050565b60006020820190508181036000830152613a6b81613a2f565b9050919050565b6000604082019050613a876000830185612610565b8181036020830152613a998184612790565b90509392505050565b6000604082019050613ab76000830185612629565b8181036020830152613ac98184612790565b90509392505050565b6000613add8261261f565b9150613ae88361261f565b9250817fffffffffffffffffffffffffffffffffffffffffffffffffffffffffffffffff0483118215151615613b2157613b20613798565b5b828202905092915050565b7f45524337323155524953746f726167653a2055524920736574206f66206e6f6e60008201527f6578697374656e7420746f6b656e000000000000000000000000000000000000602082015250565b6000613b88602e8361273b565b9150613b9382613b2c565b604082019050919050565b60006020820190508181036000830152613bb781613b7b565b9050919050565b60006060820190508181036000830152613bd88186612790565b9050613be76020830185612629565b613bf46040830184612629565b949350505050565b600081519050919050565b600082825260208201905092915050565b6000613c2382613bfc565b613c2d8185613c07565b9350613c3d81856020860161274c565b613c468161277f565b840191505092915050565b6000608082019050613c666000830187612610565b613c736020830186612610565b613c806040830185612629565b8181036060830152613c928184613c18565b905095945050505050565b600081519050613cac816126a1565b92915050565b600060208284031215613cc857613cc761266b565b5b6000613cd684828501613c9d565b91505092915050565b7f4552433732313a206d696e7420746f20746865207a65726f2061646472657373600082015250565b6000613d1560208361273b565b9150613d2082613cdf565b602082019050919050565b60006020820190508181036000830152613d4481613d08565b9050919050565b7f4552433732313a20746f6b656e20616c7265616479206d696e74656400000000600082015250565b6000613d81601c8361273b565b9150613d8c82613d4b565b602082019050919050565b60006020820190508181036000830152613db081613d74565b905091905056fe416e204e465420772f20494420257320686173206265656e206d696e74656420746f2025734142434445464748494a4b4c4d4e4f505152535455565758595a6162636465666768696a6b6c6d6e6f707172737475767778797a303132333435363738392b2fa2646970667358221220d40a282f841ab46cd5f94b7734c142a18e5452f2783dbbbc6ea65a11426814a264736f6c634300080a00333c73766720786d6c6e733d27687474703a2f2f7777772e77332e6f72672f323030302f73766727207072657365727665417370656374526174696f3d27784d696e594d696e206d656574272076696577426f783d273020302033353020333530273e3c7374796c653e2e62617365207b2066696c6c3a2077686974653b20666f6e742d66616d696c793a2073657269663b20666f6e742d73697a653a20323470783b207d3c2f7374796c653e3c726563742077696474683d273130302527206865696768743d2731303025272066696c6c3d27626c61636b27202f3e3c7465787420783d273530252720793d273530252720636c6173733d27626173652720646f6d696e616e742d626173656c696e653d276d6964646c652720746578742d616e63686f723d276d6964646c65273e",
  "linkReferences": {},
  "deployedLinkReferences": {}
}