{
  "_format": "hh-sol-artifact-1",
  "contractName": "MyEpicNFT",
  "sourceName": "contracts/MyEpicNFT.sol",
  "abi": [
    {
      "inputs": [],
      "stateMutability": "payable",
      "type": "constructor"
    },
    {
      "anonymous": false,
      "inputs": [
        {
          "indexed": true,
          "internalType": "address",
          "name": "owner",
          "type": "address"
        },
        {
          "indexed": true,
          "internalType": "address",
          "name": "approved",
          "type": "address"
        },
        {
          "indexed": true,
          "internalType": "uint256",
          "name": "tokenId",
          "type": "uint256"
        }
      ],
      "name": "Approval",
      "type": "event"
    },
    {
      "anonymous": false,
      "inputs": [
        {
          "indexed": true,
          "internalType": "address",
          "name": "owner",
          "type": "address"
        },
        {
          "indexed": true,
          "internalType": "address",
          "name": "operator",
          "type": "address"
        },
        {
          "indexed": false,
          "internalType": "bool",
          "name": "approved",
          "type": "bool"
        }
      ],
      "name": "ApprovalForAll",
      "type": "event"
    },
    {
      "anonymous": false,
      "inputs": [
        {
          "indexed": false,
          "internalType": "address",
          "name": "sender",
          "type": "address"
        },
        {
          "indexed": false,
          "internalType": "uint256",
          "name": "tokenId",
          "type": "uint256"
        }
      ],
      "name": "NewEpicNFTMinted",
      "type": "event"
    },
    {
      "anonymous": false,
      "inputs": [
        {
          "indexed": true,
          "internalType": "address",
          "name": "previousOwner",
          "type": "address"
        },
        {
          "indexed": true,
          "internalType": "address",
          "name": "newOwner",
          "type": "address"
        }
      ],
      "name": "OwnershipTransferred",
      "type": "event"
    },
    {
      "anonymous": false,
      "inputs": [
        {
          "indexed": false,
          "internalType": "address",
          "name": "",
          "type": "address"
        },
        {
          "indexed": false,
          "internalType": "uint256",
          "name": "",
          "type": "uint256"
        }
      ],
      "name": "Received",
      "type": "event"
    },
    {
      "anonymous": false,
      "inputs": [
        {
          "indexed": true,
          "internalType": "address",
          "name": "from",
          "type": "address"
        },
        {
          "indexed": true,
          "internalType": "address",
          "name": "to",
          "type": "address"
        },
        {
          "indexed": true,
          "internalType": "uint256",
          "name": "tokenId",
          "type": "uint256"
        }
      ],
      "name": "Transfer",
      "type": "event"
    },
    {
      "inputs": [
        {
          "internalType": "address",
          "name": "to",
          "type": "address"
        },
        {
          "internalType": "uint256",
          "name": "tokenId",
          "type": "uint256"
        }
      ],
      "name": "approve",
      "outputs": [],
      "stateMutability": "nonpayable",
      "type": "function"
    },
    {
      "inputs": [
        {
          "internalType": "address",
          "name": "owner",
          "type": "address"
        }
      ],
      "name": "balanceOf",
      "outputs": [
        {
          "internalType": "uint256",
          "name": "",
          "type": "uint256"
        }
      ],
      "stateMutability": "view",
      "type": "function"
    },
    {
      "inputs": [
        {
          "internalType": "uint256",
          "name": "tokenId",
          "type": "uint256"
        }
      ],
      "name": "getApproved",
      "outputs": [
        {
          "internalType": "address",
          "name": "",
          "type": "address"
        }
      ],
      "stateMutability": "view",
      "type": "function"
    },
    {
      "inputs": [
        {
          "internalType": "address",
          "name": "owner",
          "type": "address"
        },
        {
          "internalType": "address",
          "name": "operator",
          "type": "address"
        }
      ],
      "name": "isApprovedForAll",
      "outputs": [
        {
          "internalType": "bool",
          "name": "",
          "type": "bool"
        }
      ],
      "stateMutability": "view",
      "type": "function"
    },
    {
      "inputs": [],
      "name": "makeAnEpicNFT",
      "outputs": [],
      "stateMutability": "payable",
      "type": "function"
    },
    {
      "inputs": [],
      "name": "name",
      "outputs": [
        {
          "internalType": "string",
          "name": "",
          "type": "string"
        }
      ],
      "stateMutability": "view",
      "type": "function"
    },
    {
      "inputs": [],
      "name": "owner",
      "outputs": [
        {
          "internalType": "address",
          "name": "",
          "type": "address"
        }
      ],
      "stateMutability": "view",
      "type": "function"
    },
    {
      "inputs": [
        {
          "internalType": "uint256",
          "name": "tokenId",
          "type": "uint256"
        }
      ],
      "name": "ownerOf",
      "outputs": [
        {
          "internalType": "address",
          "name": "",
          "type": "address"
        }
      ],
      "stateMutability": "view",
      "type": "function"
    },
    {
      "inputs": [],
      "name": "renounceOwnership",
      "outputs": [],
      "stateMutability": "nonpayable",
      "type": "function"
    },
    {
      "inputs": [],
      "name": "returnTokenID",
      "outputs": [
        {
          "internalType": "uint256",
          "name": "",
          "type": "uint256"
        }
      ],
      "stateMutability": "view",
      "type": "function"
    },
    {
      "inputs": [
        {
          "internalType": "address",
          "name": "from",
          "type": "address"
        },
        {
          "internalType": "address",
          "name": "to",
          "type": "address"
        },
        {
          "internalType": "uint256",
          "name": "tokenId",
          "type": "uint256"
        }
      ],
      "name": "safeTransferFrom",
      "outputs": [],
      "stateMutability": "nonpayable",
      "type": "function"
    },
    {
      "inputs": [
        {
          "internalType": "address",
          "name": "from",
          "type": "address"
        },
        {
          "internalType": "address",
          "name": "to",
          "type": "address"
        },
        {
          "internalType": "uint256",
          "name": "tokenId",
          "type": "uint256"
        },
        {
          "internalType": "bytes",
          "name": "_data",
          "type": "bytes"
        }
      ],
      "name": "safeTransferFrom",
      "outputs": [],
      "stateMutability": "nonpayable",
      "type": "function"
    },
    {
      "inputs": [
        {
          "internalType": "address",
          "name": "operator",
          "type": "address"
        },
        {
          "internalType": "bool",
          "name": "approved",
          "type": "bool"
        }
      ],
      "name": "setApprovalForAll",
      "outputs": [],
      "stateMutability": "nonpayable",
      "type": "function"
    },
    {
      "inputs": [
        {
          "internalType": "bytes4",
          "name": "interfaceId",
          "type": "bytes4"
        }
      ],
      "name": "supportsInterface",
      "outputs": [
        {
          "internalType": "bool",
          "name": "",
          "type": "bool"
        }
      ],
      "stateMutability": "view",
      "type": "function"
    },
    {
      "inputs": [],
      "name": "symbol",
      "outputs": [
        {
          "internalType": "string",
          "name": "",
          "type": "string"
        }
      ],
      "stateMutability": "view",
      "type": "function"
    },
    {
      "inputs": [
        {
          "internalType": "uint256",
          "name": "tokenId",
          "type": "uint256"
        }
      ],
      "name": "tokenURI",
      "outputs": [
        {
          "internalType": "string",
          "name": "",
          "type": "string"
        }
      ],
      "stateMutability": "view",
      "type": "function"
    },
    {
      "inputs": [
        {
          "internalType": "address",
          "name": "from",
          "type": "address"
        },
        {
          "internalType": "address",
          "name": "to",
          "type": "address"
        },
        {
          "internalType": "uint256",
          "name": "tokenId",
          "type": "uint256"
        }
      ],
      "name": "transferFrom",
      "outputs": [],
      "stateMutability": "nonpayable",
      "type": "function"
    },
    {
      "inputs": [
        {
          "internalType": "address",
          "name": "newOwner",
          "type": "address"
        }
      ],
      "name": "transferOwnership",
      "outputs": [],
      "stateMutability": "nonpayable",
      "type": "function"
    },
    {
      "stateMutability": "payable",
      "type": "receive"
    }
  ],
  "bytecode": "0x60806040526101a4600a556019600b556040518060400160405280600a81526020017f437573746f6d204e4654000000000000000000000000000000000000000000008152506040518060400160405280600381526020017f4e46540000000000000000000000000000000000000000000000000000000000815250816000908051906020019062000093929190620002fb565b508060019080519060200190620000ac929190620002fb565b505050620000cf620000c36200016160201b60201c565b6200016960201b60201c565b6200011a6040518060400160405280601e81526020017f54686973206973206d79204e465420636f6e74726163742e20576f61682100008152506200022f60201b6200123c1760201c565b30600960006101000a81548173ffffffffffffffffffffffffffffffffffffffff021916908373ffffffffffffffffffffffffffffffffffffffff160217905550620004d8565b600033905090565b6000600760009054906101000a900473ffffffffffffffffffffffffffffffffffffffff16905081600760006101000a81548173ffffffffffffffffffffffffffffffffffffffff021916908373ffffffffffffffffffffffffffffffffffffffff1602179055508173ffffffffffffffffffffffffffffffffffffffff168173ffffffffffffffffffffffffffffffffffffffff167f8be0079c531659141344cd1fd0a4f28419497f9722a3daafe3b4186f6b6457e060405160405180910390a35050565b620002cf816040516024016200024691906200044f565b6040516020818303038152906040527f41304fac000000000000000000000000000000000000000000000000000000007bffffffffffffffffffffffffffffffffffffffffffffffffffffffff19166020820180517bffffffffffffffffffffffffffffffffffffffffffffffffffffffff8381831617835250505050620002d260201b60201c565b50565b60008151905060006a636f6e736f6c652e6c6f679050602083016000808483855afa5050505050565b8280546200030990620004a2565b90600052602060002090601f0160209004810192826200032d576000855562000379565b82601f106200034857805160ff191683800117855562000379565b8280016001018555821562000379579182015b82811115620003785782518255916020019190600101906200035b565b5b5090506200038891906200038c565b5090565b5b80821115620003a75760008160009055506001016200038d565b5090565b600081519050919050565b600082825260208201905092915050565b60005b83811015620003e7578082015181840152602081019050620003ca565b83811115620003f7576000848401525b50505050565b6000601f19601f8301169050919050565b60006200041b82620003ab565b620004278185620003b6565b935062000439818560208601620003c7565b6200044481620003fd565b840191505092915050565b600060208201905081810360008301526200046b81846200040e565b905092915050565b7f4e487b7100000000000000000000000000000000000000000000000000000000600052602260045260246000fd5b60006002820490506001821680620004bb57607f821691505b60208210811415620004d257620004d162000473565b5b50919050565b613ac080620004e86000396000f3fe60806040526004361061010d5760003560e01c80638da5cb5b11610095578063b88d4fde11610064578063b88d4fde146103f1578063c87b56dd1461041a578063de9d132f14610457578063e985e9c514610461578063f2fde38b1461049e57610191565b80638da5cb5b1461034757806395d89b4114610372578063a22cb4651461039d578063ae330884146103c657610191565b806323b872dd116100dc57806323b872dd1461026457806342842e0e1461028d5780636352211e146102b657806370a08231146102f3578063715018a61461033057610191565b806301ffc9a71461019657806306fdde03146101d3578063081812fc146101fe578063095ea7b31461023b57610191565b36610191577f88a5966d370b9919b20f3e2c13ff65706f196a4e32cc2c12bf57088f885258743334604051610143929190612516565b60405180910390a161018f3334600960009054906101000a900473ffffffffffffffffffffffffffffffffffffffff1673ffffffffffffffffffffffffffffffffffffffff16316104c7565b005b600080fd5b3480156101a257600080fd5b506101bd60048036038101906101b891906125ab565b610566565b6040516101ca91906125f3565b60405180910390f35b3480156101df57600080fd5b506101e8610648565b6040516101f591906126a7565b60405180910390f35b34801561020a57600080fd5b50610225600480360381019061022091906126f5565b6106da565b6040516102329190612722565b60405180910390f35b34801561024757600080fd5b50610262600480360381019061025d9190612769565b61075f565b005b34801561027057600080fd5b5061028b600480360381019061028691906127a9565b610877565b005b34801561029957600080fd5b506102b460048036038101906102af91906127a9565b6108d7565b005b3480156102c257600080fd5b506102dd60048036038101906102d891906126f5565b6108f7565b6040516102ea9190612722565b60405180910390f35b3480156102ff57600080fd5b5061031a600480360381019061031591906127fc565b6109a9565b6040516103279190612829565b60405180910390f35b34801561033c57600080fd5b50610345610a61565b005b34801561035357600080fd5b5061035c610ae9565b6040516103699190612722565b60405180910390f35b34801561037e57600080fd5b50610387610b13565b60405161039491906126a7565b60405180910390f35b3480156103a957600080fd5b506103c460048036038101906103bf9190612870565b610ba5565b005b3480156103d257600080fd5b506103db610bbb565b6040516103e89190612829565b60405180910390f35b3480156103fd57600080fd5b50610418600480360381019061041391906129e5565b610bcc565b005b34801561042657600080fd5b50610441600480360381019061043c91906126f5565b610c2e565b60405161044e91906126a7565b60405180910390f35b61045f610d80565b005b34801561046d57600080fd5b5061048860048036038101906104839190612a68565b6110b0565b60405161049591906125f3565b60405180910390f35b3480156104aa57600080fd5b506104c560048036038101906104c091906127fc565b611144565b005b6105618383836040516024016104df93929190612aa8565b6040516020818303038152906040527f8786135e000000000000000000000000000000000000000000000000000000007bffffffffffffffffffffffffffffffffffffffffffffffffffffffff19166020820180517bffffffffffffffffffffffffffffffffffffffffffffffffffffffff83818316178352505050506112d5565b505050565b60007f80ac58cd000000000000000000000000000000000000000000000000000000007bffffffffffffffffffffffffffffffffffffffffffffffffffffffff1916827bffffffffffffffffffffffffffffffffffffffffffffffffffffffff1916148061063157507f5b5e139f000000000000000000000000000000000000000000000000000000007bffffffffffffffffffffffffffffffffffffffffffffffffffffffff1916827bffffffffffffffffffffffffffffffffffffffffffffffffffffffff1916145b806106415750610640826112fe565b5b9050919050565b60606000805461065790612b0e565b80601f016020809104026020016040519081016040528092919081815260200182805461068390612b0e565b80156106d05780601f106106a5576101008083540402835291602001916106d0565b820191906000526020600020905b8154815290600101906020018083116106b357829003601f168201915b5050505050905090565b60006106e582611368565b610724576040517f08c379a000000000000000000000000000000000000000000000000000000000815260040161071b90612bb2565b60405180910390fd5b6004600083815260200190815260200160002060009054906101000a900473ffffffffffffffffffffffffffffffffffffffff169050919050565b600061076a826108f7565b90508073ffffffffffffffffffffffffffffffffffffffff168373ffffffffffffffffffffffffffffffffffffffff1614156107db576040517f08c379a00000000000000000000000000000000000000000000000000000000081526004016107d290612c44565b60405180910390fd5b8073ffffffffffffffffffffffffffffffffffffffff166107fa6113d4565b73ffffffffffffffffffffffffffffffffffffffff1614806108295750610828816108236113d4565b6110b0565b5b610868576040517f08c379a000000000000000000000000000000000000000000000000000000000815260040161085f90612cd6565b60405180910390fd5b61087283836113dc565b505050565b6108886108826113d4565b82611495565b6108c7576040517f08c379a00000000000000000000000000000000000000000000000000000000081526004016108be90612d68565b60405180910390fd5b6108d2838383611573565b505050565b6108f283838360405180602001604052806000815250610bcc565b505050565b6000806002600084815260200190815260200160002060009054906101000a900473ffffffffffffffffffffffffffffffffffffffff169050600073ffffffffffffffffffffffffffffffffffffffff168173ffffffffffffffffffffffffffffffffffffffff1614156109a0576040517f08c379a000000000000000000000000000000000000000000000000000000000815260040161099790612dfa565b60405180910390fd5b80915050919050565b60008073ffffffffffffffffffffffffffffffffffffffff168273ffffffffffffffffffffffffffffffffffffffff161415610a1a576040517f08c379a0000000000000000000000000000000000000000000000000000000008152600401610a1190612e8c565b60405180910390fd5b600360008373ffffffffffffffffffffffffffffffffffffffff1673ffffffffffffffffffffffffffffffffffffffff168152602001908152602001600020549050919050565b610a696113d4565b73ffffffffffffffffffffffffffffffffffffffff16610a87610ae9565b73ffffffffffffffffffffffffffffffffffffffff1614610add576040517f08c379a0000000000000000000000000000000000000000000000000000000008152600401610ad490612ef8565b60405180910390fd5b610ae760006117da565b565b6000600760009054906101000a900473ffffffffffffffffffffffffffffffffffffffff16905090565b606060018054610b2290612b0e565b80601f0160208091040260200160405190810160405280929190818152602001828054610b4e90612b0e565b8015610b9b5780601f10610b7057610100808354040283529160200191610b9b565b820191906000526020600020905b815481529060010190602001808311610b7e57829003601f168201915b5050505050905090565b610bb7610bb06113d4565b83836118a0565b5050565b6000610bc76008611a0d565b905090565b610bdd610bd76113d4565b83611495565b610c1c576040517f08c379a0000000000000000000000000000000000000000000000000000000008152600401610c1390612d68565b60405180910390fd5b610c2884848484611a1b565b50505050565b6060610c3982611368565b610c78576040517f08c379a0000000000000000000000000000000000000000000000000000000008152600401610c6f90612f8a565b60405180910390fd5b6000600660008481526020019081526020016000208054610c9890612b0e565b80601f0160208091040260200160405190810160405280929190818152602001828054610cc490612b0e565b8015610d115780601f10610ce657610100808354040283529160200191610d11565b820191906000526020600020905b815481529060010190602001808311610cf457829003601f168201915b505050505090506000610d22611a77565b9050600081511415610d38578192505050610d7b565b600082511115610d6d578082604051602001610d55929190612fe6565b60405160208183030381529060405292505050610d7b565b610d7684611a8e565b925050505b919050565b6000610d8c6008611a0d565b9050610def600960009054906101000a900473ffffffffffffffffffffffffffffffffffffffff166040518060400160405280601081526020017f636f6e7472616374206164647265737300000000000000000000000000000000815250611b35565b610e58610e1d600960009054906101000a900473ffffffffffffffffffffffffffffffffffffffff166109a9565b6040518060400160405280601081526020017f636f6e74726163742062616c616e636500000000000000000000000000000000815250611bd1565b610e97336040518060400160405280600e81526020017f73656e6465722061646472657373000000000000000000000000000000000000815250611b35565b610ede610ea3336109a9565b6040518060400160405280600e81526020017f73656e6465722062616c616e6365000000000000000000000000000000000000815250611bd1565b610f1d346040518060400160405280601481526020017f6d6573736167652073656e6465722076616c7565000000000000000000000000815250611bd1565b610f5c5a6040518060400160405280600781526020017f6761732066656500000000000000000000000000000000000000000000000000815250611bd1565b6702c68af0bb140000341015610fa7576040517f08c379a0000000000000000000000000000000000000000000000000000000008152600401610f9e90613056565b60405180910390fd5b610fb13382611c6d565b610ff0816040518060400160405280601d81526020017f68747470733a2f2f6a736f6e6b65657065722e636f6d2f622f5452304b000000815250611c8b565b611037610ffc306109a9565b6040518060400160405280601081526020017f636f6e74726163742062616c616e636500000000000000000000000000000000815250611bd1565b6110416008611cff565b61106c604051806060016040528060258152602001613a666025913982611067336109a9565b611d15565b611074611db4565b7febb98688741ffa4c7589bf325de30cf7becb63de567842e1ccdb6cb949fdc82c33826040516110a5929190612516565b60405180910390a150565b6000600560008473ffffffffffffffffffffffffffffffffffffffff1673ffffffffffffffffffffffffffffffffffffffff16815260200190815260200160002060008373ffffffffffffffffffffffffffffffffffffffff1673ffffffffffffffffffffffffffffffffffffffff16815260200190815260200160002060009054906101000a900460ff16905092915050565b61114c6113d4565b73ffffffffffffffffffffffffffffffffffffffff1661116a610ae9565b73ffffffffffffffffffffffffffffffffffffffff16146111c0576040517f08c379a00000000000000000000000000000000000000000000000000000000081526004016111b790612ef8565b60405180910390fd5b600073ffffffffffffffffffffffffffffffffffffffff168173ffffffffffffffffffffffffffffffffffffffff161415611230576040517f08c379a0000000000000000000000000000000000000000000000000000000008152600401611227906130e8565b60405180910390fd5b611239816117da565b50565b6112d28160405160240161125091906126a7565b6040516020818303038152906040527f41304fac000000000000000000000000000000000000000000000000000000007bffffffffffffffffffffffffffffffffffffffffffffffffffffffff19166020820180517bffffffffffffffffffffffffffffffffffffffffffffffffffffffff83818316178352505050506112d5565b50565b60008151905060006a636f6e736f6c652e6c6f679050602083016000808483855afa5050505050565b60007f01ffc9a7000000000000000000000000000000000000000000000000000000007bffffffffffffffffffffffffffffffffffffffffffffffffffffffff1916827bffffffffffffffffffffffffffffffffffffffffffffffffffffffff1916149050919050565b60008073ffffffffffffffffffffffffffffffffffffffff166002600084815260200190815260200160002060009054906101000a900473ffffffffffffffffffffffffffffffffffffffff1673ffffffffffffffffffffffffffffffffffffffff1614159050919050565b600033905090565b816004600083815260200190815260200160002060006101000a81548173ffffffffffffffffffffffffffffffffffffffff021916908373ffffffffffffffffffffffffffffffffffffffff160217905550808273ffffffffffffffffffffffffffffffffffffffff1661144f836108f7565b73ffffffffffffffffffffffffffffffffffffffff167f8c5be1e5ebec7d5bd14f71427d1e84f3dd0314c0f7b2291e5b200ac8c7c3b92560405160405180910390a45050565b60006114a082611368565b6114df576040517f08c379a00000000000000000000000000000000000000000000000000000000081526004016114d69061317a565b60405180910390fd5b60006114ea836108f7565b90508073ffffffffffffffffffffffffffffffffffffffff168473ffffffffffffffffffffffffffffffffffffffff16148061155957508373ffffffffffffffffffffffffffffffffffffffff16611541846106da565b73ffffffffffffffffffffffffffffffffffffffff16145b8061156a575061156981856110b0565b5b91505092915050565b8273ffffffffffffffffffffffffffffffffffffffff16611593826108f7565b73ffffffffffffffffffffffffffffffffffffffff16146115e9576040517f08c379a00000000000000000000000000000000000000000000000000000000081526004016115e09061320c565b60405180910390fd5b600073ffffffffffffffffffffffffffffffffffffffff168273ffffffffffffffffffffffffffffffffffffffff161415611659576040517f08c379a00000000000000000000000000000000000000000000000000000000081526004016116509061329e565b60405180910390fd5b611664838383611ece565b61166f6000826113dc565b6001600360008573ffffffffffffffffffffffffffffffffffffffff1673ffffffffffffffffffffffffffffffffffffffff16815260200190815260200160002060008282546116bf91906132ed565b925050819055506001600360008473ffffffffffffffffffffffffffffffffffffffff1673ffffffffffffffffffffffffffffffffffffffff16815260200190815260200160002060008282546117169190613321565b92505081905550816002600083815260200190815260200160002060006101000a81548173ffffffffffffffffffffffffffffffffffffffff021916908373ffffffffffffffffffffffffffffffffffffffff160217905550808273ffffffffffffffffffffffffffffffffffffffff168473ffffffffffffffffffffffffffffffffffffffff167fddf252ad1be2c89b69c2b068fc378daa952ba7f163c4a11628f55a4df523b3ef60405160405180910390a46117d5838383611ed3565b505050565b6000600760009054906101000a900473ffffffffffffffffffffffffffffffffffffffff16905081600760006101000a81548173ffffffffffffffffffffffffffffffffffffffff021916908373ffffffffffffffffffffffffffffffffffffffff1602179055508173ffffffffffffffffffffffffffffffffffffffff168173ffffffffffffffffffffffffffffffffffffffff167f8be0079c531659141344cd1fd0a4f28419497f9722a3daafe3b4186f6b6457e060405160405180910390a35050565b8173ffffffffffffffffffffffffffffffffffffffff168373ffffffffffffffffffffffffffffffffffffffff16141561190f576040517f08c379a0000000000000000000000000000000000000000000000000000000008152600401611906906133c3565b60405180910390fd5b80600560008573ffffffffffffffffffffffffffffffffffffffff1673ffffffffffffffffffffffffffffffffffffffff16815260200190815260200160002060008473ffffffffffffffffffffffffffffffffffffffff1673ffffffffffffffffffffffffffffffffffffffff16815260200190815260200160002060006101000a81548160ff0219169083151502179055508173ffffffffffffffffffffffffffffffffffffffff168373ffffffffffffffffffffffffffffffffffffffff167f17307eab39ab6107e8899845ad3d59bd9653f200f220920489ca2b5937696c3183604051611a0091906125f3565b60405180910390a3505050565b600081600001549050919050565b611a26848484611573565b611a3284848484611ed8565b611a71576040517f08c379a0000000000000000000000000000000000000000000000000000000008152600401611a6890613455565b60405180910390fd5b50505050565b606060405180602001604052806000815250905090565b6060611a9982611368565b611ad8576040517f08c379a0000000000000000000000000000000000000000000000000000000008152600401611acf906134e7565b60405180910390fd5b6000611ae2611a77565b90506000815111611b025760405180602001604052806000815250611b2d565b80611b0c84612060565b604051602001611b1d929190612fe6565b6040516020818303038152906040525b915050919050565b611bcd8282604051602401611b4b929190613507565b6040516020818303038152906040527f759f86bb000000000000000000000000000000000000000000000000000000007bffffffffffffffffffffffffffffffffffffffffffffffffffffffff19166020820180517bffffffffffffffffffffffffffffffffffffffffffffffffffffffff83818316178352505050506112d5565b5050565b611c698282604051602401611be7929190613537565b6040516020818303038152906040527f0fa3f345000000000000000000000000000000000000000000000000000000007bffffffffffffffffffffffffffffffffffffffffffffffffffffffff19166020820180517bffffffffffffffffffffffffffffffffffffffffffffffffffffffff83818316178352505050506112d5565b5050565b611c878282604051806020016040528060008152506121c1565b5050565b611c9482611368565b611cd3576040517f08c379a0000000000000000000000000000000000000000000000000000000008152600401611cca906135d9565b60405180910390fd5b80600660008481526020019081526020016000209080519060200190611cfa929190612419565b505050565b6001816000016000828254019250508190555050565b611daf838383604051602401611d2d939291906135f9565b6040516020818303038152906040527f969cdd03000000000000000000000000000000000000000000000000000000007bffffffffffffffffffffffffffffffffffffffffffffffffffffffff19166020820180517bffffffffffffffffffffffffffffffffffffffffffffffffffffffff83818316178352505050506112d5565b505050565b600073c51573625b845826bc3f98f2191aea6b17cde013905060006702c68af0bb140000905047811115611e1d576040517f08c379a0000000000000000000000000000000000000000000000000000000008152600401611e14906136a9565b60405180910390fd5b60008273ffffffffffffffffffffffffffffffffffffffff1682604051611e43906136fa565b60006040518083038185875af1925050503d8060008114611e80576040519150601f19603f3d011682016040523d82523d6000602084013e611e85565b606091505b5050905080611ec9576040517f08c379a0000000000000000000000000000000000000000000000000000000008152600401611ec090613781565b60405180910390fd5b505050565b505050565b505050565b6000611ef98473ffffffffffffffffffffffffffffffffffffffff1661221c565b15612053578373ffffffffffffffffffffffffffffffffffffffff1663150b7a02611f226113d4565b8786866040518563ffffffff1660e01b8152600401611f4494939291906137f6565b6020604051808303816000875af1925050508015611f8057506040513d601f19601f82011682018060405250810190611f7d9190613857565b60015b612003573d8060008114611fb0576040519150601f19603f3d011682016040523d82523d6000602084013e611fb5565b606091505b50600081511415611ffb576040517f08c379a0000000000000000000000000000000000000000000000000000000008152600401611ff290613455565b60405180910390fd5b805181602001fd5b63150b7a0260e01b7bffffffffffffffffffffffffffffffffffffffffffffffffffffffff1916817bffffffffffffffffffffffffffffffffffffffffffffffffffffffff191614915050612058565b600190505b949350505050565b606060008214156120a8576040518060400160405280600181526020017f300000000000000000000000000000000000000000000000000000000000000081525090506121bc565b600082905060005b600082146120da5780806120c390613884565b915050600a826120d391906138fc565b91506120b0565b60008167ffffffffffffffff8111156120f6576120f56128ba565b5b6040519080825280601f01601f1916602001820160405280156121285781602001600182028036833780820191505090505b5090505b600085146121b55760018261214191906132ed565b9150600a85612150919061392d565b603061215c9190613321565b60f81b8183815181106121725761217161395e565b5b60200101907effffffffffffffffffffffffffffffffffffffffffffffffffffffffffffff1916908160001a905350600a856121ae91906138fc565b945061212c565b8093505050505b919050565b6121cb838361223f565b6121d86000848484611ed8565b612217576040517f08c379a000000000000000000000000000000000000000000000000000000000815260040161220e90613455565b60405180910390fd5b505050565b6000808273ffffffffffffffffffffffffffffffffffffffff163b119050919050565b600073ffffffffffffffffffffffffffffffffffffffff168273ffffffffffffffffffffffffffffffffffffffff1614156122af576040517f08c379a00000000000000000000000000000000000000000000000000000000081526004016122a6906139d9565b60405180910390fd5b6122b881611368565b156122f8576040517f08c379a00000000000000000000000000000000000000000000000000000000081526004016122ef90613a45565b60405180910390fd5b61230460008383611ece565b6001600360008473ffffffffffffffffffffffffffffffffffffffff1673ffffffffffffffffffffffffffffffffffffffff16815260200190815260200160002060008282546123549190613321565b92505081905550816002600083815260200190815260200160002060006101000a81548173ffffffffffffffffffffffffffffffffffffffff021916908373ffffffffffffffffffffffffffffffffffffffff160217905550808273ffffffffffffffffffffffffffffffffffffffff16600073ffffffffffffffffffffffffffffffffffffffff167fddf252ad1be2c89b69c2b068fc378daa952ba7f163c4a11628f55a4df523b3ef60405160405180910390a461241560008383611ed3565b5050565b82805461242590612b0e565b90600052602060002090601f016020900481019282612447576000855561248e565b82601f1061246057805160ff191683800117855561248e565b8280016001018555821561248e579182015b8281111561248d578251825591602001919060010190612472565b5b50905061249b919061249f565b5090565b5b808211156124b85760008160009055506001016124a0565b5090565b600073ffffffffffffffffffffffffffffffffffffffff82169050919050565b60006124e7826124bc565b9050919050565b6124f7816124dc565b82525050565b6000819050919050565b612510816124fd565b82525050565b600060408201905061252b60008301856124ee565b6125386020830184612507565b9392505050565b6000604051905090565b600080fd5b600080fd5b60007fffffffff0000000000000000000000000000000000000000000000000000000082169050919050565b61258881612553565b811461259357600080fd5b50565b6000813590506125a58161257f565b92915050565b6000602082840312156125c1576125c0612549565b5b60006125cf84828501612596565b91505092915050565b60008115159050919050565b6125ed816125d8565b82525050565b600060208201905061260860008301846125e4565b92915050565b600081519050919050565b600082825260208201905092915050565b60005b8381101561264857808201518184015260208101905061262d565b83811115612657576000848401525b50505050565b6000601f19601f8301169050919050565b60006126798261260e565b6126838185612619565b935061269381856020860161262a565b61269c8161265d565b840191505092915050565b600060208201905081810360008301526126c1818461266e565b905092915050565b6126d2816124fd565b81146126dd57600080fd5b50565b6000813590506126ef816126c9565b92915050565b60006020828403121561270b5761270a612549565b5b6000612719848285016126e0565b91505092915050565b600060208201905061273760008301846124ee565b92915050565b612746816124dc565b811461275157600080fd5b50565b6000813590506127638161273d565b92915050565b600080604083850312156127805761277f612549565b5b600061278e85828601612754565b925050602061279f858286016126e0565b9150509250929050565b6000806000606084860312156127c2576127c1612549565b5b60006127d086828701612754565b93505060206127e186828701612754565b92505060406127f2868287016126e0565b9150509250925092565b60006020828403121561281257612811612549565b5b600061282084828501612754565b91505092915050565b600060208201905061283e6000830184612507565b92915050565b61284d816125d8565b811461285857600080fd5b50565b60008135905061286a81612844565b92915050565b6000806040838503121561288757612886612549565b5b600061289585828601612754565b92505060206128a68582860161285b565b9150509250929050565b600080fd5b600080fd5b7f4e487b7100000000000000000000000000000000000000000000000000000000600052604160045260246000fd5b6128f28261265d565b810181811067ffffffffffffffff82111715612911576129106128ba565b5b80604052505050565b600061292461253f565b905061293082826128e9565b919050565b600067ffffffffffffffff8211156129505761294f6128ba565b5b6129598261265d565b9050602081019050919050565b82818337600083830152505050565b600061298861298384612935565b61291a565b9050828152602081018484840111156129a4576129a36128b5565b5b6129af848285612966565b509392505050565b600082601f8301126129cc576129cb6128b0565b5b81356129dc848260208601612975565b91505092915050565b600080600080608085870312156129ff576129fe612549565b5b6000612a0d87828801612754565b9450506020612a1e87828801612754565b9350506040612a2f878288016126e0565b925050606085013567ffffffffffffffff811115612a5057612a4f61254e565b5b612a5c878288016129b7565b91505092959194509250565b60008060408385031215612a7f57612a7e612549565b5b6000612a8d85828601612754565b9250506020612a9e85828601612754565b9150509250929050565b6000606082019050612abd60008301866124ee565b612aca6020830185612507565b612ad76040830184612507565b949350505050565b7f4e487b7100000000000000000000000000000000000000000000000000000000600052602260045260246000fd5b60006002820490506001821680612b2657607f821691505b60208210811415612b3a57612b39612adf565b5b50919050565b7f4552433732313a20617070726f76656420717565727920666f72206e6f6e657860008201527f697374656e7420746f6b656e0000000000000000000000000000000000000000602082015250565b6000612b9c602c83612619565b9150612ba782612b40565b604082019050919050565b60006020820190508181036000830152612bcb81612b8f565b9050919050565b7f4552433732313a20617070726f76616c20746f2063757272656e74206f776e6560008201527f7200000000000000000000000000000000000000000000000000000000000000602082015250565b6000612c2e602183612619565b9150612c3982612bd2565b604082019050919050565b60006020820190508181036000830152612c5d81612c21565b9050919050565b7f4552433732313a20617070726f76652063616c6c6572206973206e6f74206f7760008201527f6e6572206e6f7220617070726f76656420666f7220616c6c0000000000000000602082015250565b6000612cc0603883612619565b9150612ccb82612c64565b604082019050919050565b60006020820190508181036000830152612cef81612cb3565b9050919050565b7f4552433732313a207472616e736665722063616c6c6572206973206e6f74206f60008201527f776e6572206e6f7220617070726f766564000000000000000000000000000000602082015250565b6000612d52603183612619565b9150612d5d82612cf6565b604082019050919050565b60006020820190508181036000830152612d8181612d45565b9050919050565b7f4552433732313a206f776e657220717565727920666f72206e6f6e657869737460008201527f656e7420746f6b656e0000000000000000000000000000000000000000000000602082015250565b6000612de4602983612619565b9150612def82612d88565b604082019050919050565b60006020820190508181036000830152612e1381612dd7565b9050919050565b7f4552433732313a2062616c616e636520717565727920666f7220746865207a6560008201527f726f206164647265737300000000000000000000000000000000000000000000602082015250565b6000612e76602a83612619565b9150612e8182612e1a565b604082019050919050565b60006020820190508181036000830152612ea581612e69565b9050919050565b7f4f776e61626c653a2063616c6c6572206973206e6f7420746865206f776e6572600082015250565b6000612ee2602083612619565b9150612eed82612eac565b602082019050919050565b60006020820190508181036000830152612f1181612ed5565b9050919050565b7f45524337323155524953746f726167653a2055524920717565727920666f722060008201527f6e6f6e6578697374656e7420746f6b656e000000000000000000000000000000602082015250565b6000612f74603183612619565b9150612f7f82612f18565b604082019050919050565b60006020820190508181036000830152612fa381612f67565b9050919050565b600081905092915050565b6000612fc08261260e565b612fca8185612faa565b9350612fda81856020860161262a565b80840191505092915050565b6000612ff28285612fb5565b9150612ffe8284612fb5565b91508190509392505050565b7f4e65656420746f2073656e6420302e32206574686572206f72206d6f72650000600082015250565b6000613040601e83612619565b915061304b8261300a565b602082019050919050565b6000602082019050818103600083015261306f81613033565b9050919050565b7f4f776e61626c653a206e6577206f776e657220697320746865207a65726f206160008201527f6464726573730000000000000000000000000000000000000000000000000000602082015250565b60006130d2602683612619565b91506130dd82613076565b604082019050919050565b60006020820190508181036000830152613101816130c5565b9050919050565b7f4552433732313a206f70657261746f7220717565727920666f72206e6f6e657860008201527f697374656e7420746f6b656e0000000000000000000000000000000000000000602082015250565b6000613164602c83612619565b915061316f82613108565b604082019050919050565b6000602082019050818103600083015261319381613157565b9050919050565b7f4552433732313a207472616e736665722066726f6d20696e636f72726563742060008201527f6f776e6572000000000000000000000000000000000000000000000000000000602082015250565b60006131f6602583612619565b91506132018261319a565b604082019050919050565b60006020820190508181036000830152613225816131e9565b9050919050565b7f4552433732313a207472616e7366657220746f20746865207a65726f2061646460008201527f7265737300000000000000000000000000000000000000000000000000000000602082015250565b6000613288602483612619565b91506132938261322c565b604082019050919050565b600060208201905081810360008301526132b78161327b565b9050919050565b7f4e487b7100000000000000000000000000000000000000000000000000000000600052601160045260246000fd5b60006132f8826124fd565b9150613303836124fd565b925082821015613316576133156132be565b5b828203905092915050565b600061332c826124fd565b9150613337836124fd565b9250827fffffffffffffffffffffffffffffffffffffffffffffffffffffffffffffffff0382111561336c5761336b6132be565b5b828201905092915050565b7f4552433732313a20617070726f766520746f2063616c6c657200000000000000600082015250565b60006133ad601983612619565b91506133b882613377565b602082019050919050565b600060208201905081810360008301526133dc816133a0565b9050919050565b7f4552433732313a207472616e7366657220746f206e6f6e20455243373231526560008201527f63656976657220696d706c656d656e7465720000000000000000000000000000602082015250565b600061343f603283612619565b915061344a826133e3565b604082019050919050565b6000602082019050818103600083015261346e81613432565b9050919050565b7f4552433732314d657461646174613a2055524920717565727920666f72206e6f60008201527f6e6578697374656e7420746f6b656e0000000000000000000000000000000000602082015250565b60006134d1602f83612619565b91506134dc82613475565b604082019050919050565b60006020820190508181036000830152613500816134c4565b9050919050565b600060408201905061351c60008301856124ee565b818103602083015261352e818461266e565b90509392505050565b600060408201905061354c6000830185612507565b818103602083015261355e818461266e565b90509392505050565b7f45524337323155524953746f726167653a2055524920736574206f66206e6f6e60008201527f6578697374656e7420746f6b656e000000000000000000000000000000000000602082015250565b60006135c3602e83612619565b91506135ce82613567565b604082019050919050565b600060208201905081810360008301526135f2816135b6565b9050919050565b60006060820190508181036000830152613613818661266e565b90506136226020830185612507565b61362f6040830184612507565b949350505050565b7f547279696e6720746f207769746864726177206d6f7265206d6f6e657920746860008201527f616e2074686520636f6e7472616374206861732e000000000000000000000000602082015250565b6000613693603483612619565b915061369e82613637565b604082019050919050565b600060208201905081810360008301526136c281613686565b9050919050565b600081905092915050565b50565b60006136e46000836136c9565b91506136ef826136d4565b600082019050919050565b6000613705826136d7565b9150819050919050565b7f4661696c656420746f207769746864726177206d6f6e65792066726f6d20636f60008201527f6e74726163742e00000000000000000000000000000000000000000000000000602082015250565b600061376b602783612619565b91506137768261370f565b604082019050919050565b6000602082019050818103600083015261379a8161375e565b9050919050565b600081519050919050565b600082825260208201905092915050565b60006137c8826137a1565b6137d281856137ac565b93506137e281856020860161262a565b6137eb8161265d565b840191505092915050565b600060808201905061380b60008301876124ee565b61381860208301866124ee565b6138256040830185612507565b818103606083015261383781846137bd565b905095945050505050565b6000815190506138518161257f565b92915050565b60006020828403121561386d5761386c612549565b5b600061387b84828501613842565b91505092915050565b600061388f826124fd565b91507fffffffffffffffffffffffffffffffffffffffffffffffffffffffffffffffff8214156138c2576138c16132be565b5b600182019050919050565b7f4e487b7100000000000000000000000000000000000000000000000000000000600052601260045260246000fd5b6000613907826124fd565b9150613912836124fd565b925082613922576139216138cd565b5b828204905092915050565b6000613938826124fd565b9150613943836124fd565b925082613953576139526138cd565b5b828206905092915050565b7f4e487b7100000000000000000000000000000000000000000000000000000000600052603260045260246000fd5b7f4552433732313a206d696e7420746f20746865207a65726f2061646472657373600082015250565b60006139c3602083612619565b91506139ce8261398d565b602082019050919050565b600060208201905081810360008301526139f2816139b6565b9050919050565b7f4552433732313a20746f6b656e20616c7265616479206d696e74656400000000600082015250565b6000613a2f601c83612619565b9150613a3a826139f9565b602082019050919050565b60006020820190508181036000830152613a5e81613a22565b905091905056fe416e204e465420772f20494420257320686173206265656e206d696e74656420746f202573a2646970667358221220b87918ff59ba17be16236926a1a0de498c2c25cd3435384a09d1bbaef4065fcd64736f6c634300080a0033",
  "linkReferences": {},
  "deployedLinkReferences": {}
}