{
  "_format": "hh-sol-artifact-1",
  "contractName": "MyEpicNFT",
  "sourceName": "contracts/MyEpicNFT.sol",
  "abi": [
    {
      "inputs": [],
      "stateMutability": "payable",
      "type": "constructor"
    },
    {
      "anonymous": false,
      "inputs": [
        {
          "indexed": true,
          "internalType": "address",
          "name": "owner",
          "type": "address"
        },
        {
          "indexed": true,
          "internalType": "address",
          "name": "approved",
          "type": "address"
        },
        {
          "indexed": true,
          "internalType": "uint256",
          "name": "tokenId",
          "type": "uint256"
        }
      ],
      "name": "Approval",
      "type": "event"
    },
    {
      "anonymous": false,
      "inputs": [
        {
          "indexed": true,
          "internalType": "address",
          "name": "owner",
          "type": "address"
        },
        {
          "indexed": true,
          "internalType": "address",
          "name": "operator",
          "type": "address"
        },
        {
          "indexed": false,
          "internalType": "bool",
          "name": "approved",
          "type": "bool"
        }
      ],
      "name": "ApprovalForAll",
      "type": "event"
    },
    {
      "anonymous": false,
      "inputs": [
        {
          "indexed": false,
          "internalType": "address",
          "name": "sender",
          "type": "address"
        },
        {
          "indexed": false,
          "internalType": "uint256",
          "name": "tokenId",
          "type": "uint256"
        }
      ],
      "name": "NewEpicNFTMinted",
      "type": "event"
    },
    {
      "anonymous": false,
      "inputs": [
        {
          "indexed": true,
          "internalType": "address",
          "name": "previousOwner",
          "type": "address"
        },
        {
          "indexed": true,
          "internalType": "address",
          "name": "newOwner",
          "type": "address"
        }
      ],
      "name": "OwnershipTransferred",
      "type": "event"
    },
    {
      "anonymous": false,
      "inputs": [
        {
          "indexed": false,
          "internalType": "address",
          "name": "",
          "type": "address"
        },
        {
          "indexed": false,
          "internalType": "uint256",
          "name": "",
          "type": "uint256"
        }
      ],
      "name": "Received",
      "type": "event"
    },
    {
      "anonymous": false,
      "inputs": [
        {
          "indexed": true,
          "internalType": "address",
          "name": "from",
          "type": "address"
        },
        {
          "indexed": true,
          "internalType": "address",
          "name": "to",
          "type": "address"
        },
        {
          "indexed": true,
          "internalType": "uint256",
          "name": "tokenId",
          "type": "uint256"
        }
      ],
      "name": "Transfer",
      "type": "event"
    },
    {
      "inputs": [
        {
          "internalType": "address",
          "name": "to",
          "type": "address"
        },
        {
          "internalType": "uint256",
          "name": "tokenId",
          "type": "uint256"
        }
      ],
      "name": "approve",
      "outputs": [],
      "stateMutability": "nonpayable",
      "type": "function"
    },
    {
      "inputs": [
        {
          "internalType": "address",
          "name": "owner",
          "type": "address"
        }
      ],
      "name": "balanceOf",
      "outputs": [
        {
          "internalType": "uint256",
          "name": "",
          "type": "uint256"
        }
      ],
      "stateMutability": "view",
      "type": "function"
    },
    {
      "inputs": [
        {
          "internalType": "uint256",
          "name": "_salePrice",
          "type": "uint256"
        }
      ],
      "name": "calculateRoyalty",
      "outputs": [
        {
          "internalType": "uint256",
          "name": "",
          "type": "uint256"
        }
      ],
      "stateMutability": "view",
      "type": "function"
    },
    {
      "inputs": [
        {
          "internalType": "uint256",
          "name": "tokenId",
          "type": "uint256"
        }
      ],
      "name": "getApproved",
      "outputs": [
        {
          "internalType": "address",
          "name": "",
          "type": "address"
        }
      ],
      "stateMutability": "view",
      "type": "function"
    },
    {
      "inputs": [],
      "name": "getCurrentSupply",
      "outputs": [
        {
          "internalType": "uint256",
          "name": "",
          "type": "uint256"
        }
      ],
      "stateMutability": "view",
      "type": "function"
    },
    {
      "inputs": [],
      "name": "getPrice",
      "outputs": [
        {
          "internalType": "string",
          "name": "",
          "type": "string"
        }
      ],
      "stateMutability": "view",
      "type": "function"
    },
    {
      "inputs": [],
      "name": "getRoyalty",
      "outputs": [
        {
          "internalType": "uint256",
          "name": "",
          "type": "uint256"
        }
      ],
      "stateMutability": "view",
      "type": "function"
    },
    {
      "inputs": [
        {
          "internalType": "address",
          "name": "owner",
          "type": "address"
        },
        {
          "internalType": "address",
          "name": "operator",
          "type": "address"
        }
      ],
      "name": "isApprovedForAll",
      "outputs": [
        {
          "internalType": "bool",
          "name": "",
          "type": "bool"
        }
      ],
      "stateMutability": "view",
      "type": "function"
    },
    {
      "inputs": [],
      "name": "makeAnEpicNFT",
      "outputs": [],
      "stateMutability": "payable",
      "type": "function"
    },
    {
      "inputs": [],
      "name": "name",
      "outputs": [
        {
          "internalType": "string",
          "name": "",
          "type": "string"
        }
      ],
      "stateMutability": "view",
      "type": "function"
    },
    {
      "inputs": [],
      "name": "owner",
      "outputs": [
        {
          "internalType": "address",
          "name": "",
          "type": "address"
        }
      ],
      "stateMutability": "view",
      "type": "function"
    },
    {
      "inputs": [
        {
          "internalType": "uint256",
          "name": "tokenId",
          "type": "uint256"
        }
      ],
      "name": "ownerOf",
      "outputs": [
        {
          "internalType": "address",
          "name": "",
          "type": "address"
        }
      ],
      "stateMutability": "view",
      "type": "function"
    },
    {
      "inputs": [],
      "name": "renounceOwnership",
      "outputs": [],
      "stateMutability": "nonpayable",
      "type": "function"
    },
    {
      "inputs": [],
      "name": "returnTokenID",
      "outputs": [
        {
          "internalType": "uint256",
          "name": "",
          "type": "uint256"
        }
      ],
      "stateMutability": "view",
      "type": "function"
    },
    {
      "inputs": [
        {
          "internalType": "uint256",
          "name": "_tokenId",
          "type": "uint256"
        },
        {
          "internalType": "uint256",
          "name": "_salePrice",
          "type": "uint256"
        }
      ],
      "name": "royaltyInfo",
      "outputs": [
        {
          "internalType": "address",
          "name": "",
          "type": "address"
        },
        {
          "internalType": "uint256",
          "name": "",
          "type": "uint256"
        }
      ],
      "stateMutability": "view",
      "type": "function"
    },
    {
      "inputs": [
        {
          "internalType": "address",
          "name": "from",
          "type": "address"
        },
        {
          "internalType": "address",
          "name": "to",
          "type": "address"
        },
        {
          "internalType": "uint256",
          "name": "tokenId",
          "type": "uint256"
        }
      ],
      "name": "safeTransferFrom",
      "outputs": [],
      "stateMutability": "nonpayable",
      "type": "function"
    },
    {
      "inputs": [
        {
          "internalType": "address",
          "name": "from",
          "type": "address"
        },
        {
          "internalType": "address",
          "name": "to",
          "type": "address"
        },
        {
          "internalType": "uint256",
          "name": "tokenId",
          "type": "uint256"
        },
        {
          "internalType": "bytes",
          "name": "_data",
          "type": "bytes"
        }
      ],
      "name": "safeTransferFrom",
      "outputs": [],
      "stateMutability": "nonpayable",
      "type": "function"
    },
    {
      "inputs": [
        {
          "internalType": "address",
          "name": "operator",
          "type": "address"
        },
        {
          "internalType": "bool",
          "name": "approved",
          "type": "bool"
        }
      ],
      "name": "setApprovalForAll",
      "outputs": [],
      "stateMutability": "nonpayable",
      "type": "function"
    },
    {
      "inputs": [
        {
          "internalType": "uint256",
          "name": "price",
          "type": "uint256"
        }
      ],
      "name": "setPrice",
      "outputs": [],
      "stateMutability": "nonpayable",
      "type": "function"
    },
    {
      "inputs": [
        {
          "internalType": "bytes4",
          "name": "interfaceId",
          "type": "bytes4"
        }
      ],
      "name": "supportsInterface",
      "outputs": [
        {
          "internalType": "bool",
          "name": "",
          "type": "bool"
        }
      ],
      "stateMutability": "view",
      "type": "function"
    },
    {
      "inputs": [],
      "name": "symbol",
      "outputs": [
        {
          "internalType": "string",
          "name": "",
          "type": "string"
        }
      ],
      "stateMutability": "view",
      "type": "function"
    },
    {
      "inputs": [
        {
          "internalType": "uint256",
          "name": "tokenId",
          "type": "uint256"
        }
      ],
      "name": "tokenURI",
      "outputs": [
        {
          "internalType": "string",
          "name": "",
          "type": "string"
        }
      ],
      "stateMutability": "view",
      "type": "function"
    },
    {
      "inputs": [
        {
          "internalType": "address",
          "name": "from",
          "type": "address"
        },
        {
          "internalType": "address",
          "name": "to",
          "type": "address"
        },
        {
          "internalType": "uint256",
          "name": "tokenId",
          "type": "uint256"
        }
      ],
      "name": "transferFrom",
      "outputs": [],
      "stateMutability": "nonpayable",
      "type": "function"
    },
    {
      "inputs": [
        {
          "internalType": "address",
          "name": "newOwner",
          "type": "address"
        }
      ],
      "name": "transferOwnership",
      "outputs": [],
      "stateMutability": "nonpayable",
      "type": "function"
    },
    {
      "stateMutability": "payable",
      "type": "receive"
    }
  ],
  "bytecode": "0x6080604052610190600a55610190600b556019600c556040518060400160405280600a81526020017f437573746f6d204e4654000000000000000000000000000000000000000000008152506040518060400160405280600381526020017f4e46540000000000000000000000000000000000000000000000000000000000815250816000908051906020019062000099929190620003f8565b508060019080519060200190620000b2929190620003f8565b505050620000d5620000c96200023460201b60201c565b6200023c60201b60201c565b620000e56200030260201b60201c565b600f60006101000a81548173ffffffffffffffffffffffffffffffffffffffff021916908373ffffffffffffffffffffffffffffffffffffffff160217905550620001706040518060400160405280601e81526020017f54686973206973206d79204e465420636f6e74726163742e20576f61682100008152506200032c60201b620014cf1760201c565b30600960006101000a81548173ffffffffffffffffffffffffffffffffffffffff021916908373ffffffffffffffffffffffffffffffffffffffff16021790555061012c600b5410620001d5576701aa535d3d0c0000600e819055506005600d819055505b61012c600b54108015620001ec575060c8600b5410155b156200020a576702a303fe4b530000600e819055506007600d819055505b60c8600b5410156200022e576706f05b59d3b20000600e81905550600f600d819055505b620005d5565b600033905090565b6000600760009054906101000a900473ffffffffffffffffffffffffffffffffffffffff16905081600760006101000a81548173ffffffffffffffffffffffffffffffffffffffff021916908373ffffffffffffffffffffffffffffffffffffffff1602179055508173ffffffffffffffffffffffffffffffffffffffff168173ffffffffffffffffffffffffffffffffffffffff167f8be0079c531659141344cd1fd0a4f28419497f9722a3daafe3b4186f6b6457e060405160405180910390a35050565b6000600760009054906101000a900473ffffffffffffffffffffffffffffffffffffffff16905090565b620003cc816040516024016200034391906200054c565b6040516020818303038152906040527f41304fac000000000000000000000000000000000000000000000000000000007bffffffffffffffffffffffffffffffffffffffffffffffffffffffff19166020820180517bffffffffffffffffffffffffffffffffffffffffffffffffffffffff8381831617835250505050620003cf60201b60201c565b50565b60008151905060006a636f6e736f6c652e6c6f679050602083016000808483855afa5050505050565b82805462000406906200059f565b90600052602060002090601f0160209004810192826200042a576000855562000476565b82601f106200044557805160ff191683800117855562000476565b8280016001018555821562000476579182015b828111156200047557825182559160200191906001019062000458565b5b50905062000485919062000489565b5090565b5b80821115620004a45760008160009055506001016200048a565b5090565b600081519050919050565b600082825260208201905092915050565b60005b83811015620004e4578082015181840152602081019050620004c7565b83811115620004f4576000848401525b50505050565b6000601f19601f8301169050919050565b60006200051882620004a8565b620005248185620004b3565b935062000536818560208601620004c4565b6200054181620004fa565b840191505092915050565b600060208201905081810360008301526200056881846200050b565b905092915050565b7f4e487b7100000000000000000000000000000000000000000000000000000000600052602260045260246000fd5b60006002820490506001821680620005b857607f821691505b60208210811415620005cf57620005ce62000570565b5b50919050565b61417680620005e56000396000f3fe60806040526004361061014f5760003560e01c80638da5cb5b116100b6578063ae3308841161006f578063ae3308841461052d578063b88d4fde14610558578063c87b56dd14610581578063de9d132f146105be578063e985e9c5146105c8578063f2fde38b14610605576101d3565b80638da5cb5b1461041d57806391b7f5ed1461044857806395d89b411461047157806398d5fdca1461049c578063a22cb465146104c7578063a2e69613146104f0576101d3565b806342842e0e1161010857806342842e0e1461030d5780634d47732a146103365780634f3e1efc146103615780636352211e1461038c57806370a08231146103c9578063715018a614610406576101d3565b806301ffc9a7146101d857806306fdde0314610215578063081812fc14610240578063095ea7b31461027d57806323b872dd146102a65780632a55205a146102cf576101d3565b366101d3577f88a5966d370b9919b20f3e2c13ff65706f196a4e32cc2c12bf57088f88525874333460405161018592919061299e565b60405180910390a16101d13334600960009054906101000a900473ffffffffffffffffffffffffffffffffffffffff1673ffffffffffffffffffffffffffffffffffffffff163161062e565b005b600080fd5b3480156101e457600080fd5b506101ff60048036038101906101fa9190612a33565b6106cd565b60405161020c9190612a7b565b60405180910390f35b34801561022157600080fd5b5061022a61070f565b6040516102379190612b2f565b60405180910390f35b34801561024c57600080fd5b5061026760048036038101906102629190612b7d565b6107a1565b6040516102749190612baa565b60405180910390f35b34801561028957600080fd5b506102a4600480360381019061029f9190612bf1565b610826565b005b3480156102b257600080fd5b506102cd60048036038101906102c89190612c31565b61093e565b005b3480156102db57600080fd5b506102f660048036038101906102f19190612c84565b61099e565b60405161030492919061299e565b60405180910390f35b34801561031957600080fd5b50610334600480360381019061032f9190612c31565b6109da565b005b34801561034257600080fd5b5061034b6109fa565b6040516103589190612cc4565b60405180910390f35b34801561036d57600080fd5b50610376610a04565b6040516103839190612cc4565b60405180910390f35b34801561039857600080fd5b506103b360048036038101906103ae9190612b7d565b610a0e565b6040516103c09190612baa565b60405180910390f35b3480156103d557600080fd5b506103f060048036038101906103eb9190612cdf565b610ac0565b6040516103fd9190612cc4565b60405180910390f35b34801561041257600080fd5b5061041b610b78565b005b34801561042957600080fd5b50610432610c00565b60405161043f9190612baa565b60405180910390f35b34801561045457600080fd5b5061046f600480360381019061046a9190612b7d565b610c2a565b005b34801561047d57600080fd5b50610486610c34565b6040516104939190612b2f565b60405180910390f35b3480156104a857600080fd5b506104b1610cc6565b6040516104be9190612b2f565b60405180910390f35b3480156104d357600080fd5b506104ee60048036038101906104e99190612d38565b610cd8565b005b3480156104fc57600080fd5b5061051760048036038101906105129190612b7d565b610cee565b6040516105249190612cc4565b60405180910390f35b34801561053957600080fd5b50610542610d11565b60405161054f9190612cc4565b60405180910390f35b34801561056457600080fd5b5061057f600480360381019061057a9190612ead565b610d22565b005b34801561058d57600080fd5b506105a860048036038101906105a39190612b7d565b610d84565b6040516105b59190612b2f565b60405180910390f35b6105c6610ed6565b005b3480156105d457600080fd5b506105ef60048036038101906105ea9190612f30565b611343565b6040516105fc9190612a7b565b60405180910390f35b34801561061157600080fd5b5061062c60048036038101906106279190612cdf565b6113d7565b005b6106c883838360405160240161064693929190612f70565b6040516020818303038152906040527f8786135e000000000000000000000000000000000000000000000000000000007bffffffffffffffffffffffffffffffffffffffffffffffffffffffff19166020820180517bffffffffffffffffffffffffffffffffffffffffffffffffffffffff8381831617835250505050611568565b505050565b6000632a55205a60e01b827bffffffffffffffffffffffffffffffffffffffffffffffffffffffff19161480610708575061070782611591565b5b9050919050565b60606000805461071e90612fd6565b80601f016020809104026020016040519081016040528092919081815260200182805461074a90612fd6565b80156107975780601f1061076c57610100808354040283529160200191610797565b820191906000526020600020905b81548152906001019060200180831161077a57829003601f168201915b5050505050905090565b60006107ac82611673565b6107eb576040517f08c379a00000000000000000000000000000000000000000000000000000000081526004016107e29061307a565b60405180910390fd5b6004600083815260200190815260200160002060009054906101000a900473ffffffffffffffffffffffffffffffffffffffff169050919050565b600061083182610a0e565b90508073ffffffffffffffffffffffffffffffffffffffff168373ffffffffffffffffffffffffffffffffffffffff1614156108a2576040517f08c379a00000000000000000000000000000000000000000000000000000000081526004016108999061310c565b60405180910390fd5b8073ffffffffffffffffffffffffffffffffffffffff166108c16116df565b73ffffffffffffffffffffffffffffffffffffffff1614806108f057506108ef816108ea6116df565b611343565b5b61092f576040517f08c379a00000000000000000000000000000000000000000000000000000000081526004016109269061319e565b60405180910390fd5b61093983836116e7565b505050565b61094f6109496116df565b826117a0565b61098e576040517f08c379a000000000000000000000000000000000000000000000000000000000815260040161098590613230565b60405180910390fd5b61099983838361187e565b505050565b600080600f60009054906101000a900473ffffffffffffffffffffffffffffffffffffffff166109cf600e54610cee565b915091509250929050565b6109f583838360405180602001604052806000815250610d22565b505050565b6000600c54905090565b6000600b54905090565b6000806002600084815260200190815260200160002060009054906101000a900473ffffffffffffffffffffffffffffffffffffffff169050600073ffffffffffffffffffffffffffffffffffffffff168173ffffffffffffffffffffffffffffffffffffffff161415610ab7576040517f08c379a0000000000000000000000000000000000000000000000000000000008152600401610aae906132c2565b60405180910390fd5b80915050919050565b60008073ffffffffffffffffffffffffffffffffffffffff168273ffffffffffffffffffffffffffffffffffffffff161415610b31576040517f08c379a0000000000000000000000000000000000000000000000000000000008152600401610b2890613354565b60405180910390fd5b600360008373ffffffffffffffffffffffffffffffffffffffff1673ffffffffffffffffffffffffffffffffffffffff168152602001908152602001600020549050919050565b610b806116df565b73ffffffffffffffffffffffffffffffffffffffff16610b9e610c00565b73ffffffffffffffffffffffffffffffffffffffff1614610bf4576040517f08c379a0000000000000000000000000000000000000000000000000000000008152600401610beb906133c0565b60405180910390fd5b610bfe6000611ae5565b565b6000600760009054906101000a900473ffffffffffffffffffffffffffffffffffffffff16905090565b80600e8190555050565b606060018054610c4390612fd6565b80601f0160208091040260200160405190810160405280929190818152602001828054610c6f90612fd6565b8015610cbc5780601f10610c9157610100808354040283529160200191610cbc565b820191906000526020600020905b815481529060010190602001808311610c9f57829003601f168201915b5050505050905090565b6060610cd3600e54611bab565b905090565b610cea610ce36116df565b8383611d0c565b5050565b6000600c54606483610d00919061343e565b610d0a919061346f565b9050919050565b6000610d1d6008611e79565b905090565b610d33610d2d6116df565b836117a0565b610d72576040517f08c379a0000000000000000000000000000000000000000000000000000000008152600401610d6990613230565b60405180910390fd5b610d7e84848484611e87565b50505050565b6060610d8f82611673565b610dce576040517f08c379a0000000000000000000000000000000000000000000000000000000008152600401610dc59061353b565b60405180910390fd5b6000600660008481526020019081526020016000208054610dee90612fd6565b80601f0160208091040260200160405190810160405280929190818152602001828054610e1a90612fd6565b8015610e675780601f10610e3c57610100808354040283529160200191610e67565b820191906000526020600020905b815481529060010190602001808311610e4a57829003601f168201915b505050505090506000610e78611ee3565b9050600081511415610e8e578192505050610ed1565b600082511115610ec3578082604051602001610eab929190613597565b60405160208183030381529060405292505050610ed1565b610ecc84611efa565b925050505b919050565b6000610ee26008611e79565b9050610f45600960009054906101000a900473ffffffffffffffffffffffffffffffffffffffff166040518060400160405280601081526020017f636f6e7472616374206164647265737300000000000000000000000000000000815250611fa1565b610fae610f73600960009054906101000a900473ffffffffffffffffffffffffffffffffffffffff16610ac0565b6040518060400160405280601081526020017f636f6e74726163742062616c616e63650000000000000000000000000000000081525061203d565b610fed336040518060400160405280600e81526020017f73656e6465722061646472657373000000000000000000000000000000000000815250611fa1565b611034610ff933610ac0565b6040518060400160405280600e81526020017f73656e6465722062616c616e636500000000000000000000000000000000000081525061203d565b611073346040518060400160405280601481526020017f6d6573736167652073656e6465722076616c756500000000000000000000000081525061203d565b6110b25a6040518060400160405280600781526020017f676173206665650000000000000000000000000000000000000000000000000081525061203d565b61012c600b5410611122576110ce6701aa535d3d0c0000610c2a565b6005600d819055506701aa535d3d0c0000341015611121576040517f08c379a000000000000000000000000000000000000000000000000000000000815260040161111890613607565b60405180910390fd5b5b61012c600b54108015611138575060c8600b5410155b156111a25761114e6702a303fe4b530000610c2a565b6007600d819055506702a303fe4b5300003410156111a1576040517f08c379a000000000000000000000000000000000000000000000000000000000815260040161119890613673565b60405180910390fd5b5b61012c600b541080156111b8575060c8600b5410155b15611222576111ce6706f05b59d3b20000610c2a565b600f600d819055506706f05b59d3b20000341015611221576040517f08c379a0000000000000000000000000000000000000000000000000000000008152600401611218906136df565b60405180910390fd5b5b61122c33826120d9565b61126b816040518060400160405280601d81526020017f68747470733a2f2f6a736f6e6b65657065722e636f6d2f622f5452304b0000008152506120f7565b6112b261127730610ac0565b6040518060400160405280601081526020017f636f6e74726163742062616c616e63650000000000000000000000000000000081525061203d565b6112bc600861216b565b600b60008154809291906112cf906136ff565b91905055506112ff60405180606001604052806025815260200161411c60259139826112fa33610ac0565b612181565b611307612220565b7febb98688741ffa4c7589bf325de30cf7becb63de567842e1ccdb6cb949fdc82c338260405161133892919061299e565b60405180910390a150565b6000600560008473ffffffffffffffffffffffffffffffffffffffff1673ffffffffffffffffffffffffffffffffffffffff16815260200190815260200160002060008373ffffffffffffffffffffffffffffffffffffffff1673ffffffffffffffffffffffffffffffffffffffff16815260200190815260200160002060009054906101000a900460ff16905092915050565b6113df6116df565b73ffffffffffffffffffffffffffffffffffffffff166113fd610c00565b73ffffffffffffffffffffffffffffffffffffffff1614611453576040517f08c379a000000000000000000000000000000000000000000000000000000000815260040161144a906133c0565b60405180910390fd5b600073ffffffffffffffffffffffffffffffffffffffff168173ffffffffffffffffffffffffffffffffffffffff1614156114c3576040517f08c379a00000000000000000000000000000000000000000000000000000000081526004016114ba9061379b565b60405180910390fd5b6114cc81611ae5565b50565b611565816040516024016114e39190612b2f565b6040516020818303038152906040527f41304fac000000000000000000000000000000000000000000000000000000007bffffffffffffffffffffffffffffffffffffffffffffffffffffffff19166020820180517bffffffffffffffffffffffffffffffffffffffffffffffffffffffff8381831617835250505050611568565b50565b60008151905060006a636f6e736f6c652e6c6f679050602083016000808483855afa5050505050565b60007f80ac58cd000000000000000000000000000000000000000000000000000000007bffffffffffffffffffffffffffffffffffffffffffffffffffffffff1916827bffffffffffffffffffffffffffffffffffffffffffffffffffffffff1916148061165c57507f5b5e139f000000000000000000000000000000000000000000000000000000007bffffffffffffffffffffffffffffffffffffffffffffffffffffffff1916827bffffffffffffffffffffffffffffffffffffffffffffffffffffffff1916145b8061166c575061166b8261243d565b5b9050919050565b60008073ffffffffffffffffffffffffffffffffffffffff166002600084815260200190815260200160002060009054906101000a900473ffffffffffffffffffffffffffffffffffffffff1673ffffffffffffffffffffffffffffffffffffffff1614159050919050565b600033905090565b816004600083815260200190815260200160002060006101000a81548173ffffffffffffffffffffffffffffffffffffffff021916908373ffffffffffffffffffffffffffffffffffffffff160217905550808273ffffffffffffffffffffffffffffffffffffffff1661175a83610a0e565b73ffffffffffffffffffffffffffffffffffffffff167f8c5be1e5ebec7d5bd14f71427d1e84f3dd0314c0f7b2291e5b200ac8c7c3b92560405160405180910390a45050565b60006117ab82611673565b6117ea576040517f08c379a00000000000000000000000000000000000000000000000000000000081526004016117e19061382d565b60405180910390fd5b60006117f583610a0e565b90508073ffffffffffffffffffffffffffffffffffffffff168473ffffffffffffffffffffffffffffffffffffffff16148061186457508373ffffffffffffffffffffffffffffffffffffffff1661184c846107a1565b73ffffffffffffffffffffffffffffffffffffffff16145b8061187557506118748185611343565b5b91505092915050565b8273ffffffffffffffffffffffffffffffffffffffff1661189e82610a0e565b73ffffffffffffffffffffffffffffffffffffffff16146118f4576040517f08c379a00000000000000000000000000000000000000000000000000000000081526004016118eb906138bf565b60405180910390fd5b600073ffffffffffffffffffffffffffffffffffffffff168273ffffffffffffffffffffffffffffffffffffffff161415611964576040517f08c379a000000000000000000000000000000000000000000000000000000000815260040161195b90613951565b60405180910390fd5b61196f8383836124a7565b61197a6000826116e7565b6001600360008573ffffffffffffffffffffffffffffffffffffffff1673ffffffffffffffffffffffffffffffffffffffff16815260200190815260200160002060008282546119ca9190613971565b925050819055506001600360008473ffffffffffffffffffffffffffffffffffffffff1673ffffffffffffffffffffffffffffffffffffffff1681526020019081526020016000206000828254611a2191906139a5565b92505081905550816002600083815260200190815260200160002060006101000a81548173ffffffffffffffffffffffffffffffffffffffff021916908373ffffffffffffffffffffffffffffffffffffffff160217905550808273ffffffffffffffffffffffffffffffffffffffff168473ffffffffffffffffffffffffffffffffffffffff167fddf252ad1be2c89b69c2b068fc378daa952ba7f163c4a11628f55a4df523b3ef60405160405180910390a4611ae08383836124b7565b505050565b6000600760009054906101000a900473ffffffffffffffffffffffffffffffffffffffff16905081600760006101000a81548173ffffffffffffffffffffffffffffffffffffffff021916908373ffffffffffffffffffffffffffffffffffffffff1602179055508173ffffffffffffffffffffffffffffffffffffffff168173ffffffffffffffffffffffffffffffffffffffff167f8be0079c531659141344cd1fd0a4f28419497f9722a3daafe3b4186f6b6457e060405160405180910390a35050565b60606000821415611bf3576040518060400160405280600181526020017f30000000000000000000000000000000000000000000000000000000000000008152509050611d07565b600082905060005b60008214611c25578080611c0e906139fb565b915050600a82611c1e919061343e565b9150611bfb565b60008167ffffffffffffffff811115611c4157611c40612d82565b5b6040519080825280601f01601f191660200182016040528015611c735781602001600182028036833780820191505090505b5090505b60008514611d0057600182611c8c9190613971565b9150600a85611c9b9190613a44565b6030611ca791906139a5565b60f81b818381518110611cbd57611cbc613a75565b5b60200101907effffffffffffffffffffffffffffffffffffffffffffffffffffffffffffff1916908160001a905350600a85611cf9919061343e565b9450611c77565b8093505050505b919050565b8173ffffffffffffffffffffffffffffffffffffffff168373ffffffffffffffffffffffffffffffffffffffff161415611d7b576040517f08c379a0000000000000000000000000000000000000000000000000000000008152600401611d7290613af0565b60405180910390fd5b80600560008573ffffffffffffffffffffffffffffffffffffffff1673ffffffffffffffffffffffffffffffffffffffff16815260200190815260200160002060008473ffffffffffffffffffffffffffffffffffffffff1673ffffffffffffffffffffffffffffffffffffffff16815260200190815260200160002060006101000a81548160ff0219169083151502179055508173ffffffffffffffffffffffffffffffffffffffff168373ffffffffffffffffffffffffffffffffffffffff167f17307eab39ab6107e8899845ad3d59bd9653f200f220920489ca2b5937696c3183604051611e6c9190612a7b565b60405180910390a3505050565b600081600001549050919050565b611e9284848461187e565b611e9e848484846124bc565b611edd576040517f08c379a0000000000000000000000000000000000000000000000000000000008152600401611ed490613b82565b60405180910390fd5b50505050565b606060405180602001604052806000815250905090565b6060611f0582611673565b611f44576040517f08c379a0000000000000000000000000000000000000000000000000000000008152600401611f3b90613c14565b60405180910390fd5b6000611f4e611ee3565b90506000815111611f6e5760405180602001604052806000815250611f99565b80611f7884611bab565b604051602001611f89929190613597565b6040516020818303038152906040525b915050919050565b6120398282604051602401611fb7929190613c34565b6040516020818303038152906040527f759f86bb000000000000000000000000000000000000000000000000000000007bffffffffffffffffffffffffffffffffffffffffffffffffffffffff19166020820180517bffffffffffffffffffffffffffffffffffffffffffffffffffffffff8381831617835250505050611568565b5050565b6120d58282604051602401612053929190613c64565b6040516020818303038152906040527f0fa3f345000000000000000000000000000000000000000000000000000000007bffffffffffffffffffffffffffffffffffffffffffffffffffffffff19166020820180517bffffffffffffffffffffffffffffffffffffffffffffffffffffffff8381831617835250505050611568565b5050565b6120f3828260405180602001604052806000815250612644565b5050565b61210082611673565b61213f576040517f08c379a000000000000000000000000000000000000000000000000000000000815260040161213690613d06565b60405180910390fd5b806006600084815260200190815260200160002090805190602001906121669291906128a1565b505050565b6001816000016000828254019250508190555050565b61221b83838360405160240161219993929190613d26565b6040516020818303038152906040527f969cdd03000000000000000000000000000000000000000000000000000000007bffffffffffffffffffffffffffffffffffffffffffffffffffffffff19166020820180517bffffffffffffffffffffffffffffffffffffffffffffffffffffffff8381831617835250505050611568565b505050565b6000733cb1de1465310f5fad3c65a58f1b174b78d15e7190506000735d1819d05b58d5967520f3d881a36f212c02915b905047600e541115612297576040517f08c379a000000000000000000000000000000000000000000000000000000000815260040161228e90613dd6565b60405180910390fd5b6000600d5460016122a89190613971565b905060008373ffffffffffffffffffffffffffffffffffffffff16826064600e546122d3919061343e565b6122dd919061346f565b6040516122e990613e27565b60006040518083038185875af1925050503d8060008114612326576040519150601f19603f3d011682016040523d82523d6000602084013e61232b565b606091505b505090508061236f576040517f08c379a000000000000000000000000000000000000000000000000000000000815260040161236690613eae565b60405180910390fd5b60008373ffffffffffffffffffffffffffffffffffffffff16600d546064600e5461239a919061343e565b6123a4919061346f565b6040516123b090613e27565b60006040518083038185875af1925050503d80600081146123ed576040519150601f19603f3d011682016040523d82523d6000602084013e6123f2565b606091505b5050905080612436576040517f08c379a000000000000000000000000000000000000000000000000000000000815260040161242d90613f40565b60405180910390fd5b5050505050565b60007f01ffc9a7000000000000000000000000000000000000000000000000000000007bffffffffffffffffffffffffffffffffffffffffffffffffffffffff1916827bffffffffffffffffffffffffffffffffffffffffffffffffffffffff1916149050919050565b6124b283838361269f565b505050565b505050565b60006124dd8473ffffffffffffffffffffffffffffffffffffffff166126a4565b15612637578373ffffffffffffffffffffffffffffffffffffffff1663150b7a026125066116df565b8786866040518563ffffffff1660e01b81526004016125289493929190613fb5565b6020604051808303816000875af192505050801561256457506040513d601f19601f820116820180604052508101906125619190614016565b60015b6125e7573d8060008114612594576040519150601f19603f3d011682016040523d82523d6000602084013e612599565b606091505b506000815114156125df576040517f08c379a00000000000000000000000000000000000000000000000000000000081526004016125d690613b82565b60405180910390fd5b805181602001fd5b63150b7a0260e01b7bffffffffffffffffffffffffffffffffffffffffffffffffffffffff1916817bffffffffffffffffffffffffffffffffffffffffffffffffffffffff19161491505061263c565b600190505b949350505050565b61264e83836126c7565b61265b60008484846124bc565b61269a576040517f08c379a000000000000000000000000000000000000000000000000000000000815260040161269190613b82565b60405180910390fd5b505050565b505050565b6000808273ffffffffffffffffffffffffffffffffffffffff163b119050919050565b600073ffffffffffffffffffffffffffffffffffffffff168273ffffffffffffffffffffffffffffffffffffffff161415612737576040517f08c379a000000000000000000000000000000000000000000000000000000000815260040161272e9061408f565b60405180910390fd5b61274081611673565b15612780576040517f08c379a0000000000000000000000000000000000000000000000000000000008152600401612777906140fb565b60405180910390fd5b61278c600083836124a7565b6001600360008473ffffffffffffffffffffffffffffffffffffffff1673ffffffffffffffffffffffffffffffffffffffff16815260200190815260200160002060008282546127dc91906139a5565b92505081905550816002600083815260200190815260200160002060006101000a81548173ffffffffffffffffffffffffffffffffffffffff021916908373ffffffffffffffffffffffffffffffffffffffff160217905550808273ffffffffffffffffffffffffffffffffffffffff16600073ffffffffffffffffffffffffffffffffffffffff167fddf252ad1be2c89b69c2b068fc378daa952ba7f163c4a11628f55a4df523b3ef60405160405180910390a461289d600083836124b7565b5050565b8280546128ad90612fd6565b90600052602060002090601f0160209004810192826128cf5760008555612916565b82601f106128e857805160ff1916838001178555612916565b82800160010185558215612916579182015b828111156129155782518255916020019190600101906128fa565b5b5090506129239190612927565b5090565b5b80821115612940576000816000905550600101612928565b5090565b600073ffffffffffffffffffffffffffffffffffffffff82169050919050565b600061296f82612944565b9050919050565b61297f81612964565b82525050565b6000819050919050565b61299881612985565b82525050565b60006040820190506129b36000830185612976565b6129c0602083018461298f565b9392505050565b6000604051905090565b600080fd5b600080fd5b60007fffffffff0000000000000000000000000000000000000000000000000000000082169050919050565b612a10816129db565b8114612a1b57600080fd5b50565b600081359050612a2d81612a07565b92915050565b600060208284031215612a4957612a486129d1565b5b6000612a5784828501612a1e565b91505092915050565b60008115159050919050565b612a7581612a60565b82525050565b6000602082019050612a906000830184612a6c565b92915050565b600081519050919050565b600082825260208201905092915050565b60005b83811015612ad0578082015181840152602081019050612ab5565b83811115612adf576000848401525b50505050565b6000601f19601f8301169050919050565b6000612b0182612a96565b612b0b8185612aa1565b9350612b1b818560208601612ab2565b612b2481612ae5565b840191505092915050565b60006020820190508181036000830152612b498184612af6565b905092915050565b612b5a81612985565b8114612b6557600080fd5b50565b600081359050612b7781612b51565b92915050565b600060208284031215612b9357612b926129d1565b5b6000612ba184828501612b68565b91505092915050565b6000602082019050612bbf6000830184612976565b92915050565b612bce81612964565b8114612bd957600080fd5b50565b600081359050612beb81612bc5565b92915050565b60008060408385031215612c0857612c076129d1565b5b6000612c1685828601612bdc565b9250506020612c2785828601612b68565b9150509250929050565b600080600060608486031215612c4a57612c496129d1565b5b6000612c5886828701612bdc565b9350506020612c6986828701612bdc565b9250506040612c7a86828701612b68565b9150509250925092565b60008060408385031215612c9b57612c9a6129d1565b5b6000612ca985828601612b68565b9250506020612cba85828601612b68565b9150509250929050565b6000602082019050612cd9600083018461298f565b92915050565b600060208284031215612cf557612cf46129d1565b5b6000612d0384828501612bdc565b91505092915050565b612d1581612a60565b8114612d2057600080fd5b50565b600081359050612d3281612d0c565b92915050565b60008060408385031215612d4f57612d4e6129d1565b5b6000612d5d85828601612bdc565b9250506020612d6e85828601612d23565b9150509250929050565b600080fd5b600080fd5b7f4e487b7100000000000000000000000000000000000000000000000000000000600052604160045260246000fd5b612dba82612ae5565b810181811067ffffffffffffffff82111715612dd957612dd8612d82565b5b80604052505050565b6000612dec6129c7565b9050612df88282612db1565b919050565b600067ffffffffffffffff821115612e1857612e17612d82565b5b612e2182612ae5565b9050602081019050919050565b82818337600083830152505050565b6000612e50612e4b84612dfd565b612de2565b905082815260208101848484011115612e6c57612e6b612d7d565b5b612e77848285612e2e565b509392505050565b600082601f830112612e9457612e93612d78565b5b8135612ea4848260208601612e3d565b91505092915050565b60008060008060808587031215612ec757612ec66129d1565b5b6000612ed587828801612bdc565b9450506020612ee687828801612bdc565b9350506040612ef787828801612b68565b925050606085013567ffffffffffffffff811115612f1857612f176129d6565b5b612f2487828801612e7f565b91505092959194509250565b60008060408385031215612f4757612f466129d1565b5b6000612f5585828601612bdc565b9250506020612f6685828601612bdc565b9150509250929050565b6000606082019050612f856000830186612976565b612f92602083018561298f565b612f9f604083018461298f565b949350505050565b7f4e487b7100000000000000000000000000000000000000000000000000000000600052602260045260246000fd5b60006002820490506001821680612fee57607f821691505b6020821081141561300257613001612fa7565b5b50919050565b7f4552433732313a20617070726f76656420717565727920666f72206e6f6e657860008201527f697374656e7420746f6b656e0000000000000000000000000000000000000000602082015250565b6000613064602c83612aa1565b915061306f82613008565b604082019050919050565b6000602082019050818103600083015261309381613057565b9050919050565b7f4552433732313a20617070726f76616c20746f2063757272656e74206f776e6560008201527f7200000000000000000000000000000000000000000000000000000000000000602082015250565b60006130f6602183612aa1565b91506131018261309a565b604082019050919050565b60006020820190508181036000830152613125816130e9565b9050919050565b7f4552433732313a20617070726f76652063616c6c6572206973206e6f74206f7760008201527f6e6572206e6f7220617070726f76656420666f7220616c6c0000000000000000602082015250565b6000613188603883612aa1565b91506131938261312c565b604082019050919050565b600060208201905081810360008301526131b78161317b565b9050919050565b7f4552433732313a207472616e736665722063616c6c6572206973206e6f74206f60008201527f776e6572206e6f7220617070726f766564000000000000000000000000000000602082015250565b600061321a603183612aa1565b9150613225826131be565b604082019050919050565b600060208201905081810360008301526132498161320d565b9050919050565b7f4552433732313a206f776e657220717565727920666f72206e6f6e657869737460008201527f656e7420746f6b656e0000000000000000000000000000000000000000000000602082015250565b60006132ac602983612aa1565b91506132b782613250565b604082019050919050565b600060208201905081810360008301526132db8161329f565b9050919050565b7f4552433732313a2062616c616e636520717565727920666f7220746865207a6560008201527f726f206164647265737300000000000000000000000000000000000000000000602082015250565b600061333e602a83612aa1565b9150613349826132e2565b604082019050919050565b6000602082019050818103600083015261336d81613331565b9050919050565b7f4f776e61626c653a2063616c6c6572206973206e6f7420746865206f776e6572600082015250565b60006133aa602083612aa1565b91506133b582613374565b602082019050919050565b600060208201905081810360008301526133d98161339d565b9050919050565b7f4e487b7100000000000000000000000000000000000000000000000000000000600052601260045260246000fd5b7f4e487b7100000000000000000000000000000000000000000000000000000000600052601160045260246000fd5b600061344982612985565b915061345483612985565b925082613464576134636133e0565b5b828204905092915050565b600061347a82612985565b915061348583612985565b9250817fffffffffffffffffffffffffffffffffffffffffffffffffffffffffffffffff04831182151516156134be576134bd61340f565b5b828202905092915050565b7f45524337323155524953746f726167653a2055524920717565727920666f722060008201527f6e6f6e6578697374656e7420746f6b656e000000000000000000000000000000602082015250565b6000613525603183612aa1565b9150613530826134c9565b604082019050919050565b6000602082019050818103600083015261355481613518565b9050919050565b600081905092915050565b600061357182612a96565b61357b818561355b565b935061358b818560208601612ab2565b80840191505092915050565b60006135a38285613566565b91506135af8284613566565b91508190509392505050565b7f4e65656420746f2073656e6420302e3132206574686572206f72206d6f726500600082015250565b60006135f1601f83612aa1565b91506135fc826135bb565b602082019050919050565b60006020820190508181036000830152613620816135e4565b9050919050565b7f4e65656420746f2073656e6420302e3139206574686572206f72206d6f726500600082015250565b600061365d601f83612aa1565b915061366882613627565b602082019050919050565b6000602082019050818103600083015261368c81613650565b9050919050565b7f4e65656420746f2073656e6420302e35206574686572206f72206d6f72650000600082015250565b60006136c9601e83612aa1565b91506136d482613693565b602082019050919050565b600060208201905081810360008301526136f8816136bc565b9050919050565b600061370a82612985565b9150600082141561371e5761371d61340f565b5b600182039050919050565b7f4f776e61626c653a206e6577206f776e657220697320746865207a65726f206160008201527f6464726573730000000000000000000000000000000000000000000000000000602082015250565b6000613785602683612aa1565b915061379082613729565b604082019050919050565b600060208201905081810360008301526137b481613778565b9050919050565b7f4552433732313a206f70657261746f7220717565727920666f72206e6f6e657860008201527f697374656e7420746f6b656e0000000000000000000000000000000000000000602082015250565b6000613817602c83612aa1565b9150613822826137bb565b604082019050919050565b600060208201905081810360008301526138468161380a565b9050919050565b7f4552433732313a207472616e736665722066726f6d20696e636f72726563742060008201527f6f776e6572000000000000000000000000000000000000000000000000000000602082015250565b60006138a9602583612aa1565b91506138b48261384d565b604082019050919050565b600060208201905081810360008301526138d88161389c565b9050919050565b7f4552433732313a207472616e7366657220746f20746865207a65726f2061646460008201527f7265737300000000000000000000000000000000000000000000000000000000602082015250565b600061393b602483612aa1565b9150613946826138df565b604082019050919050565b6000602082019050818103600083015261396a8161392e565b9050919050565b600061397c82612985565b915061398783612985565b92508282101561399a5761399961340f565b5b828203905092915050565b60006139b082612985565b91506139bb83612985565b9250827fffffffffffffffffffffffffffffffffffffffffffffffffffffffffffffffff038211156139f0576139ef61340f565b5b828201905092915050565b6000613a0682612985565b91507fffffffffffffffffffffffffffffffffffffffffffffffffffffffffffffffff821415613a3957613a3861340f565b5b600182019050919050565b6000613a4f82612985565b9150613a5a83612985565b925082613a6a57613a696133e0565b5b828206905092915050565b7f4e487b7100000000000000000000000000000000000000000000000000000000600052603260045260246000fd5b7f4552433732313a20617070726f766520746f2063616c6c657200000000000000600082015250565b6000613ada601983612aa1565b9150613ae582613aa4565b602082019050919050565b60006020820190508181036000830152613b0981613acd565b9050919050565b7f4552433732313a207472616e7366657220746f206e6f6e20455243373231526560008201527f63656976657220696d706c656d656e7465720000000000000000000000000000602082015250565b6000613b6c603283612aa1565b9150613b7782613b10565b604082019050919050565b60006020820190508181036000830152613b9b81613b5f565b9050919050565b7f4552433732314d657461646174613a2055524920717565727920666f72206e6f60008201527f6e6578697374656e7420746f6b656e0000000000000000000000000000000000602082015250565b6000613bfe602f83612aa1565b9150613c0982613ba2565b604082019050919050565b60006020820190508181036000830152613c2d81613bf1565b9050919050565b6000604082019050613c496000830185612976565b8181036020830152613c5b8184612af6565b90509392505050565b6000604082019050613c79600083018561298f565b8181036020830152613c8b8184612af6565b90509392505050565b7f45524337323155524953746f726167653a2055524920736574206f66206e6f6e60008201527f6578697374656e7420746f6b656e000000000000000000000000000000000000602082015250565b6000613cf0602e83612aa1565b9150613cfb82613c94565b604082019050919050565b60006020820190508181036000830152613d1f81613ce3565b9050919050565b60006060820190508181036000830152613d408186612af6565b9050613d4f602083018561298f565b613d5c604083018461298f565b949350505050565b7f547279696e6720746f207769746864726177206d6f7265206d6f6e657920746860008201527f616e2074686520636f6e7472616374206861732e000000000000000000000000602082015250565b6000613dc0603483612aa1565b9150613dcb82613d64565b604082019050919050565b60006020820190508181036000830152613def81613db3565b9050919050565b600081905092915050565b50565b6000613e11600083613df6565b9150613e1c82613e01565b600082019050919050565b6000613e3282613e04565b9150819050919050565b7f4661696c656420746f207769746864726177206d6f6e65792066726f6d20636f60008201527f6e747261637420666f7220416262790000000000000000000000000000000000602082015250565b6000613e98602f83612aa1565b9150613ea382613e3c565b604082019050919050565b60006020820190508181036000830152613ec781613e8b565b9050919050565b7f4661696c656420746f207769746864726177206d6f6e65792066726f6d20636f60008201527f6e747261637420666f7220416d69796100000000000000000000000000000000602082015250565b6000613f2a603083612aa1565b9150613f3582613ece565b604082019050919050565b60006020820190508181036000830152613f5981613f1d565b9050919050565b600081519050919050565b600082825260208201905092915050565b6000613f8782613f60565b613f918185613f6b565b9350613fa1818560208601612ab2565b613faa81612ae5565b840191505092915050565b6000608082019050613fca6000830187612976565b613fd76020830186612976565b613fe4604083018561298f565b8181036060830152613ff68184613f7c565b905095945050505050565b60008151905061401081612a07565b92915050565b60006020828403121561402c5761402b6129d1565b5b600061403a84828501614001565b91505092915050565b7f4552433732313a206d696e7420746f20746865207a65726f2061646472657373600082015250565b6000614079602083612aa1565b915061408482614043565b602082019050919050565b600060208201905081810360008301526140a88161406c565b9050919050565b7f4552433732313a20746f6b656e20616c7265616479206d696e74656400000000600082015250565b60006140e5601c83612aa1565b91506140f0826140af565b602082019050919050565b60006020820190508181036000830152614114816140d8565b905091905056fe416e204e465420772f20494420257320686173206265656e206d696e74656420746f202573a2646970667358221220da52d60050395e04da75d5b37a85d58a13455779c9676ff36a6579725c19700364736f6c634300080a0033",
  "linkReferences": {},
  "deployedLinkReferences": {}
}