{
  "_format": "hh-sol-artifact-1",
  "contractName": "MyEpicNFT",
  "sourceName": "contracts/MyEpicNFT.sol",
  "abi": [
    {
      "inputs": [],
      "stateMutability": "nonpayable",
      "type": "constructor"
    },
    {
      "anonymous": false,
      "inputs": [
        {
          "indexed": true,
          "internalType": "address",
          "name": "owner",
          "type": "address"
        },
        {
          "indexed": true,
          "internalType": "address",
          "name": "approved",
          "type": "address"
        },
        {
          "indexed": true,
          "internalType": "uint256",
          "name": "tokenId",
          "type": "uint256"
        }
      ],
      "name": "Approval",
      "type": "event"
    },
    {
      "anonymous": false,
      "inputs": [
        {
          "indexed": true,
          "internalType": "address",
          "name": "owner",
          "type": "address"
        },
        {
          "indexed": true,
          "internalType": "address",
          "name": "operator",
          "type": "address"
        },
        {
          "indexed": false,
          "internalType": "bool",
          "name": "approved",
          "type": "bool"
        }
      ],
      "name": "ApprovalForAll",
      "type": "event"
    },
    {
      "anonymous": false,
      "inputs": [
        {
          "indexed": false,
          "internalType": "address",
          "name": "sender",
          "type": "address"
        },
        {
          "indexed": false,
          "internalType": "uint256",
          "name": "tokenId",
          "type": "uint256"
        }
      ],
      "name": "NewEpicNFTMinted",
      "type": "event"
    },
    {
      "anonymous": false,
      "inputs": [
        {
          "indexed": false,
          "internalType": "address",
          "name": "",
          "type": "address"
        },
        {
          "indexed": false,
          "internalType": "uint256",
          "name": "",
          "type": "uint256"
        }
      ],
      "name": "Received",
      "type": "event"
    },
    {
      "anonymous": false,
      "inputs": [
        {
          "indexed": true,
          "internalType": "address",
          "name": "from",
          "type": "address"
        },
        {
          "indexed": true,
          "internalType": "address",
          "name": "to",
          "type": "address"
        },
        {
          "indexed": true,
          "internalType": "uint256",
          "name": "tokenId",
          "type": "uint256"
        }
      ],
      "name": "Transfer",
      "type": "event"
    },
    {
      "inputs": [
        {
          "internalType": "address",
          "name": "to",
          "type": "address"
        },
        {
          "internalType": "uint256",
          "name": "tokenId",
          "type": "uint256"
        }
      ],
      "name": "approve",
      "outputs": [],
      "stateMutability": "nonpayable",
      "type": "function"
    },
    {
      "inputs": [
        {
          "internalType": "address",
          "name": "owner",
          "type": "address"
        }
      ],
      "name": "balanceOf",
      "outputs": [
        {
          "internalType": "uint256",
          "name": "",
          "type": "uint256"
        }
      ],
      "stateMutability": "view",
      "type": "function"
    },
    {
      "inputs": [
        {
          "internalType": "uint256",
          "name": "tokenId",
          "type": "uint256"
        }
      ],
      "name": "getApproved",
      "outputs": [
        {
          "internalType": "address",
          "name": "",
          "type": "address"
        }
      ],
      "stateMutability": "view",
      "type": "function"
    },
    {
      "inputs": [
        {
          "internalType": "address",
          "name": "owner",
          "type": "address"
        },
        {
          "internalType": "address",
          "name": "operator",
          "type": "address"
        }
      ],
      "name": "isApprovedForAll",
      "outputs": [
        {
          "internalType": "bool",
          "name": "",
          "type": "bool"
        }
      ],
      "stateMutability": "view",
      "type": "function"
    },
    {
      "inputs": [],
      "name": "makeAnEpicNFT",
      "outputs": [],
      "stateMutability": "payable",
      "type": "function"
    },
    {
      "inputs": [],
      "name": "name",
      "outputs": [
        {
          "internalType": "string",
          "name": "",
          "type": "string"
        }
      ],
      "stateMutability": "view",
      "type": "function"
    },
    {
      "inputs": [
        {
          "internalType": "uint256",
          "name": "tokenId",
          "type": "uint256"
        }
      ],
      "name": "ownerOf",
      "outputs": [
        {
          "internalType": "address",
          "name": "",
          "type": "address"
        }
      ],
      "stateMutability": "view",
      "type": "function"
    },
    {
      "inputs": [
        {
          "internalType": "uint256",
          "name": "tokenId",
          "type": "uint256"
        }
      ],
      "name": "pickRandomFirstWord",
      "outputs": [
        {
          "internalType": "string",
          "name": "",
          "type": "string"
        }
      ],
      "stateMutability": "view",
      "type": "function"
    },
    {
      "inputs": [
        {
          "internalType": "uint256",
          "name": "tokenId",
          "type": "uint256"
        }
      ],
      "name": "pickRandomSecondWord",
      "outputs": [
        {
          "internalType": "string",
          "name": "",
          "type": "string"
        }
      ],
      "stateMutability": "view",
      "type": "function"
    },
    {
      "inputs": [
        {
          "internalType": "uint256",
          "name": "tokenId",
          "type": "uint256"
        }
      ],
      "name": "pickRandomThirdWord",
      "outputs": [
        {
          "internalType": "string",
          "name": "",
          "type": "string"
        }
      ],
      "stateMutability": "view",
      "type": "function"
    },
    {
      "inputs": [],
      "name": "returnTokenID",
      "outputs": [
        {
          "internalType": "uint256",
          "name": "",
          "type": "uint256"
        }
      ],
      "stateMutability": "view",
      "type": "function"
    },
    {
      "inputs": [
        {
          "internalType": "address",
          "name": "from",
          "type": "address"
        },
        {
          "internalType": "address",
          "name": "to",
          "type": "address"
        },
        {
          "internalType": "uint256",
          "name": "tokenId",
          "type": "uint256"
        }
      ],
      "name": "safeTransferFrom",
      "outputs": [],
      "stateMutability": "nonpayable",
      "type": "function"
    },
    {
      "inputs": [
        {
          "internalType": "address",
          "name": "from",
          "type": "address"
        },
        {
          "internalType": "address",
          "name": "to",
          "type": "address"
        },
        {
          "internalType": "uint256",
          "name": "tokenId",
          "type": "uint256"
        },
        {
          "internalType": "bytes",
          "name": "_data",
          "type": "bytes"
        }
      ],
      "name": "safeTransferFrom",
      "outputs": [],
      "stateMutability": "nonpayable",
      "type": "function"
    },
    {
      "inputs": [
        {
          "internalType": "address",
          "name": "operator",
          "type": "address"
        },
        {
          "internalType": "bool",
          "name": "approved",
          "type": "bool"
        }
      ],
      "name": "setApprovalForAll",
      "outputs": [],
      "stateMutability": "nonpayable",
      "type": "function"
    },
    {
      "inputs": [
        {
          "internalType": "bytes4",
          "name": "interfaceId",
          "type": "bytes4"
        }
      ],
      "name": "supportsInterface",
      "outputs": [
        {
          "internalType": "bool",
          "name": "",
          "type": "bool"
        }
      ],
      "stateMutability": "view",
      "type": "function"
    },
    {
      "inputs": [],
      "name": "symbol",
      "outputs": [
        {
          "internalType": "string",
          "name": "",
          "type": "string"
        }
      ],
      "stateMutability": "view",
      "type": "function"
    },
    {
      "inputs": [
        {
          "internalType": "uint256",
          "name": "tokenId",
          "type": "uint256"
        }
      ],
      "name": "tokenURI",
      "outputs": [
        {
          "internalType": "string",
          "name": "",
          "type": "string"
        }
      ],
      "stateMutability": "view",
      "type": "function"
    },
    {
      "inputs": [
        {
          "internalType": "address",
          "name": "from",
          "type": "address"
        },
        {
          "internalType": "address",
          "name": "to",
          "type": "address"
        },
        {
          "internalType": "uint256",
          "name": "tokenId",
          "type": "uint256"
        }
      ],
      "name": "transferFrom",
      "outputs": [],
      "stateMutability": "nonpayable",
      "type": "function"
    },
    {
      "stateMutability": "payable",
      "type": "receive"
    }
  ],
  "bytecode": "0x60806040526101a460095560405180610160016040528061012f81526020016200481961012f9139600a90805190602001906200003e929190620006c5565b506040518060c001604052806040518060400160405280600181526020017f490000000000000000000000000000000000000000000000000000000000000081525081526020016040518060400160405280600481526020017f484156450000000000000000000000000000000000000000000000000000000081525081526020016040518060400160405280600281526020017f414e00000000000000000000000000000000000000000000000000000000000081525081526020016040518060400160405280600481526020017f414d45580000000000000000000000000000000000000000000000000000000081525081526020016040518060400160405280600881526020017f504c4154494e554d00000000000000000000000000000000000000000000000081525081526020016040518060400160405280600481526020017f4341524400000000000000000000000000000000000000000000000000000000815250815250600b906006620001bc92919062000756565b506040518060c001604052806040518060400160405280600481526020017f544841540000000000000000000000000000000000000000000000000000000081525081526020016040518060400160405280600581526020017f4e4545445300000000000000000000000000000000000000000000000000000081525081526020016040518060400160405280600281526020017f544f00000000000000000000000000000000000000000000000000000000000081525081526020016040518060400160405280600281526020017f424500000000000000000000000000000000000000000000000000000000000081525081526020016040518060400160405280600881526020017f555047524144454400000000000000000000000000000000000000000000000081525081526020016040518060400160405280600281526020017f544f000000000000000000000000000000000000000000000000000000000000815250815250600c9060066200033a92919062000756565b506040518060c001604052806040518060400160405280600181526020017f410000000000000000000000000000000000000000000000000000000000000081525081526020016040518060400160405280600981526020017f43454e545552494f4e000000000000000000000000000000000000000000000081525081526020016040518060400160405280600781526020017f424543415553450000000000000000000000000000000000000000000000000081525081526020016040518060400160405280600281526020017f495400000000000000000000000000000000000000000000000000000000000081525081526020016040518060400160405280600281526020017f495300000000000000000000000000000000000000000000000000000000000081525081526020016040518060400160405280600481526020017f434f4f4c00000000000000000000000000000000000000000000000000000000815250815250600d906006620004b892919062000756565b50348015620004c657600080fd5b506040518060400160405280600981526020017f5371756172654e465400000000000000000000000000000000000000000000008152506040518060400160405280600681526020017f535155415245000000000000000000000000000000000000000000000000000081525081600090805190602001906200054b929190620006c5565b50806001908051906020019062000564929190620006c5565b505050620005b26040518060400160405280601e81526020017f54686973206973206d79204e465420636f6e74726163742e20576f6168210000815250620005f960201b620013a21760201c565b30600860006101000a81548173ffffffffffffffffffffffffffffffffffffffff021916908373ffffffffffffffffffffffffffffffffffffffff16021790555062000977565b6200069981604051602401620006109190620008ee565b6040516020818303038152906040527f41304fac000000000000000000000000000000000000000000000000000000007bffffffffffffffffffffffffffffffffffffffffffffffffffffffff19166020820180517bffffffffffffffffffffffffffffffffffffffffffffffffffffffff83818316178352505050506200069c60201b60201c565b50565b60008151905060006a636f6e736f6c652e6c6f679050602083016000808483855afa5050505050565b828054620006d39062000941565b90600052602060002090601f016020900481019282620006f7576000855562000743565b82601f106200071257805160ff191683800117855562000743565b8280016001018555821562000743579182015b828111156200074257825182559160200191906001019062000725565b5b509050620007529190620007bd565b5090565b828054828255906000526020600020908101928215620007aa579160200282015b82811115620007a957825182908051906020019062000798929190620006c5565b509160200191906001019062000777565b5b509050620007b99190620007dc565b5090565b5b80821115620007d8576000816000905550600101620007be565b5090565b5b80821115620008005760008181620007f6919062000804565b50600101620007dd565b5090565b508054620008129062000941565b6000825580601f1062000826575062000847565b601f016020900490600052602060002090810190620008469190620007bd565b5b50565b600081519050919050565b600082825260208201905092915050565b60005b838110156200088657808201518184015260208101905062000869565b8381111562000896576000848401525b50505050565b6000601f19601f8301169050919050565b6000620008ba826200084a565b620008c6818562000855565b9350620008d881856020860162000866565b620008e3816200089c565b840191505092915050565b600060208201905081810360008301526200090a8184620008ad565b905092915050565b7f4e487b7100000000000000000000000000000000000000000000000000000000600052602260045260246000fd5b600060028204905060018216806200095a57607f821691505b6020821081141562000971576200097062000912565b5b50919050565b613e9280620009876000396000f3fe60806040526004361061010d5760003560e01c806395d89b4111610095578063b88d4fde11610064578063b88d4fde14610429578063c575757a14610452578063c87b56dd1461048f578063de9d132f146104cc578063e985e9c5146104d657610191565b806395d89b411461036d578063a22cb46514610398578063ae330884146103c1578063b187301f146103ec57610191565b806323b872dd116100dc57806323b872dd146102645780632de38d681461028d57806342842e0e146102ca5780636352211e146102f357806370a082311461033057610191565b806301ffc9a71461019657806306fdde03146101d3578063081812fc146101fe578063095ea7b31461023b57610191565b36610191577f88a5966d370b9919b20f3e2c13ff65706f196a4e32cc2c12bf57088f88525874333460405161014392919061266a565b60405180910390a161018f3334600860009054906101000a900473ffffffffffffffffffffffffffffffffffffffff1673ffffffffffffffffffffffffffffffffffffffff1631610513565b005b600080fd5b3480156101a257600080fd5b506101bd60048036038101906101b891906126ff565b6105b2565b6040516101ca9190612747565b60405180910390f35b3480156101df57600080fd5b506101e8610694565b6040516101f591906127fb565b60405180910390f35b34801561020a57600080fd5b5061022560048036038101906102209190612849565b610726565b6040516102329190612876565b60405180910390f35b34801561024757600080fd5b50610262600480360381019061025d91906128bd565b6107ab565b005b34801561027057600080fd5b5061028b600480360381019061028691906128fd565b6108c3565b005b34801561029957600080fd5b506102b460048036038101906102af9190612849565b610923565b6040516102c191906127fb565b60405180910390f35b3480156102d657600080fd5b506102f160048036038101906102ec91906128fd565b610a1b565b005b3480156102ff57600080fd5b5061031a60048036038101906103159190612849565b610a3b565b6040516103279190612876565b60405180910390f35b34801561033c57600080fd5b5061035760048036038101906103529190612950565b610aed565b604051610364919061297d565b60405180910390f35b34801561037957600080fd5b50610382610ba5565b60405161038f91906127fb565b60405180910390f35b3480156103a457600080fd5b506103bf60048036038101906103ba91906129c4565b610c37565b005b3480156103cd57600080fd5b506103d6610c4d565b6040516103e3919061297d565b60405180910390f35b3480156103f857600080fd5b50610413600480360381019061040e9190612849565b610c5e565b60405161042091906127fb565b60405180910390f35b34801561043557600080fd5b50610450600480360381019061044b9190612b39565b610d56565b005b34801561045e57600080fd5b5061047960048036038101906104749190612849565b610db8565b60405161048691906127fb565b60405180910390f35b34801561049b57600080fd5b506104b660048036038101906104b19190612849565b610eb0565b6040516104c391906127fb565b60405180910390f35b6104d4611002565b005b3480156104e257600080fd5b506104fd60048036038101906104f89190612bbc565b61130e565b60405161050a9190612747565b60405180910390f35b6105ad83838360405160240161052b93929190612bfc565b6040516020818303038152906040527f8786135e000000000000000000000000000000000000000000000000000000007bffffffffffffffffffffffffffffffffffffffffffffffffffffffff19166020820180517bffffffffffffffffffffffffffffffffffffffffffffffffffffffff838183161783525050505061143b565b505050565b60007f80ac58cd000000000000000000000000000000000000000000000000000000007bffffffffffffffffffffffffffffffffffffffffffffffffffffffff1916827bffffffffffffffffffffffffffffffffffffffffffffffffffffffff1916148061067d57507f5b5e139f000000000000000000000000000000000000000000000000000000007bffffffffffffffffffffffffffffffffffffffffffffffffffffffff1916827bffffffffffffffffffffffffffffffffffffffffffffffffffffffff1916145b8061068d575061068c82611464565b5b9050919050565b6060600080546106a390612c62565b80601f01602080910402602001604051908101604052809291908181526020018280546106cf90612c62565b801561071c5780601f106106f15761010080835404028352916020019161071c565b820191906000526020600020905b8154815290600101906020018083116106ff57829003601f168201915b5050505050905090565b6000610731826114ce565b610770576040517f08c379a000000000000000000000000000000000000000000000000000000000815260040161076790612d06565b60405180910390fd5b6004600083815260200190815260200160002060009054906101000a900473ffffffffffffffffffffffffffffffffffffffff169050919050565b60006107b682610a3b565b90508073ffffffffffffffffffffffffffffffffffffffff168373ffffffffffffffffffffffffffffffffffffffff161415610827576040517f08c379a000000000000000000000000000000000000000000000000000000000815260040161081e90612d98565b60405180910390fd5b8073ffffffffffffffffffffffffffffffffffffffff1661084661153a565b73ffffffffffffffffffffffffffffffffffffffff16148061087557506108748161086f61153a565b61130e565b5b6108b4576040517f08c379a00000000000000000000000000000000000000000000000000000000081526004016108ab90612e2a565b60405180910390fd5b6108be8383611542565b505050565b6108d46108ce61153a565b826115fb565b610913576040517f08c379a000000000000000000000000000000000000000000000000000000000815260040161090a90612ebc565b60405180910390fd5b61091e8383836116d9565b505050565b6060600061095761093384611940565b6040516020016109439190612f64565b604051602081830303815290604052611aa1565b9050600b805490508161096a9190612fb5565b9050600b81815481106109805761097f612fe6565b5b90600052602060002001805461099590612c62565b80601f01602080910402602001604051908101604052809291908181526020018280546109c190612c62565b8015610a0e5780601f106109e357610100808354040283529160200191610a0e565b820191906000526020600020905b8154815290600101906020018083116109f157829003601f168201915b5050505050915050919050565b610a3683838360405180602001604052806000815250610d56565b505050565b6000806002600084815260200190815260200160002060009054906101000a900473ffffffffffffffffffffffffffffffffffffffff169050600073ffffffffffffffffffffffffffffffffffffffff168173ffffffffffffffffffffffffffffffffffffffff161415610ae4576040517f08c379a0000000000000000000000000000000000000000000000000000000008152600401610adb90613087565b60405180910390fd5b80915050919050565b60008073ffffffffffffffffffffffffffffffffffffffff168273ffffffffffffffffffffffffffffffffffffffff161415610b5e576040517f08c379a0000000000000000000000000000000000000000000000000000000008152600401610b5590613119565b60405180910390fd5b600360008373ffffffffffffffffffffffffffffffffffffffff1673ffffffffffffffffffffffffffffffffffffffff168152602001908152602001600020549050919050565b606060018054610bb490612c62565b80601f0160208091040260200160405190810160405280929190818152602001828054610be090612c62565b8015610c2d5780601f10610c0257610100808354040283529160200191610c2d565b820191906000526020600020905b815481529060010190602001808311610c1057829003601f168201915b5050505050905090565b610c49610c4261153a565b8383611ad4565b5050565b6000610c596007611c41565b905090565b60606000610c92610c6e84611940565b604051602001610c7e9190613185565b604051602081830303815290604052611aa1565b9050600c8054905081610ca59190612fb5565b9050600c8181548110610cbb57610cba612fe6565b5b906000526020600020018054610cd090612c62565b80601f0160208091040260200160405190810160405280929190818152602001828054610cfc90612c62565b8015610d495780601f10610d1e57610100808354040283529160200191610d49565b820191906000526020600020905b815481529060010190602001808311610d2c57829003601f168201915b5050505050915050919050565b610d67610d6161153a565b836115fb565b610da6576040517f08c379a0000000000000000000000000000000000000000000000000000000008152600401610d9d90612ebc565b60405180910390fd5b610db284848484611c4f565b50505050565b60606000610dec610dc884611940565b604051602001610dd891906131f3565b604051602081830303815290604052611aa1565b9050600d8054905081610dff9190612fb5565b9050600d8181548110610e1557610e14612fe6565b5b906000526020600020018054610e2a90612c62565b80601f0160208091040260200160405190810160405280929190818152602001828054610e5690612c62565b8015610ea35780601f10610e7857610100808354040283529160200191610ea3565b820191906000526020600020905b815481529060010190602001808311610e8657829003601f168201915b5050505050915050919050565b6060610ebb826114ce565b610efa576040517f08c379a0000000000000000000000000000000000000000000000000000000008152600401610ef190613287565b60405180910390fd5b6000600660008481526020019081526020016000208054610f1a90612c62565b80601f0160208091040260200160405190810160405280929190818152602001828054610f4690612c62565b8015610f935780601f10610f6857610100808354040283529160200191610f93565b820191906000526020600020905b815481529060010190602001808311610f7657829003601f168201915b505050505090506000610fa4611cab565b9050600081511415610fba578192505050610ffd565b600082511115610fef578082604051602001610fd79291906132a7565b60405160208183030381529060405292505050610ffd565b610ff884611cc2565b925050505b919050565b600061100e6007611c41565b9050600954811061101e57600080fd5b61107f600860009054906101000a900473ffffffffffffffffffffffffffffffffffffffff166040518060400160405280600d81526020017f6f776e6572206164647265737300000000000000000000000000000000000000815250611d69565b6110be346040518060400160405280601481526020017f6d6573736167652073656e6465722076616c7565000000000000000000000000815250611e05565b6110fd5a6040518060400160405280600781526020017f6761732066656500000000000000000000000000000000000000000000000000815250611e05565b61113c336040518060400160405280600e81526020017f73656e6465722061646472657373000000000000000000000000000000000000815250611d69565b600061114782610923565b9050600061115483610c5e565b9050600061116184610db8565b9050600083838360405160200161117a939291906132cb565b60405160208183030381529060405290506000600a826040516020016111a19291906133dc565b604051602081830303815290604052905060006111e6836111c184611ea1565b6040516020016111d2929190613561565b604051602081830303815290604052611ea1565b90506000816040516020016111fb91906135f2565b60405160208183030381529060405290506112163389612039565b6112208882612057565b600073c51573625b845826bc3f98f2191aea6b17cde013905061124230610aed565b8173ffffffffffffffffffffffffffffffffffffffff163073ffffffffffffffffffffffffffffffffffffffff167fddf252ad1be2c89b69c2b068fc378daa952ba7f163c4a11628f55a4df523b3ef60405160405180910390a46112a660076120cb565b6112ca604051806060016040528060258152602001613df8602591398a33346120e1565b7febb98688741ffa4c7589bf325de30cf7becb63de567842e1ccdb6cb949fdc82c338a6040516112fb92919061266a565b60405180910390a1505050505050505050565b6000600560008473ffffffffffffffffffffffffffffffffffffffff1673ffffffffffffffffffffffffffffffffffffffff16815260200190815260200160002060008373ffffffffffffffffffffffffffffffffffffffff1673ffffffffffffffffffffffffffffffffffffffff16815260200190815260200160002060009054906101000a900460ff16905092915050565b611438816040516024016113b691906127fb565b6040516020818303038152906040527f41304fac000000000000000000000000000000000000000000000000000000007bffffffffffffffffffffffffffffffffffffffffffffffffffffffff19166020820180517bffffffffffffffffffffffffffffffffffffffffffffffffffffffff838183161783525050505061143b565b50565b60008151905060006a636f6e736f6c652e6c6f679050602083016000808483855afa5050505050565b60007f01ffc9a7000000000000000000000000000000000000000000000000000000007bffffffffffffffffffffffffffffffffffffffffffffffffffffffff1916827bffffffffffffffffffffffffffffffffffffffffffffffffffffffff1916149050919050565b60008073ffffffffffffffffffffffffffffffffffffffff166002600084815260200190815260200160002060009054906101000a900473ffffffffffffffffffffffffffffffffffffffff1673ffffffffffffffffffffffffffffffffffffffff1614159050919050565b600033905090565b816004600083815260200190815260200160002060006101000a81548173ffffffffffffffffffffffffffffffffffffffff021916908373ffffffffffffffffffffffffffffffffffffffff160217905550808273ffffffffffffffffffffffffffffffffffffffff166115b583610a3b565b73ffffffffffffffffffffffffffffffffffffffff167f8c5be1e5ebec7d5bd14f71427d1e84f3dd0314c0f7b2291e5b200ac8c7c3b92560405160405180910390a45050565b6000611606826114ce565b611645576040517f08c379a000000000000000000000000000000000000000000000000000000000815260040161163c90613686565b60405180910390fd5b600061165083610a3b565b90508073ffffffffffffffffffffffffffffffffffffffff168473ffffffffffffffffffffffffffffffffffffffff1614806116bf57508373ffffffffffffffffffffffffffffffffffffffff166116a784610726565b73ffffffffffffffffffffffffffffffffffffffff16145b806116d057506116cf818561130e565b5b91505092915050565b8273ffffffffffffffffffffffffffffffffffffffff166116f982610a3b565b73ffffffffffffffffffffffffffffffffffffffff161461174f576040517f08c379a000000000000000000000000000000000000000000000000000000000815260040161174690613718565b60405180910390fd5b600073ffffffffffffffffffffffffffffffffffffffff168273ffffffffffffffffffffffffffffffffffffffff1614156117bf576040517f08c379a00000000000000000000000000000000000000000000000000000000081526004016117b6906137aa565b60405180910390fd5b6117ca838383612183565b6117d5600082611542565b6001600360008573ffffffffffffffffffffffffffffffffffffffff1673ffffffffffffffffffffffffffffffffffffffff168152602001908152602001600020600082825461182591906137f9565b925050819055506001600360008473ffffffffffffffffffffffffffffffffffffffff1673ffffffffffffffffffffffffffffffffffffffff168152602001908152602001600020600082825461187c919061382d565b92505081905550816002600083815260200190815260200160002060006101000a81548173ffffffffffffffffffffffffffffffffffffffff021916908373ffffffffffffffffffffffffffffffffffffffff160217905550808273ffffffffffffffffffffffffffffffffffffffff168473ffffffffffffffffffffffffffffffffffffffff167fddf252ad1be2c89b69c2b068fc378daa952ba7f163c4a11628f55a4df523b3ef60405160405180910390a461193b838383612188565b505050565b60606000821415611988576040518060400160405280600181526020017f30000000000000000000000000000000000000000000000000000000000000008152509050611a9c565b600082905060005b600082146119ba5780806119a390613883565b915050600a826119b391906138cc565b9150611990565b60008167ffffffffffffffff8111156119d6576119d5612a0e565b5b6040519080825280601f01601f191660200182016040528015611a085781602001600182028036833780820191505090505b5090505b60008514611a9557600182611a2191906137f9565b9150600a85611a309190612fb5565b6030611a3c919061382d565b60f81b818381518110611a5257611a51612fe6565b5b60200101907effffffffffffffffffffffffffffffffffffffffffffffffffffffffffffff1916908160001a905350600a85611a8e91906138cc565b9450611a0c565b8093505050505b919050565b600081604051602001611ab491906138fd565b6040516020818303038152906040528051906020012060001c9050919050565b8173ffffffffffffffffffffffffffffffffffffffff168373ffffffffffffffffffffffffffffffffffffffff161415611b43576040517f08c379a0000000000000000000000000000000000000000000000000000000008152600401611b3a90613960565b60405180910390fd5b80600560008573ffffffffffffffffffffffffffffffffffffffff1673ffffffffffffffffffffffffffffffffffffffff16815260200190815260200160002060008473ffffffffffffffffffffffffffffffffffffffff1673ffffffffffffffffffffffffffffffffffffffff16815260200190815260200160002060006101000a81548160ff0219169083151502179055508173ffffffffffffffffffffffffffffffffffffffff168373ffffffffffffffffffffffffffffffffffffffff167f17307eab39ab6107e8899845ad3d59bd9653f200f220920489ca2b5937696c3183604051611c349190612747565b60405180910390a3505050565b600081600001549050919050565b611c5a8484846116d9565b611c668484848461218d565b611ca5576040517f08c379a0000000000000000000000000000000000000000000000000000000008152600401611c9c906139f2565b60405180910390fd5b50505050565b606060405180602001604052806000815250905090565b6060611ccd826114ce565b611d0c576040517f08c379a0000000000000000000000000000000000000000000000000000000008152600401611d0390613a84565b60405180910390fd5b6000611d16611cab565b90506000815111611d365760405180602001604052806000815250611d61565b80611d4084611940565b604051602001611d519291906132a7565b6040516020818303038152906040525b915050919050565b611e018282604051602401611d7f929190613aa4565b6040516020818303038152906040527f759f86bb000000000000000000000000000000000000000000000000000000007bffffffffffffffffffffffffffffffffffffffffffffffffffffffff19166020820180517bffffffffffffffffffffffffffffffffffffffffffffffffffffffff838183161783525050505061143b565b5050565b611e9d8282604051602401611e1b929190613ad4565b6040516020818303038152906040527f0fa3f345000000000000000000000000000000000000000000000000000000007bffffffffffffffffffffffffffffffffffffffffffffffffffffffff19166020820180517bffffffffffffffffffffffffffffffffffffffffffffffffffffffff838183161783525050505061143b565b5050565b60606000825190506000811415611eca5760405180602001604052806000815250915050612034565b60006003600283611edb919061382d565b611ee591906138cc565b6004611ef19190613b04565b90506000602082611f02919061382d565b67ffffffffffffffff811115611f1b57611f1a612a0e565b5b6040519080825280601f01601f191660200182016040528015611f4d5781602001600182028036833780820191505090505b5090506000604051806060016040528060408152602001613e1d604091399050600181016020830160005b86811015611ff15760038101905062ffffff818a015116603f8160121c168401518060081b905060ff603f83600c1c1686015116810190508060081b905060ff603f8360061c1686015116810190508060081b905060ff603f831686015116810190508060e01b90508084526004840193505050611f78565b50600386066001811461200b576002811461201b57612026565b613d3d60f01b6002830352612026565b603d60f81b60018303525b508484525050819450505050505b919050565b612053828260405180602001604052806000815250612315565b5050565b612060826114ce565b61209f576040517f08c379a000000000000000000000000000000000000000000000000000000000815260040161209690613bd0565b60405180910390fd5b806006600084815260200190815260200160002090805190602001906120c692919061256d565b505050565b6001816000016000828254019250508190555050565b61217d848484846040516024016120fb9493929190613bf0565b6040516020818303038152906040527f58497afe000000000000000000000000000000000000000000000000000000007bffffffffffffffffffffffffffffffffffffffffffffffffffffffff19166020820180517bffffffffffffffffffffffffffffffffffffffffffffffffffffffff838183161783525050505061143b565b50505050565b505050565b505050565b60006121ae8473ffffffffffffffffffffffffffffffffffffffff16612370565b15612308578373ffffffffffffffffffffffffffffffffffffffff1663150b7a026121d761153a565b8786866040518563ffffffff1660e01b81526004016121f99493929190613c91565b6020604051808303816000875af192505050801561223557506040513d601f19601f820116820180604052508101906122329190613cf2565b60015b6122b8573d8060008114612265576040519150601f19603f3d011682016040523d82523d6000602084013e61226a565b606091505b506000815114156122b0576040517f08c379a00000000000000000000000000000000000000000000000000000000081526004016122a7906139f2565b60405180910390fd5b805181602001fd5b63150b7a0260e01b7bffffffffffffffffffffffffffffffffffffffffffffffffffffffff1916817bffffffffffffffffffffffffffffffffffffffffffffffffffffffff19161491505061230d565b600190505b949350505050565b61231f8383612393565b61232c600084848461218d565b61236b576040517f08c379a0000000000000000000000000000000000000000000000000000000008152600401612362906139f2565b60405180910390fd5b505050565b6000808273ffffffffffffffffffffffffffffffffffffffff163b119050919050565b600073ffffffffffffffffffffffffffffffffffffffff168273ffffffffffffffffffffffffffffffffffffffff161415612403576040517f08c379a00000000000000000000000000000000000000000000000000000000081526004016123fa90613d6b565b60405180910390fd5b61240c816114ce565b1561244c576040517f08c379a000000000000000000000000000000000000000000000000000000000815260040161244390613dd7565b60405180910390fd5b61245860008383612183565b6001600360008473ffffffffffffffffffffffffffffffffffffffff1673ffffffffffffffffffffffffffffffffffffffff16815260200190815260200160002060008282546124a8919061382d565b92505081905550816002600083815260200190815260200160002060006101000a81548173ffffffffffffffffffffffffffffffffffffffff021916908373ffffffffffffffffffffffffffffffffffffffff160217905550808273ffffffffffffffffffffffffffffffffffffffff16600073ffffffffffffffffffffffffffffffffffffffff167fddf252ad1be2c89b69c2b068fc378daa952ba7f163c4a11628f55a4df523b3ef60405160405180910390a461256960008383612188565b5050565b82805461257990612c62565b90600052602060002090601f01602090048101928261259b57600085556125e2565b82601f106125b457805160ff19168380011785556125e2565b828001600101855582156125e2579182015b828111156125e15782518255916020019190600101906125c6565b5b5090506125ef91906125f3565b5090565b5b8082111561260c5760008160009055506001016125f4565b5090565b600073ffffffffffffffffffffffffffffffffffffffff82169050919050565b600061263b82612610565b9050919050565b61264b81612630565b82525050565b6000819050919050565b61266481612651565b82525050565b600060408201905061267f6000830185612642565b61268c602083018461265b565b9392505050565b6000604051905090565b600080fd5b600080fd5b60007fffffffff0000000000000000000000000000000000000000000000000000000082169050919050565b6126dc816126a7565b81146126e757600080fd5b50565b6000813590506126f9816126d3565b92915050565b6000602082840312156127155761271461269d565b5b6000612723848285016126ea565b91505092915050565b60008115159050919050565b6127418161272c565b82525050565b600060208201905061275c6000830184612738565b92915050565b600081519050919050565b600082825260208201905092915050565b60005b8381101561279c578082015181840152602081019050612781565b838111156127ab576000848401525b50505050565b6000601f19601f8301169050919050565b60006127cd82612762565b6127d7818561276d565b93506127e781856020860161277e565b6127f0816127b1565b840191505092915050565b6000602082019050818103600083015261281581846127c2565b905092915050565b61282681612651565b811461283157600080fd5b50565b6000813590506128438161281d565b92915050565b60006020828403121561285f5761285e61269d565b5b600061286d84828501612834565b91505092915050565b600060208201905061288b6000830184612642565b92915050565b61289a81612630565b81146128a557600080fd5b50565b6000813590506128b781612891565b92915050565b600080604083850312156128d4576128d361269d565b5b60006128e2858286016128a8565b92505060206128f385828601612834565b9150509250929050565b6000806000606084860312156129165761291561269d565b5b6000612924868287016128a8565b9350506020612935868287016128a8565b925050604061294686828701612834565b9150509250925092565b6000602082840312156129665761296561269d565b5b6000612974848285016128a8565b91505092915050565b6000602082019050612992600083018461265b565b92915050565b6129a18161272c565b81146129ac57600080fd5b50565b6000813590506129be81612998565b92915050565b600080604083850312156129db576129da61269d565b5b60006129e9858286016128a8565b92505060206129fa858286016129af565b9150509250929050565b600080fd5b600080fd5b7f4e487b7100000000000000000000000000000000000000000000000000000000600052604160045260246000fd5b612a46826127b1565b810181811067ffffffffffffffff82111715612a6557612a64612a0e565b5b80604052505050565b6000612a78612693565b9050612a848282612a3d565b919050565b600067ffffffffffffffff821115612aa457612aa3612a0e565b5b612aad826127b1565b9050602081019050919050565b82818337600083830152505050565b6000612adc612ad784612a89565b612a6e565b905082815260208101848484011115612af857612af7612a09565b5b612b03848285612aba565b509392505050565b600082601f830112612b2057612b1f612a04565b5b8135612b30848260208601612ac9565b91505092915050565b60008060008060808587031215612b5357612b5261269d565b5b6000612b61878288016128a8565b9450506020612b72878288016128a8565b9350506040612b8387828801612834565b925050606085013567ffffffffffffffff811115612ba457612ba36126a2565b5b612bb087828801612b0b565b91505092959194509250565b60008060408385031215612bd357612bd261269d565b5b6000612be1858286016128a8565b9250506020612bf2858286016128a8565b9150509250929050565b6000606082019050612c116000830186612642565b612c1e602083018561265b565b612c2b604083018461265b565b949350505050565b7f4e487b7100000000000000000000000000000000000000000000000000000000600052602260045260246000fd5b60006002820490506001821680612c7a57607f821691505b60208210811415612c8e57612c8d612c33565b5b50919050565b7f4552433732313a20617070726f76656420717565727920666f72206e6f6e657860008201527f697374656e7420746f6b656e0000000000000000000000000000000000000000602082015250565b6000612cf0602c8361276d565b9150612cfb82612c94565b604082019050919050565b60006020820190508181036000830152612d1f81612ce3565b9050919050565b7f4552433732313a20617070726f76616c20746f2063757272656e74206f776e6560008201527f7200000000000000000000000000000000000000000000000000000000000000602082015250565b6000612d8260218361276d565b9150612d8d82612d26565b604082019050919050565b60006020820190508181036000830152612db181612d75565b9050919050565b7f4552433732313a20617070726f76652063616c6c6572206973206e6f74206f7760008201527f6e6572206e6f7220617070726f76656420666f7220616c6c0000000000000000602082015250565b6000612e1460388361276d565b9150612e1f82612db8565b604082019050919050565b60006020820190508181036000830152612e4381612e07565b9050919050565b7f4552433732313a207472616e736665722063616c6c6572206973206e6f74206f60008201527f776e6572206e6f7220617070726f766564000000000000000000000000000000602082015250565b6000612ea660318361276d565b9150612eb182612e4a565b604082019050919050565b60006020820190508181036000830152612ed581612e99565b9050919050565b600081905092915050565b7f46495253545f574f524400000000000000000000000000000000000000000000600082015250565b6000612f1d600a83612edc565b9150612f2882612ee7565b600a82019050919050565b6000612f3e82612762565b612f488185612edc565b9350612f5881856020860161277e565b80840191505092915050565b6000612f6f82612f10565b9150612f7b8284612f33565b915081905092915050565b7f4e487b7100000000000000000000000000000000000000000000000000000000600052601260045260246000fd5b6000612fc082612651565b9150612fcb83612651565b925082612fdb57612fda612f86565b5b828206905092915050565b7f4e487b7100000000000000000000000000000000000000000000000000000000600052603260045260246000fd5b7f4552433732313a206f776e657220717565727920666f72206e6f6e657869737460008201527f656e7420746f6b656e0000000000000000000000000000000000000000000000602082015250565b600061307160298361276d565b915061307c82613015565b604082019050919050565b600060208201905081810360008301526130a081613064565b9050919050565b7f4552433732313a2062616c616e636520717565727920666f7220746865207a6560008201527f726f206164647265737300000000000000000000000000000000000000000000602082015250565b6000613103602a8361276d565b915061310e826130a7565b604082019050919050565b60006020820190508181036000830152613132816130f6565b9050919050565b7f5345434f4e445f574f5244000000000000000000000000000000000000000000600082015250565b600061316f600b83612edc565b915061317a82613139565b600b82019050919050565b600061319082613162565b915061319c8284612f33565b915081905092915050565b7f54484952445f574f524400000000000000000000000000000000000000000000600082015250565b60006131dd600a83612edc565b91506131e8826131a7565b600a82019050919050565b60006131fe826131d0565b915061320a8284612f33565b915081905092915050565b7f45524337323155524953746f726167653a2055524920717565727920666f722060008201527f6e6f6e6578697374656e7420746f6b656e000000000000000000000000000000602082015250565b600061327160318361276d565b915061327c82613215565b604082019050919050565b600060208201905081810360008301526132a081613264565b9050919050565b60006132b38285612f33565b91506132bf8284612f33565b91508190509392505050565b60006132d78286612f33565b91506132e38285612f33565b91506132ef8284612f33565b9150819050949350505050565b60008190508160005260206000209050919050565b6000815461331e81612c62565b6133288186612edc565b94506001821660008114613343576001811461335457613387565b60ff19831686528186019350613387565b61335d856132fc565b60005b8381101561337f57815481890152600182019150602081019050613360565b838801955050505b50505092915050565b7f3c2f746578743e3c2f7376673e00000000000000000000000000000000000000600082015250565b60006133c6600d83612edc565b91506133d182613390565b600d82019050919050565b60006133e88285613311565b91506133f48284612f33565b91506133ff826133b9565b91508190509392505050565b7f7b226e616d65223a202200000000000000000000000000000000000000000000600082015250565b6000613441600a83612edc565b915061344c8261340b565b600a82019050919050565b7f222c20226465736372697074696f6e223a20224120686967686c79206163636c60008201527f61696d656420636f6c6c656374696f6e206f6620737175617265732e222c202260208201527f696d616765223a2022646174613a696d6167652f7376672b786d6c3b6261736560408201527f36342c0000000000000000000000000000000000000000000000000000000000606082015250565b60006134ff606383612edc565b915061350a82613457565b606382019050919050565b7f227d000000000000000000000000000000000000000000000000000000000000600082015250565b600061354b600283612edc565b915061355682613515565b600282019050919050565b600061356c82613434565b91506135788285612f33565b9150613583826134f2565b915061358f8284612f33565b915061359a8261353e565b91508190509392505050565b7f646174613a6170706c69636174696f6e2f6a736f6e3b6261736536342c000000600082015250565b60006135dc601d83612edc565b91506135e7826135a6565b601d82019050919050565b60006135fd826135cf565b91506136098284612f33565b915081905092915050565b7f4552433732313a206f70657261746f7220717565727920666f72206e6f6e657860008201527f697374656e7420746f6b656e0000000000000000000000000000000000000000602082015250565b6000613670602c8361276d565b915061367b82613614565b604082019050919050565b6000602082019050818103600083015261369f81613663565b9050919050565b7f4552433732313a207472616e736665722066726f6d20696e636f72726563742060008201527f6f776e6572000000000000000000000000000000000000000000000000000000602082015250565b600061370260258361276d565b915061370d826136a6565b604082019050919050565b60006020820190508181036000830152613731816136f5565b9050919050565b7f4552433732313a207472616e7366657220746f20746865207a65726f2061646460008201527f7265737300000000000000000000000000000000000000000000000000000000602082015250565b600061379460248361276d565b915061379f82613738565b604082019050919050565b600060208201905081810360008301526137c381613787565b9050919050565b7f4e487b7100000000000000000000000000000000000000000000000000000000600052601160045260246000fd5b600061380482612651565b915061380f83612651565b925082821015613822576138216137ca565b5b828203905092915050565b600061383882612651565b915061384383612651565b9250827fffffffffffffffffffffffffffffffffffffffffffffffffffffffffffffffff03821115613878576138776137ca565b5b828201905092915050565b600061388e82612651565b91507fffffffffffffffffffffffffffffffffffffffffffffffffffffffffffffffff8214156138c1576138c06137ca565b5b600182019050919050565b60006138d782612651565b91506138e283612651565b9250826138f2576138f1612f86565b5b828204905092915050565b60006139098284612f33565b915081905092915050565b7f4552433732313a20617070726f766520746f2063616c6c657200000000000000600082015250565b600061394a60198361276d565b915061395582613914565b602082019050919050565b600060208201905081810360008301526139798161393d565b9050919050565b7f4552433732313a207472616e7366657220746f206e6f6e20455243373231526560008201527f63656976657220696d706c656d656e7465720000000000000000000000000000602082015250565b60006139dc60328361276d565b91506139e782613980565b604082019050919050565b60006020820190508181036000830152613a0b816139cf565b9050919050565b7f4552433732314d657461646174613a2055524920717565727920666f72206e6f60008201527f6e6578697374656e7420746f6b656e0000000000000000000000000000000000602082015250565b6000613a6e602f8361276d565b9150613a7982613a12565b604082019050919050565b60006020820190508181036000830152613a9d81613a61565b9050919050565b6000604082019050613ab96000830185612642565b8181036020830152613acb81846127c2565b90509392505050565b6000604082019050613ae9600083018561265b565b8181036020830152613afb81846127c2565b90509392505050565b6000613b0f82612651565b9150613b1a83612651565b9250817fffffffffffffffffffffffffffffffffffffffffffffffffffffffffffffffff0483118215151615613b5357613b526137ca565b5b828202905092915050565b7f45524337323155524953746f726167653a2055524920736574206f66206e6f6e60008201527f6578697374656e7420746f6b656e000000000000000000000000000000000000602082015250565b6000613bba602e8361276d565b9150613bc582613b5e565b604082019050919050565b60006020820190508181036000830152613be981613bad565b9050919050565b60006080820190508181036000830152613c0a81876127c2565b9050613c19602083018661265b565b613c266040830185612642565b613c33606083018461265b565b95945050505050565b600081519050919050565b600082825260208201905092915050565b6000613c6382613c3c565b613c6d8185613c47565b9350613c7d81856020860161277e565b613c86816127b1565b840191505092915050565b6000608082019050613ca66000830187612642565b613cb36020830186612642565b613cc0604083018561265b565b8181036060830152613cd28184613c58565b905095945050505050565b600081519050613cec816126d3565b92915050565b600060208284031215613d0857613d0761269d565b5b6000613d1684828501613cdd565b91505092915050565b7f4552433732313a206d696e7420746f20746865207a65726f2061646472657373600082015250565b6000613d5560208361276d565b9150613d6082613d1f565b602082019050919050565b60006020820190508181036000830152613d8481613d48565b9050919050565b7f4552433732313a20746f6b656e20616c7265616479206d696e74656400000000600082015250565b6000613dc1601c8361276d565b9150613dcc82613d8b565b602082019050919050565b60006020820190508181036000830152613df081613db4565b905091905056fe416e204e465420772f20494420257320686173206265656e206d696e74656420746f2025734142434445464748494a4b4c4d4e4f505152535455565758595a6162636465666768696a6b6c6d6e6f707172737475767778797a303132333435363738392b2fa2646970667358221220f053107aff1823482d29e688b88c2196cdb287a49b6358d56b81fb9c5456f9b464736f6c634300080a00333c73766720786d6c6e733d27687474703a2f2f7777772e77332e6f72672f323030302f73766727207072657365727665417370656374526174696f3d27784d696e594d696e206d656574272076696577426f783d273020302033353020333530273e3c7374796c653e2e62617365207b2066696c6c3a2077686974653b20666f6e742d66616d696c793a2073657269663b20666f6e742d73697a653a20323470783b207d3c2f7374796c653e3c726563742077696474683d273130302527206865696768743d2731303025272066696c6c3d27626c61636b27202f3e3c7465787420783d273530252720793d273530252720636c6173733d27626173652720646f6d696e616e742d626173656c696e653d276d6964646c652720746578742d616e63686f723d276d6964646c65273e",
  "linkReferences": {},
  "deployedLinkReferences": {}
}